:1000000045C0000061C000005FC000005DC000008E
:100010000C94550859C0000057C0000055C000009E
:1000200053C0000020C700004FC000004DC00000BA
:100030004BC000007AC7000047C0000045C0000068
:1000400043C0000041C000003FC000003DC00000B0
:100050003BC0000039C0000037C0000035C00000C0
:10006000C5C7000031C000000C94350A2DC0000047
:100070002BC0000029C0000027C0000025C00000E0
:1000800023C0000021C000001FC0000011241FBEBB
:10009000CFEFD0E4DEBFCDBF11E1A0E0B1E0EAEBED
:1000A000FBE100E00BBF02C007900D92AA36B1073A
:1000B000D9F728E1AAE6B1E101C01D92AA38B2073A
:1000C000E1F701D70C94DB0D9BCFBC0180E090E001
:1000D0000E949B0C20E030E04AE751E40E94510D61
:1000E0000E946F0C70938900609388000895BC0192
:1000F00080E090E00E949B0C20E030E04AE751E471
:100100000E94510D0E946F0C7093890060938800CB
:100110000895E1E8F0E0808185608083E1EBF0E024
:1001200080818560808388EE93E0CFDF88EE93E066
:10013000DEDFEFE6F0E0808182608083E0E7F0E0E0
:1001400080818260808310928500109284001092DA
:10015000B20008955E9A8FE39CE90197F1F700C021
:1001600000008BB11BB808958FEF84B98AB1806EFF
:100170008AB98BB11BB82FE783E891E0215080400A
:100180009040E1F700C0000088E385B9E3DF25ED8A
:100190002A95F1F700008FE085B9DCDF85ED8A95BF
:1001A000F1F7000081E085B9D5DF8FE39FE101978A
:1001B000F1F700C0000086E085B9CCCF2BB11BB8A9
:1001C0008230910541F08330910541F0019749F06B
:1001D00080E890E008C080E990E005C080ED90E004
:1001E00002C080EC90E0680F791F65B9B3CF5D98CD
:1001F0005F9AB0DF14B883B19FEF94B95D9A089508
:10020000CF93DF93C82FDFEF15B814B85D985F9ACE
:1002100085E38A95F1F700009DDF1F9B03C05F987F
:10022000D4B9F2CF5F989FEF94B95D9AC5B992DFC8
:10023000DEDF843579F028F4803431F08035D9F46C
:100240000FC08436C1F412C060E070E081E090E03D
:10025000B5DF11C060E070E082E090E0AFDF0BC07E
:1002600060E070E083E090E0A9DF05C060E070E04E
:1002700080E090E0A3DFDF91CF910895EF92FF92AD
:100280000F931F93CF93DF937B011616170634F558
:10029000082F192FC0E0D0E0C031D10531F460E063
:1002A00070E081E090E08ADF11C0C032D10531F406
:1002B00060E070E082E090E081DF08C0C033D105EB
:1002C00029F460E070E083E090E078DFF80181914C
:1002D0008F0196DF2196CE15DF05F1F6DF91CF91E4
:1002E0001F910F91FF90EF900895EF92FF920F935F
:1002F0001F93CF93DF93E82EF92E082F192FC0E01C
:10030000D0E005C0F80181918F017ADF2196EE2DB2
:10031000FF2DDF010D900020E9F71197AE1BBF0BF9
:10032000CA17DB0778F3DF91CF911F910F91FF90F0
:10033000EF900895FC019081915084812281821B6D
:10034000892308951F93CF93DF93EC01162FF2DFDB
:10035000288139812150310990E08217930769F093
:100360008C819D81FE01E80FF91F168301962823D9
:1003700039233D832C8380E001C081E0DF91CF9160
:100380001F9108950F931F93CF93DF93EC018B017F
:10039000D1DF8823A1F0EA81FB81EC0FFD1F86816C
:1003A000F801808328813981215031098A819B811C
:1003B0000196822393239B838A8380E001C081E09E
:1003C000DF91CF911F910F9108954F925F926F929D
:1003D0007F928F929F92AF92BF92CF92DF92EF92D5
:1003E000FF920F931F938AE999E9A9E4B0E48093FF
:1003F000841690938516A0938616B093871680E096
:1004000090E0A0ECB0E48093881690938916A093B6
:100410008A16B0938B1682E598EBAEE3B0E4809336
:100420008C1690938D16A0938E16B0938F1680E045
:1004300090E0A0EEB0E48093901690939116A09374
:100440009216B093931600E010E020E330E400939E
:10045000941610939516209396163093971680E075
:1004600090E0A0E0B1E48093981690939916A09341
:100470009A16B0939B168AE097EDA3E1B0E48093BF
:100480009C1690939D16A0939E16B0939F1680E0A5
:1004900090E0A0E2B1E48093A0169093A116A093FF
:1004A000A216B093A31685E89BEEA1EDBFE380935F
:1004B000A4169093A516A093A616B093A7160F2E78
:1004C000412C512CF0E76F2EF1E47F2EF02D40925D
:1004D000A8165092A9166092AA167092AB1684E1E3
:1004E0009EEAA7EABFE38093AC169093AD16A09363
:1004F000AE16B093AF160F2E812C912CF0EAAF2ED2
:10050000F1E4BF2EF02D8092B0169092B116A09219
:10051000B216B092B31681E79DE3AAE8BFE38093D9
:10052000B4169093B516A093B616B093B71680E0A4
:1005300090E0A8ECB1E48093B8169093B916A0931C
:10054000BA16B093BB168FE195E8ABE6BFE3809394
:10055000BC169093BD16A093BE16B093BF160F2E77
:10056000C12CD12CF0EFEF2EF1E4FF2EF02DC09234
:10057000C016D092C116E092C216F092C31684EA59
:1005800090E7ADE3BFE38093C4169093C516A093A4
:10059000C616B093C71680E090E0A0E2B2E4809364
:1005A000C8169093C916A093CA16B093CB1686EFBF
:1005B00098E2ACE1BFE38093CC169093CD16A09364
:1005C000CE16B093CF1600E010E028E432E400939A
:1005D000D0161093D1162093D2163093D3168CE5F3
:1005E0009FE8A2E0BFE38093D4169093D516A09322
:1005F000D616B093D71680E090E0A0E7B2E48093DF
:10060000D8169093D916A093DA16B093DB1606E6A7
:1006100016E626EE3EE30093DC161093DD162093DB
:10062000DE163093DF1640E050E06CE872E4409351
:10063000E0165093E1166093E2167093E31685E896
:100640009BEEA1EDBEE38093E4169093E516A09394
:10065000E616B093E71680E090E0A0EAB2E480935B
:10066000E8169093E916A093EA16B093EB1600E013
:1006700010E020E330E40093EC161093ED16209385
:10068000EE163093EF164092F0165092F1166092EB
:10069000F2167092F3160F2EF3E34F2E542CF3E262
:1006A0006F2EF0E47F2EF02D4092F4165092F51646
:1006B0006092F6167092F7168092F8169092F916DC
:1006C000A092FA16B092FB16812C912C54016894DA
:1006D000B6F88092FC169092FD16A092FE16B0928B
:1006E000FF16C0920017D0920117E0920217F09205
:1006F00003170F2EF6E6CF2EDC2CF6ECEF2EFFE3E1
:10070000FF2EF02DC0920417D0920517E092061725
:10071000F092071700E010E020E232E4009308179F
:100720001093091720930A1730930B1700E010E07D
:1007300020EA3FE300930C1710930D1720930E1738
:1007400030930F1700E010E028E432E40093101714
:1007500010931117209312173093131703EC15EF12
:1007600028E83FE3009314171093151720931617EA
:100770003093171700E010E020E732E400931817D9
:100780001093191720931A1730931B170AE919E9C8
:1007900029E53FE300931C1710931D1720931E17A4
:1007A00030931F17409320175093211760932217FF
:1007B000709323174DEC5CEC6CE47FE340932417BB
:1007C0005093251760932617709327178093281747
:1007D00090932917A0932A17B0932B1780E090E0ED
:1007E000A0E4BFE380932C1790932D17A0932E17AE
:1007F000B0932F1780E090E0A4EBB2E48093301721
:1008000090933117A0933217B093331786E696E68C
:10081000A6E2BFE38093341790933517A093361761
:10082000B093371780E090E0A8ECB2E480933817DB
:1008300090933917A0933A17B0933B178AE999E937
:10084000A9E1BFE380933C1790933D17A0933E1717
:10085000B0933F1780E090E0ACEDB2E48093401796
:1008600090934117A0934217B09343178DEC9CECE3
:10087000ACE0BFE38093441790934517A0934617CD
:10088000B093471780E090E0A0EFB2E48093481760
:1008900090934917A0934A17B0934B1780E090E0CC
:1008A000A0E0BFE380934C1790934D17A0934E1791
:1008B000B0934F1780E090E0A2E0B3E4809350172C
:1008C00090935117A0935217B093531786E696E66C
:1008D000A6EEBEE38093541790935517A093561736
:1008E000B093571780E090E0ACE0B3E480935817E2
:1008F00090935917A0935A17B0935B178DE39AE022
:10090000A7EDBEE380935C1790935D17A0935E17ED
:10091000B0935F1780E090E0A6E1B3E480936017A6
:1009200090936117A0936217B09363171F910F9173
:10093000FF90EF90DF90CF90BF90AF909F908F90FF
:100940007F906F905F904F9008952F923F924F92BB
:100950005F926F927F928F929F92AF92BF92CF924F
:10096000DF92EF92FF920F931F93CF93DF93CDB758
:10097000DEB728970FB6F894DEBF0FBECDBF6B0170
:100980007C018090841690908516A0908616B09079
:1009900087169B01AC01C501B40130D7181684F04D
:1009A00020E030E040E251E46091881670918916B1
:1009B00080918A1690918B160E94510D8BD7E8C0BA
:1009C0002091E4163091E5164091E6165091E71615
:1009D000C701B60113D7181684F440908C165090B6
:1009E0008D1660908E1670908F16A7019601C30128
:1009F000B20104D7811146C02DC020E030E040E2B2
:100A000051E46091E8167091E9168091EA16909190
:100A1000EB160E94510D5ED7BBC0D8018D909D9002
:100A2000AD90BC902D803E80BFEF2B1A3B0A085F33
:100A30001F4FF80140805180628073802D813E817C
:100A40003A832983A7019601C301B201D7D6811148
:100A500022C003C022242394312CF101EE0FFF1F8A
:100A6000EE0FFF1FEE0FFF1FEC57F94E20E030E0B6
:100A700040E251E464817581868197810E94510D25
:100A800029D786C00CE816E181E090E09E838D8333
:100A90001A82198202C03E822D82A5019401C701EB
:100AA000B601ACD688230CF06BC0A3019201C7013C
:100AB000B601F3D718160CF063C0E981FA81EE0F86
:100AC000FF1FEE0FFF1FEE0FFF1FEC57F94E20E048
:100AD00030E040E251E46481758186819781E1D7FD
:100AE000F9D68B01882777FD8095982F26D76983C3
:100AF0007A838B839C838D819E81880F991F880FB9
:100B0000991F880F991F8C57994E20E030E040E2E2
:100B100051E4DC0114966D917D918D919C91179714
:100B2000C0D7D8D6F801E61BF70BBF01882777FDA1
:100B30008095982F02D76D837E838F839887A70136
:100B40009601C501B401F5D59B01AC016D817E8193
:100B50008F819885A6D76B017C01A3019201C50105
:100B6000B401E7D59B01AC01C701B6014BD69B018F
:100B7000AC0169817A818B819C81DBD5ABD608C0C1
:100B80002D813E812D30310509F047CF60E070E0C6
:100B9000862F972F28960FB6F894DEBF0FBECDBFD5
:100BA000DF91CF911F910F91FF90EF90DF90CF9049
:100BB000BF90AF909F908F907F906F905F904F907D
:100BC0003F902F9008952F923F924F925F926F9295
:100BD0007F928F929F92AF92BF92CF92DF92EF92CD
:100BE000FF920F931F93CF93DF93CDB7DEB7289774
:100BF0000FB6F894DEBF0FBECDBF6B017C018090B5
:100C0000EC169090ED16A090EE16B090EF169B01AA
:100C1000AC01C501B401F2D518167CF020E030E03B
:100C200040E251E46091F0167091F1168091F21655
:100C30009091F31636D74ED6E6C020915C173091CE
:100C40005D1740915E1750915F17C701B601D6D569
:100C5000181684F44090F4165090F5166090F6162D
:100C60007090F716A7019601C301B201C7D5811193
:100C700044C02CC020E030E040E251E460916017B5
:100C80007091611780916217909163170AD722D6ED
:100C9000BAC0D8018D909D90AD90BC902D803E80C3
:100CA000BFEF2B1A3B0A085F1F4FF80140805180AD
:100CB000628073802D813E813A832983A70196014A
:100CC000C301B2019BD5811121C003C0222423940A
:100CD000312CF101EE0FFF1FEE0FFF1FEE0FFF1F74
:100CE000E451F94E20E030E040E251E46481758146
:100CF00086819781D6D6EED586C004EF16E181E0D5
:100D000090E09E838D831A82198202C03E822D82DA
:100D1000A5019401C701B60171D588230CF06BC001
:100D2000A3019201C701B601B8D618160CF063C032
:100D3000E981FA81EE0FFF1FEE0FFF1FEE0FFF1F7D
:100D4000E451F94E20E030E040E251E464817581E5
:100D500086819781A6D6BED58B01882777FD8095A1
:100D6000982FEBD569837A838B839C838D819E81B9
:100D7000880F991F880F991F880F991F8451994ECA
:100D800020E030E040E251E4DC0114966D917D9169
:100D90008D919C91179785D69DD5F801E61BF70B91
:100DA000BF01882777FD8095982FC7D56D837E83F7
:100DB0008F839887A7019601C501B401BAD49B011E
:100DC000AC016D817E818F8198856BD66B017C0132
:100DD000A3019201C501B401ACD49B01AC01C701D0
:100DE000B60110D59B01AC0169817A818B819C8110
:100DF000A0D470D508C02D813E812D30310509F079
:100E000048CF60E070E0862F972F28960FB6F894B1
:100E1000DEBF0FBECDBFDF91CF911F910F91FF902D
:100E2000EF90DF90CF90BF90AF909F908F907F908A
:100E30006F905F904F903F902F90089581B18E6397
:100E400081B90898159882B1817E82B90895509A27
:100E500081E08093680080E480936B000F9A0E9885
:100E600085E085BD08951F920F920FB60F92112451
:100E70000BB60F922F933F934F935F936F937F9394
:100E80008F939F93AF93BF93EF93FF9334D21092BE
:100E9000B200FF91EF91BF91AF919F918F917F91A0
:100EA0006F915F914F913F912F910F900BBE0F90DB
:100EB0000FBE0F901F9018958FE880937A0080E600
:100EC00080937C000895CF93DF931F92CDB7DEB758
:100ED0004BD980E4A7D11DD9EFDF77DA88E091E123
:100EE00004DA2FEF83ED90E3215080409040E1F74A
:100EF00000C00000A3DFABDF81E682D978D9898307
:100F0000BE016F5F7F4F80E8B0D12FEF83ED90E39C
:100F1000215080409040E1F700C00000EDCFEAE7AB
:100F2000F0E080818064808308951F920F920FB655
:100F30000F9211240BB60F922F933F934F935F9311
:100F40006F937F938F939F93AF93BF93EF93FF9391
:100F5000E6DF1092850010928400FF91EF91BF911F
:100F6000AF919F918F917F916F915F914F913F9141
:100F70002F910F900BBE0F900FBE0F901F901895E2
:100F800080936B1122B1217E22B983309105B9F093
:100F90003CF48130910569F074F4892B41F0089597
:100FA0008530910591F06CF00697B1F412C0119A5A
:100FB0000895129A089582B1866082B90895139AAD
:100FC000089582B18A6082B9089582B18C6082B935
:100FD000089582B18E6082B9089516BC179A80E593
:100FE0008A95F1F7179881E090E008951F920F928B
:100FF0000FB60F9211240BB60F922F933F934F937E
:101000005F936F937F938F939F93AF93BF93CF9390
:10101000EF93FF93F8946091790070E080E090E0A6
:101020008CD420E030E040EA50E43BD520E030E0D2
:1010300040E85BE336D5C0916B11C43049F4C3DDA1
:101040006AE070E091D570937B1660937A160EC0BB
:101050007CDCEC2FF0E0EE0FFF1FEE58F94E6AE05B
:1010600070E082D571836083C63030F48C2F90E0BD
:10107000019686DF54DF04C080E090E081DFADDFC1
:101080007894FF91EF91CF91BF91AF919F918F9104
:101090007F916F915F914F913F912F910F900BBE78
:1010A0000F900FBE0F901F9018951F920F920FB6C2
:1010B0000F9211240BB60F928F93EF93FF93F89436
:1010C000069B02C016BC0CC086B580938216109297
:1010D0008316E0E8F6E18083118281E080936A1153
:1010E0007894FF91EF918F910F900BBE0F900FBEF0
:1010F0000F901F90189585E48093BC00089581ECB3
:101100008093BC00089584EA8093BC00089585ED27
:101110008093BC0008958091B900887F883309F0DE
:10112000F6CFEDCF8091BB000895ECEBF0E080812D
:101130008823ECF708958093BB0084E88093BC007B
:10114000F4CF10927718109276181092821810929D
:10115000811810927B1810927A1810927E181092B3
:101160007D180895ECEBF0E08081806C8083089519
:10117000CF93DF93C0918118D0918218C730D105E9
:1011800091F4E8E6F7E1A3E8B8E18FE697E1219171
:101190002D93E817F907D9F7C5DF80937C1881E014
:1011A000809371110DC0BEDFC859D84E88838091DD
:1011B00081189091821801969093821880938118DB
:1011C000DF91CF910895CF93DF93C0917D18D09197
:1011D0007E18A8DFCD58D74E888310927E181092C3
:1011E0007D18DF91CF9108959DDF80937118089548
:1011F000CF93DF93C0917A18D0917B1893DFCE58AC
:10120000D84E888380917A1890917B18019690939C
:101210007B1880937A189093651780936417DF91F9
:10122000CF91089580937F18803479F0803819F039
:101230008032D1F412C083E088B95DDF8FE3809300
:10124000B80081E88093BA0008958FE38093B800D6
:1012500052DF80E48093BA0008958FE38093B80052
:101260004ADF81E28093BA000895EF92FF920F93D4
:101270001F93CF93DF93C82FE62EF72E44DF55DF61
:101280009091B900987F983019F045DF80E02CC02C
:101290008C2F51DF8091B900887F883119F03BDFB6
:1012A00080E022C089E147DF8091B900887F8832E1
:1012B00029F40E2D1F2DC0E0D0E008C02CDF80E007
:1012C00013C0F80181918F0136DF2196EE2DFF2D9D
:1012D000DF010D900020E9F71197AE1BBF0BCA1775
:1012E000DB0778F314DF81E0DF91CF911F910F913D
:1012F000FF90EF9008958F929F92AF92BF92CF92FE
:10130000DF92EF92FF920F931F93CF93DF93CDB7AE
:10131000DEB7ADB6BEB660E070E08091000190919E
:10132000010130D8811143C0C0900000D12C96013A
:101330002150310981E090E0C114D10411F080E026
:1013400090E0820F931F2DB73EB7281B390B0FB6C5
:10135000F8943EBF0FBE2DBF2F5F3F4F822E932EBE
:101360001C141D04ECF4E22EF32E00E010E060E00B
:1013700070E0809100019091010104D8882331F040
:1013800082E491E10E94750181E012C02091000089
:10139000F70121937F010F5F1F4F0C151D053CF3D3
:1013A000B601882D992D0E943E0180E001C081E0A8
:1013B0000FB6F894BEBE0FBEADBEDF91CF911F91A8
:1013C0000F91FF90EF90DF90CF90BF90AF909F90E4
:1013D0008F900895EF92FF920F931F93CF93DF9317
:1013E000E82EF92EE82FF92FDF010D900020E9F704
:1013F0001197BD016E1B7F0B80910001909101013F
:101400000E94A201811105C00E2D1F2DC0E0D0E069
:1014100018C080E591E10E94750181E01FC0F801CC
:1014200061918F0180910001909101010E94A201C0
:10143000882331F08DE591E10E94750181E00EC0B5
:101440002196EE2DFF2DDF010D900020E9F7119779
:10145000AE1BBF0BCA17DB0710F380E0DF91CF9103
:101460001F910F91FF90EF9008951F920F920FB66A
:101470000F9211240BB60F922F933F934F935F93CC
:101480006F937F938F939F93AF93BF93CF93DF938C
:10149000EF93FF9380917F18853009F430C148F4B1
:1014A000813009F428C108F41EC1843009F02CC130
:1014B0001EC1803409F457C0803821F0803209F011
:1014C00023C199C08091B900887F803629F080912E
:1014D000B900887F883621F481E08093721841C07A
:1014E0008091B900887F8038F1F480917218882348
:1014F00041F018DE809366171092671710927218E9
:1015000030C080916617909167178530910539F04A
:101510008931910531F0019721F555DE22C064DE55
:1015200020C066DE1EC08091B900887F803911F42A
:101530001FDE17C08091B900887F803A91F401DEE8
:1015400080916617909167178130910519F0059782
:1015500041F404C081E080936F1103C081E0809367
:101560006E1100DED1C08091B900887F803629F0ED
:101570008091B900887F883621F481E080937218C9
:1015800038C08091B900887F8038E1F4809172186A
:10159000882341F0C7DD8093661710926717109279
:1015A000721827C080916617909167178230910555
:1015B00019F04997F1F404C0B5DD8093801819C083
:1015C00017DE17C08091B900887F803A91F4B9DDA9
:1015D00080916617909167178230910519F04997AD
:1015E00041F404C081E080936C1103C082E797E16D
:1015F000F1DEB8DD89C08091B900887F803629F09E
:101600008091B900887F883621F481E08093721838
:101610007AC08091B900887F803809F057C08091E6
:101620007218882341F07EDD809366171092671749
:101630001092721868C08091661790916717813078
:10164000910509F43FC01CF4892B41F05CC0843043
:101650009105B1F0059709F056C036C0C0917618D3
:10166000D09177185FDDC159D84E88838091761864
:10167000909177180196909377188093761843C0CD
:1016800051DD2091781830917918A901480F511D2A
:10169000CA01181619063CF081E090E09093791881
:1016A0008093781830C0483051052CF45093791845
:1016B0004093781828C087E090E090937918809341
:1016C000781821C080DD1FC08FDD1DC08091B9005A
:1016D000887F803911F44CDD16C08091B900887F75
:1016E000803A89F42EDD81E0809370110DC081E095
:1016F00080936D1109C081E080936F1105C081E076
:1017000080936E1101C02EDDFF91EF91DF91CF919B
:10171000BF91AF919F918F917F916F915F914F9109
:101720003F912F910F900BBE0F900FBE0F901F9007
:1017300018955058BB27AA270ED075C166D130F036
:101740006BD120F031F49F3F11F41EF45BC10EF415
:10175000E095E7FB51C1E92F77D180F3BA17620713
:1017600073078407950718F071F49EF58FC10EF486
:10177000E0950B2EBA2FA02D0B01B90190010C01A1
:10178000CA01A0011124FF27591B99F0593F50F4B9
:10179000503E68F11A16F040A22F232F342F442711
:1017A000585FF3CF469537952795A795F040539509
:1017B000C9F77EF41F16BA0B620B730B840BBAF0D9
:1017C0009150A1F0FF0FBB1F661F771F881FC2F744
:1017D0000EC0BA0F621F731F841F48F48795779558
:1017E0006795B795F7959E3F08F0B3CF9395880F0F
:1017F00008F09927EE0F979587950895D9D008F4AA
:1018000081E008950CD00FC107D140F0FED030F038
:1018100021F45F3F19F0F0C0511139C1F3C014D168
:1018200098F39923C9F35523B1F3951B550BBB27A7
:10183000AA2762177307840738F09F5F5F4F220F54
:10184000331F441FAA1FA9F333D00E2E3AF0E0E84D
:1018500030D091505040E695001CCAF729D0FE2F99
:1018600027D0660F771F881FBB1F2617370748072B
:10187000AB07B0E809F0BB0B802DBF01FF279358E1
:101880005F4F2AF09E3F510568F0B6C000C15F3F30
:10189000ECF3983EDCF3869577956795B795F795C9
:1018A0009F5FC9F7880F911D9695879597F90895C1
:1018B000E1E0660F771F881FBB1F6217730784075D
:1018C000BA0720F0621B730B840BBA0BEE1F88F76C
:1018D000E095089504D06894B111D9C00895BCD0A2
:1018E00088F09F5790F0B92F9927B751A0F0D1F009
:1018F000660F771F881F991F1AF0BA95C9F712C093
:10190000B13081F0C3D0B1E00895C0C0672F782F07
:101910008827B85F39F0B93FCCF3869577956795FE
:10192000B395D9F73EF490958095709561957F4F6A
:101930008F4F9F4F0895E89409C097FB3EF4909510
:101940008095709561957F4F8F4F9F4F9923A9F098
:10195000F92F96E9BB279395F69587957795679527
:10196000B795F111F8CFFAF4BB0F11F460FF1BC06B
:101970006F5F7F4F8F4F9F4F16C0882311F096E9FE
:1019800011C0772321F09EE8872F762F05C06623AC
:1019900071F096E8862F70E060E02AF09A95660F65
:1019A000771F881FDAF7880F9695879597F908951E
:1019B000990F0008550FAA0BE0E8FEEF1616170660
:1019C000E807F907C0F012161306E407F50798F0C8
:1019D000621B730B840B950B39F40A2661F0232BE1
:1019E000242B252B21F408950A2609F4A140A6955D
:1019F0008FEF811D811D089597F99F6780E870E042
:101A000060E008959FEF80EC089500240A94161674
:101A1000170618060906089500240A9412161306DC
:101A2000140605060895092E0394000C11F488236A
:101A300052F0BB0F40F4BF2B11F460FF04C06F5F86
:101A40007F4F8F4F9F4F089557FD9058440F551F5C
:101A500059F05F3F71F04795880F97FB991F61F030
:101A60009F3F79F087950895121613061406551FA7
:101A7000F2CF4695F1DF08C0161617061806991F13
:101A8000F1CF86957105610508940895E894BB2708
:101A900066277727CB0197F908958ADF08F48FEF3F
:101AA00008950BD0C0CFB1DF28F0B6DF18F0952332
:101AB00009F0A2CFA7CF1124EACFC6DFA0F3959FEC
:101AC000D1F3950F50E0551F629FF001729FBB2725
:101AD000F00DB11D639FAA27F00DB11DAA1F649FD1
:101AE0006627B00DA11D661F829F2227B00DA11D84
:101AF000621F739FB00DA11D621F839FA00D611D0A
:101B0000221F749F3327A00D611D231F849F600D2A
:101B1000211D822F762F6A2F11249F5750408AF063
:101B2000E1F088234AF0EE0FFF1FBB1F661F771FEF
:101B3000881F91505040A9F79E3F510570F05CCF2F
:101B4000A6CF5F3FECF3983EDCF3869577956795DB
:101B5000B795F795E7959F5FC1F7FE2B880F911D0D
:101B60009695879597F9089597FB072E16F400949C
:101B700006D077FD08D00BD007FC05D03EF4909539
:101B800081959F4F0895709561957F4F0895AA1B89
:101B9000BB1B51E107C0AA1FBB1FA617B70710F058
:101BA000A61BB70B881F991F5A95A9F7809590958A
:0A1BB000BC01CD010895F894FFCFA9
:101BBA000201001000000000000000000000000008
:101BCA00000000000000000000000000000000000B
:101BDA0000000000000000000000000000000000FB
:101BEA0000000000000000000000000000000000EB
:101BFA0000000000000000000000000000000000DB
:102BBA00000000000000000054657374696E67200D
:102BCA0041444300303A2000313A2000323A200092
:102BDA00333A2000343A2000353A2000363A2000B1
:102BEA00373A2000496E6974696174696E672041D9
:102BFA0049004649464F204552524F522032210041
:102C0A004649464F204552524F52203300464946C4
:0A2C1A004F204552524F5220340063
:00000001FF
