S01A00004E617669676174696F6E73656E686574656E2E73726563A0
S11300006BC00000EEC6000016C7000083C00000ED
S1130010DFC700007FC000007DC000007BC000007F
S113002079C0000077C0000075C0000073C00000F4
S113003071C0000080C700006DC000006BC00000EC
S113004069C0000067C0000065C0000063C0000014
S11300500C94A90F5FC000005DC000005BC00000ED
S113006059C0000057C000000C94AB0A53C00000F4
S113007051C000004FC000004DC000004BC0000044
S113008068C7000047C0000045C00000084AD73BCD
S11300903BCE016E84BCBFFDC12F3D6C74319ABD53
S11300A056833DDA3D00C77F11BED9E4BB4C3E9177
S11300B06BAAAABE000000803F05A84CCDB2D44E66
S11300C0B93836A9020C50B9918688083CA6AAAA68
S11300D02ABE000000803F0011241FBECFEFD0E4F1
S11300E0DEBFCDBF13E1A0E0B1E0EAE1F6E200E05B
S11300F00BBF02C007900D92A63DB107D9F72AE1C4
S1130100A6EDB3E101C01D92AD35B207E1F7BDD64E
S11301100C940B1375CF8093D71308958091D71344
S113012008958091D713882329F06DE171E180E867
S11301300E945D0960E084EB90E00E94320D08C0EB
S11301400E946F0F8FE39CE90197F1F700C0000054
S11301500E945B0F8823A1F38091D713882329F091
S113016066E371E180E80C945D0908958F929F9293
S1130170AF92BF92CF92DF92EF92FF92CF93DF9331
S113018036D56B017C017DD34B015C0120E030E06E
S113019048E452E4C701B6010E9486129B01AC01F7
S11301A00E943F102BED3FE049E450E40E94D2103E
S11301B020E030E048E452E40E943F100E943A11EB
S11301C06436710534F4EB01DD232CF4C0E0D0E097
S11301D002C0C4E6D0E020E030E044EB52E4C501C4
S11301E0B4010E9486122BED3FE049EC50E40E94DA
S11301F0D2100E943A11262F409102016C2F822FB7
S11302000E94351075D2DF91CF91FF90EF90DF906F
S1130210CF90BF90AF909F908F9008958091D71307
S1130220882329F06BE571E180E80E945D0961E0B3
S11302308AE590E00E94320D08C00E946F0F8FE3A0
S11302409CE90197F1F700C000000E945B0F88232E
S1130250A1F302C08BDF03C045D28111FBCF809193
S1130260D713882329F063E771E180E80C945D09D2
S113027008958091D713882329F067E871E180E815
S11302800E945D0960E08AE590E00E94320D08C09A
S11302900E946F0F8FE39CE90197F1F700C0000003
S11302A00E945B0F8823A1F302C060DF03C01AD24F
S11302B08111FBCF8091D713882321F06EE971E17E
S11302C080E8FBC708950C943B0D0895CF92DF920C
S11302D0EF92FF928DD200D2882309F4C9C0C1D213
S11302E0823059F480910101811140C13FDF81E0E6
S11302F0809301011092D61349C184E090E031D279
S11303008D3308F47BC086E090E02BD2833208F072
S11303106CC08091D713882339F04EE050E061EB34
S113032071E180E80E94A30962D46B017C0120E0A2
S113033030E0A9010E94CB10882399F120E030E03D
S1130340A901C701B6010E947B12181654F4C70113
S1130350B6010E943F11DC01CB0160E00E94320D26
S11303601CC020E030E0A901C701B6010E94CB10F7
S113037088239CF4C701B60190580E943F11DC0108
S1130380CB0161E00E94320D08C00E946F0F8FE321
S11303909CE90197F1F700C000000E945B0F8823DD
S11303A0A1F3A6D199D19DE2899F802D112442E326
S11303B062E38A5E0E94351086DF08C00E946F0FD8
S11303C08FE39CE90197F1F700C000000E94650FDC
S11303D08823A1F38091D713882369F04AE050E081
S11303E060EC71E180E8AFD706C0C0DE81E08093A5
S11303F00101809300011092D613C8C022D282302A
S113040091F480910001882339F008DF10920001F3
S113041081E08093010104C0A9DE81E080930001A2
S11304201092D613B3C01DD281110CC00AD281110F
S113043009C084E090E095D1883220F472DE1092F5
S1130440D613A4C08091D6138A3038F48FDE8091FD
S1130450D6138F5F8093D61399C01092D61380E081
S113046044D149E350E06BEC71E180E86CD78EC075
S1130470E8D1823059F48091000181117FC076DE89
S113048081E0809300011092D61380C084E090E054
S113049068D18D3388F186E090E063D1833218F51A
S11304A08091D713882331F04EE050E061EB71E185
S11304B080E849D708DF08C00E946F0F8FE39CE9EA
S11304C00197F1F700C000000E94650F8823A1F393
S11304D08091D713882369F04AE050E060EC71E121
S11304E080E831D706C042DE81E080930101809329
S11304F000011092D6134AC0B4D1823091F4809195
S11305000101882339F0B5DE1092010181E0809366
S1130510000104C02BDE81E0809301011092D61308
S113052035C09FD181110CC08CD1811109C084E0E8
S113053090E017D1883220F4F4DD1092D61326C04F
S11305408091D6138A3038F411DE8091D6138F5FF0
S11305508093D6131BC01092D61380E0C6D049E313
S113056050E06BEC71E180E8EED610C0FFDD81DE77
S11305701092010181E080930001BCCEF7DD4EDED4
S11305801092000181E0809301017DCFFF90EF90F4
S1130590DF90CF900895BC0180E090E00E946B1141
S11305A020E030E04AE751E40E9486120E943F11A5
S11305B070938900609388000895BC0180E090E006
S11305C00E946B1120E030E04AE751E40E94861259
S11305D00E943F1170939900609398000895E1E898
S11305E0F0E0808185608083E1E9F0E080818560CE
S11305F0808388EE93E0CFDF88EE93E0DEDFEFE6E2
S1130600F0E0808182608083E1E7F0E080818260B5
S113061080831092850010928400109295001092AD
S113062094000895FC019081915084812281821B61
S1130630892308951F93CF93DF93EC01162FF2DFE4
S1130640288139812150310990E08217930769F09C
S11306508C819D81FE01E80FF91F168301962823E2
S113066039233D832C8380E001C081E0DF91CF9169
S11306701F9108950F931F93CF93DF93EC018B0188
S1130680D1DF8823A1F0EA81FB81EC0FFD1F868175
S1130690F801808328813981215031098A819B8125
S11306A00196822393239B838A8380E001C081E0A7
S11306B0DF91CF911F910F910895682F70E080E032
S11306C090E00E946B116093040170930501809384
S11306D0060190930701089580910801089580937D
S11306E008010895809103010895809303010895FA
S11306F008C00E946F0F8FE39CE90197F1F700C0D7
S113070000000E94510F8823A1F308950F931F93B3
S1130710CF93DF93C0E0D0E00091D91310E0CE0175
S11307209DD6FE01EE0FFF1FEE0FFF1FEC0FFD1F06
S11307300E0F1F1FF801E350FC4E80832196C83032
S1130740D10551F78091D913843019F41092D9133B
S113075003C08F5F8093D913DF91CF911F910F91C5
S11307600895CF93DF9300D000D01F92CDB7DEB7AA
S1130770FC01EE0FFF1FEE0FFF1F8E0F9F1FFC01EA
S1130780E350FC4E8081898381818A8382818B83BB
S113079083818C8384818D8324E030E00EC0419179
S11307A05081541720F4DF0111975C9340838E1716
S11307B09F07A9F72150310949F012161306D4F7FF
S11307C0FE013196CF01820F931FE9CF8B810F90E9
S11307D00F900F900F900F90DF91CF91089587E0C5
S11307E090E0BFDF91E0883208F090E0892F08950F
S11307F0F6DF882301F18091D81381111CC04BE1ED
S113080050E065E072E180E49ED52FEF86E791E049
S1130810215080409040E1F700C000007FDC892B2C
S113082031F04BE150E065E072E180E88CD581E085
S11308308093D8130895D3DF811102C01092D81386
S1130840089581E090E08DDF8C3340F481E090E006
S113085088DF91E0823318F490E001C092E0892FA0
S1130860089580E090E07DDF8C3340F480E090E0F8
S113087078DF91E0823318F490E001C092E0892F90
S11308800895CF92DF92EF92FF92CF93DF936B01A3
S11308907C0180910801882309F4A5C082E090E0DE
S11308A060DFC82F80E090E05CDF2C2F30E0A901EE
S11308B0481B5109CA0199231CF49195819591090A
S11308C00A970CF03CC080E090E04BDF8233B8F52F
S11308D082E090E046DFC82F80E090E042DFD82F2E
S11308E0C701B6010E94CF106B017C016D2F70E02F
S11308F06C0F711D882777FD8095982F0E946D11CC
S113090020E030E040E05FE30E94861223E333E31B
S113091043EC50E40E943F1020E030E040EA50E411
S11309200E943E10A70196010E94861220E030E04A
S113093040E252E40E943E100E943A11F8C081E065
S113094090E00FDFC82F83E090E00BDF2C2F30E026
S1130950A901481B5109CA0199231CF49195819559
S113096091090A970CF034C181E090E0FADE8233F9
S113097008F02EC181E090E0F4DEC82F83E090E01F
S1130980F0DED82FC701B6010E94CF106B017C01A5
S11309906D2F70E06C0F711D882777FD8095982F5F
S11309A00E946D1120E030E040E05FE30E94861277
S11309B023E333E343EC50E40E943F1020E030E0B3
S11309C040EA50E40E943E10A70196010E9486125C
S11309D09B01AC0160E070E080E292E40E943E1072
S11309E00E943A11A4C081E090E0BBDEC82F83E0EE
S11309F090E0B7DE2C2F30E0A901481B5109CA0151
S1130A0099231CF49195819591090A970CF03EC0A5
S1130A1081E090E0A6DE8233C8F581E090E0A1DEBB
S1130A20C82F83E090E09DDED82FC701B6010E9455
S1130A30CF106B017C016D2F70E06C0F711D882746
S1130A4077FD8095982F0E946D1120E030E040E002
S1130A505FE30E94861223E333E343EC50E40E94F5
S1130A603F1020E030E040EA50E40E943E10A7012D
S1130A7096010E9486129B01AC0160E070E080E266
S1130A8092E40E943E100E943A1151C082E090E02C
S1130A9068DEC82F80E090E064DE2C2F30E0A901EE
S1130AA0481B5109CA0199231CF491958195910918
S1130AB00A970CF08DC080E090E053DE823308F09A
S1130AC087C082E090E04DDEC82F80E090E049DEF0
S1130AD0D82FC701B6010E94CF106B017C016D2F86
S1130AE070E06C0F711D882777FD8095982F0E9408
S1130AF06D1120E030E040E05FE30E94861223E3C2
S1130B0033E343EC50E40E943F1020E030E040EA3D
S1130B1050E40E943E10A70196010E94861220E034
S1130B2030E040E252E40E943E100E943A11CB01B0
S1130B300196039708F447C0882777FD8095982F7E
S1130B400E946D112091040130910501409106012C
S1130B50509107010E9486120E94A310C62ED72E20
S1130B60E82EF92E20E030E0A9010E94CB10882362
S1130B707CF42BED3FE049EC50E46C2D7D2D8E2D63
S1130B809F2D0E943F10C62ED72EE82EF92E24C08A
S1130B902BED3FE049EC50E46C2D7D2D8E2D9F2DE7
S1130BA00E947B128823C4F02BED3FE049EC50E413
S1130BB06C2D7D2D8E2D9F2D0E943E10C62ED72E7E
S1130BC0E82EF92E09C0C12CD12CE12CF12C04C043
S1130BD0C12CD12CE12CF12C6C2D7D2D8E2D9F2D33
S1130BE0DF91CF91FF90EF90DF90CF900895CF9257
S1130BF0DF92EF92FF9280910801882309F46CC080
S1130C0082E090E0AEDDF82E80E090E0AADD2F2DAA
S1130C1030E0A901481B5109CA0199231CF491959C
S1130C20819591090A970CF580E090E09ADD8C3368
S1130C30E0F482E090E095DDF82E80E090E091DD34
S1130C406F2D70E0681B7109882777FD8095982FB8
S1130C500E946D112DEC3CEC44E551E40E94D2104D
S1130C600E94A3106B017C01A0C081E090E079DDBB
S1130C70F82E83E090E075DD2F2D30E0A901481BAC
S1130C805109CA0199231CF49195819591090A97F8
S1130C900CF09AC081E090E064DD8C3308F094C0DD
S1130CA081E090E05EDDF82E83E090E05ADD6F2D68
S1130CB070E0681B7109882777FD8095982F0E9442
S1130CC06D112DEC3CEC44E551E40E94D2100E94DD
S1130CD0A3106B017C0169C081E090E042DDF82E35
S1130CE083E090E03EDD2F2D30E0A901481B51093F
S1130CF0CA0199231CF49195819591090A970CF5E1
S1130D0081E090E02EDD8C33E0F481E090E029DD99
S1130D10F82E83E090E025DD6F2D70E0681B7109EB
S1130D20882777FD8095982F0E946D112DEC3CEC5F
S1130D3044E551E40E94D2100E94A3106B017C018F
S1130D4034C082E090E00DDDF82E80E090E009DD13
S1130D502F2D30E0A901481B5109CA0199231CF425
S1130D609195819591090A977CF580E090E0F9DCF2
S1130D708C3350F582E090E0F4DCF82E80E090E0D3
S1130D80F0DC6F2D70E0681B7109882777FD809572
S1130D90982F0E946D112DEC3CEC44E551E40E9427
S1130DA0D2100E94A3106B017C01C701B6019F778A
S1130DB029E23CE54FE85DE30E947B1218163CF003
S1130DC0C12CD12C760103C0C12CD12C76017C2DF1
S1130DD0672F7D2D8E2D9F2DFF90EF90DF90CF906C
S1130DE008951F920F920FB60F9211240BB60F9213
S1130DF02F933F934F935F936F937F938F939F931F
S1130E00AF93BF93EF93FF9381E069DC81E06DDCE6
S1130E10FF91EF91BF91AF919F918F917F916F91CE
S1130E205F914F913F912F910F900BBE0F900FBE8A
S1130E300F901F9018951F920F920FB60F921124C6
S1130E400BB60F922F933F934F935F936F937F93C0
S1130E508F939F93AF93BF93EF93FF9380E03FDC17
S1130E6081E043DCFF91EF91BF91AF919F918F910E
S1130E707F916F915F914F913F912F910F900BBE96
S1130E800F900FBE0F901F901895FDD480E890E04E
S1130E9006D5789480E275D1A2DB81B1836081B9F3
S1130EA087B1806C87B981B18F7381B9E8E6F0E0CE
S1130EB0808181608083EBE6F0E08081806C8083B8
S1130EC02FEF83E294EF215080409040E1F700C07F
S1130ED0000080E00ADC88EC90E06FDBD1E0C2E047
S1130EE080910901882331F0F7DB682F80E86CD109
S1130EF010920901EED2892B11F0C0D20CD9F2DB89
S1130F00813049F4C8D2882321F080E090E0ABD24C
S1130F10D4DBDCD9E5CFB5D2882321F082B18C278C
S1130F2082B988D5CCD2882321F082B18D2782B9A9
S1130F3093D5D5D7D5CF1F920F920FB60F92112408
S1130F4010928500109284000F900FBE0F901F9096
S1130F5018951F920F920FB60F9211240BB60F9291
S1130F602F933F934F935F936F937F938F939F93AD
S1130F70AF93BF93EF93FF9398D2882391F078D2E5
S1130F80811102C0B2DB0AC0813021F4AEDB81E002
S1130F90A6DB04C081E0A9DB80E0A1DB81E08093D3
S1130FA009011092950010929400FF91EF91BF9166
S1130FB0AF919F918F917F916F915F914F913F91ED
S1130FC02F910F900BBE0F900FBE0F901F9018958E
S1130FD01F920F920FB60F9211240BB60F922F93FC
S1130FE03F934F935F936F937F938F939F93AF93AD
S1130FF0BF93EF93FF93069B09C081E076DB81E00A
S11310006EDB98B180E4892788B909C0079B07C0C3
S113101081E06BDB80E063DB88B1805888B981E0D4
S113102080930901FF91EF91BF91AF919F918F91AF
S11310307F916F915F914F913F912F910F900BBED4
S11310400F900FBE0F901F90189585E48093BC00FD
S1131050089581EC8093BC00089584EA8093BC00D9
S1131060089585ED8093BC0008958091B900887F30
S1131070883309F0F6CFEDCF8091BB000895ECEBF7
S1131080F0E080818823ECF708958093BB0084E826
S11310908093BC00F4CF109238151092371510923B
S11310A042151092411510922D1510922C15109284
S11310B03215109231151092351510923415089589
S11310C0ECEBF0E08081806C80830895CF93DF9314
S11310D0C0913115D0913215CFDFC25DDA4E8883CD
S11310E01092321510923115DF91CF910895C4DF1B
S11310F080932C140895CF93DF93C0912C15D09135
S11311002D15BADFC35DDB4E888380912C15909139
S11311102D15019690932D1580932C1590933D15C4
S113112080933C15DF91CF910895CF93DF93C091C5
S11311304115D0914215C830D10599F4E3E4F5E1A5
S1131140ABE4B5E18BE495E121912D93E817F90720
S1131150D9F792DF80933B1581E08093E013D6DAD0
S11311600DC08ADFCD5BDA4E888380914115909162
S1131170421501969093421580934115DF91CF91CA
S1131180089580933315803479F0803819F08032D3
S1131190D1F412C083E088B958DF8FE38093B8009C
S11311A081E88093BA0008958FE38093B8004DDFFF
S11311B080E48093BA0008958FE38093B80045DFFC
S11311C081E28093BA000895CF93DF93C82FD62F7E
S11311D044DF55DF9091B900987F983019F045DFCE
S11311E080E020C08C2F51DF8091B900887F883146
S11311F019F03BDF80E016C085E047DF8091B9003D
S1131200887F883219F031DF80E00CC08D2F3DDFFC
S11312108091B900887F883219F027DF80E002C00E
S113122020DF81E0DF91CF9108951F93CF93DF9367
S1131230C82FD62F142F11DF22DF9091B900987F89
S1131240983019F012DF80E034C080E21EDF809114
S1131250B900887F883119F008DF80E02AC080E077
S113126014DF8091B900887F883219F0FEDE80E0B7
S113127020C08C2F0ADF8091B900887F883219F052
S1131280F4DE80E016C08D2F00DF8091B900887FE6
S1131290883219F0EADE80E00CC0812FF6DE8091FE
S11312A0B900887F883219F0E0DE80E002C0D9DE20
S11312B081E0DF91CF911F910895EF92FF920F93F8
S11312C01F93CF93DF93C82FE62EF72EC6DED7DE0B
S11312D09091B900987F983019F0C7DE80E02CC057
S11312E08C2FD3DE8091B900887F883119F0BDDE60
S11312F080E022C089E1C9DE8091B900887F88320C
S113130029F40E2D1F2DC0E0D0E008C0AEDE80E031
S113131013C0F80181918F01B8DE2196EE2DFF2DC7
S1131320DF010D900020E9F71197AE1BBF0BCA1720
S1131330DB0778F396DE81E0DF91CF911F910F9167
S1131340FF90EF900895EF92FF920F931F93CF9326
S1131350DF93C82FE62EF72E8A017FDE90DE909170
S1131360B900987F983019F080DE80E023C08C2F7C
S11313708CDE8091B900887F883119F076DE80E0B8
S113138019C089E182DE8091B900887F883221F416
S11313901016110624F00CC068DE80E00BC0CE2DC0
S11313A0DF2D0C0F1D1F899170DEC017D107D9F7EF
S11313B058DE81E0DF91CF911F910F91FF90EF9064
S11313C00895EF92FF920F931F93CF93DF9300D072
S11313D000D0CDB7DEB7182F49835A836B837C8343
S11313E03CDE4DDE9091B900987F983019F03DDED7
S11313F080E024C0812F49DE8091B900887F883144
S113140019F033DE80E01AC086E03FDE8091B90037
S1131410887F883219F029DE80E010C08E010F5FCA
S11314201F4F7E0185E0E80EF11CF80181918F01C8
S11314302CDE0E151F05C9F714DE81E00F900F9006
S11314400F900F90DF91CF911F910F91FF90EF902C
S11314500895875D9B4EFC0180810895855B9A4EBB
S1131460FC0180810895825D9A4EFC01808108957B
S113147080912C1408958091391508958091531505
S113148008958091DF13882321F01092DF1381E007
S1131490089580E008958091DE13882321F010924E
S11314A0DE1381E0089580E008958091DD138823A0
S11314B021F01092DD1381E0089580E00895809179
S11314C0DC13882321F01092DC1381E0089580E07E
S11314D008958091DA13882321F01092DA1381E0C1
S11314E0089580E008950F931F93CF93DF93D82F2F
S11314F0C92F60913C1580910A0190910B019AD8F3
S113150081111FC020913C1530913D151216130610
S1131510D4F40D2F1C2FC0E0D0E0F80161918F01AD
S113152080910A0190910B0185D881110EC02196FA
S113153080913C1590913D15C817D90774F380E04C
S113154005C081E003C080E001C081E0DF91CF915C
S11315501F910F9108951F920F920FB60F921124AD
S11315600BB60F922F933F934F935F936F937F9399
S11315708F939F93AF93BF93CF93DF93EF93FF9397
S113158080913315803409F487C0803821F080328B
S113159009F064C1C9C08091B900887F803629F000
S11315A08091B900887F883621F481E080933615D4
S11315B071C08091B900887F803729F08091B9008B
S11315C0887F883739F48FEF90E0909340158093AB
S11315D03F1560C08091B900887F8038B9F580914B
S11315E03615882341F048DD80933F15109240154D
S11315F0109236154FC080913F159091401585305B
S1131600910571F024F4019709F044C007C08630B5
S1131610910551F0499709F03DC004C057DD3AC027
S113162066DD38C068DD36C0C0913415D0913515FB
S113163023DDCB5DDB4E8883809134159091351585
S11316400196909335158093341524C08091B90088
S1131650887F803911F469DD1DC08091B900887FCD
S1131660803AC1F418DD80913F1590914015853082
S1131670910549F08931910551F0019759F481E0C0
S11316808093DE1307C081E08093DD1303C08DE2F5
S113169094E129DF15DDE2C08091B900887F8036AE
S11316A029F08091B900887F883621F481E0809305
S11316B0361538C08091B900887F8038E1F4809174
S11316C03615882341F0D8DC80933F1510924015DD
S11316D01092361527C080913F15909140158230A5
S11316E0910519F04997F1F404C0C6DC80933E15C6
S11316F019C001DD17C08091B900887F803A91F448
S1131700CADC80913F15909140158230910519F003
S1131710499741F404C081E08093DB1303C08DE258
S113172094E1E1DECDDC9AC08091B900887F8036F7
S113173029F08091B900887F883621F481E0809374
S113174036158BC08091B900887F803729F080914D
S1131750B900887F883739F48FEF90E09093401573
S113176080933F157AC08091B900887F803809F052
S113177041C080913615882341F07EDC80933F156B
S1131780109240151092361568C080913F159091C3
S113179040158430910501F134F4009759F0019714
S11317A009F05BC01FC085309105F1F0079709F07F
S11317B054C01CC0C0913715D09138155DDCC75D8D
S11317C0DB4E88838091371590913815019690935C
S11317D038158093371541C04FDC8093391510922A
S11317E03A153BC073DC39C082DC37C045DC8093DA
S11317F0531533C08091B900887F803911F495DC8A
S11318002CC08091B900887F803A39F544DC8091FE
S11318103F15909140158430910581F02CF4009788
S113182049F00197D1F40EC08530910579F00797FE
S1131830A1F410C081E08093DF130FC081E0809396
S1131840DC130BC081E08093DE1307C081E080933A
S1131850DD1303C081E08093DA1332DCFF91EF9152
S1131860DF91CF91BF91AF919F918F917F916F91B4
S11318705F914F913F912F910F900BBE0F900FBE30
S11318800F901F9018951092C50087E08093C400B4
S113189088E98093C10086E08093C2000895909304
S11318A01C1180931B1108958091C00080720895CB
S11318B0CF93C82FF9DF8823E9F3C093C600CF91F3
S11318C00895CF92DF92EF92FF920F931F93CF93DD
S11318D0DF93662309F43EC0062F10E04FEF5FEF5D
S11318E0EEEFFFEFC62ED12CE82EF12CC8E0D0E0AD
S11318F0EE3F6FEFF60719F48E2D9F2D30C0EF3FAA
S11319008FEFF80719F48C2D9D2D29C0DF01A75AFC
S1131910B84E8C9190E023C0BA016827792760FF04
S113192007C05695479568E0462764E8562702C0E5
S113193056954795969587952150310969F73196C3
S1131940E017F107A9F69A0120953095322723274D
S1131950322702C020E030E0822F932F02C09E0184
S1131960DBCFDF91CF911F910F91FF90EF90DF902C
S1131970CF9008950F931F93CF93DF939EE7909397
S113198058188093591860935A18262F30E012166D
S113199013064CF5E9E5F7E103E010E0C0E0D0E020
S11319A07DE750E29081492F4D57423080F4D801B1
S11319B0A85AB74EAC0FBD1F7C930F5F1F4FD801C1
S11319C0A85AB74EAC0FBD1F95279C9306C0D801EB
S11319D0A85AB74EAC0FBD1F9C9321963196C217DF
S11319E0D30701F704C003E010E0C0E0D0E069DFF2
S11319F0F801E85AF74EEC0FFD1F9083818322967D
S1131A000C0F1D1FF801E85AF74E8EE78083C801BA
S1131A100196181619064CF4C8E5D8E1075A174E72
S1131A20899146DFC017D107D9F7DF91CF911F9174
S1131A300F91089580E090E00CDD8093591781E0C8
S1131A4090E007DD80935A1782E090E002DD8093F6
S1131A505B1763E083E48ECF0EDD8093591761E05A
S1131A6085E488CF9093591780935A1760935B1736
S1131A7063E084E57FCF60E088E47CCF8F929F921F
S1131A80AF92BF92CF92DF92EF92FF920F931F9388
S1131A90CF93DF93CDB7DEB7ADB6BEB660E070E0EE
S1131AA080911301909114010E943A03882331F02C
S1131AB061E272E180E401DC81E045C0C090000095
S1131AC0D12C96012150310981E090E0C114D10458
S1131AD011F080E090E0820F931F2DB73EB7281BD2
S1131AE0390B0FB6F8943EBF0FBE2DBF8DB79EB70E
S1131AF00196882E992E1C141D04F4F4E82EF92E58
S1131B0000E010E060E070E0809113019091140116
S1131B100E943A03882331F063E472E180E4CDDB70
S1131B2081E011C080910000F70181937F010F5F74
S1131B301F4F0C151D0534F3A601682D792D8091D6
S1131B401B1101DC80E00FB6F894BEBE0FBEADBE23
S1131B50DF91CF911F910F91FF90EF90DF90CF9085
S1131B60BF90AF909F908F900895AF92BF92CF9205
S1131B70DF92EF92FF920F931F93CF93DF9300D0E6
S1131B8000D0CDB7DEB781E08093ED1360E070E064
S1131B9080911301909114010E943A03882331F03B
S1131BA066E672E180E489DB81E073C08091000025
S1131BB08C3009F453C081E06CC060E070E0809127
S1131BC01301909114010E943A03882331F065E8CF
S1131BD072E180E472DB81E05CC080910000F60178
S1131BE081936F01E017F10741F7F1E0AF16B104FB
S1131BF099F082E0A816B104E1F0AB2839F58981A7
S1131C009A81AB81BC818093E9139093EA13A093EA
S1131C10EB13B093EC131EC089819A81AB81BC8114
S1131C208093E5139093E613A093E713B093E8131E
S1131C3011C089819A81AB81BC818093E113909317
S1131C40E213A093E313B093E41318C0E3E0EE1699
S1131C50F104A4F4FFEFEF1AFF0A06C0EE24E394A4
S1131C60F12C8E010B5F1F4F570181E0A81AB108B8
S1131C70CC24C394D12CCC0EDD1E9FCF4091E11314
S1131C805091E2136091E3137091E41380E899DBBF
S1131C9080E00F900F900F900F90DF91CF911F91E4
S1131CA00F91FF90EF90DF90CF90BF90AF90089589
S1131CB0CF93DF9360E070E0809113019091140161
S1131CC00E943A03882331F065EA72E180E4F5DA90
S1131CD081E045C080910000833009F03BC060E0A2
S1131CE070E080911301909114010E943A038823BB
S1131CF031F067EC72E180E4E0DA81E030C0C09159
S1131D00000060E070E080911301909114010E9442
S1131D103A03882331F06FEE72E180E4CEDA81E099
S1131D201EC0D091000060E070E08091130190919A
S1131D3014010E943A03882331F066E173E180E4E0
S1131D40BCDA81E00CC0409100006D2F8C2F6DDA5D
S1131D5080E005C06AE373E180E4AFDA81E0DF91FB
S1131D60CF910895EF92FF920F931F93CF93DF9338
S1131D7000D000D0CDB7DEB760E070E080911301F1
S1131D80909114010E943A03882331F061E673E1D3
S1131D9080E493DA81E029C080910000843011F559
S1131DA08E010F5F1F4F7E0185E0E80EF11C60E09D
S1131DB070E080911301909114010E943A03811103
S1131DC013C080910000F80181938F01EE15FF0587
S1131DD071F749815A816B817C8180911B11F1DA01
S1131DE080E003C081E001C081E00F900F900F906C
S1131DF00F90DF91CF911F910F91FF90EF90089575
S1131E0060E070E080911301909114010E943A0304
S1131E10882331F065EA72E180E44FDA81E00895C5
S1131E2080910000811105C081E08093F01380E06F
S1131E30089581E0089560E070E08091130190912D
S1131E4014010E943A03882331F061E873E180E4CD
S1131E5034DA81E0089580910000811105C081E0A9
S1131E608093EF1380E0089581E0089560E070E0CE
S1131E7080911301909114010E943A03882331F058
S1131E8065EA73E180E419DA81E008958091000045
S1131E90811105C081E08093EE1380E0089581E014
S1131EA008958091F013882321F01092F01381E0BB
S1131EB0089580E008958091EF13882321F0109213
S1131EC0EF1381E0089580E008958091EE13882354
S1131ED021F01092EE1381E0089580E008952EC061
S1131EE0809100008D3479F038F48734E1F088343F
S1131EF011F1833419F50BC08435C9F0863559F0D6
S1131F008235E1F40CC0BADD8823C1F00895D0DE37
S1131F108823A1F0089526DF882381F0089570DFD7
S1131F20882361F0089521DE882341F0089583DF3A
S1131F30882321F008959ADF81110AC060E070E0DF
S1131F4080911301909114010E943A03882341F275
S1131F5008951F920F920FB60F9211240BB60F9291
S1131F60EF92FF920F931F932F933F934F935F939F
S1131F706F937F938F939F93AF93BF93CF93DF938D
S1131F80EF93FF932091C6002E3709F03FC0809154
S1131F90F3139091F4138430910540F42091551576
S1131FA030E02C5F3F4F8217930759F58091F1136E
S1131FB09091F213892B21F01092F2131092F113E5
S1131FC004E515E1C0E0D0E00F2EF5E5EF2EF5E1D4
S1131FD0FF2EF02DF80161918F01809113019091F2
S1131FE014010E941A03882321F06AEC73E180E44F
S1131FF064D92196F701808190E00296C817D90729
S11320004CF31092F4131092F31316C02D3739F4D5
S113201081E090E09093F2138093F1130DC08091CE
S1132020F3139091F413FC01EC5AFA4E20830196B9
S11320309093F4138093F313FF91EF91DF91CF9179
S1132040BF91AF919F918F917F916F915F914F91CC
S11320503F912F911F910F91FF90EF900F900BBE26
S11320600F900FBE0F901F9018958093591760938F
S11320705A1740935B1763E083E47CCC5058BB272A
S1132080AA270ED0EDC1B6D130F0BBD120F031F487
S11320909F3F11F41EF486C10EF4E095E7FB7CC16A
S11320A0E92F00D280F3BA176207730784079507F4
S11320B018F071F49EF518C20EF4E0950B2EBA2FA9
S11320C0A02D0B01B90190010C01CA01A00111243A
S11320D0FF27591B99F0593F50F4503E68F11A16E6
S11320E0F040A22F232F342F4427585FF3CF469577
S11320F037952795A795F0405395C9F77EF41F1699
S1132100BA0B620B730B840BBAF09150A1F0FF0F62
S1132110BB1F661F771F881FC2F70EC0BA0F621F4E
S1132120731F841F48F4879577956795B795F7953E
S11321309E3F08F0B3CF9395880F08F09927EE0FD0
S1132140979587950895DF93DD27B92FBF7740E8EA
S11321505FE31616170648075B0710F4D92FCFD193
S11321609F938F937F936F9334D2ECE8F0E01DD16B
S113217077D12F913F914F915F91D4D1DD2349F0D5
S11321809058A2EA2AED3FE049EC5FE3D0785D275E
S113219087DFDF9165C1DCD008F481E0089539D18F
S11321A0E3956FC10CD05CC12CD140F023D130F049
S11321B021F45F3F19F0F0C0511197C1F3C072D1FF
S11321C098F39923C9F35523B1F3951B550BBB27FA
S11321D0AA2762177307840738F09F5F5F4F220FA7
S11321E0331F441FAA1FA9F333D00E2E3AF0E0E8A0
S11321F030D091505040E695001CCAF729D0FE2FEC
S113220027D0660F771F881FBB1F2617370748077D
S1132210AB07B0E809F0BB0B802DBF01FF27935833
S11322205F4F2AF09E3F510568F0B6C05EC15F3F24
S1132230ECF3983EDCF3869577956795B795F7951B
S11322409F5FC9F7880F911D9695879597F9089513
S1132250E1E0660F771F881FBB1F621773078407AF
S1132260BA0720F0621B730B840BBA0BEE1F88F7BE
S1132270E095089504D06894B11137C108951AD136
S113228088F09F5790F0B92F9927B751A0F0D1F05B
S1132290660F771F881F991F1AF0BA95C9F712C0E5
S11322A0B13081F021D1B1E008951EC1672F782F9C
S11322B08827B85F39F0B93FCCF386957795679551
S11322C0B395D9F73EF490958095709561957F4FBD
S11322D08F4F9F4F0895E89409C097FB3EF4909563
S11322E08095709561957F4F8F4F9F4F9923A9F0EB
S11322F0F92F96E9BB279395F6958795779567957A
S1132300B795F111F8CFFAF4BB0F11F460FF1BC0BD
S11323106F5F7F4F8F4F9F4F16C0882311F096E950
S113232011C0772321F09EE8872F762F05C06623FE
S113233071F096E8862F70E060E02AF09A95660FB7
S1132340771F881FDAF7880F9695879597F9089570
S1132350990F0008550FAA0BE0E8FEEF16161706B2
S1132360E807F907C0F012161306E407F50798F01A
S1132370621B730B840B950B39F40A2661F0232B33
S1132380242B252B21F408950A2609F4A140A695AF
S11323908FEF811D811D089597F99F6780E870E094
S11323A060E008959FEF80EC0895DF93CF931F932F
S11323B00F93FF92EF92DF927B018C01689405C02A
S11323C0DA2EEF01AFD0FE01E894A5912591359165
S11323D045915591AEF3EF0163DEFE019701A8012B
S11323E0DA9479F7DF90EF90FF900F911F91CF91DE
S11323F0DF91089500240A94161617061806090694
S1132400089500240A941216130614060506089566
S1132410C9CF50D0E8F3E894E0E0BB279F57F0F031
S11324202AED3FE049EC06C0EE0FBB0F661F771F95
S1132430881F28F0B23A62077307840728F0B25A5B
S1132440620B730B840BE3959A9572F7803830F422
S11324509A95BB0F661F771F881FD2F79048BEC09E
S1132460092E0394000C11F4882352F0BB0F40F49E
S1132470BF2B11F460FF04C06F5F7F4F8F4F9F4FDE
S11324800895EF93E0FF06C0A2EA2AED3FE049EC8D
S11324905FEB06DEE5DF0F90039401FC9058E9EB57
S11324A0F0E0A8C057FD9058440F551F59F05F3F06
S11324B071F04795880F97FB991F61F09F3F79F062
S11324C087950895121613061406551FF2CF4695E4
S11324D0F1DF08C0161617061806991FF1CF869566
S11324E07105610508940895E894BB27662777274A
S11324F0CB0197F908952CDF08F48FEF08959B0121
S1132500AC0160E070E080E89FE34CCE0BD0A8CF34
S113251071DF28F076DF18F0952309F03DCF42CF24
S11325201124E3CFBFDFA0F3959FD1F3950F50E0C3
S1132530551F629FF001729FBB27F00DB11D639F71
S1132540AA27F00DB11DAA1F649F6627B00DA11D17
S1132550661F829F2227B00DA11D621F739FB00DBD
S1132560A11D621F839FA00D611D221F749F33272D
S1132570A00D611D231F849F600D211D822F762FC6
S11325806A2F11249F5750408AF0E1F088234AF0C3
S1132590EE0FFF1FBB1F661F771F881F915050400F
S11325A0A9F79E3F510570F0F7CE9FCF5F3FECF344
S11325B0983EDCF3869577956795B795F795E795FB
S11325C09F5FC1F7FE2B880F911D9695879597F90C
S11325D008959B01AC019ACF9F3F31F0915020F4B4
S11325E0879577956795B795880F911D96958795EB
S11325F097F908959F938F937F936F93FF93EF932E
S11326009B01AC0183DFEF91FF91CFDE2F913F91CE
S10D26104F915F917BCFF894FFCF48
S113261A01015A01CDCC4C3D01010C01010000001D
S113262A0000001501001000000000000000000076
S113263A000000000000000000000000000000008C
S113264A000000000000000000000000000000007C
S113265A000000000000000000000000000000006C
S113266A000000000000000000000000000000005C
S113362A00000000000000000000008000537461E4
S113363A7274696E6720746F207475726E20617279
S113364A6F756E642E00436F727269646F722061C3
S113365A686561642C20646F6E65207475726E6986
S113366A6E672061726F756E642E00537461727492
S113367A696E67207475726E696E6720726967680D
S113368A742E00446F6E65207475726E696E6720BD
S113369A72696768742E005374617274696E672064
S11336AA7475726E696E67206C6566742E00446F59
S11336BA6E65207475726E696E67206C6566742E09
S11336CA005374617274696E6720636C696D620079
S11336DA436C696D6220646F6E65004552524F52A5
S11336EA3A2043616E2774206D616B652061206402
S11336FA65636973696F6E2C207475726E696E677F
S113370A206F6666206175746F6E6F6D6F757320B6
S113371A6D6F6465004C6F772070617373206F62FC
S113372A737461636C652064657465637465642E7F
S113373A0052784649464F204D4553534147452048
S113374A4552524F523A204C454E204D4953534903
S113375A4E470052784649464F204D4553534147F8
S113376A45204552524F523A2044415441204D4932
S113377A5353494E470052784649464F20475952B7
S113378A4F204552524F523A204C454E204D4953F0
S113379A53494E470052784649464F204759524F9B
S11337AA204552524F523A2044415441204D4953E4
S11337BA53494E470052784649464F20434F4D4D90
S11337CA414E44204552524F523A204C454E204DC8
S11337DA495353494E470052784649464F20434F6E
S11337EA4D4D414E44204552524F523A204449527B
S11337FA454354494F4E204D495353494E4700526D
S113380A784649464F20434F4D4D414E4420455238
S113381A524F523A20524F544154494F4E204D4927
S113382A5353494E470052784649464F20434F4D19
S113383A4D414E44204552524F523A205350454529
S113384A44204D495353494E470052784649464FFE
S113385A20434F4D4D414E44204552524F523A2037
S113386A494E434F5252454354204C454E475448BF
S113387A0052784649464F2056414C5545204552F8
S113388A524F523A204C454E204D495353494E47C4
S113389A0052784649464F205455524E2D444F4EB5
S11338AA45204552524F523A204C454E204D4953D9
S11338BA53494E470052784649464F20434C494D96
S11338CA422D444F4E45204552524F523A204C45C0
S11338DA4E204D495353494E4700555F4649464F7A
S10938EA2D66756C6C00F4
S9030000FC
