:100000006BC00000A7C40000CFC4000083C0000084
:1000100081C000007FC000007DC000007BC00000E8
:1000200079C0000077C0000075C0000073C00000F8
:1000300071C0000021C500006DC000006BC0000051
:1000400069C0000067C0000065C0000063C0000018
:100050000C94820B5FC000005DC000005BC000001C
:1000600059C0000057C0000070C7000053C0000016
:1000700051C000004FC000004DC000004BC0000048
:1000800009C5000047C0000045C00000084AD73B32
:100090003BCE016E84BCBFFDC12F3D6C74319ABD57
:1000A00056833DDA3D00C77F11BED9E4BB4C3E917B
:1000B0006BAAAABE000000803F05A84CCDB2D44E6A
:1000C000B93836A9020C50B9918688083CA6AAAA6C
:1000D0002ABE000000803F0011241FBECFEFD0E4F5
:1000E000DEBFCDBF12E2A0E0B1E0ECEEF1E200E055
:1000F0000BBF02C007900D92A239B107D9F728E2D1
:10010000A2E9B2E201C01D92AD3FB207E1F776D499
:100110000C94F41075CF80910001882399F067E169
:1001200071E280E8CBD50EC040E06EE180E00E9435
:100130000E0C2FEF83ED90E3215080409040E1F7CB
:1001400000C0000084E090E03DD2803568F38091EB
:100150000001882321F060E371E280E8AFC50895D3
:100160008F929F92AF92BF92CF92DF92EF92FF92C7
:100170000F931F93CF931CD34B015C014FD26B01A4
:100180007C01C091010120E030E048E452E4C50167
:10019000B4010E945F0E9B01AC010E94180C2BED74
:1001A0003FE049E450E40E94AB0C20E030E048E43A
:1001B00052E40E94180C4B015C016C2F70E080E04F
:1001C00090E00E94460DA70196015F770E945F0EA6
:1001D0009B01AC01C501B4010E94180C0E94130DD3
:1001E0006436710534F48B0177232CF400E010E0C1
:1001F00002C004E610E020E030E044EB52E4C70126
:10020000B6010E945F0E2BED3FE049EC50E40E94E6
:10021000AB0C0E94130D262F4C2F602F822F0E94B3
:100220000E0C2FEF89E698E1215080409040E1F7D5
:1002300000C00000B801882777FD8095982F0E94A4
:10024000460DAB01BC0180E8BDD52FEF89E698E1F2
:10025000215080409040E1F700C00000CF911F91F5
:100260000F91FF90EF90DF90CF90BF90AF909F9055
:100270008F90089580910001882321F065E571E257
:1002800080E81CD56DDF2FEF83ED90E32150804097
:100290009040E1F700C000000EC040E066E480E05E
:1002A0000E940E0C2FEF83ED90E321508040904090
:1002B000E1F700C0000084E090E084D1803568F36D
:1002C00085E090E07FD1893240F74ADF49DF48CFAF
:1002D00080910001882321F06DE671E280E8EED480
:1002E0003FDF2FEF83ED90E3215080409040E1F716
:1002F00000C000000EC040E06EE180E00E940E0CE5
:100300002FEF83ED90E3215080409040E1F700C053
:10031000000084E090E056D1803568F385E090E0FD
:1003200051D1893240F71CDF1BDF1ACFCBD0882395
:1003300079F05FD1823009F4CBCF84E090E042D1F4
:100340008F3108F00DCF40D1823009F493CFE3CE46
:100350003BD1823009F4BCCF84E090E033D18F31BF
:1003600008F0FECE46D1823009F484CFD4CEBC0151
:1003700080E090E00E94440D20E030E04AE751E444
:100380000E945F0E0E94180D709389006093880090
:100390000895BC0180E090E00E94440D20E030E030
:1003A0004AE751E40E945F0E0E94180D7093990075
:1003B000609398000895E1E8F0E080818560808393
:1003C000E1E9F0E080818560808388EE93E0CFDF13
:1003D00088EE93E0DEDFEFE6F0E0808182608083EC
:1003E000E1E7F0E0808182608083109285001092C6
:1003F000840010929500109294000895FC01908161
:10040000915084812281821B892308951F93CF9369
:10041000DF93EC01162FF2DF288139812150310959
:1004200090E08217930769F08C819D81FE01E80FAF
:10043000F91F16830196282339233D832C8380E0FE
:1004400001C081E0DF91CF911F9108950F931F9319
:10045000CF93DF93EC018B01D1DF8823A1F0EA81F8
:10046000FB81EC0FFD1F8681F80180832881398193
:10047000215031098A819B810196822393239B839A
:100480008A8380E001C081E0DF91CF911F910F91BD
:100490000895FC01208130E0FB018081281B310997
:1004A000822F932F0895682F70E080E090E00E94E3
:1004B000440D6093020170930301809304019093B3
:1004C000050108958091060108958093060108951D
:1004D000809193220895809393220895CF92DF9282
:1004E000EF92FF920F931F93CF93DF9300D000D032
:1004F0001F92CDB7DEB700E010E0E0909222F12C21
:10050000C801ADD4F801EE0FFF1FEE0FFF1FE00F83
:10051000F11FEE0DFF1DEA55FD4D80830F5F1F4F4C
:100520000830110551F780919222843019F410920D
:1005300092222BC08F5F8093922227C0F8013497BC
:1005400080818983F801339780818A83F80132970B
:1005500080818B83F801319780818C83F8018081C1
:100560008D8329E432E041E050E065E070E0CE01A7
:1005700001960E94260F8B81F70181937F010B5F0B
:100580001F4F0C151D05D1F60FC00AEA12E20F2EFF
:10059000FEE9EF2EF2E2FF2EF02D0F2EF2EDCF2E20
:1005A000F2E2DF2EF02DCACF0F900F900F900F9038
:1005B0000F90DF91CF911F910F91FF90EF90DF90FF
:1005C000CF9008954CC4089581E090E0FBDF86341D
:1005D00028F083E090E0F6DF883240F481E090E09C
:1005E000F1DF91E0863418F490E001C092E0892FA9
:1005F000089580E090E0E6DF863428F082E090E025
:10060000E1DF883240F480E090E0DCDF91E0863486
:1006100018F490E001C092E0892F0895CF92DF9204
:10062000EF92FF92CF93DF936B017C0180910601E3
:10063000882389F182E090E0C5DFC82F80E090E058
:10064000C1DFD82FC701B6010E94A80C6B017C0145
:100650006D2F70E06C0F711D882777FD8095982FA6
:100660000E94460D20E030E040E05FE30E945F0E14
:1006700020E030E040EF50E40E94180CA701960102
:100680000E945F0E20E030E040E252E40E94170C2E
:100690000E94130D32C081E090E094DFC82F83E008
:1006A00090E090DFD82FC701B6010E94A80C6B0123
:1006B0007C016D2F70E06C0F711D882777FD809590
:1006C000982F0E94460D20E030E040E05FE30E945A
:1006D0005F0E20E030E040EF50E40E94180CA701CC
:1006E00096010E945F0E9B01AC0160E070E080E229
:1006F00092E40E94170C0E94130DCB0103960797FA
:1007000008F447C0882777FD8095982F0E94460DF2
:1007100020910201309103014091040150910501A3
:100720000E945F0E0E947C0CC62ED72EE82EF92E5A
:1007300020E030E0A9010E94A40C88237CF42BED7A
:100740003FE049EC50E46C2D7D2D8E2D9F2D0E94B5
:10075000180CC62ED72EE82EF92E1FC02BED3FE029
:1007600049EC50E46C2D7D2D8E2D9F2D0E94540E52
:1007700088239CF02BED3FE049EC50E46C2D7D2D5F
:100780008E2D9F2D0E94170CC62ED72EE82EF92EE7
:1007900004C0C12CD12CE12CF12C6C2D7D2D8E2D83
:1007A0009F2DDF91CF91FF90EF90DF90CF90089534
:1007B000CF92DF92EF92FF9280910601882309F495
:1007C0005AC082E090E0FEDEF82E80E090E0FADE93
:1007D000282F30E0C9018F0D911D80359105E4F47B
:1007E00082E090E0EFDEF82E80E090E0EBDE6F2D0F
:1007F00070E0681B7109882777FD8095982F0E940B
:10080000460D20E030E048E651E40E94AB0C0E9427
:100810007C0C6B017C0183C080910601882359F117
:1008200081E090E0CFDEF82E83E090E0CBDE282F51
:1008300030E0C9018F0D911D80359105E4F481E010
:1008400090E0C0DEF82E83E090E0BCDE6F2D70E01B
:10085000681B7109882777FD8095982F0E94460DA7
:1008600020E030E048E651E40E94AB0C0E947C0C92
:100870006B017C0154C081E090E0A4DEF82E83E09F
:1008800090E0A0DE282F30E0C9018F0D911D80354A
:100890009105E4F481E090E095DEF82E83E090E0AD
:1008A00091DE6F2D70E0681B7109882777FD8095B8
:1008B000982F0E94460D20E030E048E651E40E9467
:1008C000AB0C0E947C0C6B017C0129C082E090E0A3
:1008D00079DEF82E80E090E075DE282F30E0C90147
:1008E0008F0D911D803591054CF582E090E06ADE18
:1008F000F82E80E090E066DE6F2D70E0681B7109D5
:10090000882777FD8095982F0E94460D20E030E0E3
:1009100048E651E40E94AB0CEFD76B017C01C701A4
:10092000B6019F7729E23CE54FE85DE30E94540E53
:1009300018163CF0C12CD12C760103C0C12CD12C4F
:1009400076016C2D7D2D8E2D9F2DFF90EF90DF90E9
:10095000CF9008951F920F920FB60F9211240BB6ED
:100960000F922F933F934F935F936F937F938F9348
:100970009F93AF93BF93EF93FF9381E0A6DD81E058
:10098000AADDFF91EF91BF91AF919F918F917F91E0
:100990006F915F914F913F912F910F900BBE0F90F0
:1009A0000FBE0F901F9018951F920F920FB60F92C7
:1009B00011240BB60F922F933F934F935F936F9336
:1009C0007F938F939F93AF93BF93EF93FF9380E0B9
:1009D0007CDD81E080DDFF91EF91BF91AF919F9130
:1009E0008F917F916F915F914F913F912F910F90D8
:1009F0000BBE0F900FBE0F901F90189559D478948E
:100A000080E2F1D0D8DC81B1836081B92FEF83E23D
:100A100094EF215080409040E1F700C0000081E059
:100A20005ADDC2E029D2811159DD44D2882379F000
:100A300020D2811102C04FDD0AC0813021F44BDD8C
:100A400081E043DD04C081E046DD80E03EDD40DD45
:100A5000813049F425D2882321F080E090E004D24F
:100A600022DD64DC07C012D2882321F082B18C27FA
:100A700082B9F0D428D6D6CF1F920F920FB60F921C
:100A8000112410928500109284000F900FBE0F90D9
:100A90001F9018951F920F920FB60F92112410926B
:100AA0009500109294000F900FBE0F901F90189514
:100AB00085E48093BC00089581EC8093BC00089588
:100AC00084EA8093BC00089585ED8093BC0008956E
:100AD0008091B900887F883309F0F6CFEDCF8091FF
:100AE000BB000895ECEBF0E080818823ECF70895DB
:100AF0008093BB0084E88093BC00F4CF1092E12384
:100B00001092E0231092EB231092EA231092D62346
:100B10001092D5231092DB231092DA231092DE2359
:100B20001092DD230895ECEBF0E08081806C8083EF
:100B30000895CF93DF93C091EA23D091EB23C8307F
:100B4000D10591F4E6EAF2E2ACEEB3E28EEA92E28B
:100B500021912D93E817F907D9F7C1DF8093E4239A
:100B600081E0809399220DC0BADFCA55DD4D88839C
:100B70008091EA239091EB2301969093EB2380934D
:100B8000EA23DF91CF910895CF93DF93C091DA23C9
:100B9000D091DB23A4DFC952DC4D88831092DB2384
:100BA0001092DA23DF91CF91089599DF8093D522B7
:100BB0000895CF93DF93C091D523D091D6238FDFB3
:100BC000CA52DD4D88838091D5239091D62301961A
:100BD0009093D6238093D5239093E6238093E523A7
:100BE000DF91CF9108958093DC23803479F08038B1
:100BF00019F08032D1F412C083E088B959DF8FE355
:100C00008093B80081E88093BA0008958FE38093C1
:100C1000B8004EDF80E48093BA0008958FE380939C
:100C2000B80046DF81E28093BA0008951F93CF9306
:100C3000DF93C82FD62F142F43DF54DF9091B900D4
:100C4000987F983019F044DF80E034C080E250DFB4
:100C50008091B900887F883119F03ADF80E02AC09E
:100C600080E046DF8091B900887F883219F030DF5C
:100C700080E020C08C2F3CDF8091B900887F8832D3
:100C800019F026DF80E016C08D2F32DF8091B90089
:100C9000887F883219F01CDF80E00CC0812F28DFAC
:100CA0008091B900887F883219F012DF80E002C09D
:100CB0000BDF81E0DF91CF911F910895EF92FF92BA
:100CC0000F931F93CF93DF93C82FE62EF72EF8DEF6
:100CD00009DF9091B900987F983019F0F9DE80E033
:100CE0002CC08C2F05DF8091B900887F883119F0E6
:100CF000EFDE80E022C089E1FBDE8091B900887FD1
:100D0000883229F40E2D1F2DC0E0D0E008C0E0DEAF
:100D100080E013C0F80181918F01EADE2196EE2D6B
:100D2000FF2DDF010D900020E9F71197AE1BBF0BDF
:100D3000CA17DB0778F3C8DE81E0DF91CF911F91FE
:100D40000F91FF90EF900895EF92FF920F931F93F2
:100D5000CF93DF93C82FE62EF72E8A01B1DEC2DED5
:100D60009091B900987F983019F0B2DE80E023C0EE
:100D70008C2FBEDE8091B900887F883119F0A8DE03
:100D800080E019C089E1B4DE8091B900887F8832A3
:100D900021F41016110624F00CC09ADE80E00BC07E
:100DA000CE2DDF2D0C0F1D1F8991A2DEC017D1079C
:100DB000D9F78ADE81E0DF91CF911F910F91FF90EB
:100DC000EF900895EF92FF920F931F93CF93DF93CD
:100DD00000D000D0CDB7DEB7182F49835A836B837C
:100DE0007C836EDE7FDE9091B900987F983019F099
:100DF0006FDE80E024C0812F7BDE8091B900887F88
:100E0000883119F065DE80E01AC086E071DE8091DD
:100E1000B900887F883219F05BDE80E010C08E0157
:100E20000F5F1F4F7E0185E0E80EF11CF8018191F4
:100E30008F015EDE0E151F05C9F746DE81E00F90BB
:100E40000F900F900F90DF91CF911F910F91FF9016
:100E5000EF9008958E529D4DFC018081089584513C
:100E60009C4DFC018081089589529C4DFC0180813C
:100E700008958091D522089580919922882321F0A8
:100E80001092992281E0089580E00895809198223F
:100E9000882321F01092982281E0089580E008953F
:100EA00080919722882321F01092972281E0089563
:100EB00080E0089580919622882321F01092962256
:100EC00081E0089580E00895EF92FF920F931F93C1
:100ED000CF93DF93E82EF92EE82FF92FDF010D9045
:100EE0000020E9F71197BD016E1B7F0B8091070170
:100EF000909108018BDA81111EC00E2D1F2DC0E0CC
:100F0000D0E00BC0F80161918F01809107019091B1
:100F100008017CDA811111C02196EE2DFF2DDF0131
:100F20000D900020E9F71197AE1BBF0BCA17DB0726
:100F300048F380E003C081E001C081E0DF91CF9100
:100F40001F910F91FF90EF9008951F920F920FB68F
:100F50000F9211240BB60F922F933F934F935F93F1
:100F60006F937F938F939F93AF93BF93CF93DF93B1
:100F7000EF93FF938091DC23803409F487C080389D
:100F800021F0803209F07FC1C9C08091B900887F0B
:100F9000803629F08091B900887F883621F481E07D
:100FA0008093DF2371C08091B900887F803729F05A
:100FB0008091B900887F883739F48FEF90E0909363
:100FC000E9238093E82360C08091B900887F80384E
:100FD000B9F58091DF23882341F081DD8093E823F8
:100FE0001092E9231092DF234FC08091E823909163
:100FF000E9238530910571F024F4019709F044C08C
:1010000007C08630910551F0499709F03DC004C0F2
:10101000BBDD3AC0CADD38C0CCDD36C0C091DD23AF
:10102000D091DE235CDDC253DD4D88838091DD23CA
:101030009091DE2301969093DE238093DD2324C0DC
:101040008091B900887F803911F473DD1DC08091D3
:10105000B900887F803AC1F451DD8091E8239091F6
:10106000E9238530910549F08931910551F00197C7
:1010700059F481E08093972207C081E08093962203
:1010800003C086ED92E220DF4EDDFDC08091B90005
:10109000887F803629F08091B900887F883621F4D6
:1010A00081E08093DF2338C08091B900887F803849
:1010B000E1F48091DF23882341F011DD8093E82360
:1010C0001092E9231092DF2327C08091E8239091AA
:1010D000E9238230910519F04997F1F404C0FFDC4F
:1010E0008093E72319C065DD17C08091B900887F20
:1010F000803A91F403DD8091E8239091E9238230D6
:10110000910519F0499741F404C081E0809394223D
:1011100003C086ED92E2D8DE06DDB5C08091B9004D
:10112000887F803629F08091B900887F883621F445
:1011300081E08093DF23A6C08091B900887F80374B
:1011400029F08091B900887F883739F48FEF90E0DB
:101150009093E9238093E82395C08091B900887F1C
:10116000803809F062C08091DF23882341F0B7DC2A
:101170008093E8231092E9231092DF2383C08091AB
:10118000E8239091E9238130910509F44AC01CF4C9
:10119000892B41F077C084309105B1F0059709F0B3
:1011A00071C041C0C091E023D091E12398DCCE52C0
:1011B000DD4D88838091E0239091E1230196909307
:1011C000E1238093E0235EC08ADC81110AC0809114
:1011D000E2239091E32301979093E3238093E2230A
:1011E00009C08091E2239091E32301969093E32339
:1011F0008093E2238091E2239091E323181619064D
:101200003CF081E090E09093E3238093E2233AC0A6
:101210000897C4F187E090E09093E3238093E22362
:1012200031C0B2DC2FC0C1DC2DC08091B900887FF5
:10123000803911F47EDC26C08091B900887F803A25
:1012400009F55CDC8091E8239091E92381309105D8
:1012500091F01CF4892B39F015C08430910539F0D8
:10126000059781F40CC081E0809398220BC081E047
:101270008093952207C081E08093972203C081E08C
:101280008093962250DCFF91EF91DF91CF91BF9137
:10129000AF919F918F917F916F915F914F913F910E
:1012A0002F910F900BBE0F900FBE0F901F901895AF
:1012B0001092C50087E08093C40088E98093C10044
:1012C00086E08093C20008958091C00080720895E6
:1012D000CF93C82FF9DF8823E9F3C093C600CF91DD
:1012E0000895CF92DF92EF92FF920F931F93CF93C7
:1012F000DF93662309F43EC0062F10E04FEF5FEF47
:10130000EEEFFFEFC62ED12CE82EF12CC8E0D0E096
:10131000EE3F6FEFF60719F48E2D9F2D30C0EF3F93
:101320008FEFF80719F48C2D9D2D29C0DF01A750F0
:10133000BA4D8C9190E023C0BA016827792760FFED
:1013400007C05695479568E0462764E8562702C0CF
:1013500056954795969587952150310969F73196AD
:10136000E017F107A9F69A01209530953227232737
:10137000322702C020E030E0822F932F02C09E016E
:10138000DBCFDF91CF911F910F91FF90EF90DF9016
:10139000CF9008950F931F93CF93DF939EE7909381
:1013A000F8268093F9266093FA26262F30E012164D
:1013B00013064CF5E9EFF5E203E010E0C0E0D0E001
:1013C0007DE750E29081492F4D57423080F4D8019B
:1013D000A850B94DAC0FBD1F7C930F5F1F4FD801B4
:1013E000A850B94DAC0FBD1F95279C9306C0D801DE
:1013F000A850B94DAC0FBD1F9C9321963196C217D2
:10140000D30701F704C003E010E0C0E0D0E069DFDB
:10141000F801E850F94DEC0FFD1F9083818322966F
:101420000C0F1D1FF801E850F94D8EE78083C801AD
:101430000196181619064CF4C8EFD6E20750194D5C
:10144000899146DFC017D107D9F7DF91CF911F915E
:101450000F91089580E090E0FDDC8093F92581E014
:1014600090E0F8DC8093FA2582E090E0F3DC809352
:10147000FB2563E083E48ECF8F929F92AF92BF9261
:10148000CF92DF92EF92FF920F931F93CF93DF9350
:10149000CDB7DEB7ADB6BEB660E070E080910F119B
:1014A000909110110E942602882331F064E871E2C5
:1014B00080E404DC81E044C0C0900000D12C96019F
:1014C0002150310981E090E0C114D10411F080E095
:1014D00090E0820F931F2DB73EB7281B390B0FB634
:1014E000F8943EBF0FBE2DBF8DB79EB70196882ED4
:1014F000992E1C141D04F4F4E82EF92E00E010E0DF
:1015000060E070E080910F11909110110E9426020E
:10151000882331F066EA71E280E4D0DB81E010C01C
:1015200080910000F70181937F010F5F1F4F0C1521
:101530001D0534F3A601682D792D80E805DC80E0D7
:101540000FB6F894BEBE0FBEADBEDF91CF911F9116
:101550000F91FF90EF90DF90CF90BF90AF909F9052
:101560008F900895CF93DF9360E070E080910F112A
:10157000909110110E942602882331F069EC71E2EB
:1015800080E49CDB81E045C080910000833009F05D
:101590003BC060E070E080910F11909110110E94AB
:1015A0002602882331F06BEE71E280E487DB81E074
:1015B00030C0C091000060E070E080910F11909108
:1015C00010110E942602882331F063E172E280E468
:1015D00075DB81E01EC0D091000060E070E080917A
:1015E0000F11909110110E942602882331F06AE3B6
:1015F00072E280E463DB81E00CC0409100006D2F5B
:101600008C2F14DB80E005C06EE572E280E456DBCF
:1016100081E0DF91CF910895EF92FF920F931F9396
:10162000CF93DF9300D000D0CDB7DEB760E070E09D
:1016300080910F11909110110E942602882331F0A1
:1016400069EC71E280E43ADB81E032C08091000015
:10165000843059F58E010F5F1F4F7E0185E0E80E43
:10166000F11C60E070E080910F11909110110E94C8
:10167000260281111CC0E0E0F0E08081D8018D934A
:101680008D01608170E080E090E0FED1AB01BC0193
:1016900080E898DB0E151F0521F749815A816B817F
:1016A0007C8180E88FDB80E003C081E001C081E0C5
:1016B0000F900F900F900F90DF91CF911F910F918E
:1016C000FF90EF90089513C0809100008D3429F0B1
:1016D000863551F0833459F404C0CEDE882339F0C6
:1016E000089540DF81110DC097DF81110AC060E0CD
:1016F00070E080910F11909110110E9426028823B2
:1017000019F308951F920F920FB60F9211240BB682
:101710000F92EF92FF920F931F932F933F934F934C
:101720005F936F937F938F939F93AF93BF93CF9369
:10173000DF93EF93FF932091C6002E3709F03FC04F
:1017400080919C2290919D228430910540F42091BB
:10175000F52330E02C5F3F4F8217930759F58091B6
:101760009A2290919B22892B21F010929B22109219
:101770009A2204EF13E2C0E0D0E00F2EF5EFEF2E37
:10178000F3E2FF2EF02DF80161918F0180910F118E
:10179000909110110E940602882321F065E872E200
:1017A00080E48CDA2196F701808190E00296C817D8
:1017B000D9074CF310929D2210929C2216C02D370F
:1017C00039F481E090E090939B2280939A220DC09F
:1017D00080919C2290919D22FC01EC50FC4D208335
:1017E000019690939D2280939C22FF91EF91DF912F
:1017F000CF91BF91AF919F918F917F916F915F91A9
:101800004F913F912F911F910F91FF90EF900F906B
:101810000BBE0F900FBE0F901F9018958093F92567
:101820006093FA254093FB2563E083E4B3CD5058E1
:10183000BB27AA270ED0EDC1B6D130F0BBD120F026
:1018400031F49F3F11F41EF486C10EF4E095E7FBDE
:101850007CC1E92F00D280F3BA17620773078407AF
:10186000950718F071F49EF518C20EF4E0950B2E52
:10187000BA2FA02D0B01B90190010C01CA01A001E2
:101880001124FF27591B99F0593F50F4503E68F13D
:101890001A16F040A22F232F342F4427585FF3CF7E
:1018A000469537952795A795F0405395C9F77EF44F
:1018B0001F16BA0B620B730B840BBAF09150A1F098
:1018C000FF0FBB1F661F771F881FC2F70EC0BA0F1E
:1018D000621F731F841F48F4879577956795B795A6
:1018E000F7959E3F08F0B3CF9395880F08F099279E
:1018F000EE0F979587950895DF93DD27B92FBF7772
:1019000040E85FE31616170648075B0710F4D92F67
:10191000CFD19F938F937F936F9334D2ECE8F0E015
:101920001DD177D12F913F914F915F91D4D1DD237C
:1019300049F09058A2EA2AED3FE049EC5FE3D07805
:101940005D2787DFDF9165C1DCD008F481E0089571
:1019500039D1E3956FC10CD05CC12CD140F023D1BB
:1019600030F021F45F3F19F0F0C0511197C1F3C07E
:1019700072D198F39923C9F35523B1F3951B550BF5
:10198000BB27AA2762177307840738F09F5F5F4F52
:10199000220F331F441FAA1FA9F333D00E2E3AF093
:1019A000E0E830D091505040E695001CCAF729D0AD
:1019B000FE2F27D0660F771F881FBB1F26173707FC
:1019C0004807AB07B0E809F0BB0B802DBF01FF272C
:1019D00093585F4F2AF09E3F510568F0B6C05EC134
:1019E0005F3FECF3983EDCF3869577956795B79566
:1019F000F7959F5FC9F7880F911D9695879597F981
:101A00000895E1E0660F771F881FBB1F62177307F9
:101A10008407BA0720F0621B730B840BBA0BEE1F0E
:101A200088F7E095089504D06894B11137C10895FE
:101A30001AD188F09F5790F0B92F9927B751A0F08D
:101A4000D1F0660F771F881F991F1AF0BA95C9F752
:101A500012C0B13081F021D1B1E008951EC1672FCD
:101A6000782F8827B85F39F0B93FCCF38695779502
:101A70006795B395D9F73EF49095809570956195EB
:101A80007F4F8F4F9F4F0895E89409C097FB3EF416
:101A900090958095709561957F4F8F4F9F4F9923BB
:101AA000A9F0F92F96E9BB279395F6958795779539
:101AB0006795B795F111F8CFFAF4BB0F11F460FFF9
:101AC0001BC06F5F7F4F8F4F9F4F16C0882311F051
:101AD00096E911C0772321F09EE8872F762F05C065
:101AE000662371F096E8862F70E060E02AF09A9500
:101AF000660F771F881FDAF7880F9695879597F9F5
:101B00000895990F0008550FAA0BE0E8FEEF16168E
:101B10001706E807F907C0F012161306E407F507E1
:101B200098F0621B730B840B950B39F40A2661F055
:101B3000232B242B252B21F408950A2609F4A140F8
:101B4000A6958FEF811D811D089597F99F6780E805
:101B500070E060E008959FEF80EC0895DF93CF93ED
:101B60001F930F93FF92EF92DF927B018C01689499
:101B700005C0DA2EEF01AFD0FE01E894A5912591C2
:101B8000359145915591AEF3EF0163DEFE0197016A
:101B9000A801DA9479F7DF90EF90FF900F911F91F1
:101BA000CF91DF91089500240A941616170618069F
:101BB0000906089500240A94121613061406050651
:101BC0000895C9CF50D0E8F3E894E0E0BB279F57D1
:101BD000F0F02AED3FE049EC06C0EE0FBB0F661FA8
:101BE000771F881F28F0B23A62077307840728F02E
:101BF000B25A620B730B840BE3959A9572F7803897
:101C000030F49A95BB0F661F771F881FD2F7904854
:101C1000BEC0092E0394000C11F4882352F0BB0FB0
:101C200040F4BF2B11F460FF04C06F5F7F4F8F4FF4
:101C30009F4F0895EF93E0FF06C0A2EA2AED3FE030
:101C400049EC5FEB06DEE5DF0F90039401FC905852
:101C5000E9EBF0E0A8C057FD9058440F551F59F02C
:101C60005F3F71F04795880F97FB991F61F09F3F89
:101C700079F087950895121613061406551FF2CFB2
:101C80004695F1DF08C0161617061806991FF1CF02
:101C900086957105610508940895E894BB27662729
:101CA0007727CB0197F908952CDF08F48FEF08957B
:101CB0009B01AC0160E070E080E89FE34CCE0BD06C
:101CC000A8CF71DF28F076DF18F0952309F03DCF1B
:101CD00042CF1124E3CFBFDFA0F3959FD1F3950F3F
:101CE00050E0551F629FF001729FBB27F00DB11DA0
:101CF000639FAA27F00DB11DAA1F649F6627B00D30
:101D0000A11D661F829F2227B00DA11D621F739F18
:101D1000B00DA11D621F839FA00D611D221F749F26
:101D20003327A00D611D231F849F600D211D822F6D
:101D3000762F6A2F11249F5750408AF0E1F08823B4
:101D40004AF0EE0FFF1FBB1F661F771F881F9150C1
:101D50005040A9F79E3F510570F0F7CE9FCF5F3FEF
:101D6000ECF3983EDCF3869577956795B795F795F4
:101D7000E7959F5FC1F7FE2B880F911D969587957C
:101D800097F908959B01AC019ACF9F3F31F0915094
:101D900020F4879577956795B795880F911D96954F
:101DA000879597F908959F938F937F936F93FF93F0
:101DB000EF939B01AC0183DFEF91FF91CFDE2F9179
:101DC0003F914F915F917BCFFB01DC01CA012C91C8
:101DD00030813D932193019718161906C4F3089595
:101DE000CF92DF92EF92FF920F931F93CF93DF93E7
:101DF0006C018B017A01E901F9010995B70197FF9F
:101E00000CC0C801FE01099597FD16C0B701C601B7
:101E1000FE01099597FF0DC00EC0C801FE0109958E
:101E2000181619064CF0B701C601FE01099597FF77
:101E300002C0860101C08701C801DF91CF911F91C7
:101E40000F91FF90EF90DF90CF9008952F923F92E7
:101E50004F925F926F927F928F929F92AF92BF92BA
:101E6000CF92DF92EF92FF920F931F93CF93DF9366
:101E7000CDB7DEB728970FB6F894DEBF0FBECDBF43
:101E80008C016B0158874F8359014B835C8327E09A
:101E9000C216D10488F5EF80F884E00EF11E4F8160
:101EA0005885C49E4001C59E900CD49E900C112470
:101EB000800E911E1BC04F815885B601C30184DF7F
:101EC00036010615170528F06F817885E60EF71E96
:101ED0000DC063018F819885C81AD90AB301C60164
:101EE000F50109951816190634F3EECFE814F90434
:101EF00008F04DC13701E5CFC601969587952F8132
:101F00003885829F7001839FF00C929FF00C112402
:101F1000E00EF11E37E0C316D10409F44CC0C6012F
:101F200001974F815885849F4001859F900C949F15
:101F3000900C1124800E911E59E2C516D104A0F117
:101F4000C60123E0969587952A95E1F76F817885FC
:101F5000869F3001879F700C969F700C112413018F
:101F6000220C331CA801420D531DB801660D771DCC
:101F70009501C80135DF2C01A701460D571D71944D
:101F8000619471089501B701C701860D971D28DF7F
:101F90007C01B401660D771D9501A401C40182196D
:101FA00093091EDF4C0101C028019501A401B7016E
:101FB000C20116DF7C014B815C81B701C80104DFDF
:101FC0004F805884400E511EC6010197EF81F8855D
:101FD0008E9F30018F9F700C9E9F700C1124600E9D
:101FE000711E43017201120120E030E011C0892B03
:101FF00059F44B815C81B701C101E6DE2F81388540
:10200000220E331E21E030E04F815885E40EF51E8C
:102010008E149F04D8F0B801C7012D833E83F501CB
:1020200009952D813E811816190684F0E0CF892B81
:1020300059F44B815C81B301C401C6DE2F81388520
:10204000621A730A21E030E089809A808E149F041E
:1020500008F490C0B801C4012D833E83F5010995B1
:10206000A4016F817885461B570B5A8349832D81C4
:102070003E8197FFDCCF70C04801880E991E1BC0BF
:102080004B815C81B601C7019FDE76010E151F05ED
:1020900028F08F819885480E591E0DC06701EF8189
:1020A000F885CE1ADF0AB701C601F50109951816A1
:1020B000190634F3EECF4814590408F068C07201D1
:1020C000E5CF9801280F391F3A8329832701421849
:1020D0005308A101401B510B441655060CF4A201F4
:1020E000141615062CF4B701641B750BC8016CDEC1
:1020F0006301C818D90849815A81461957096F8167
:102100007885461B570BC416D50608F4A60114168D
:10211000150634F469817A81641B750BC70154DE9E
:102120008F8198858415950548F4C2016F81788563
:1021300047D095014F815885C80188DEEF81F88529
:10214000EC15FD0520F509811A810C191D09C60140
:10215000BF0136D06B019BCE4B815C81B401C701BE
:1021600033DE2F813885E20EF31E89809A8021E0CC
:1021700030E04ECF4F815885C49EC001C59E900D62
:10218000D49E900D1124232B09F09BCF75CF289658
:102190000FB6F894DEBF0FBECDBFDF91CF911F9178
:1021A0000F91FF90EF90DF90CF90BF90AF909F90F6
:1021B0008F907F906F905F904F903F902F900895F9
:1021C000AA1BBB1B51E107C0AA1FBB1FA617B7075D
:1021D00010F0A61BB70B881F991F5A95A9F7809579
:0C21E0009095BC01CD010895F894FFCF4C
:1021EC000132CDCCCC3D01090100100000000000F3
:1021FC0000000000000000000000000000000000D3
:10220C0000000000000000000000000000000000C2
:10221C0000000000000000000000000000000000B2
:10222C0000000000000000000000000000000000A2
:1031EC0000000000000000000000000000000011C2
:1031FC0011001000000000000000000000000000A2
:10320C0000000000000000000000000000000000B2
:10321C0000000000000000000000000000000000A2
:10322C000000000000000000000000000000000092
:10323C000000000000000000000000000000000082
:1041FC00000000000000005374617274696E672047
:10420C00746F207475726E2061726F756E642E00FF
:10421C00436F727269646F722061686561642C20EF
:10422C00646F6E65207475726E696E672061726F53
:10423C00756E642E005374617274696E67207475A8
:10424C00726E696E672072696768742E00537461B0
:10425C007274696E67207475726E696E67206C6516
:10426C0066742E0052784649464F204D45535341B3
:10427C004745204552524F523A204C454E204D490D
:10428C005353494E470052784649464F204D4553AB
:10429C0053414745204552524F523A2044415441D4
:1042AC00204D495353494E470052784649464F20BA
:1042BC00434F4D4D414E44204552524F523A204CA3
:1042CC00454E204D495353494E4700527846494676
:1042DC004F20434F4D4D414E44204552524F523A80
:1042EC0020444952454354494F4E204D495353495C
:1042FC004E470052784649464F20434F4D4D414E54
:10430C0044204552524F523A20524F544154494F37
:10431C004E204D495353494E470052784649464F1B
:10432C0020434F4D4D414E44204552524F523A205E
:10433C005350454544204D495353494E47005278FC
:10434C004649464F20434F4D4D414E442045525215
:10435C004F523A20494E434F5252454354204C45FC
:10436C004E47544800555F4649464F2D66756C6C58
:02437C0000003F
:00000001FF
