S01A00004E617669676174696F6E73656E686574656E2E73726563A0
S11300006BC0000056C400007EC4000083C0000022
S113001081C000007FC000007DC000007BC00000E4
S113002079C0000077C0000075C0000073C00000F4
S113003071C00000CDC400006DC000006BC00000A2
S113004069C0000067C0000065C0000063C0000014
S11300500C94860B5FC000005DC000005BC0000014
S113006059C0000057C0000042C7000053C0000040
S113007051C000004FC000004DC000004BC0000044
S1130080DBC4000047C0000045C00000084AD73B5D
S11300903BCE016E84BCBFFDC12F3D6C74319ABD53
S11300A056833DDA3D00C77F11BED9E4BB4C3E9177
S11300B06BAAAABE000000803F05A84CCDB2D44E66
S11300C0B93836A9020C50B9918688083CA6AAAA68
S11300D02ABE000000803F0011241FBECFEFD0E4F1
S11300E0DEBFCDBF12E2A0E0B1E0E4EFF1E200E058
S11300F00BBF02C007900D92AC36B107D9F728E2C6
S1130100ACE6B2E201C01D92A83CB207E1F725D4E7
S11301100C94F81075CFCF9380910001882399F047
S113012067E171E280E89CD50EC040E06EE180E0BA
S11301300E94120C2FEF87EA91E6215080409040F4
S1130140E1F700C0000084E090E022D2883268F336
S113015081E090E01DD2C82F83E090E019D2282FCF
S113016030E0C9018C0F911D87349105F4F6CF91CD
S113017008958F929F92AF92BF92CF92DF92EF92A7
S1130180FF92CF93DF9306D36B017C012ED24B01F8
S11301905C0120E030E048E452E4C701B6010E946B
S11301A0630E26E53EE049E450E40E94AF0C20E0F3
S11301B030E040EC50E40E94AF0C20E030E048E432
S11301C052E40E941C0C0E94170D6436710534F42D
S11301D0EB01DD232CF4C0E0D0E002C0C4E6D0E0A3
S11301E020E030E044EB52E4C501B4010E94630E08
S11301F02BED3FE049EC50E40E94AF0C0E94170D38
S1130200262F409101016C2F822F0E94120C2FEF98
S113021087EA91E6215080409040E1F700C0000059
S1130220DF91CF91FF90EF90DF90CF90BF90AF9090
S11302309F908F90089580910001882321F060E3BE
S113024071E280E80DD595DF2FEF87EA91E6215022
S113025080409040E1F700C000000EC040E066E43A
S113026080E00E94120C2FEF87EA91E62150804033
S11302709040E1F700C0000084E090E089D188322A
S113028068F385E090E084D1893240F772DF71DF52
S113029070CFCF9380910001882321F068E471E24C
S11302A080E8DED466DF2FEF87EA91E621508040B4
S11302B09040E1F700C000000EC040E06EE180E035
S11302C00E94120C2FEF87EA91E621508040904063
S11302D0E1F700C0000084E090E05AD1883268F36E
S11302E081E090E055D1C82F83E090E051D1282FD0
S11302F030E0C9018C0F911D873491052CF085E005
S113030090E046D18932C8F634DF33DF32DFCF9153
S11303100895CBD0882379F054D1823009F4B9CF31
S113032084E090E035D1813508F023CF36D1823096
S113033009F481CFF0CE31D1823009F4AACF84E020
S113034090E026D1813508F014CF3BD1823009F4F6
S113035072CFE1CEBC0180E090E00E94480D20E025
S113036030E04AE751E40E94630E0E941C0D709332
S11303708900609388000895BC0180E090E00E94A9
S1130380480D20E030E04AE751E40E94630E0E94E9
S11303901C0D70939900609398000895E1E8F0E0D3
S11303A0808185608083E1E9F0E0808185608083DD
S11303B088EE93E0CFDF88EE93E0DEDFEFE6F0E057
S11303C0808182608083E1E7F0E0808182608083C5
S11303D0109285001092840010929500109294005F
S11303E00895FC019081915084812281821B89238C
S11303F008951F93CF93DF93EC01162FF2DF28812A
S113040039812150310990E08217930769F08C817A
S11304109D81FE01E80FF91F1683019628233923D5
S11304203D832C8380E001C081E0DF91CF911F9157
S113043008950F931F93CF93DF93EC018B01D1DFCA
S11304408823A1F0EA81FB81EC0FFD1F8681F8016E
S1130450808328813981215031098A819B810196C9
S1130460822393239B838A8380E001C081E0DF9110
S1130470CF911F910F910895FC01208130E0FB0181
S11304808081281B3109822F932F0895682F70E0F3
S113049080E090E00E94480D609302017093030194
S11304A080930401909305010895809106010895B5
S11304B080930601089580916D22089580936D22A2
S11304C00895CF92DF92EF92FF920F931F93CF93F1
S11304D0DF9300D01F92CDB7DEB700E010E0E090CC
S11304E06C22F12CC8018DD4F801EE0FFF1FE00F30
S11304F0F11FEE0DFF1DEF57FD4D80830F5F1F4F62
S11305000830110561F780916C22823019F4109241
S11305106C2223C08F5F80936C221FC0F801329736
S113052080818983F801319780818A83F8018081F1
S11305308B832CE332E041E050E063E070E0CE01D5
S113054001960E942A0F8A81F70181937F010D5F32
S11305501F4F0C151D0511F70FC003E812E20F2EF3
S1130560F9E7EF2EF2E2FF2EF02D0F2EFBE9CF2E4E
S1130570F2E2DF2EF02DD2CF0F900F900F90DF918B
S1130580CF911F910F91FF90EF90DF90CF9008953E
S113059087589D4DFC0180810895CF9381E090E0C0
S11305A0F7DFC82F803528F083E090E0F1DF803555
S11305B028F481E0C03518F480E001C082E0CF91D6
S11305C00895CF9380E090E0E3DFC82F803528F0D2
S11305D082E090E0DDDF803528F481E0C03518F456
S11305E080E001C082E0CF910895CF92DF92EF9234
S11305F0FF92CF93DF936B017C0184E090E0C8DF2E
S1130600813508F4B3C080910601882389F182E022
S113061090E0BEDFC82F80E090E0BADFD82FC7019A
S1130620B6010E94AC0C6B017C016D2F70E06C0F65
S1130630711D882777FD8095982F0E944A0D20E030
S113064030E040E05FE30E94630E20E030E040EFE2
S113065050E40E941C0CA70196010E94630E20E046
S113066030E040E252E40E941B0C0E94170D32C09D
S113067081E090E08DDFC82F83E090E089DFD82F00
S1130680C701B6010E94AC0C6B017C016D2F70E0B8
S11306906C0F711D882777FD8095982F0E944A0D55
S11306A020E030E040E05FE30E94630E20E030E0B1
S11306B040EF50E40E941C0CA70196010E94630EB7
S11306C09B01AC0160E070E080E292E40E941B0CAC
S11306D00E94170DCB010196039708F44CC088279C
S11306E077FD8095982F0E944A0D20910201309148
S11306F0030140910401509105010E94630E0E9480
S1130700800CC62ED72EE82EF92E20E030E0A90169
S11307100E94A80C88237CF42BED3FE049EC50E4C4
S11307206C2D7D2D8E2D9F2D0E941C0CC62ED72E38
S1130730E82EF92E24C02BED3FE049EC50E46C2D5B
S11307407D2D8E2D9F2D0E94580E8823C4F02BEDF5
S11307503FE049EC50E46C2D7D2D8E2D9F2D0E94A1
S11307601B0CC62ED72EE82EF92E09C0C12CD12C75
S1130770E12CF12C04C0C12CD12CE12CF12C6C2DDA
S11307807D2D8E2D9F2DDF91CF91FF90EF90DF90E7
S1130790CF900895CF93DF9380910601882309F4C5
S11307A040C082E090E0F4DEC82FD0E080E090E02A
S11307B0EFDE90E09E01280F391F2436310594F4B2
S11307C0BE01681B790B882777FD8095982F0E94BE
S11307D04A0D20E030E048E651E40E94AF0C0E944C
S11307E0800C64C084E090E0D3DE8135D0F081E0F9
S11307F090E0CEDEC82F83E090E0CADE6C2F70E07C
S1130800681B7109882777FD8095982F0E944A0DEF
S113081020E030E048E651E40E94AF0C0E94800CD6
S113082045C081E090E0B4DEC82FD0E083E090E0E2
S1130830AFDE90E09E01280F391F2436310594F471
S1130840BE01681B790B882777FD8095982F0E943D
S11308504A0D20E030E048E651E40E94AF0C0E94CB
S1130860800C24C084E090E093DE8135D8F082E0EF
S113087090E08EDEC82F80E090E08ADE2C2F30E0FE
S1130880B901681B7109882777FD8095982F0E940C
S11308904A0D20E030E048E651E40E94AF0C0E948B
S11308A0800C04C060E070E080E090E0DF91CF91C4
S11308B008951F920F920FB60F9211240BB60F9248
S11308C02F933F934F935F936F937F938F939F9354
S11308D0AF93BF93EF93FF9381E0EADD81E0EEDD18
S11308E0FF91EF91BF91AF919F918F917F916F9104
S11308F05F914F913F912F910F900BBE0F900FBEC0
S11309000F901F9018951F920F920FB60F921124FB
S11309100BB60F922F933F934F935F936F937F93F5
S11309208F939F93AF93BF93EF93FF9380E0C0DDCA
S113093081E0C4DDFF91EF91BF91AF919F918F91C1
S11309407F916F915F914F913F912F910F900BBECB
S11309500F900FBE0F901F9018957CD4789480E26E
S113096014D11CDD81B1836081B92FEF83E294EF50
S1130970215080409040E1F700C0000080E09EDDFF
S1130980C2E06AD2882379F046D2811102C096DD92
S11309900AC0813021F492DD81E08ADD04C081E067
S11309A08DDD80E085DD87DD813049F44BD28823FD
S11309B021F080E090E02AD269DDABDC07C038D2B8
S11309C0882321F082B18C2782B916D577D6D9CF66
S11309D01F920F920FB60F9211240BB60F922F9302
S11309E03F934F935F936F937F938F939F93AF93B3
S11309F0BF93EF93FF9312D2811163DD10928500B0
S1130A001092840051D6882321F092B181E0892785
S1130A1082B9FF91EF91BF91AF919F918F917F9197
S1130A206F915F914F913F912F910F900BBE0F905B
S1130A300FBE0F901F9018951F920F920FB60F9232
S1130A40112410929500109294000F900FBE0F90F5
S1130A501F90189585E48093BC00089581EC8093E1
S1130A60BC00089584EA8093BC00089585ED8093CA
S1130A70BC0008958091B900887F883309F0F6CFCF
S1130A80EDCF8091BB000895ECEBF0E080818823EA
S1130A90ECF708958093BB0084E88093BC00F4CF06
S1130AA01092AC231092AB231092B6231092B5236C
S1130AB01092A1231092A0231092A6231092A52392
S1130AC01092A9231092A8230895ECEBF0E0808102
S1130AD0806C80830895CF93DF93C091B523D09128
S1130AE0B623C830D10591F4E1E8F2E2A7EBB3E212
S1130AF089E892E221912D93E817F907D9F7C1DF2C
S1130B008093AF2381E0809373220DC0BADFCF5767
S1130B10DD4D88838091B5239091B62301969093FF
S1130B20B6238093B523DF91CF910895CF93DF93BC
S1130B30C091A523D091A623A4DFCE55DC4D888394
S1130B401092A6231092A523DF91CF91089599DFE7
S1130B508093A0220895CF93DF93C091A023D091D6
S1130B60A1238FDFCF55DD4D88838091A023909101
S1130B70A12301969093A1238093A0239093B12362
S1130B808093B023DF91CF9108958093A72380347D
S1130B9079F0803819F08032D1F412C083E088B93A
S1130BA059DF8FE38093B80081E88093BA000895F9
S1130BB08FE38093B8004EDF80E48093BA000895F9
S1130BC08FE38093B80046DF81E28093BA000895F2
S1130BD01F93CF93DF93C82FD62F142F43DF54DFF7
S1130BE09091B900987F983019F044DF80E034C0C8
S1130BF080E250DF8091B900887F883119F03ADFB4
S1130C0080E02AC080E046DF8091B900887F883286
S1130C1019F030DF80E020C08C2F3CDF8091B900D8
S1130C20887F883219F026DF80E016C08D2F32DFEE
S1130C308091B900887F883219F01CDF80E00CC0F5
S1130C40812F28DF8091B900887F883219F012DF64
S1130C5080E002C00BDF81E0DF91CF911F91089506
S1130C60EF92FF920F931F93CF93DF93C82FE62E3B
S1130C70F72EF8DE09DF9091B900987F983019F0CB
S1130C80F9DE80E02CC08C2F05DF8091B900887FCD
S1130C90883119F0EFDE80E022C089E1FBDE80912B
S1130CA0B900887F883229F40E2D1F2DC0E0D0E0D2
S1130CB008C0E0DE80E013C0F80181918F01EADE14
S1130CC02196EE2DFF2DDF010D900020E9F71197FD
S1130CD0AE1BBF0BCA17DB0778F3C8DE81E0DF91D8
S1130CE0CF911F910F91FF90EF900895EF92FF9293
S1130CF00F931F93CF93DF93C82FE62EF72E8A010D
S1130D00B1DEC2DE9091B900987F983019F0B2DE5E
S1130D1080E023C08C2FBEDE8091B900887F8831AB
S1130D2019F0A8DE80E019C089E1B4DE8091B90031
S1130D30887F883221F41016110624F00CC09ADE44
S1130D4080E00BC0CE2DDF2D0C0F1D1F8991A2DE7C
S1130D50C017D107D9F78ADE81E0DF91CF911F91C7
S1130D600F91FF90EF900895EF92FF920F931F93CE
S1130D70CF93DF9300D000D0CDB7DEB7182F4983CF
S1130D805A836B837C836EDE7FDE9091B900987FFB
S1130D90983019F06FDE80E024C0812F7BDE8091D3
S1130DA0B900887F883119F065DE80E01AC086E0DA
S1130DB071DE8091B900887F883219F05BDE80E0B3
S1130DC010C08E010F5F1F4F7E0185E0E80EF11CFD
S1130DD0F80181918F015EDE0E151F05C9F746DE0D
S1130DE081E00F900F900F900F90DF91CF911F91A2
S1130DF00F91FF90EF90089583569D4DFC018081E3
S1130E00089589549C4DFC01808108958E559C4D14
S1130E10FC01808108958091A0220895809173221D
S1130E20882321F01092732281E0089580E00895D0
S1130E3080917222882321F01092722281E0089519
S1130E4080E0089580917122882321F0109271220C
S1130E5081E0089580E0089580917022882321F034
S1130E601092702281E0089580E00895EF92FF923D
S1130E700F931F93CF93DF93E82EF92EE82FF92FCA
S1130E80DF010D900020E9F71197BD016E1B7F0B68
S1130E908091070190910801ACDA81111EC00E2DDA
S1130EA01F2DC0E0D0E00BC0F80161918F0180914B
S1130EB00701909108019DDA811111C02196EE2D50
S1130EC0FF2DDF010D900020E9F71197AE1BBF0B3A
S1130ED0CA17DB0748F380E003C081E001C081E06A
S1130EE0DF91CF911F910F91FF90EF9008951F9282
S1130EF00F920FB60F9211240BB60F922F933F93BC
S1130F004F935F936F937F938F939F93AF93BF930D
S1130F10CF93DF93EF93FF938091A723803409F459
S1130F2087C0803821F0803209F07FC1C9C0809128
S1130F30B900887F803629F08091B900887F88368F
S1130F4021F481E08093AA2371C08091B900887F45
S1130F50803729F08091B900887F883739F48FEF82
S1130F6090E09093B4238093B32360C08091B90040
S1130F70887F8038B9F58091AA23882341F081DDE8
S1130F808093B3231092B4231092AA234FC080916C
S1130F90B3239091B4238530910571F024F4019723
S1130FA009F044C007C08630910551F0499709F013
S1130FB03DC004C0BBDD3AC0CADD38C0CCDD36C09C
S1130FC0C091A823D091A9235CDDC756DD4D888349
S1130FD08091A8239091A92301969093A9238093AB
S1130FE0A82324C08091B900887F803911F473DD6F
S1130FF01DC08091B900887F803AC1F451DD809191
S1131000B3239091B4238530910549F0893191053A
S113101051F0019759F481E08093712207C081E077
S11310208093702203C081EA92E220DF4EDDFDC08E
S11310308091B900887F803629F08091B900887F3B
S1131040883621F481E08093AA2338C08091B900C6
S1131050887F8038E1F48091AA23882341F011DD50
S11310608093B3231092B4231092AA2327C08091B3
S1131070B3239091B4238230910519F04997F1F488
S113108004C0FFDC8093B22319C065DD17C08091D2
S1131090B900887F803A91F403DD8091B323909165
S11310A0B4238230910519F0499741F404C081E0DA
S11310B080936E2203C081EA92E2D8DE06DDB5C0D9
S11310C08091B900887F803629F08091B900887FAB
S11310D0883621F481E08093AA23A6C08091B900C8
S11310E0887F803729F08091B900887F883739F468
S11310F08FEF90E09093B4238093B32395C08091B5
S1131100B900887F803809F062C08091AA238823BF
S113111041F0B7DC8093B3231092B4231092AA2336
S113112083C08091B3239091B4238130910509F455
S11311304AC01CF4892B41F077C084309105B1F08A
S1131140059709F071C041C0C091AB23D091AC2385
S113115098DCC356DD4D88838091AB239091AC23FA
S113116001969093AC238093AB235EC08ADC8111FB
S11311700AC08091AD239091AE2301979093AE2342
S11311808093AD2309C08091AD239091AE23019645
S11311909093AE238093AD238091AD239091AE23A1
S11311A0181619063CF081E090E09093AE238093EA
S11311B0AD233AC00897C4F187E090E09093AE2342
S11311C08093AD2331C0B2DC2FC0C1DC2DC080912F
S11311D0B900887F803911F47EDC26C08091B90083
S11311E0887F803A09F55CDC8091B3239091B42325
S11311F08130910591F01CF4892B39F015C08430AD
S1131200910539F0059781F40CC081E08093722236
S11312100BC081E080936F2207C081E0809371222C
S113122003C081E08093702250DCFF91EF91DF9145
S1131230CF91BF91AF919F918F917F916F915F916A
S11312404F913F912F910F900BBE0F900FBE0F90B7
S11312501F9018951092C50087E08093C40088E918
S11312608093C10086E08093C20008958091C000FD
S113127080720895CF93C82FF9DF8823E9F3C093D0
S1131280C600CF910895CF92DF92EF92FF920F9311
S11312901F93CF93DF93662309F43EC0062F10E01B
S11312A04FEF5FEFEEEFFFEFC62ED12CE82EF12CBF
S11312B0C8E0D0E0EE3F6FEFF60719F48E2D9F2DB6
S11312C030C0EF3F8FEFF80719F48C2D9D2D29C006
S11312D0DF01AC53BA4D8C9190E023C0BA0168276A
S11312E0792760FF07C05695479568E0462764E86C
S11312F0562702C0569547959695879521503109F2
S113130069F73196E017F107A9F69A01209530950F
S113131032272327322702C020E030E0822F932F88
S113132002C09E01DBCFDF91CF911F910F91FF90FF
S1131330EF90DF90CF9008950F931F93CF93DF9397
S11313409EE79093C3268093C4266093C526262FD8
S113135030E0121613064CF5E4ECF5E203E010E07D
S1131360C0E0D0E07DE750E29081492F4D574230F4
S113137080F4D801AD53B94DAC0FBD1F7C930F5F02
S11313801F4FD801AD53B94DAC0FBD1F95279C938A
S113139006C0D801AD53B94DAC0FBD1F9C93219627
S11313A03196C217D30701F704C003E010E0C0E090
S11313B0D0E069DFF801ED53F94DEC0FFD1F908388
S11313C0818322960C0F1D1FF801ED53F94D8EE712
S11313D08083C8010196181619064CF4C3ECD6E2B2
S11313E00C53194D899146DFC017D107D9F7DF9106
S11313F0CF911F910F91089580E090E0FDDC8093E0
S1131400C42581E090E0F8DC8093C52582E090E07B
S1131410F3DC8093C62563E083E48ECF8F929F92A2
S1131420AF92BF92CF92DF92EF92FF920F931F93EE
S1131430CF93DF93CDB7DEB7ADB6BEB660E070E054
S113144080910F11909110110E941902882331F09C
S11314506FE571E280E404DC81E044C0C0900000E8
S1131460D12C96012150310981E090E0C114D104BE
S113147011F080E090E0820F931F2DB73EB7281B38
S1131480390B0FB6F8943EBF0FBE2DBF8DB79EB774
S11314900196882E992E1C141D04F4F4E82EF92EBE
S11314A000E010E060E070E080910F119091101165
S11314B00E941902882331F061E871E280E4D0DBF4
S11314C081E010C080910000F70181937F010F5FDC
S11314D01F4F0C151D0534F3A601682D792D80E8E6
S11314E005DC80E00FB6F894BEBE0FBEADBEDF9142
S11314F0CF911F910F91FF90EF90DF90CF90BF900D
S1131500AF909F908F900895CF93DF9360E070E049
S113151080910F11909110110E941902882331F0CB
S113152064EA71E280E49CDB81E045C080910000C4
S1131530833009F03BC060E070E080910F1190911E
S113154010110E941902882331F066EC71E280E4E4
S113155087DB81E030C0C091000060E070E08091E2
S11315600F11909110110E941902882331F06EEE30
S113157071E280E475DB81E01EC0D091000060E080
S113158070E080910F11909110110E94190288232C
S113159031F065E172E280E463DB81E00CC04091EC
S11315A000006D2F8C2F14DB80E005C069E372E22C
S11315B080E456DB81E0DF91CF910895EF92FF92B2
S11315C00F931F93CF93DF9300D000D0CDB7DEB736
S11315D060E070E080910F11909110110E94190247
S11315E0882331F064EA71E280E43ADB81E036C0BA
S11315F080910000843079F58E010F5F1F4F7E01CA
S113160085E0E80EF11C60E070E080910F1190918C
S113161010110E941902811120C0E0E0F0E08081E5
S1131620D8018D938D01608170E080E090E030D22C
S1131630AB01BC0180E898DB0E151F0521F7498139
S11316405A816B817C8180E88FDB92B181E08927AC
S113165082B980E003C081E001C081E00F900F9067
S11316600F900F90DF91CF911F910F91FF90EF900A
S1131670089560E070E080910F11909110110E9424
S11316801902882331F064EA71E280E4E9DA81E046
S1131690089580910000811105C081E08093742237
S11316A080E0089581E0089580917422882321F0D8
S11316B01092742281E0089580E008951CC0809106
S11316C000008D3449F018F48334A9F409C082353C
S11316D079F0863581F408C0A1DE882361F008958D
S11316E013DF882341F0089569DF882321F00895EA
S11316F0C0DF81110AC060E070E080910F11909109
S113170010110E9419028823D1F208951F920F929A
S11317100FB60F9211240BB60F92EF92FF920F9314
S11317201F932F933F934F935F936F937F938F9365
S11317309F93AF93BF93CF93DF93EF93FF93209146
S1131740C6002E3709F03FC080917722909178220D
S11317508430910540F42091C02330E02C5F3F4F4A
S11317608217930759F58091752290917622892BDF
S113177021F010927622109275220FEB13E2C0E052
S1131780D0E00F2EF0ECEF2EF3E2FF2EF02DF80157
S113179061918F0180910F11909110110E94F901B4
S11317A0882321F060E672E280E45ADA2196F70198
S11317B0808190E00296C817D9074CF310927822E2
S11317C01092772216C02D3739F481E090E090937F
S11317D07622809375220DC0809177229091782291
S11317E0FC01E154FC4D2083019690937822809370
S11317F07722FF91EF91DF91CF91BF91AF919F91AC
S11318008F917F916F915F914F913F912F911F9194
S11318100F91FF90EF900F900BBE0F900FBE0F90A3
S11318201F9018958093C4256093C5254093C625C1
S113183063E083E481CD5058BB27AA270ED0EDC1C5
S1131840B6D130F0BBD120F031F49F3F11F41EF437
S113185086C10EF4E095E7FB7CC1E92F00D280F34A
S1131860BA17620773078407950718F071F49EF599
S113187018C20EF4E0950B2EBA2FA02D0B01B9015E
S113188090010C01CA01A0011124FF27591B99F0F2
S1131890593F50F4503E68F11A16F040A22F232FFE
S11318A0342F4427585FF3CF469537952795A7954E
S11318B0F0405395C9F77EF41F16BA0B620B730BF5
S11318C0840BBAF09150A1F0FF0FBB1F661F771F66
S11318D0881FC2F70EC0BA0F621F731F841F48F41B
S11318E0879577956795B795F7959E3F08F0B3CFA1
S11318F09395880F08F09927EE0F9795879508958B
S1131900DF93DD27B92FBF7740E85FE3161617068C
S113191048075B0710F4D92FCFD19F938F937F9300
S11319206F9334D2ECE8F0E01DD177D12F913F9141
S11319304F915F91D4D1DD2349F09058A2EA2AED6A
S11319403FE049EC5FE3D0785D2787DFDF9165C135
S1131950DCD008F481E0089539D1E3956FC10CD04F
S11319605CC12CD140F023D130F021F45F3F19F059
S1131970F0C0511197C1F3C072D198F39923C9F300
S11319805523B1F3951B550BBB27AA276217730781
S1131990840738F09F5F5F4F220F331F441FAA1F35
S11319A0A9F333D00E2E3AF0E0E830D091505040F5
S11319B0E695001CCAF729D0FE2F27D0660F771FA3
S11319C0881FBB1F261737074807AB07B0E809F085
S11319D0BB0B802DBF01FF2793585F4F2AF09E3F1A
S11319E0510568F0B6C05EC15F3FECF3983EDCF38E
S11319F0869577956795B795F7959F5FC9F7880F93
S1131A00911D9695879597F90895E1E0660F771FE4
S1131A10881FBB1F621773078407BA0720F0621B75
S1131A20730B840BBA0BEE1F88F7E095089504D06E
S1131A306894B11137C108951AD188F09F5790F076
S1131A40B92F9927B751A0F0D1F0660F771F881FDF
S1131A50991F1AF0BA95C9F712C0B13081F021D19B
S1131A60B1E008951EC1672F782F8827B85F39F039
S1131A70B93FCCF3869577956795B395D9F73EF43E
S1131A8090958095709561957F4F8F4F9F4F0895E6
S1131A90E89409C097FB3EF4909580957095619504
S1131AA07F4F8F4F9F4F9923A9F0F92F96E9BB27BA
S1131AB09395F695879577956795B795F111F8CF36
S1131AC0FAF4BB0F11F460FF1BC06F5F7F4F8F4FA1
S1131AD09F4F16C0882311F096E911C0772321F097
S1131AE09EE8872F762F05C0662371F096E8862F2F
S1131AF070E060E02AF09A95660F771F881FDAF786
S1131B00880F9695879597F90895990F0008550FB2
S1131B10AA0BE0E8FEEF16161706E807F907C0F06F
S1131B2012161306E407F50798F0621B730B840B77
S1131B30950B39F40A2661F0232B242B252B21F451
S1131B4008950A2609F4A140A6958FEF811D811DF1
S1131B50089597F99F6780E870E060E008959FEF2B
S1131B6080EC0895DF93CF931F930F93FF92EF922E
S1131B70DF927B018C01689405C0DA2EEF01AFD0AF
S1131B80FE01E894A5912591359145915591AEF3C7
S1131B90EF0163DEFE019701A801DA9479F7DF9083
S1131BA0EF90FF900F911F91CF91DF910895002442
S1131BB00A941616170618060906089500240A94AE
S1131BC012161306140605060895C9CF50D0E8F37B
S1131BD0E894E0E0BB279F57F0F02AED3FE049ECA2
S1131BE006C0EE0FBB0F661F771F881F28F0B23A9E
S1131BF062077307840728F0B25A620B730B840BD5
S1131C00E3959A9572F7803830F49A95BB0F661F66
S1131C10771F881FD2F79048BEC0092E0394000C8A
S1131C2011F4882352F0BB0F40F4BF2B11F460FF72
S1131C3004C06F5F7F4F8F4F9F4F0895EF93E0FF76
S1131C4006C0A2EA2AED3FE049EC5FEB06DEE5DFE1
S1131C500F90039401FC9058E9EBF0E0A8C057FD05
S1131C609058440F551F59F05F3F71F04795880F06
S1131C7097FB991F61F09F3F79F08795089512169D
S1131C8013061406551FF2CF4695F1DF08C0161649
S1131C9017061806991FF1CF8695710561050894FA
S1131CA00895E894BB2766277727CB0197F9089511
S1131CB02CDF08F48FEF08959B01AC0160E070E025
S1131CC080E89FE34CCE0BD0A8CF71DF28F076DFFD
S1131CD018F0952309F03DCF42CF1124E3CFBFDFA5
S1131CE0A0F3959FD1F3950F50E0551F629FF0012B
S1131CF0729FBB27F00DB11D639FAA27F00DB11D84
S1131D00AA1F649F6627B00DA11D661F829F22270C
S1131D10B00DA11D621F739FB00DA11D621F839F93
S1131D20A00D611D221F749F3327A00D611D231F69
S1131D30849F600D211D822F762F6A2F11249F57B7
S1131D4050408AF0E1F088234AF0EE0FFF1FBB1FDA
S1131D50661F771F881F91505040A9F79E3F510579
S1131D6070F0F7CE9FCF5F3FECF3983EDCF386959F
S1131D7077956795B795F795E7959F5FC1F7FE2B24
S1131D80880F911D9695879597F908959B01AC014D
S1131D909ACF9F3F31F0915020F4879577956795BE
S1131DA0B795880F911D9695879597F908959F93F8
S1131DB08F937F936F93FF93EF939B01AC0183DF2A
S1131DC0EF91FF91CFDE2F913F914F915F917BCFA8
S1131DD0FB01DC01CA012C9130813D9321930197D1
S1131DE018161906C4F30895CF92DF92EF92FF926A
S1131DF00F931F93CF93DF936C018B017A01E90159
S1131E00F9010995B70197FF0CC0C801FE010995B6
S1131E1097FD16C0B701C601FE01099597FF0DC0D5
S1131E200EC0C801FE010995181619064CF0B70139
S1131E30C601FE01099597FF02C0860101C0870112
S1131E40C801DF91CF911F910F91FF90EF90DF9028
S1131E50CF9008952F923F924F925F926F927F920C
S1131E608F929F92AF92BF92CF92DF92EF92FF92A6
S1131E700F931F93CF93DF93CDB7DEB728970FB699
S1131E80F894DEBF0FBECDBF8C016B0158874F8322
S1131E9059014B835C8327E0C216D10488F5EF8097
S1131EA0F884E00EF11E4F815885C49E4001C59E02
S1131EB0900CD49E900C1124800E911E1BC04F8157
S1131EC05885B601C30184DF36010615170528F0CD
S1131ED06F817885E60EF71E0DC063018F819885AA
S1131EE0C81AD90AB301C601F501099518161906CD
S1131EF034F3EECFE814F90408F04DC13701E5CF0F
S1131F00C601969587952F813885829F7001839F9E
S1131F10F00C929FF00C1124E00EF11E37E0C31672
S1131F20D10409F44CC0C60101974F815885849FA0
S1131F304001859F900C949F900C1124800E911E5B
S1131F4059E2C516D104A0F1C60123E09695879500
S1131F502A95E1F76F817885869F3001879F700C01
S1131F60969F700C11241301220C331CA801420DFE
S1131F70531DB801660D771D9501C80135DF2C018D
S1131F80A701460D571D7194619471089501B7011D
S1131F90C701860D971D28DF7C01B401660D771DEE
S1131FA09501A401C401821993091EDF4C0101C0EB
S1131FB028019501A401B701C20116DF7C014B8100
S1131FC05C81B701C80104DF4F805884400E511E64
S1131FD0C6010197EF81F8858E9F30018F9F700CA9
S1131FE09E9F700C1124600E711E43017201120138
S1131FF020E030E011C0892B59F44B815C81B7019A
S1132000C101E6DE2F813885220E331E21E030E047
S11320104F815885E40EF51E8E149F04D8F0B80144
S1132020C7012D833E83F50109952D813E81181644
S1132030190684F0E0CF892B59F44B815C81B301FC
S1132040C401C6DE2F813885621A730A21E030E0AC
S113205089809A808E149F0408F490C0B801C4014A
S11320602D833E83F5010995A4016F817885461B74
S1132070570B5A8349832D813E8197FFDCCF70C073
S11320804801880E991E1BC04B815C81B601C701B3
S11320909FDE76010E151F0528F08F819885480E66
S11320A0591E0DC06701EF81F885CE1ADF0AB7010A
S11320B0C601F50109951816190634F3EECF481434
S11320C0590408F068C07201E5CF9801280F391F40
S11320D03A832983270142185308A101401B510B5D
S11320E0441655060CF4A201141615062CF4B70177
S11320F0641B750BC8016CDE6301C818D9084981DB
S11321005A81461957096F817885461B570BC416A7
S1132110D50608F4A6011416150634F469817A81EB
S1132120641B750BC70154DE8F8198858415950552
S113213048F4C2016F81788547D095014F81588555
S1132140C80188DEEF81F885EC15FD0520F50981CD
S11321501A810C191D09C601BF0136D06B019BCE33
S11321604B815C81B401C70133DE2F813885E20ED7
S1132170F31E89809A8021E030E04ECF4F8158854C
S1132180C49EC001C59E900DD49E900D1124232B96
S113219009F09BCF75CF28960FB6F894DEBF0FBE1B
S11321A0CDBFDF91CF911F910F91FF90EF90DF9002
S11321B0CF90BF90AF909F908F907F906F905F90E3
S11321C04F903F902F900895AA1BBB1B51E107C06D
S11321D0AA1FBB1FA617B70710F0A61BB70B881FB3
S11321E0991F5A95A9F780959095BC01CD01089542
S10721F0F894FFCF8D
S11321F40114CDCCCC3D0109010010000000000005
S113220400000000000000000000000000000000C6
S113221400000000000000000000000000000000B6
S113222400000000000000000000000000000000A6
S11322340000000000000000000000000000000096
S11331F400000000000000000000000000000011B6
S11332041100100000000000000000000000000095
S113321400000000000000000000000000000000A6
S11332240000000000000000000000000000000096
S11332340000000000000000000000000000000086
S11332440000000000000000000000000000000076
S1134204000000000000005374617274696E67203A
S1134214746F207475726E2061726F756E642E00F3
S11342245374617274696E67207475726E696E6713
S11342342072696768742E005374617274696E67BE
S1134244207475726E696E67206C6566742E0052F4
S1134254784649464F204D455353414745204552DE
S1134264524F523A204C454E204D495353494E47E0
S11342740052784649464F204D4553534147452003
S11342844552524F523A2044415441204D495353CC
S1134294494E470052784649464F20434F4D4D41BD
S11342A44E44204552524F523A204C454E204D49DB
S11342B45353494E470052784649464F20434F4D85
S11342C44D414E44204552524F523A20444952459E
S11342D44354494F4E204D495353494E4700527855
S11342E44649464F20434F4D4D414E44204552527A
S11342F44F523A20524F544154494F4E204D495342
S113430453494E470052784649464F20434F4D4D3A
S1134314414E44204552524F523A2053504545444D
S1134324204D495353494E470052784649464F203D
S1134334434F4D4D414E44204552524F523A204929
S11343444E434F5252454354204C454E4754480023
S10F4354555F4649464F2D66756C6C00A1
S9030000FC
