S01A00004E617669676174696F6E73656E686574656E2E73726563A0
S113000045C0000060C000005EC000005CC000008D
S11300105AC0000058C0000056C0000054C0000080
S113002052C00000FBC000004EC000004CC00000E5
S11300304AC00000E5C0000046C0000044C0000003
S113004042C0000040C000003EC000003CC00000B0
S11300506EC6000038C0000036C0000034C0000086
S113006032C0000030C00000C6C200002CC0000036
S11300702AC0000028C0000026C0000024C00000E0
S113008022C0000020C000001EC0000011241FBEBA
S1130090CFEFD0E4DEBFCDBF12E1A0E0B1E0E2E8F3
S11300A0F0E100E00BBF02C007900D92A631B1074A
S11300B0D9F728E1A6E1B2E101C01D92A735B20744
S11300C0E1F78CD0DCC79CCFBC0180E090E0E6D6A1
S11300D020E030E04AE751E447D7B4D67093890072
S11300E0609388000895BC0180E090E0D7D620E0BA
S11300F030E04AE751E438D7A5D67093890060937D
S113010088000895E1E8F0E0808185608083E1EB78
S1130110F0E080818560808388EE93E0D5DF88EE0F
S113012093E0E1DFEFE6F0E0808182608083E0E746
S1130130F0E08081826080831092850010928400B8
S11301401092B2000895FC01908191508481228123
S1130150821B892308951F93CF93DF93EC01162FFD
S1130160F2DF288139812150310990E08217930709
S113017069F08C819D81FE01E80FF91F16830196B9
S1130180282339233D832C8380E001C081E0DF9163
S1130190CF911F9108950F931F93CF93DF93EC0199
S11301A08B01D1DF8823A1F0EA81FB81EC0FFD1FD5
S11301B08681F801808328813981215031098A811F
S11301C09B810196822393239B838A8380E001C0D1
S11301D081E0DF91CF911F910F91089583D378949B
S11301E080E2C3D08FDF81B1836081B9C2E0F9D1ED
S11301F0882321F082B18C2782B946D47AD5F7CFEF
S11302001F920F920FB60F92112410928500109234
S113021084000F900FBE0F901F9018951F920F929D
S11302200FB60F9211241092B2000F900FBE0F90D0
S11302301F90189585E48093BC00089581EC809309
S1130240BC00089584EA8093BC00089585ED8093F2
S1130250BC0008958091B900887F883309F0F6CFF7
S1130260EDCF8091BB000895ECEBF0E08081882312
S1130270ECF708958093BB0084E88093BC00F4CF2E
S1130280109233131092321310923D1310923C13B8
S1130290109228131092271310922D1310922C13DE
S11302A01092301310922F130895ECEBF0E080813C
S11302B0806C80830895CF93DF93C0913C13D091D9
S11302C03D13C830D10591F4EEE3F3E1A6E4B3E1C4
S11302D086E493E121912D93E817F907D9F7C1DF5B
S11302E08093361381E080931B120DC0BADFC25C89
S11302F0DC4E888380913C1390913D13019690933A
S11303003D1380933C13DF91CF910895CF93DF93F6
S1130310C0912C13D0912D13A4DFC75DDC4E8883CC
S113032010922D1310922C13DF91CF91089599DF21
S1130330809327120895CF93DF93C0912713D09110
S113034028138FDFC85DDD4E888380912713909139
S113035028130196909328138093271390933813AE
S113036080933713DF91CF91089580932E138034B7
S113037079F0803819F08032D1F412C083E088B962
S113038059DF8FE38093B80081E88093BA00089521
S11303908FE38093B8004EDF80E48093BA00089521
S11303A08FE38093B80046DF81E28093BA0008951A
S11303B01F93CF93DF93C82FD62F142F43DF54DF1F
S11303C09091B900987F983019F044DF80E034C0F0
S11303D080E250DF8091B900887F883119F03ADFDC
S11303E080E02AC080E046DF8091B900887F8832AF
S11303F019F030DF80E020C08C2F3CDF8091B90001
S1130400887F883219F026DF80E016C08D2F32DF16
S11304108091B900887F883219F01CDF80E00CC01D
S1130420812F28DF8091B900887F883219F012DF8C
S113043080E002C00BDF81E0DF91CF911F9108952E
S1130440EF92FF920F931F93CF93DF93C82FE62E63
S1130450F72EF8DE09DF9091B900987F983019F0F3
S1130460F9DE80E02CC08C2F05DF8091B900887FF5
S1130470883119F0EFDE80E022C089E1FBDE809153
S1130480B900887F883229F40E2D1F2DC0E0D0E0FA
S113049008C0E0DE80E013C0F80181918F01EADE3C
S11304A02196EE2DFF2DDF010D900020E9F7119725
S11304B0AE1BBF0BCA17DB0778F3C8DE81E0DF9100
S11304C0CF911F910F91FF90EF900895EF92FF92BB
S11304D00F931F93CF93DF93C82FE62EF72E8A0135
S11304E0B1DEC2DE9091B900987F983019F0B2DE87
S11304F080E023C08C2FBEDE8091B900887F8831D4
S113050019F0A8DE80E019C089E1B4DE8091B90059
S1130510887F883221F41016110624F00CC09ADE6C
S113052080E00BC0CE2DDF2D0C0F1D1F8991A2DEA4
S1130530C017D107D9F78ADE81E0DF91CF911F91EF
S11305400F91FF90EF900895EF92FF920F931F93F6
S1130550CF93DF9300D000D0CDB7DEB7182F4983F7
S11305605A836B837C836EDE7FDE9091B900987F23
S1130570983019F06FDE80E024C0812F7BDE8091FB
S1130580B900887F883119F065DE80E01AC086E002
S113059071DE8091B900887F883219F05BDE80E0DB
S11305A010C08E010F5F1F4F7E0185E0E80EF11C25
S11305B0F80181918F015EDE0E151F05C9F746DE35
S11305C081E00F900F900F900F90DF91CF911F91CA
S11305D00F91FF90EF9008958C5D9D4EFC018081FA
S11305E0089580911A12882321F010921A1281E042
S11305F0089580E008951F920F920FB60F92112470
S11306000BB60F922F933F934F935F936F937F9308
S11306108F939F93AF93BF93CF93DF93EF93FF9306
S113062080912E13803409F46FC0803821F0803219
S113063009F043C1A9C08091B900887F803629F0B0
S11306408091B900887F883621F481E0809331134A
S113065059C08091B900887F8038B1F580913113F9
S1130660882341F0FEDD80933A1310923B131092DD
S1130670311348C080913A1390913B138530910512
S113068069F024F4019709F03DC006C08630910555
S113069049F04997B9F504C039DE34C048DE32C0A8
S11306A04ADE30C0C0912F13D0913013DADDC05E22
S11306B0DD4E888380912F1390913013019690938F
S11306C0301380932F131EC08091B900887F803926
S11306D011F4F1DD17C08091B900887F803A91F45C
S11306E0CFDD80913A1390913B138130910519F03D
S11306F0059741F404C081E08093191203C081E09E
S113070080931812D2DDD9C08091B900887F8036D9
S113071029F08091B900887F883621F481E08093A4
S1130720311330C08091B900887F8038E1F4809122
S11307303113882341F095DD80933A1310923B13D3
S1130740109231131FC080913A1390913B13823061
S1130750910519F04997B1F404C083DD80933913EE
S113076011C0E9DD0FC08091B900887F803A51F44F
S113077087DD80913A1390913B13029719F481E03D
S11307808093161292DD99C08091B900887F8036DB
S113079029F08091B900887F883621F481E0809324
S11307A031138AC08091B900887F803809F057C01E
S11307B080913113882341F054DD80933A131092D1
S11307C03B131092311378C080913A1390913B13EC
S11307D08130910509F43FC01CF4892B41F06CC0B1
S11307E084309105B1F0059709F066C036C0C09118
S11307F03213D091331335DDCC5DDD4E8883809187
S113080032139091331301969093331380933213E0
S113081053C027DD2091341330913513A901480FBB
S1130820511DCA01181619063CF081E090E090931E
S113083035138093341340C0483051052CF4509341
S113084035134093341338C087E090E09093351308
S11308508093341331C05ADD2FC069DD2DC08091DF
S1130860B900887F803911F426DD26C08091B90053
S1130870887F803A09F504DD80913A1390913B1307
S11308808130910591F01CF4892B39F015C0843026
S1130890910539F0059781F40CC081E080931A1218
S11308A00BC081E08093171207C081E08093191276
S11308B003C081E080931812F8DCFF91EF91DF917F
S11308C0CF91BF91AF919F918F917F916F915F91E4
S11308D04F913F912F910F900BBE0F900FBE0F9031
S11308E01F9018951092C50087E08093C40088E992
S11308F08093C10086E08093C20008958091C00077
S113090080720895CF93C82FF9DF8823E9F3C09349
S1130910C600CF910895CF92DF92EF92FF920F938A
S11309201F93CF93DF93662309F43EC0062F10E094
S11309304FEF5FEFEEEFFFEFC62ED12CE82EF12C38
S1130940C8E0D0E0EE3F6FEFF60719F48E2D9F2D2F
S113095030C0EF3F8FEFF80719F48C2D9D2D29C07F
S1130960DF01AD5ABA4E8C9190E023C0BA016827DA
S1130970792760FF07C05695479568E0462764E8E5
S1130980562702C05695479596958795215031096B
S113099069F73196E017F107A9F69A012095309589
S11309A032272327322702C020E030E0822F932F02
S11309B002C09E01DBCFDF91CF911F910F91FF9079
S11309C0EF90DF90CF9008950F931F93CF93DF9311
S11309D09EE7909352168093531660935416262FD5
S11309E030E0121613064CF5E3E5F5E103E010E000
S11309F0C0E0D0E07DE750E29081492F4D5742306E
S1130A0080F4D801AE5AB94EAC0FBD1F7C930F5F72
S1130A101F4FD801AE5AB94EAC0FBD1F95279C93FA
S1130A2006C0D801AE5AB94EAC0FBD1F9C93219697
S1130A303196C217D30701F704C003E010E0C0E009
S1130A40D0E069DFF801EE5AF94EEC0FFD1F9083F8
S1130A50818322960C0F1D1FF801EE5AF94E8EE782
S1130A608083C8010196181619064CF4C2E5D6E134
S1130A700D5A194E899146DFC017D107D9F7DF9176
S1130A80CF911F910F91089580E090E0A5DD8093B0
S1130A90531581E090E0A0DD8093541582E090E04E
S1130AA09BDD8093551563E083E48ECF8F929F92F4
S1130AB0AF92BF92CF92DF92EF92FF920F931F9368
S1130AC0CF93DF93CDB7DEB7ADB6BEB660E070E0CE
S1130AD080910001909101015EDB882331F068E090
S1130AE071E180E4ADDC81E043C0C0900000D12C12
S1130AF096012150310981E090E0C114D10411F034
S1130B0080E090E0820F931F2DB73EB7281B390B6E
S1130B100FB6F8943EBF0FBE2DBF8DB79EB701969A
S1130B20882E992E1C141D04ECF4E82EF92E00E0F6
S1130B3010E060E070E080910001909101012BDBF6
S1130B40882331F06AE271E180E47ADC81E010C04C
S1130B5080910000F70181937F010F5F1F4F0C15F7
S1130B601D053CF3A601682D792D80E8AFDC80E0FB
S1130B700FB6F894BEBE0FBEADBEDF91CF911F91EC
S1130B800F91FF90EF90DF90CF90BF90AF909F9028
S1130B908F900895CF93DF9360E070E0809100011F
S1130BA090910101F8DA882331F06DE471E180E479
S1130BB047DC81E042C080910000833009F038C0F6
S1130BC060E070E08091000190910101E4DA8823F3
S1130BD031F06FE671E180E433DC81E02EC0C09136
S1130BE0000060E070E08091000190910101D3DA8F
S1130BF0882331F067E971E180E422DC81E01DC0E3
S1130C00D091000060E070E08091000190910101BA
S1130C10C2DA882331F06EEB71E180E411DC81E00B
S1130C200CC0409100006D2F8C2FC2DB80E005C00A
S1130C3062EE71E180E404DC81E0DF91CF910895FC
S1130C40EF92FF920F931F93CF93DF9300D000D0C6
S1130C50CDB7DEB760E070E08091000190910101B2
S1130C609ADA882331F06DE471E180E4E9DB81E014
S1130C7035C080910000843071F58E010F5F1F4FE5
S1130C807E0185E0E80EF11C60E070E080910001D7
S1130C909091010180DA811120C0E0E0F0E08081D0
S1130CA0D8018D938D01608170E080E090E0F6D0F2
S1130CB0AB01BC0180E848DC0E151F0529F749810A
S1130CC05A816B817C8180E83FDC92B181E0892785
S1130CD082B980E003C081E001C081E00F900F90F1
S1130CE00F900F90DF91CF911F910F91FF90EF9094
S1130CF0089513C0809100008D3429F0863551F099
S1130D00833459F404C0D2DE882339F0089542DFD5
S1130D1081110CC095DF811109C060E070E0809101
S1130D2000019091010137DA882321F308951F927D
S1130D300F920FB60F9211240BB60F92EF92FF92FF
S1130D400F931F932F933F934F935F936F937F93CF
S1130D508F939F93AF93BF93CF93DF93EF93FF93BF
S1130D602091C6002E3709F03EC080911E1290914A
S1130D701F128430910540F420914F1330E02C5F12
S1130D803F4F8217930751F580911C1290911D12C9
S1130D90892B21F010921D1210921C120EE413E103
S1130DA0C0E0D0E00F2EFFE4EF2EF3E1FF2EF02D94
S1130DB0F80161918F018091000190910101CBD9DB
S1130DC0882321F069E072E180E43ADB2196F7019F
S1130DD0808190E00296C817D90754F310921F122D
S1130DE010921E1216C02D3739F481E090E09093D2
S1130DF01D1280931C120DC080911E1290911F121F
S1130E00FC01E25BFC4E2083019690931F128093B9
S1130E101E12FF91EF91DF91CF91BF91AF919F91FE
S1130E208F917F916F915F914F913F912F911F917E
S1130E300F91FF90EF900F900BBE0F900FBE0F908D
S1130E401F90189570D088F09F5790F0B92F99276C
S1130E50B751A0F0D1F0660F771F881F991F1AF0C1
S1130E60BA95C9F712C0B13081F077D0B1E00895D6
S1130E7074C0672F782F8827B85F39F0B93FCCF357
S1130E80869577956795B395D9F73EF490958095B7
S1130E90709561957F4F8F4F9F4F0895E89409C0D7
S1130EA097FB3EF490958095709561957F4F8F4F99
S1130EB09F4F9923A9F0F92F96E9BB279395F695AF
S1130EC0879577956795B795F111F8CFFAF4BB0F2D
S1130ED011F460FF1BC06F5F7F4F8F4F9F4F16C091
S1130EE0882311F096E911C0772321F09EE8872F1B
S1130EF0762F05C0662371F096E8862F70E060E0D7
S1130F002AF09A95660F771F881FDAF7880F96954F
S1130F10879597F9089557FD9058440F551F59F038
S1130F205F3F71F04795880F97FB991F61F09F3FD2
S1130F3079F087950895121613061406551FF2CFFB
S1130F404695F1DF08C0161617061806991FF1CF4B
S1130F5086957105610508940895E894BB27662772
S1130F607727CB0197F908950BD078C069D028F082
S1130F706ED018F0952309F05AC05FC01124EECF4B
S1130F80CADFA0F3959FD1F3950F50E0551F629FE0
S1130F90F001729FBB27F00DB11D639FAA27F00DCE
S1130FA0B11DAA1F649F6627B00DA11D661F829FF5
S1130FB02227B00DA11D621F739FB00DA11D621FDA
S1130FC0839FA00D611D221F749F3327A00D611DF7
S1130FD0231F849F600D211D822F762F6A2F1124D9
S1130FE09F5750408AF0E1F088234AF0EE0FFF1F2C
S1130FF0BB1F661F771F881F91505040A9F79E3F63
S1131000510570F014C0AACF5F3FECF3983EDCF3B7
S1131010869577956795B795F795E7959F5FC1F79F
S1131020FE2B880F911D9695879597F9089597F94A
S11310309F6780E870E060E008959FEF80EC08957A
S113104000240A94161617061806090608950024A3
S11310500A9412161306140605060895092E03941D
S1131060000C11F4882352F0BB0F40F4BF2B11F491
S113107060FF04C06F5F7F4F8F4F9F4F0895F894B8
S1051080FFCF9C
S11310820201001000000000000000000000000047
S1131092000000000000000000000000000000004A
S11310A2000000000000000000000000000000003A
S11310B2000000000000000000000000000000002A
S11310C2000000000000000000000000000000001A
S1132082000000000000000052784649464F204DEF
S1132092455353414745204552524F523A204C45ED
S11320A24E204D495353494E470052784649464FB4
S11320B2204D455353414745204552524F523A20F1
S11320C244415441204D495353494E4700527846A6
S11320D249464F20434F4D4D414E44204552524FA5
S11320E2523A204C454E204D495353494E470052D3
S11320F2784649464F20434F4D4D414E4420455268
S1132102524F523A20444952454354494F4E204D6E
S1132112495353494E470052784649464F20434F4C
S11321224D4D414E44204552524F523A20524F5443
S11321324154494F4E204D495353494E470052781A
S11321424649464F20434F4D4D414E44204552523D
S11321524F523A205350454544204D495353494E1A
S1132162470052784649464F20434F4D4D414E4415
S1132172204552524F523A20494E434F5252454300
S113218254204C454E47544800555F4649464F2D0E
S109219266756C6C000090
S9030000FC
