S01A00004E617669676174696F6E73656E686574656E2E73726563A0
S11300006BC00000D1C50000F9C5000083C000002A
S113001081C000007FC000007DC000007BC00000E4
S113002079C0000077C0000075C0000073C00000F4
S113003071C000004BC600006DC000006BC0000022
S113004069C0000067C0000065C0000063C0000014
S11300500C94CE0C5FC000005DC000005BC00000CB
S113006059C0000057C000000C94BD0853C00000E4
S113007051C000004FC000004DC000004BC0000044
S113008033C6000047C0000045C00000084AD73B03
S11300903BCE016E84BCBFFDC12F3D6C74319ABD53
S11300A056833DDA3D00C77F11BED9E4BB4C3E9177
S11300B06BAAAABE000000803F05A84CCDB2D44E66
S11300C0B93836A9020C50B9918688083CA6AAAA68
S11300D02ABE000000803F0011241FBECFEFD0E4F1
S11300E0DEBFCDBF12E1A0E0B1E0E4E6F0E200E063
S11300F00BBF02C007900D92A83FB107D9F729E1C1
S1130100A8EFB2E101C01D92AC36B207E1F7A0D569
S11301100C94301075CFCF93DF9380910001882326
S1130120C9F06BE171E180E8F4D614C040E06EE1FF
S113013080E00E945A0DC9D1219719F0C5D78111C9
S1130140F5CF80910001882341F064E371E180E8F8
S1130150E0D603C0C8E2D0E0F1CFDF91CF9108959B
S11301608F929F92AF92BF92CF92DF92EF92FF92C3
S1130170CF93DF931FD46B017C0180D24B015C01D0
S113018020E030E048E452E4C701B6010E94AB0F1E
S11301909B01AC010E94640D2BED3FE049E450E467
S11301A00E94F70D20E030E04CE452E40E94640D1C
S11301B00E945F0E6436710534F4EB01DD232CF4E8
S11301C0C0E0D0E002C0C4E6D0E020E030E044EB80
S11301D052E4C501B4010E94AB0F2BED3FE049ECA2
S11301E050E40E94F70D0E945F0E262F40910101FA
S11301F06C2F822F0E945A0D68D1DF91CF91FF900E
S1130200EF90DF90CF90BF90AF909F908F90089524
S1130210CF93DF9380910001882301F169E571E1B7
S113022080E877D61BC040E066E480E00E945A0D67
S11302304CD12197B1F048D78111F5CF12C090DF8E
S1130240219719F041D78111FACF809100018823B9
S113025059F061E771E180E85CD606C0C4E1D0E002
S1130260EACFCCE0D0E0EECFDF91CF910895CF93E9
S1130270DF9380910001882301F165E871E180E852
S113028048D61BC040E06EE180E00E945A0D1DD1AB
S11302902197B1F019D78111F5CF12C061DF2197F1
S11302A019F012D78111FACF80910001882359F0F7
S11302B06CE971E180E82DD606C0C4E1D0E0EACF54
S11302C0CCE0D0E0EECFDF91CF910895CF93DF93D0
S11302D085D1EFD0882329F1BCD1823061F404C0E8
S11302E03FDF219719F405C0C4E0D0E0EDD68111B9
S11302F0F7CFBDDF3AC084E090E029D1893210F015
S11303002FDF33C091D1823011F482DF2EC0A1D10E
S1130310811105C089D1811102C0FDDE26C020DF14
S113032024C082D1823061F404C01ADF219719F409
S113033005C0C4E0D0E0C8D68111F7CF69DF15C08D
S113034084E090E004D1893210F00ADF0EC081D13C
S1130350823011F48CDF09C07CD1811105C064D1D5
S1130360811102C0D8DE01C0FBDEDF91CF91089578
S1130370BC0180E090E00E94900E20E030E04AE76B
S113038051E40E94AB0F0E94640E70938900609345
S113039088000895BC0180E090E00E94900E20E067
S11303A030E04AE751E40E94AB0F0E94640E709360
S11303B09900609398000895E1E8F0E080818560F9
S11303C08083E1E9F0E080818560808388EE93E0BA
S11303D0CFDF88EE93E0DEDFEFE6F0E0808182603D
S11303E08083E1E7F0E08081826080831092850061
S11303F01092840010929500109294000895FC01CC
S11304009081915084812281821B892308951F93B6
S1130410CF93DF93EC01162FF2DF2881398121502D
S1130420310990E08217930769F08C819D81FE0168
S1130430E80FF91F16830196282339233D832C8363
S113044080E001C081E0DF91CF911F9108950F9367
S11304501F93CF93DF93EC018B01D1DF8823A1F0AD
S1130460EA81FB81EC0FFD1F8681F80180832881DE
S11304703981215031098A819B81019682239323FA
S11304809B838A8380E001C081E0DF91CF911F913B
S11304900F910895682F70E080E090E00E94900E24
S11304A06093030170930401809305019093060106
S11304B0089580910701089580930701089580911C
S11304C002010895809302010895CF93C2E00EC003
S11304D00E94A60C2FEF89EF90E0215080409040BD
S11304E0E1F700C0000082B18C2782B90E949C0C05
S11304F0882371F3CF9108950F931F93CF93DF93C4
S1130500C0E0D0E00091F91210E0CE01D3D5FE0195
S1130510EE0FFF1FEE0FFF1FEC0FFD1F0E0F1F1F2F
S1130520F801E35FFC4E80832196C830D10551F772
S11305308091F912843019F41092F91203C08F5F7C
S11305408093F912DF91CF911F910F910895CF936A
S1130550DF9300D000D01F92CDB7DEB7FC01EE0FC1
S1130560FF1FEE0FFF1F8E0F9F1FFC01E35FFC4E6A
S11305708081898381818A8382818B8383818C8337
S113058084818D8324E030E00EC041915081541762
S113059020F4DF0111975C9340838E179F07A9F71E
S11305A02150310949F012161306D4F7FE01319691
S11305B0CF01820F931FE9CF8B810F900F900F9083
S11305C00F900F90DF91CF91089585E090E0BFDF09
S11305D091E0843608F090E0892F0895F6DF8823AF
S11305E0E9F08091F812811119C04BE150E06FEAF3
S11305F071E180E4D4D42FEF86E791E0215080406C
S11306009040E1F700C000004BE150E06FEA71E177
S113061080E8C5D481E08093F8120895D6DF811173
S113062002C01092F812089581E090E090DF8C33BC
S113063028F083E090E08BDF8C3340F481E090E09D
S113064086DF91E0863418F490E001C092E0892FAF
S1130650089580E090E07BDF8C3328F082E090E026
S113066076DF8C3340F480E090E071DF91E08634F3
S113067018F490E001C092E0892F0895CF92DF92A0
S1130680EF92FF92CF93DF936B017C01809107017E
S1130690882309F498C082E090E059DFC82F80E0F5
S11306A090E055DF2C2F30E0A901481B5109CA0105
S11306B099231CF49195819591090A97B4F580E0EA
S11306C090E045DF823388F582E090E040DFC82F78
S11306D080E090E03CDFD82FC701B6010E94F40D02
S11306E06B017C016D2F70E06C0F711D882777FD05
S11306F08095982F0E94920E20E030E040E05FE366
S11307000E94AB0F20E030E040EF50E40E94640D03
S1130710A70196010E94AB0F20E030E040E252E4D2
S11307200E94630D0E945F0EE5C081E090E00FDF40
S1130730C82F83E090E00BDF2C2F30E0A901481B89
S11307405109CA0199231CF49195819591090A973D
S11307500CF021C181E090E0FADE823308F01BC185
S113076081E090E0F4DEC82F83E090E0F0DED82F43
S1130770C701B6010E94F40D6B017C016D2F70E07E
S11307806C0F711D882777FD8095982F0E94920E1B
S113079020E030E040E05FE30E94AB0F20E030E077
S11307A040EF50E40E94640DA70196010E94AB0F34
S11307B09B01AC0160E070E080E292E40E94630D72
S11307C00E945F0E97C081E090E0C1DEC82F83E0F5
S11307D090E0BDDE2C2F30E0A901481B5109CA016D
S11307E099231CF49195819591090A97C4F581E0A8
S11307F090E0ADDE823398F581E090E0A8DEC82F6A
S113080083E090E0A4DED82FC701B6010E94F40D66
S11308106B017C016D2F70E06C0F711D882777FDD3
S11308208095982F0E94920E20E030E040E05FE334
S11308300E94AB0F20E030E040EF50E40E94640DD2
S1130840A70196010E94AB0F9B01AC0160E070E030
S113085080E292E40E94630D0E945F0E4BC082E02E
S113086090E075DEC82F80E090E071DE2C2F30E040
S1130870A901481B5109CA0199231CF4919581953A
S113088091090A970CF087C080E090E060DE823323
S113089008F081C082E090E05ADEC82F80E090E04A
S11308A056DED82FC701B6010E94F40D6B017C01FE
S11308B06D2F70E06C0F711D882777FD8095982F40
S11308C00E94920E20E030E040E05FE30E94AB0F14
S11308D020E030E040EF50E40E94640DA70196014F
S11308E00E94AB0F20E030E040E252E40E94630D2E
S11308F00E945F0ECB010196039708F447C0882736
S113090077FD8095982F0E94920E209103013091DB
S1130910040140910501509106010E94AB0F0E9411
S1130920C80DC62ED72EE82EF92E20E030E0A901FE
S11309300E94F00D88237CF42BED3FE049EC50E459
S11309406C2D7D2D8E2D9F2D0E94640DC62ED72ECD
S1130950E82EF92E24C02BED3FE049EC50E46C2D39
S11309607D2D8E2D9F2D0E94A00F8823C4F02BED8A
S11309703FE049EC50E46C2D7D2D8E2D9F2D0E947F
S1130980630DC62ED72EE82EF92E09C0C12CD12C0A
S1130990E12CF12C04C0C12CD12CE12CF12C6C2DB8
S11309A07D2D8E2D9F2DDF91CF91FF90EF90DF90C5
S11309B0CF900895CF92DF92EF92FF92809107013A
S11309C0882309F46CC082E090E0C1DDF82E80E059
S11309D090E0BDDD2F2D30E0A901481B5109CA016B
S11309E099231CF49195819591090A970CF580E05F
S11309F090E0ADDD8233E0F482E090E0A8DDF82EF3
S1130A0080E090E0A4DD6F2D70E0681B71098827F9
S1130A1077FD8095982F0E94920E20E030E048E602
S1130A2051E40E94F70D0E94C80D6B017C01A0C027
S1130A3081E090E08CDDF82E83E090E088DD2F2DBE
S1130A4030E0A901481B5109CA0199231CF491956E
S1130A50819591090A970CF09AC081E090E077DDC6
S1130A60823308F094C081E090E071DDF82E83E0D9
S1130A7090E06DDD6F2D70E0681B7109882777FDAC
S1130A808095982F0E94920E20E030E048E651E4D1
S1130A900E94F70D0E94C80D6B017C0169C081E0C2
S1130AA090E055DDF82E83E090E051DD2F2D30E00D
S1130AB0A901481B5109CA0199231CF491958195F8
S1130AC091090A970CF581E090E041DD8233E0F46E
S1130AD081E090E03CDDF82E83E090E038DD6F2D7E
S1130AE070E0681B7109882777FD8095982F0E9414
S1130AF0920E20E030E048E651E40E94F70D0E9497
S1130B00C80D6B017C0134C082E090E020DDF82E3A
S1130B1080E090E01CDD2F2D30E0A901481B510935
S1130B20CA0199231CF49195819591090A977CF542
S1130B3080E090E00CDD823350F582E090E007DD48
S1130B40F82E80E090E003DD6F2D70E0681B7109E2
S1130B50882777FD8095982F0E94920E20E030E040
S1130B6048E651E40E94F70D0E94C80D6B017C0118
S1130B70C701B6019F7729E23CE54FE85DE30E9497
S1130B80A00F18163CF0C12CD12C760103C0C12C47
S1130B90D12C76017C2D672F7D2D8E2D9F2DFF90DE
S1130BA0EF90DF90CF9008951F920F920FB60F929F
S1130BB011240BB60F922F933F934F935F936F9330
S1130BC07F938F939F93AF93BF93EF93FF9381E0B2
S1130BD073DC81E077DCFF91EF91BF91AF919F913E
S1130BE08F917F916F915F914F913F912F910F90D2
S1130BF00BBE0F900FBE0F901F9018951F920F926F
S1130C000FB60F9211240BB60F922F933F934F936D
S1130C105F936F937F938F939F93AF93BF93EF9360
S1130C20FF9380E049DC81E04DDCFF91EF91BF91BF
S1130C30AF919F918F917F916F915F914F913F9170
S1130C402F910F900BBE0F900FBE0F901F90189511
S1130C5047D480E890E050D4789480E2EFD0ACDBC5
S1130C6081B1836081B92FEF83E294EF21508040FA
S1130C709040E1F700C0000080E024DCC2E03BD2F9
S1130C80882379F021D2811102C01CDC0AC0813092
S1130C9021F418DC81E010DC04C081E013DC80E086
S1130CA00BDC0DDC813049F41CD2882321F080E078
S1130CB090E005D2EFDB0ADB07C009D2882321F0DC
S1130CC082B18C2782B9E3D441D6D9CF1F920F9237
S1130CD00FB60F92112410928500109284000F9089
S1130CE00FBE0F901F9018951F920F920FB60F9280
S1130CF0112410929500109294000F900FBE0F9043
S1130D001F90189585E48093BC00089581EC80932E
S1130D10BC00089584EA8093BC00089585ED809317
S1130D20BC0008958091B900887F883309F0F6CF1C
S1130D30EDCF8091BB000895ECEBF0E08081882337
S1130D40ECF708958093BB0084E88093BC00F4CF53
S1130D501092481410924714109252141092511485
S1130D6010923D1410923C141092421410924114AB
S1130D7010924514109244140895ECEBF0E0808135
S1130D80806C80830895CF93DF93C0914114D091F8
S1130D904214CFDFC25CDB4E88831092421410925F
S1130DA04114DF91CF910895C4DF80933C130895DB
S1130DB0CF93DF93C0913C14D0913D14BADFC35C50
S1130DC0DC4E888380913C1490913D14019690935D
S1130DD03D1480933C1490934D1480934C14DF91F4
S1130DE0CF910895CF93DF93C0915114D0915214B1
S1130DF0C830D10599F4E3E5F4E1ABE5B4E18BE562
S1130E0094E121912D93E817F907D9F792DF8093A4
S1130E104B1481E08093FF126FDB0DC08ADFCD5A43
S1130E20DB4E8883809151149091521401969093D3
S1130E30521480935114DF91CF91089580934314F9
S1130E40803479F0803819F08032D1F412C083E014
S1130E5088B958DF8FE38093B80081E88093BA00A3
S1130E6008958FE38093B8004DDF80E48093BA0047
S1130E7008958FE38093B80045DF81E28093BA0040
S1130E8008951F93CF93DF93C82FD62F142F42DFDB
S1130E9053DF9091B900987F983019F043DF80E0D8
S1130EA034C080E24FDF8091B900887F883119F027
S1130EB039DF80E02AC080E045DF8091B900887F77
S1130EC0883219F02FDF80E020C08C2F3BDF809127
S1130ED0B900887F883219F025DF80E016C08D2F95
S1130EE031DF8091B900887F883219F01BDF80E000
S1130EF00CC0812F27DF8091B900887F883219F0D8
S1130F0011DF80E002C00ADF81E0DF91CF911F9101
S1130F100895EF92FF920F931F93CF93DF93C82FFF
S1130F20E62EF72EF7DE08DF9091B900987F98300F
S1130F3019F0F8DE80E02CC08C2F04DF8091B9001A
S1130F40887F883119F0EEDE80E022C089E1FADE84
S1130F508091B900887F883229F40E2D1F2DC0E0BE
S1130F60D0E008C0DFDE80E013C0F80181918F017A
S1130F70E9DE2196EE2DFF2DDF010D900020E9F72B
S1130F801197AE1BBF0BCA17DB0778F3C7DE81E0EE
S1130F90DF91CF911F910F91FF90EF900895EF9201
S1130FA0FF920F931F93CF93DF93C82FE62EF72E54
S1130FB08A01B0DEC1DE9091B900987F983019F0B3
S1130FC0B1DE80E023C08C2FBDDE8091B900887F24
S1130FD0883119F0A7DE80E019C089E1B3DE809181
S1130FE0B900887F883221F41016110624F00CC051
S1130FF099DE80E00BC0CE2DDF2D0C0F1D1F8991D3
S1131000A1DEC017D107D9F789DE81E0DF91CF9146
S11310101F910F91FF90EF900895EF92FF920F931D
S11310201F93CF93DF9300D000D0CDB7DEB7182F36
S113103049835A836B837C836DDE7EDE9091B90095
S1131040987F983019F06EDE80E024C0812F7ADE1C
S11310508091B900887F883119F064DE80E01AC07D
S113106086E070DE8091B900887F883219F05ADEFC
S113107080E010C08E010F5F1F4F7E0185E0E80EF7
S1131080F11CF80181918F015DDE0E151F05C9F772
S113109045DE81E00F900F900F900F90DF91CF917C
S11310A01F910F91FF90EF900895875C9C4EFC0177
S11310B080810895855A9B4EFC0180810895825C4D
S11310C09B4EFC018081089580913C13089580918A
S11310D0FE12882321F01092FE1281E0089580E030
S11310E008958091FD12882321F01092FD1281E071
S11310F0089580E008958091FC12882321F01092D5
S1131100FC1281E0089580E008950F931F93CF931C
S1131110DF93D82FC92F60914C14809108019091CE
S1131120090175D981111FC020914C1430914D14BF
S113113012161306D4F40D2F1C2FC0E0D0E0F801D2
S113114061918F01809108019091090160D9811109
S11311500EC0219680914C1490914D14C817D90754
S113116074F380E005C081E003C080E001C081E049
S1131170DF91CF911F910F9108951F920F920FB697
S11311800F9211240BB60F922F933F934F935F93BB
S11311906F937F938F939F93AF93BF93CF93DF937B
S11311A0EF93FF9380914314803409F487C080380F
S11311B021F0803209F07FC1C9C08091B900887FD5
S11311C0803629F08091B900887F883621F481E047
S11311D08093461471C08091B900887F803729F0CC
S11311E08091B900887F883739F48FEF90E090932D
S11311F0501480934F1460C08091B900887F803868
S1131200B9F580914614882341F093DD80934F14FF
S113121010925014109246144FC080914F14909124
S113122050148530910571F024F4019709F044C0FD
S113123007C08630910551F0499709F03DC004C0BC
S1131240A2DD3AC0B1DD38C0B3DD36C0C09144146C
S1131250D09145146EDDCB5CDC4E888380914414C0
S1131260909145140196909345148093441424C09E
S11312708091B900887F803911F4B4DD1DC080915C
S1131280B900887F803AC1F463DD80914F14909156
S113129050148530910549F08931910551F0019739
S11312A059F481E08093FD1207C081E08093FC1221
S11312B003C08DE393E129DF60DDFDC08091B900B7
S11312C0887F803629F08091B900887F883621F4A0
S11312D081E08093461438C08091B900887F8038BB
S11312E0E1F480914614882341F023DD80934F1468
S11312F0109250141092461427C080914F1490916C
S113130050148230910519F04997F1F404C011DDAD
S113131080934E1419C04CDD17C08091B900887FAA
S1131320803A91F415DD80914F14909150148230DD
S1131330910519F0499741F404C081E08093FA12B1
S113134003C08DE393E1E1DE18DDB5C08091B900FF
S1131350887F803629F08091B900887F883621F40F
S113136081E080934614A6C08091B900887F8037BD
S113137029F08091B900887F883739F48FEF90E0A5
S11313809093501480934F1495C08091B900887F36
S1131390803809F062C080914614882341F0C9DC8A
S11313A080934F14109250141092461483C080916D
S11313B04F14909150148130910509F44AC01CF4E3
S11313C0892B41F077C084309105B1F0059709F07D
S11313D071C041C0C0914714D0914814AADCC75CC5
S11313E0DC4E888380914714909148140196909321
S11313F04814809347145EC09CDC81110AC080911C
S1131400491490914A14019790934A148093491473
S113141009C08091491490914A14019690934A14FA
S1131420809349148091491490914A14181619060E
S11314303CF081E090E090934A14809349143AC0C0
S11314400897C4F187E090E090934A14809349147C
S113145031C099DC2FC0A8DC2DC08091B900887FF1
S1131460803911F4BFDC26C08091B900887F803AAE
S113147009F56EDC80914F149091501481309105E0
S113148091F01CF4892B39F015C08430910539F0A2
S1131490059781F40CC081E08093FE120BC081E0BB
S11314A08093FB1207C081E08093FD1203C081E0AA
S11314B08093FC1262DCFF91EF91DF91CF91BF9199
S11314C0AF919F918F917F916F915F914F913F91D8
S11314D02F910F900BBE0F900FBE0F901F90189579
S11314E01092C50087E08093C40088E98093C1000E
S11314F086E08093C200089590931A118093191185
S113150008958091C00080720895CF93C82FF9DFA9
S11315108823E9F3C093C600CF910895CF92DF9258
S1131520EF92FF920F931F93CF93DF93662309F4F7
S11315303EC0062F10E04FEF5FEFEEEFFFEFC62E39
S1131540D12CE82EF12CC8E0D0E0EE3F6FEFF60787
S113155019F48E2D9F2D30C0EF3F8FEFF80719F44B
S11315608C2D9D2D29C0DF01A859B94E8C9190E096
S113157023C0BA016827792760FF07C056954795AD
S113158068E0462764E8562702C056954795969525
S113159087952150310969F73196E017F107A9F6CB
S11315A09A012095309532272327322702C020E064
S11315B030E0822F932F02C09E01DBCFDF91CF91C9
S11315C01F910F91FF90EF90DF90CF9008950F93AC
S11315D01F93CF93DF939EE79093671780936817C9
S11315E060936917262F30E0121613064CF5E8E6CF
S11315F0F6E103E010E0C0E0D0E07DE750E2908146
S1131600492F4D57423080F4D801A959B84EAC0F38
S1131610BD1F7C930F5F1F4FD801A959B84EAC0F63
S1131620BD1F95279C9306C0D801A959B84EAC0F8D
S1131630BD1F9C9321963196C217D30701F704C0AE
S113164003E010E0C0E0D0E069DFF801E959F84EAA
S1131650EC0FFD1F9083818322960C0F1D1FF80150
S1131660E959F84E8EE78083C801019618161906C9
S11316704CF4C7E6D7E10859184E899146DFC017E4
S1131680D107D9F7DF91CF911F910F91089580E091
S113169090E00BDD8093681681E090E006DD809396
S11316A0691682E090E001DD80936A1663E083E4CA
S11316B08ECF8F929F92AF92BF92CF92DF92EF9292
S11316C0FF920F931F93CF93DF93CDB7DEB7ADB6E1
S11316D0BEB660E070E080911101909112010E9409
S11316E02702882331F06BEC71E180E412DC81E0A5
S11316F045C0C0900000D12C96012150310981E0F1
S113170090E0C114D10411F080E090E0820F931FA7
S11317102DB73EB7281B390B0FB6F8943EBF0FBE4A
S11317202DBF8DB79EB70196882E992E1C141D04CB
S1131730F4F4E82EF92E00E010E060E070E080910F
S11317401101909112010E942702882331F06DEE5D
S113175071E180E4DEDB81E011C080910000F701DB
S113176081937F010F5F1F4F0C151D0534F3A601F4
S1131770682D792D8091191112DC80E00FB6F89450
S1131780BEBE0FBEADBEDF91CF911F910F91FF90F2
S1131790EF90DF90CF90BF90AF909F908F9008957F
S11317A0CF93DF9360E070E080911101909112017A
S11317B00E942702882331F060E172E180E4A9DB12
S11317C081E045C080910000833009F03BC060E0B7
S11317D070E080911101909112010E9427028823E8
S11317E031F062E372E180E494DB81E030C0C091C7
S11317F0000060E070E080911101909112010E945C
S11318002702882331F06AE572E180E482DB81E01B
S11318101EC0D091000060E070E0809111019091B1
S113182012010E942702882331F061E872E180E40A
S113183070DB81E00CC0409100006D2F8C2F21DB08
S113184080E005C065EA72E180E463DB81E0DF915A
S1131850CF910895EF92FF920F931F93CF93DF934D
S113186000D000D0CDB7DEB760E070E08091110108
S1131870909112010E942702882331F06CEC72E1EE
S113188080E447DB81E032C080910000843059F568
S11318908E010F5F1F4F7E0185E0E80EF11C60E0B2
S11318A070E080911101909112010E942702811130
S11318B01CC0E0E0F0E08081D8018D938D0160814F
S11318C070E080E090E02CD2AB01BC0180E8A5DBA5
S11318D00E151F0521F749815A816B817C8180E8AF
S11318E09CDB80E003C081E001C081E00F900F9099
S11318F00F900F90DF91CF911F910F91FF90EF9078
S1131900089560E070E080911101909112010E94AD
S11319102702882331F060E172E180E4FADA81E0A1
S1131920089580910000811105C081E08093001327
S113193080E0089581E0089580910013882321F0C8
S11319401092001381E0089580E008951CC08091F6
S113195000008D3449F018F48334A9F409C08235A9
S113196079F0863581F408C0A4DE882361F00895F7
S113197017DF882341F008956DDF882321F008954F
S1131980C0DF81110AC060E070E080911101909184
S113199012010E9427028823D1F208951F920F9208
S11319A00FB60F9211240BB60F92EF92FF920F9382
S11319B01F932F933F934F935F936F937F938F93D3
S11319C09F93AF93BF93CF93DF93EF93FF932091B4
S11319D0C6002E3709F03FC0809103139091041381
S11319E08430910540F42091641430E02C5F3F4F23
S11319F08217930759F58091011390910213892B53
S1131A0021F0109202131092011303E614E1C0E0D6
S1131A10D0E00F2EF4E6EF2EF4E1FF2EF02DF801C6
S1131A2061918F0180911101909112010E9407022E
S1131A30882321F06CEE72E180E46BDA2196F701E1
S1131A40808190E00296C817D9074CF310920413D2
S1131A501092031316C02D3739F481E090E090936F
S1131A600213809301130DC080910313909104130A
S1131A70FC01ED59FB4E208301969093041380934F
S1131A800313FF91EF91DF91CF91BF91AF919F919C
S1131A908F917F916F915F914F913F912F911F9102
S1131AA00F91FF90EF900F900BBE0F900FBE0F9011
S1131AB01F901895809368166093691640936A1670
S1131AC063E083E484CD5058BB27AA270ED0EDC130
S1131AD0B6D130F0BBD120F031F49F3F11F41EF4A5
S1131AE086C10EF4E095E7FB7CC1E92F00D280F3B8
S1131AF0BA17620773078407950718F071F49EF507
S1131B0018C20EF4E0950B2EBA2FA02D0B01B901CB
S1131B1090010C01CA01A0011124FF27591B99F05F
S1131B20593F50F4503E68F11A16F040A22F232F6B
S1131B30342F4427585FF3CF469537952795A795BB
S1131B40F0405395C9F77EF41F16BA0B620B730B62
S1131B50840BBAF09150A1F0FF0FBB1F661F771FD3
S1131B60881FC2F70EC0BA0F621F731F841F48F488
S1131B70879577956795B795F7959E3F08F0B3CF0E
S1131B809395880F08F09927EE0F979587950895F8
S1131B90DF93DD27B92FBF7740E85FE316161706FA
S1131BA048075B0710F4D92FCFD19F938F937F936E
S1131BB06F9334D2ECE8F0E01DD177D12F913F91AF
S1131BC04F915F91D4D1DD2349F09058A2EA2AEDD8
S1131BD03FE049EC5FE3D0785D2787DFDF9165C1A3
S1131BE0DCD008F481E0089539D1E3956FC10CD0BD
S1131BF05CC12CD140F023D130F021F45F3F19F0C7
S1131C00F0C0511197C1F3C072D198F39923C9F36D
S1131C105523B1F3951B550BBB27AA2762177307EE
S1131C20840738F09F5F5F4F220F331F441FAA1FA2
S1131C30A9F333D00E2E3AF0E0E830D09150504062
S1131C40E695001CCAF729D0FE2F27D0660F771F10
S1131C50881FBB1F261737074807AB07B0E809F0F2
S1131C60BB0B802DBF01FF2793585F4F2AF09E3F87
S1131C70510568F0B6C05EC15F3FECF3983EDCF3FB
S1131C80869577956795B795F7959F5FC9F7880F00
S1131C90911D9695879597F90895E1E0660F771F52
S1131CA0881FBB1F621773078407BA0720F0621BE3
S1131CB0730B840BBA0BEE1F88F7E095089504D0DC
S1131CC06894B11137C108951AD188F09F5790F0E4
S1131CD0B92F9927B751A0F0D1F0660F771F881F4D
S1131CE0991F1AF0BA95C9F712C0B13081F021D109
S1131CF0B1E008951EC1672F782F8827B85F39F0A7
S1131D00B93FCCF3869577956795B395D9F73EF4AB
S1131D1090958095709561957F4F8F4F9F4F089553
S1131D20E89409C097FB3EF4909580957095619571
S1131D307F4F8F4F9F4F9923A9F0F92F96E9BB2727
S1131D409395F695879577956795B795F111F8CFA3
S1131D50FAF4BB0F11F460FF1BC06F5F7F4F8F4F0E
S1131D609F4F16C0882311F096E911C0772321F004
S1131D709EE8872F762F05C0662371F096E8862F9C
S1131D8070E060E02AF09A95660F771F881FDAF7F3
S1131D90880F9695879597F90895990F0008550F20
S1131DA0AA0BE0E8FEEF16161706E807F907C0F0DD
S1131DB012161306E407F50798F0621B730B840BE5
S1131DC0950B39F40A2661F0232B242B252B21F4BF
S1131DD008950A2609F4A140A6958FEF811D811D5F
S1131DE0089597F99F6780E870E060E008959FEF99
S1131DF080EC0895DF93CF931F930F93FF92EF929C
S1131E00DF927B018C01689405C0DA2EEF01AFD01C
S1131E10FE01E894A5912591359145915591AEF334
S1131E20EF0163DEFE019701A801DA9479F7DF90F0
S1131E30EF90FF900F911F91CF91DF9108950024AF
S1131E400A941616170618060906089500240A941B
S1131E5012161306140605060895C9CF50D0E8F3E8
S1131E60E894E0E0BB279F57F0F02AED3FE049EC0F
S1131E7006C0EE0FBB0F661F771F881F28F0B23A0B
S1131E8062077307840728F0B25A620B730B840B42
S1131E90E3959A9572F7803830F49A95BB0F661FD4
S1131EA0771F881FD2F79048BEC0092E0394000CF8
S1131EB011F4882352F0BB0F40F4BF2B11F460FFE0
S1131EC004C06F5F7F4F8F4F9F4F0895EF93E0FFE4
S1131ED006C0A2EA2AED3FE049EC5FEB06DEE5DF4F
S1131EE00F90039401FC9058E9EBF0E0A8C057FD73
S1131EF09058440F551F59F05F3F71F04795880F74
S1131F0097FB991F61F09F3F79F08795089512160A
S1131F1013061406551FF2CF4695F1DF08C01616B6
S1131F2017061806991FF1CF869571056105089467
S1131F300895E894BB2766277727CB0197F908957E
S1131F402CDF08F48FEF08959B01AC0160E070E092
S1131F5080E89FE34CCE0BD0A8CF71DF28F076DF6A
S1131F6018F0952309F03DCF42CF1124E3CFBFDF12
S1131F70A0F3959FD1F3950F50E0551F629FF00198
S1131F80729FBB27F00DB11D639FAA27F00DB11DF1
S1131F90AA1F649F6627B00DA11D661F829F22277A
S1131FA0B00DA11D621F739FB00DA11D621F839F01
S1131FB0A00D611D221F749F3327A00D611D231FD7
S1131FC0849F600D211D822F762F6A2F11249F5725
S1131FD050408AF0E1F088234AF0EE0FFF1FBB1F48
S1131FE0661F771F881F91505040A9F79E3F5105E7
S1131FF070F0F7CE9FCF5F3FECF3983EDCF386950D
S113200077956795B795F795E7959F5FC1F7FE2B91
S1132010880F911D9695879597F908959B01AC01BA
S11320209ACF9F3F31F0915020F48795779567952B
S1132030B795880F911D9695879597F908959F9365
S11320408F937F936F93FF93EF939B01AC0183DF97
S1132050EF91FF91CFDE2F913F914F915F917BCF15
S1072060F894FFCF1E
S1132064013201CDCCCC3D010A0101000000000085
S11320740013010010000000000000000000000034
S11320840000000000000000000000000000000048
S11320940000000000000000000000000000000038
S11320A40000000000000000000000000000000028
S11320B40000000000000000000000000000000018
S113307400000000000000000080005374617274BA
S1133084696E6720746F207475726E2061726F7537
S11330946E642E00436F727269646F722061686596
S11330A461642C20646F6E65207475726E696E673A
S11330B42061726F756E642E005374617274696E4C
S11330C467207475726E696E672072696768742EFE
S11330D400446F6E65207475726E696E6720726940
S11330E46768742E005374617274696E6720747512
S11330F4726E696E67206C6566742E00446F6E652B
S1133104207475726E696E67206C6566742E004C4B
S11331146F772070617373206F62737461636C657D
S11331242064657465637465642E00527846494668
S11331344F204D455353414745204552524F523A2F
S1133144204C454E204D495353494E47005278462E
S113315449464F204D455353414745204552524F0C
S1133164523A2044415441204D495353494E470057
S113317452784649464F20434F4D4D414E442045D5
S113318452524F523A204C454E204D495353494EC6
S1133194470052784649464F20434F4D4D414E44D3
S11331A4204552524F523A20444952454354494FC0
S11331B44E204D495353494E470052784649464F91
S11331C420434F4D4D414E44204552524F523A20D4
S11331D4524F544154494F4E204D495353494E473D
S11331E40052784649464F20434F4D4D414E4420AA
S11331F44552524F523A205350454544204D495369
S113320453494E470052784649464F20434F4D4D4B
S1133214414E44204552524F523A20494E434F5254
S113322452454354204C454E47544800527846492D
S1133234464F2056414C5545204552524F523A2050
S11332444C454E204D495353494E4700555F46491A
S10B3254464F2D66756C6C00F9
S9030000FC
