:1000000045C0000060C000005EC000005CC0000091
:100010005AC0000058C0000056C0000054C0000084
:1000200052C00000FFC000004EC000004CC00000E5
:100030004AC00000E9C0000046C0000044C0000003
:1000400042C0000040C000003EC000003CC00000B4
:1000500068C4000038C0000036C0000034C0000092
:1000600032C0000030C00000F8C100002CC0000009
:100070002AC0000028C0000026C0000024C00000E4
:1000800022C0000020C000001EC0000011241FBEBE
:10009000CFEFD0E4DEBFCDBF12E1A0E0B1E0E6E7F4
:1000A000FCE000E00BBF02C007900D92A833B1073F
:1000B000D9F728E1A8E3B2E101C01D92A137B20748
:1000C000E1F769D0D6C59CCFBC0180E090E0E0D4D8
:1000D00020E030E04AE751E441D5AED47093890086
:1000E000609388000895BC0180E090E0D1D420E0C6
:1000F00030E04AE751E432D59FD470938900609391
:1001000088000895E1E8F0E0808185608083E1EB7C
:10011000F0E080818560808388EE93E0D5DF88EE13
:1001200093E0E1DFEFE6F0E0808182608083E0E74A
:10013000F0E08081826080831092850010928400BC
:100140001092B2000895FC01908191508481228127
:10015000821B892308951F93CF93DF93EC01162F01
:10016000F2DF288139812150310990E0821793070D
:1001700069F08C819D81FE01E80FF91F16830196BD
:10018000282339233D832C8380E001C081E0DF9167
:10019000CF911F910895C0D2789480E2E6D0B2DF6B
:1001A00081B1836081B9C2E02FEF89E698E12150E7
:1001B00080409040E1F700C00000109A2FEF83EDDF
:1001C00090E3215080409040E1F700C0000010987B
:1001D0002FEF83ED90E3215080409040E1F700C085
:1001E000000088E091E16AD36CE071E180E4E0D046
:1001F0002AD18823C9F260E171E180E8D9D082B1C7
:100200008C2782B97CD3D0CF1F920F920FB60F925A
:10021000112410928500109284000F900FBE0F9051
:100220001F9018951F920F920FB60F9211241092E3
:10023000B2000F900FBE0F901F90189585E4809329
:10024000BC00089581EC8093BC00089584EA8093FB
:10025000BC00089585ED8093BC0008958091B9009D
:10026000887F883309F0F6CFEDCF8091BB000895E9
:10027000ECEBF0E080818823ECF708958093BB00DD
:1002800084E88093BC00F4CF10925513109254135D
:100290001092601310925F1310925913109258131A
:1002A00010925C1310925B130895ECEBF0E08081E8
:1002B000806C80830895CF93DF93C0915F13D091BA
:1002C0006013C730D10591F4E6E4F2E1A1E6B3E1B1
:1002D0008DE492E121912D93E817F907D9F7C5DF55
:1002E00080935A1381E080933D120DC0BEDFCA5B3C
:1002F000DD4E888380915F139091601301969093F7
:10030000601380935F13DF91CF910895CF93DF93B4
:10031000C0915B13D0915C13A8DFCF5ADC4E888369
:1003200010925C1310925B13DF91CF9108959DDFC3
:1003300080934F130895CF93DF93C0915813D091BA
:10034000591393DFC05BDD4E8883809158139091E1
:100350005913019690935913809358139093431215
:1003600080934212DF91CF91089580935D13803482
:1003700079F0803819F08032D1F412C083E088B966
:100380005DDF8FE38093B80081E88093BA00089521
:100390008FE38093B80052DF80E48093BA00089521
:1003A0008FE38093B8004ADF81E28093BA0008951A
:1003B000EF92FF920F931F93CF93DF93C82FE62EF8
:1003C000F72E44DF55DF9091B900987F983019F0EF
:1003D00045DF80E02CC08C2F51DF8091B900887FF1
:1003E000883119F03BDF80E022C089E147DF80914E
:1003F000B900887F883229F40E2D1F2DC0E0D0E08F
:1004000008C02CDF80E013C0F80181918F0136DF36
:100410002196EE2DFF2DDF010D900020E9F71197B9
:10042000AE1BBF0BCA17DB0778F314DF81E0DF9147
:10043000CF911F910F91FF90EF900895835B9D4E98
:10044000FC018081089580913C12882321F0109254
:100450003C1281E0089580E008951F920F920FB63C
:100460000F9211240BB60F922F933F934F935F93EC
:100470006F937F938F939F93AF93BF93CF93DF93AC
:10048000EF93FF9380915D13803409F457C0803857
:1004900021F0803209F02BC191C08091B900887F92
:1004A000803629F08091B900887F883621F481E078
:1004B0008093501341C08091B900887F8038F1F457
:1004C00080915013882341F0D0DE80934412109223
:1004D00045121092501330C08091441290914512F1
:1004E0008530910539F08931910531F0019721F579
:1004F0000DDF22C01CDF20C01EDF1EC08091B900AE
:10050000887F803911F4D7DE17C08091B900887FC9
:10051000803A91F4B9DE8091441290914512813075
:10052000910519F0059741F404C081E080933B12D6
:1005300003C081E080933A12B8DED9C08091B9003F
:10054000887F803629F08091B900887F883621F431
:1005500081E08093501330C08091B900887F80384B
:10056000E1F480915013882341F07FDE80934412A0
:1005700010924512109250131FC080914412909116
:1005800045128230910519F04997B1F404C06DDE2F
:1005900080935E1311C0CFDE0FC08091B900887FB9
:1005A000803A51F471DE8091441290914512029785
:1005B00019F481E08093381278DE99C08091B900F7
:1005C000887F803629F08091B900887F883621F4B1
:1005D00081E0809350138AC08091B900887F803871
:1005E00009F057C080915013882341F03EDE80937C
:1005F0004412109245121092501378C08091441208
:10060000909145128130910509F43FC01CF4892B6B
:1006100041F06CC084309105B1F0059709F066C0D7
:1006200036C0C0915413D09155131FDEC35BDD4E0D
:10063000888380915413909155130196909355138C
:100640008093541353C011DE2091561330915713E9
:10065000A901480F511DCA01181619063CF081E086
:1006600090E0909357138093561340C04830510543
:100670002CF4509357134093561338C087E090E002
:10068000909357138093561331C040DE2FC04FDE36
:100690002DC08091B900887F803911F40CDE26C00E
:1006A0008091B900887F803A09F5EEDD809144128F
:1006B000909145128130910591F01CF4892B39F00D
:1006C00015C08430910539F0059781F40CC081E0A4
:1006D00080933C120BC081E08093391207C081E007
:1006E00080933B1203C081E080933A12DEDDFF91DC
:1006F000EF91DF91CF91BF91AF919F918F917F91BA
:100700006F915F914F913F912F910F900BBE0F9082
:100710000FBE0F901F9018951092C50087E0809330
:10072000C40088E98093C10086E08093C2000895E8
:100730008091C00080720895CF93C82FF9DF88237D
:10074000E9F3C093C600CF910895CF92DF92EF9264
:10075000FF920F931F93CF93DF93662309F43EC05C
:10076000062F10E04FEF5FEFEEEFFFEFC62ED12C1C
:10077000E82EF12CC8E0D0E0EE3F6FEFF60719F459
:100780008E2D9F2D30C0EF3F8FEFF80719F48C2D81
:100790009D2D29C0DF01A359BA4E8C9190E023C052
:1007A000BA016827792760FF07C05695479568E02A
:1007B000462764E8562702C0569547959695879533
:1007C0002150310969F73196E017F107A9F69A012E
:1007D0002095309532272327322702C020E030E0D1
:1007E000822F932F02C09E01DBCFDF91CF911F910B
:1007F0000F91FF90EF90DF90CF9008950F931F938C
:10080000CF93DF939EE790936C1680936D16609361
:100810006E16262F30E0121613064CF5EDE6F5E1C4
:1008200003E010E0C0E0D0E07DE750E29081492F86
:100830004D57423080F4D801A459B94EAC0FBD1FBA
:100840007C930F5F1F4FD801A459B94EAC0FBD1F49
:1008500095279C9306C0D801A459B94EAC0FBD1F73
:100860009C9321963196C217D30701F704C003E089
:1008700010E0C0E0D0E069DFF801E459F94EEC0F78
:10088000FD1F9083818322960C0F1D1FF801E459F0
:10089000F94E8EE78083C8010196181619064CF4AC
:1008A000CCE6D6E10359194E899146DFC017D1072E
:1008B000D9F7DF91CF911F910F910895CF93DF93D7
:1008C000C82FD92F4DE655E120E030E006C06991F0
:1008D000FA016193AF012F5F3F4FE82FF92FDF013E
:1008E0000D900020E9F71197BD016E1B7F0B2617B5
:1008F000370768F38DE482DFDF91CF91089580E0C0
:1009000090E09CDD80936D1581E090E097DD809311
:100910006E1582E090E092DD80936F1563E083E4D2
:100920006DCF1F920F920FB60F9211240BB60F923C
:10093000EF92FF920F931F932F933F934F935F93E9
:100940006F937F938F939F93AF93BF93CF93DF93D7
:10095000EF93FF932091C6002E3709F03EC080919F
:100960004012909141128430910540F42091691316
:1009700030E02C5F3F4F8217930751F580913E1274
:1009800090913F12892B21F010923F1210923E124B
:1009900008E613E1C0E0D0E00F2EF9E6EF2EF3E118
:1009A000FF2EF02DF80161918F018091000190914F
:1009B0000101D1DB882321F06BE272E180E4F8DCF5
:1009C0002196F701808190E00296C817D90754F369
:1009D000109241121092401216C02D3739F481E066
:1009E00090E090933F1280933E120DC08091401290
:1009F00090914112FC01E859FC4E2083019690939E
:100A0000411280934012FF91EF91DF91CF91BF91FE
:100A1000AF919F918F917F916F915F914F913F9196
:100A20002F911F910F91FF90EF900F900BBE0F90A1
:100A30000FBE0F901F90189570D088F09F5790F0C0
:100A4000B92F9927B751A0F0D1F0660F771F881FF3
:100A5000991F1AF0BA95C9F712C0B13081F077D05A
:100A6000B1E0089574C0672F782F8827B85F39F0F8
:100A7000B93FCCF3869577956795B395D9F73EF452
:100A800090958095709561957F4F8F4F9F4F0895FA
:100A9000E89409C097FB3EF4909580957095619518
:100AA0007F4F8F4F9F4F9923A9F0F92F96E9BB27CE
:100AB0009395F695879577956795B795F111F8CF4A
:100AC000FAF4BB0F11F460FF1BC06F5F7F4F8F4FB5
:100AD0009F4F16C0882311F096E911C0772321F0AB
:100AE0009EE8872F762F05C0662371F096E8862F43
:100AF00070E060E02AF09A95660F771F881FDAF79A
:100B0000880F9695879597F9089557FD9058440F4B
:100B1000551F59F05F3F71F04795880F97FB991F5C
:100B200061F09F3F79F08795089512161306140619
:100B3000551FF2CF4695F1DF08C0161617061806A6
:100B4000991FF1CF86957105610508940895E89481
:100B5000BB2766277727CB0197F908950BD078C07C
:100B600069D028F06ED018F0952309F05AC05FC004
:100B70001124EECFCADFA0F3959FD1F3950F50E07B
:100B8000551F629FF001729FBB27F00DB11D639F3F
:100B9000AA27F00DB11DAA1F649F6627B00DA11DE5
:100BA000661F829F2227B00DA11D621F739FB00D8B
:100BB000A11D621F839FA00D611D221F749F3327FB
:100BC000A00D611D231F849F600D211D822F762F94
:100BD0006A2F11249F5750408AF0E1F088234AF091
:100BE000EE0FFF1FBB1F661F771F881F91505040DD
:100BF000A9F79E3F510570F014C0AACF5F3FECF3F8
:100C0000983EDCF3869577956795B795F795E795C8
:100C10009F5FC1F7FE2B880F911D9695879597F9D9
:100C2000089597F99F6780E870E060E008959FEF6E
:100C300080EC089500240A94161617061806090673
:100C4000089500240A941216130614060506089542
:100C5000092E0394000C11F4882352F0BB0F40F4CA
:100C6000BF2B11F460FF04C06F5F7F4F8F4F9F4F0A
:060C70000895F894FFCF87
:100C7600020100100000000000000000000000005B
:100C8600000000000000000000000000000000005E
:100C9600000000000000000000000000000000004E
:100CA600000000000000000000000000000000003E
:100CB600000000000000000000000000000000002E
:101C7600000000000000000061706100487565000A
:101C86004B6F6D206672616D2074696C6C206E619D
:101C96007661676174696F6E2E0052784649464FC9
:101CA600204D455353414745204552524F523A2005
:101CB6004C454E204D495353494E470052784649AC
:101CC600464F204D455353414745204552524F52AA
:101CD6003A2044415441204D495353494E470052FE
:101CE600784649464F20434F4D4D414E442045527C
:101CF600524F523A204C454E204D495353494E4778
:101D06000052784649464F20434F4D4D414E4420A0
:101D16004552524F523A20444952454354494F4E38
:101D2600204D495353494E470052784649464F2065
:101D3600434F4D4D414E44204552524F523A205248
:101D46004F544154494F4E204D495353494E470035
:101D560052784649464F20434F4D4D414E4420450B
:101D660052524F523A205350454544204D49535301
:101D7600494E470052784649464F20434F4D4D4104
:101D86004E44204552524F523A20494E434F5252EA
:101D9600454354204C454E47544800555F464946F6
:081DA6004F2D66756C6C000006
:00000001FF
