:1000000045C0000060C000005EC000005CC0000091
:100010005AC0000058C0000056C0000054C0000084
:1000200052C0000050C000004EC000004CC0000094
:100030004AC0000048C0000046C0000044C00000A4
:1000400042C0000040C000003EC000003CC00000B4
:1000500026C1000038C0000036C0000034C00000D7
:1000600032C0000030C000002EC000002CC00000D4
:100070002AC0000028C0000026C0000024C00000E4
:1000800022C0000020C000001EC0000011241FBEBE
:10009000CFEFD0E4DEBFCDBF11E0A0E0B1E0E6E7F6
:1000A000F3E000E00BBF02C007900D92A030B10753
:1000B000D9F726E0A0E0B1E001C01D92AB30B20755
:1000C000E1F7DCD056C19CCF81B1836081B9109239
:1000D0000A061092090608951092C50089E08093DF
:1000E000C40088E98093C10086E08093C20008952F
:1000F0008091C00080720895CF93C82FF9DF8823C4
:10010000E9F3C093C600CF910895CF92DF92EF92AA
:10011000FF920F931F93CF93DF93662309F43EC0A2
:10012000062F10E04FEF5FEFEEEFFFEFC62ED12C62
:10013000E82EF12CC8E0D0E0EE3F6FEFF60719F49F
:100140008E2D9F2D30C0EF3F8FEFF80719F48C2DC7
:100150009D2D29C0DF01AB5FBC4F8C9190E023C087
:10016000BA016827792760FF07C05695479568E070
:10017000462764E8562702C0569547959695879579
:100180002150310969F73196E017F107A9F69A0174
:100190002095309532272327322702C020E030E017
:1001A000822F932F02C09E01DBCFDF91CF911F9151
:1001B0000F91FF90EF90DF90CF9008950F931F93D2
:1001C000CF93DF939EE7909304048093050460939C
:1001D0000604262F30E0121613064CF5E5E0F3E096
:1001E00003E010E0C0E0D0E07DE750E29081492FCD
:1001F0004D57423080F4D801AC5FBB4FAC0FBD1FF0
:100200007C930F5F1F4FD801AC5FBB4FAC0FBD1F7E
:1002100095279C9306C0D801AC5FBB4FAC0FBD1FA8
:100220009C9321963196C217D30701F704C003E0CF
:1002300010E0C0E0D0E069DFF801EC5FFB4FEC0FAD
:10024000FD1F9083818322960C0F1D1FF801EC5F28
:10025000FB4F8EE78083C8010196181619064CF4EF
:10026000C4E0D4E00B5F1B4F899146DFC017D10774
:10027000D9F7DF91CF911F910F91089525DF2CDFE2
:10028000789491E082B1892782B92FEF3FE388E328
:10029000215030408040E1F700C00000F3CF1F92B2
:1002A0000F920FB60F9211240BB60F922F933F931C
:1002B0004F935F936F937F938F939F93AF93BF936E
:1002C000EF93FF932091C6002E3799F58091090690
:1002D00090910A068430910540F42091010130E0AC
:1002E0002C5F3F4F82179307F9F492B182E0892780
:1002F00082B960910101262F30E01216130664F4D2
:10030000A2E0B1E0E5E0F3E080E090E04D914193C0
:10031000019682179307D4F3809100014FDF10926A
:100320000A061092090612C010920A0610920906D7
:100330000DC08091090690910A06FC01E050FF4F24
:100340002083019690930A0680930906FF91EF910E
:10035000BF91AF919F918F917F916F915F914F91DD
:100360003F912F910F900BBE0F900FBE0F901F90DB
:060370001895F894FFCF80
:00000001FF
