:1000000045C0000060C000005EC000005CC0000091
:100010005AC0000058C0000056C0000054C0000084
:1000200052C0000050C000004EC000004CC0000094
:100030004AC0000048C0000046C0000044C00000A4
:1000400042C0000040C000003EC000003CC00000B4
:100050002FC2000038C0000036C0000034C00000CD
:1000600032C0000030C0000095C200002CC000006B
:100070002AC0000028C0000026C0000024C00000E4
:1000800022C0000020C000001EC0000011241FBEBE
:10009000CFEFD0E4DEBFCDBF11E1A0E0B1E0E4E1FD
:1000A000F9E000E00BBF02C007900D92AE33B1073C
:1000B000D9F727E1AEE3B1E101C01D92AB37B2073A
:1000C000E1F7C6D125C49CCFFC0190819150848179
:1000D0002281821B892308951F93CF93DF93EC0124
:1000E000162FF2DF288139812150310990E08217E3
:1000F000930769F08C819D81FE01E80FF91F16833B
:100100000196282339233D832C8380E001C081E0C0
:10011000DF91CF911F9108950F931F93CF93DF939A
:10012000EC018B01D1DF8823A1F0EA81FB81EC0F88
:10013000FD1F8681F8018083288139812150310992
:100140008A819B810196822393239B838A8380E00B
:1001500001C081E0DF91CF911F910F91089581B18E
:10016000836081B910924D1610924C16089510922A
:10017000C50089E08093C40088E98093C10086E0CF
:100180008093C20008958091C00080720895CF933B
:10019000C82FF9DF8823E9F3C093C600CF910895F3
:1001A000CF92DF92EF92FF920F931F93CF93DF9343
:1001B000662309F43EC0062F10E04FEF5FEFEEEF2D
:1001C000FFEFC62ED12CE82EF12CC8E0D0E0EE3F98
:1001D0006FEFF60719F48E2D9F2D30C0EF3F8FEF94
:1001E000F80719F48C2D9D2D29C0DF01A85BBC4EAA
:1001F0008C9190E023C0BA016827792760FF07C07F
:100200005695479568E0462764E8562702C05695FC
:100210004795969587952150310969F73196E017F2
:10022000F107A9F69A012095309532272327322726
:1002300002C020E030E0822F932F02C09E01DBCF6E
:10024000DF91CF911F910F91FF90EF90DF90CF90B2
:1002500008950F931F93CF93DF939EE790934714D6
:100260008093481460934914262F30E01216130629
:100270004CF5E8E4F3E103E010E0C0E0D0E07DE716
:1002800050E29081492F4D57423080F4D801A95B4C
:10029000BB4EAC0FBD1F7C930F5F1F4FD801A95BF6
:1002A000BB4EAC0FBD1F95279C9306C0D801A95B20
:1002B000BB4EAC0FBD1F9C9321963196C217D3073E
:1002C00001F704C003E010E0C0E0D0E069DFF8010E
:1002D000E95BFB4EEC0FFD1F9083818322960C0F90
:1002E0001D1FF801E95BFB4E8EE78083C801019674
:1002F000181619064CF4C7E4D4E1085B1B4E89912B
:1003000046DFC017D107D9F7DF91CF911F910F9129
:1003100008950F931F93CF93DF9308E413E1C0E098
:10032000D0E0CE01DBD2F80181938F012196C73056
:10033000D105B9F767E083E58CDFDF91CF911F919D
:100340000F9108958F929F92AF92BF92CF92DF92BA
:10035000EF92FF920F931F93CF93DF93CDB7DEB74A
:10036000ADB6BEB660E070E08091000190910101F1
:10037000D3DE882339F068E071E180E490E010D2A8
:1003800081E045C0C0900000D12C96012150310978
:1003900081E090E0C114D10411F080E090E0820F80
:1003A000931F2DB73EB7281B390B0FB6F8943EBFED
:1003B0000FBE2DBF8DB79EB70196882E992E1C14A7
:1003C0001D04F4F4E82EF92E00E010E060E070E087
:1003D00080910001909101019FDE882339F062E253
:1003E00071E180E490E0DCD181E011C080910000F7
:1003F000F70181937F010F5F1F4F0C151D0534F32B
:10040000A601682D792D80E490E084D180E00FB6BC
:10041000F894BEBE0FBEADBEDF91CF911F910F917C
:10042000FF90EF90DF90CF90BF90AF909F908F9014
:10043000089560E070E080910001909101016CDE10
:10044000811105C0809100008D3409F47BCF08959F
:1004500086DE8DDE80E890E090934713809346130C
:1004600005D17894C1E082B18C2782B9E2DF51DFF7
:100470002FEF8FE398E3215080409040E1F700C0D8
:100480000000F1CF60913F11262F30E012161306C5
:1004900064F4A0E4B1E1E8E4F3E180E090E04D91A0
:1004A0004193019682179307D4F380913E11D1CEE8
:1004B0001F920F920FB60F9211240BB60F92EF926C
:1004C000FF920F931F932F933F934F935F936F93DD
:1004D0007F938F939F93AF93BF93CF93DF93EF93CC
:1004E000FF932091C6002E3779F580914C1690919C
:1004F0004D168430910540F420913F1130E02C5F7F
:100500003F4F82179307D9F4BDDF0EE311E1C0E03E
:10051000D0E00F2EFFE3EF2EF1E1FF2EF02DF801DA
:1005200061918F018091000190910101D5DD2196AB
:10053000F701808190E00296C817D90784F31092E2
:100540004D1610924C160DC080914C1690914D1680
:10055000FC01E25CFE4E2083019690934D16809341
:100560004C16FF91EF91DF91CF91BF91AF919F9189
:100570008F917F916F915F914F913F912F911F913B
:100580000F91FF90EF900F900BBE0F900FBE0F904A
:100590001F9018951F920F920FB60F9211240BB651
:1005A0000F922F933F934F935F936F937F938F930C
:1005B0009F93AF93BF93EF93FF938091B900887F90
:1005C000803629F08091B900887F883621F481E057
:1005D0008093451333C08091B900887F8038D1F46F
:1005E00080914513882341F087D0909344138093E2
:1005F00043131092451322C08091431390914413EA
:100600008130910519F04997C9F402C017D116C07D
:1006100020D114C08091B900887F803919F4119AD3
:100620002ED10CC08091B900887F803A39F4809136
:10063000431390914413019709F406D157D1FF91C8
:10064000EF91BF91AF919F918F917F916F915F914A
:100650004F913F912F910F900BBE0F900FBE0F90B7
:100660001F90189585E48093BC00089590934713DC
:10067000809346138034910581F08038910519F0FC
:100680008097D1F412C083E088B9ECDF8BE18093CE
:10069000B80081E88093BA00089587E18093B8009C
:1006A000E1DF80E48093BA00089587E18093B80089
:1006B000D9DF81E28093BA00089581EC8093BC0079
:1006C00008952FEF8FE995E0215080409040E1F7A9
:1006D00000C0000084EA8093BC00089585ED8093FB
:1006E000BC0008958091B900887F883309F0F6CF67
:1006F000E4CF8093BB0008958091BB0090E0089503
:1007000084E88093BC000895ECEBF0E080818823BE
:10071000ECF70895EF92FF920F931F93CF93DF931F
:10072000EC01E62EF72E8A01CCDFEEDF8091B900D6
:10073000887F883019F0D6DF80E02BC0CE01D9DF6A
:10074000DFDFE2DF8091B900887F883119F0CADFEE
:1007500080E01FC089E190E0CCDFD2DFD5DF80915F
:10076000B900887F883221F41016110624F00FC0DA
:10077000B9DF80E00EC0CE2DDF2D0C0F1D1F89913B
:1007800090E0B7DFBDDFC0DFC017D107C1F7A6DF3C
:1007900081E0DF91CF911F910F91FF90EF9008952D
:1007A000EF92FF920F931F93CF93DF93EC01E62E0E
:1007B000F72E87DFA9DF8091B900887F883019F094
:1007C00091DF80E034C0CE0194DF9ADF9DDF80911D
:1007D000B900887F883119F085DF80E028C089E181
:1007E00090E087DF8DDF90DF8091B900887F8832CD
:1007F00029F40E2D1F2DC0E0D0E00BC073DF80E088
:1008000016C0F80181918F0190E073DF79DF7CDF02
:100810002196EE2DFF2DDF010D900020E9F71197B5
:10082000AE1BBF0BCA17DB0760F358DF81E0DF9117
:10083000CF911F910F91FF90EF9008955DDF9093FE
:100840004F1680934E16089580914E1690914F1634
:100850000895CF93DF93C0916517D09166174CDF51
:10086000CA5AD94E88838091651790916617019670
:100870009093661780936517DF91CF910895CF937A
:10088000DF93C0916B17D0916C17C730D10599F4E5
:10089000E7E5F7E1ADE6B7E125E637E18191919132
:1008A0008D939D93E217F307C9F726DF909368179E
:1008B0008093671710C020DFCC0FDD1FC95AD84EB8
:1008C0009983888380916B1790916C170196909310
:1008D0006C1780936B17DF91CF910895880F991F44
:1008E000FC01E359F84E80819181089510925617CA
:1008F0001092551710926C1710926B171092661782
:1009000010926517ECEBF0E08081806C8083089595
:04091000F894FFCF89
:1009140002010010000000000000000000000000C0
:1009240000000000000000000000000000000000C3
:1009340000000000000000000000000000000000B3
:1009440000000000000000000000000000000000A3
:100954000000000000000000000000000000000093
:10191400000000000000000052784649464F204570
:1019240052524F523A204C454E204D495353494E42
:10193400470052784649464F204552524F523A206A
:0E19440044415441204D495353494E47000041
:00000001FF
