:1000000045C0000061C000005FC000005DC000008E
:100010005BC0000059C0000057C0000055C0000080
:1000200053C0000051C000004FC000004DC0000090
:100030004BC00000FFC0000047C0000045C00000EA
:1000400043C0000041C000003FC000003DC00000B0
:100050000C94130939C0000037C0000035C00000FF
:1000600033C0000031C0000010C400002DC00000EB
:100070002BC0000029C0000027C0000025C00000E0
:10008000E7C0000021C000001FC0000011241FBEF7
:10009000CFEFD0E4DEBFCDBF13E2A0E0B1E0EAE7EE
:1000A000F5E100E00BBF02C007900D92A831B10747
:1000B000D9F729E2A8E1B3E201C01D92A936B2073F
:1000C000E1F7A2D00C94BB0A9BCFBC0180E090E08A
:1000D0000E94CA0920E030E040E951E40E94300A61
:1000E0000E949E0970938900609388000895BC0166
:1000F00080E090E00E94CA0920E030E040E951E44D
:100100000E94300A0E949E097093990060939800A3
:100110000895E1E8F0E0808185608083E1E9F0E026
:1001200080818560808388EE93E0CFDF88EE93E066
:10013000DEDFEFE6F0E0808182608083E1E7F0E0DF
:1001400080818260808310928500109284001092DA
:100150009500109294000895FC0190819150848143
:100160002281821B892308951F93CF93DF93EC0193
:10017000162FF2DF288139812150310990E0821752
:10018000930769F08C819D81FE01E80FF91F1683AA
:100190000196282339233D832C8380E001C081E030
:1001A000DF91CF911F9108950F931F93CF93DF930A
:1001B000EC018B01D1DF8823A1F0EA81FB81EC0FF8
:1001C000FD1F8681F8018083288139812150310902
:1001D0008A819B810196822393239B838A8380E07B
:1001E00001C081E0DF91CF911F910F91089581B1FE
:1001F000836081B987B1806C87B903D580E8F4D07A
:1002000088DF80ED97E073CFF2DF78942FEF8FE1F6
:100210009CE1215080409040E1F700C00000D0D721
:100220007FD28111EFD586D2882311F076D209D6FC
:100230008BD2F5CF1F920F920FB60F92112410920E
:100240008500109284000F900FBE0F901F9018959C
:100250001F920F920FB60F921124109295001092D8
:1002600094000F900FBE0F901F90189585E4809317
:10027000BC00089581EC8093BC00089584EA8093CB
:10028000BC00089585ED8093BC0008958091B9006D
:10029000887F883309F0F6CFEDCF8091BB000895B9
:1002A000ECEBF0E080818823ECF708958093BB00AD
:1002B00084E88093BC00F4CF10923524109234244B
:1002C00010923F2410923E2410922A241092292446
:1002D00010922F2410922E24109232241092312446
:1002E0000895ECEBF0E08081806C808308950F939B
:1002F0001F93CF93DF9380913E2490913F248830C9
:100300009105A1F4E0E4F4E2A0E5B4E220E534E2F2
:10031000819191918D939D93E217F307C9F7BDDF0A
:100320008093382481E080931D232AC020910811F6
:10033000222371F0B2DFE0913E24F0913F24EE0FD2
:10034000FF1FE05CFB4D108281831092081118C0E2
:10035000EC01CC0FDD1FC05CDB4D088119819DDFF6
:10036000080F111D1983088381E080930811809183
:100370003E2490913F24019690933F2480933E2405
:10038000DF91CF911F910F910895CF93DF93C0918B
:100390002E24D0912F2481DFC55DDB4D8883109200
:1003A0002F2410922E24DF91CF91089576DF809331
:1003B00029230895CF93DF93C0912924D0912A2433
:1003C0006CDFC65DDC4D88838091292490912A24BE
:1003D000019690932A248093292490933A24809321
:1003E0003924DF91CF91089580933024803479F0BF
:1003F000803819F08032D1F412C083E088B936DF3A
:100400008FE38093B80081E88093BA0008958FE36A
:100410008093B8002BDF80E48093BA0008958FE3C7
:100420008093B80023DF81E28093BA000895CF92D1
:10043000DF92EF92FF920F931F93CF93DF93C82F1A
:10044000E62ED42ED52F1ADF2BDF9091B900987F9E
:10045000983019F01BDF80E039C08C2F27DF8091A6
:10046000B900887F883119F011DF80E02FC081E06A
:100470001DDF8091B900887F883251F4F12C1E1461
:100480001F0414F58091B900887F883161F008C09D
:10049000FDDE80E01BC0F6018081887F883161F03D
:1004A000F5DE80E013C00D2D1D2FC0E0D0E00F2E33
:1004B000F9EBCF2ED12CF02DF80181918F01F6DED2
:1004C0002196CE15DF053CF3DDDE81E0DF91CF9193
:1004D0001F910F91FF90EF90DF90CF900895CF93F1
:1004E000DF93C82FD62FCADEDBDE9091B900987F4C
:1004F000983019F0CBDE80E020C08C2FD7DE8091C1
:10050000B900887F883119F0C1DE80E016C085E02F
:10051000CDDE8091B900887F883219F0B7DE80E0A7
:100520000CC08D2FC3DE8091B900887F883219F00E
:10053000ADDE80E002C0A6DE81E0DF91CF910895BC
:100540001F93CF93DF93C82FD62F142F97DEA8DEEB
:100550009091B900987F983019F098DE80E034C00F
:1005600080E2A4DE8091B900887F883119F08EDEA8
:1005700080E02AC080E09ADE8091B900887F8832CE
:1005800019F084DE80E020C08C2F90DE8091B900CD
:10059000887F883219F07ADE80E016C08D2F86DEE3
:1005A0008091B900887F883219F070DE80E00CC03D
:1005B000812F7CDE8091B900887F883219F066DE59
:1005C00080E002C05FDE81E0DF91CF911F9108954E
:1005D000CF93C82F53DE64DE9091B900987F983096
:1005E00019F054DE80E020C080E260DE8091B90026
:1005F000887F883119F04ADE80E016C084E056DE3C
:100600008091B900887F883219F040DE80E00CC00C
:100610008C2F4CDE8091B900887F883219F036DE4D
:1006200080E002C02FDE81E0CF910895EF92FF922B
:100630000F931F93CF93DF93C82FE62EF72E8A01D7
:100640001DDE2EDE9091B900987F983019F01EDEE5
:1006500080E023C08C2F2ADE8091B900887F88310A
:1006600019F014DE80E019C089E120DE8091B90024
:10067000887F883221F41016110624F00CC006DEA3
:1006800080E00BC0CE2DDF2D0C0F1D1F89910EDEDB
:10069000C017D107D9F7F6DD81E0DF91CF911F9127
:1006A0000F91FF90EF900895CF93DF93C82FD62F2F
:1006B000E5DDF6DD9091B900987F983019F0E6DD20
:1006C00080E020C08C2FF2DD8091B900887F8831D6
:1006D00019F0DCDD80E016C087E0E8DD8091B9002C
:1006E000887F883219F0D2DD80E00CC08D2FDEDDEE
:1006F0008091B900887F883219F0C8DD80E002C09F
:10070000C1DD81E0DF91CF910895880F991FFC0131
:10071000E05BFB4D808191810895809129230895AC
:1007200080911D23882321F010921D2381E00895DC
:1007300080E0089580911A23882321F010921A23D3
:1007400081E0089580E008958F929F92AF92BF92CA
:10075000CF92DF92EF92FF920F931F93CF93DF938D
:10076000CDB7DEB7ADB6BEB660E070E080910001F7
:100770009091010119DD81113BC0C0900000D12C86
:1007800096012150310981E090E0C114D10411F0AB
:1007900080E090E0820F931F2DB73EB7281B390BE6
:1007A0000FB6F8943EBF0FBE2DBF2F5F3F4F822E76
:1007B000932E1C141D04BCF4E22EF32E00E010E076
:1007C00060E070E08091000190910101EDDC811109
:1007D00011C020910000F70121937F010F5F1F4F8F
:1007E0000C151D056CF3882D992DDDD280E003C01A
:1007F00081E001C081E00FB6F894BEBE0FBEADBE71
:10080000DF91CF911F910F91FF90EF90DF90CF90EC
:10081000BF90AF909F908F9008950F931F93CF93A9
:10082000DF93D82FC92F60913924809100019091D6
:1008300001019ADC81111FC02091392430913A24A2
:1008400012161306D4F40D2F1C2FC0E0D0E0F801CF
:1008500061918F01809100019091010185DC8111EE
:100860000EC021968091392490913A24C817D90757
:1008700074F380E005C081E003C080E001C081E046
:10088000DF91CF911F910F9108951F920F920FB694
:100890000F9211240BB60F922F933F934F935F93B8
:1008A0006F937F938F939F93AF93BF93CF93DF9378
:1008B000EF93FF9380913024803409F490C0803806
:1008C00021F0803209F088C1D2C08091B900887FC0
:1008D000803629F08091B900887F883621F481E044
:1008E000809333247AC08091B900887F803729F0C3
:1008F0008091B900887F883739F48FEF90E090932A
:100900003D2480933C2469C08091B900887F803861
:10091000B9F580913324882341F0BFDC80933C24D7
:1009200010923D241092332458C080913C24909121
:100930003D248530910571F024F4019709F04DC0F4
:1009400007C08630910551F0499709F046C004C0B0
:100950001CDD43C02BDD41C02DDD3FC0C0913124E3
:10096000D09132249ADCCE5DDC4D88838091312495
:1009700090913224019690933224809331242DC09B
:100980008091B900887F803911F4B1DC26C0809154
:10099000B900887F803A09F58FDC80913C249091E2
:1009A0003D248530910571F01CF40197B1F406C027
:1009B0008630910579F0499781F408C081E08093F1
:1009C0001B230BC081E080931A2307C08AE293E2C5
:1009D00024DF03C082E293E207D283DCFDC0809172
:1009E000B900887F803629F08091B900887F8836E9
:1009F00021F481E08093332438C08091B900887F4E
:100A00008038E1F480913324882341F046DC8093E0
:100A10003C2410923D241092332427C080913C2422
:100A200090913D248230910519F04997F1F404C06A
:100A300034DC80933B2419C0BDDC17C08091B90021
:100A4000887F803A91F438DC80913C2490913D2459
:100A50008230910519F0499741F404C081E08093F8
:100A6000182303C08AE293E2D8DE3BDCB5C0809154
:100A7000B900887F803629F08091B900887F883658
:100A800021F481E080933324A6C08091B900887F4F
:100A9000803729F08091B900887F883739F48FEF4B
:100AA00090E090933D2480933C2495C08091B900C0
:100AB000887F803809F062C080913324882341F018
:100AC000ECDB80933C2410923D241092332483C0AD
:100AD00080913C2490913D248130910509F44AC0D5
:100AE0001CF4892B41F077C084309105B1F0059753
:100AF00009F071C041C0C0913424D0913524CDDBC0
:100B0000CA5DDC4D88838091342490913524019610
:100B100090933524809334245EC0BFDB81110AC0DA
:100B200080913624909137240197909337248093B5
:100B3000362409C0809136249091372401969093F1
:100B400037248093362480913624909137241816C8
:100B500019063CF081E090E090933724809336248E
:100B60003AC00897C4F187E090E0909337248093CF
:100B7000362431C00ADC2FC019DC2DC08091B900A9
:100B8000887F803911F4B3DB26C08091B900887F5B
:100B9000803A09F591DB80913C2490913D2481308D
:100BA000910591F01CF4892B39F015C08430910522
:100BB00039F0059781F40CC081E080931C230BC0B1
:100BC00081E08093192307C081E080931B2303C039
:100BD00081E080931A2385DBFF91EF91DF91CF9124
:100BE000BF91AF919F918F917F916F915F914F9145
:100BF0003F912F910F900BBE0F900FBE0F901F9043
:100C000018951092C50089E08093C40088E980930C
:100C1000C10086E08093C20008958091C000807278
:100C20000895CF93C82FF9DF8823E9F3C093C60056
:100C3000CF910895CF92DF92EF92FF920F931F937F
:100C4000CF93DF93662309F43EC0062F10E04FEFE9
:100C50005FEFEEEFFFEFC62ED12CE82EF12CC8E0AF
:100C6000D0E0EE3F6FEFF60719F48E2D9F2D30C0C8
:100C7000EF3F8FEFF80719F48C2D9D2D29C0DF0170
:100C8000AB59B94D8C9190E023C0BA016827792700
:100C900060FF07C05695479568E0462764E85627E9
:100CA00002C056954795969587952150310969F769
:100CB0003196E017F107A9F69A0120953095322771
:100CC0002327322702C020E030E0822F932F02C07A
:100CD0009E01DBCFDF91CF911F910F91FF90EF909D
:100CE000DF90CF9008950F931F93CF93DF939EE7EC
:100CF000909364278093652760936627262F30E0C2
:100D0000121613064CF5E5E6F6E203E010E0C0E04B
:100D1000D0E07DE750E29081492F4D57423080F47A
:100D2000D801AC59B84DAC0FBD1F7C930F5F1F4F5E
:100D3000D801AC59B84DAC0FBD1F95279C9306C088
:100D4000D801AC59B84DAC0FBD1F9C93219631967C
:100D5000C217D30701F704C003E010E0C0E0D0E001
:100D600069DFF801EC59F84DEC0FFD1F908381838A
:100D700022960C0F1D1FF801EC59F84D8EE7808369
:100D8000C8010196181619064CF4C4E6D7E20B59AF
:100D9000184D899146DFC017D107D9F7DF91CF9160
:100DA0001F910F910895CF93DF93C82FD92F45E658
:100DB00056E220E030E006C06991FA016193AF018C
:100DC0002F5F3F4FE82FF92FDF010D900020E9F74B
:100DD0001197BD016E1B7F0B2617370768F38DE453
:100DE00082DFDF91CF910895A82FB92FE5E6F6E2D3
:100DF00089E696E22D912193E817F907D9F764E087
:100E000086E571CF0F931F93CF93DF9306E616E22B
:100E1000C0E0D0E0CE0179DCF80131979083CE01BB
:100E200074DCF801808321960E5F1F4FC830D10516
:100E300089F760E183E557DFDF91CF911F910F9133
:100E400008958093652661E081E44DCF8F929F9253
:100E5000AF92BF92CF92DF92EF92FF920F931F93C8
:100E6000CF93DF93CDB7DEB7ADB6BEB660E070E02E
:100E70008091091190910A1197D9882329F081E175
:100E800091E291DF81E042C0C0900000D12C960138
:100E90002150310981E090E0C114D10411F080E0CB
:100EA00090E0820F931F2DB73EB7281B390B0FB66A
:100EB000F8943EBF0FBE2DBF8DB79EB70196882E0A
:100EC000992E1C141D04E4F4E82EF92E00E010E025
:100ED00060E070E08091091190910A1165D9882332
:100EE00029F083E391E25FDF81E010C08091000090
:100EF000F70181937F010F5F1F4F0C151D0544F310
:100F0000A601682D792D80E491DB80E00FB6F8947E
:100F1000BEBE0FBEADBEDF91CF911F910F91FF906E
:100F2000EF90DF90CF90BF90AF909F908F900895FB
:100F3000CF93DF9360E070E08091091190910A11E6
:100F400033D9882329F086E591E22DDF81E042C084
:100F500080910000833009F039C060E070E080913A
:100F6000091190910A1120D9882329F088E791E28C
:100F70001ADF81E02FC0C091000060E070E0809136
:100F8000091190910A1110D9882329F080EA91E281
:100F90000ADF81E01FC0D091000060E070E0809126
:100FA000091190910A1100D9882329F087EC91E268
:100FB000FADE81E00FC04091000092B181E0892704
:100FC00082B96D2F8C2FBCDA80E004C08BEE91E2E9
:100FD000EADE81E0DF91CF910895DF92EF92FF92F8
:100FE0000F931F93CF93DF93CDB7DEB7CF5FD109B8
:100FF0000FB6F894DEBF0FBECDBF60E070E0809109
:10100000091190910A11D0D8882329F082E192E247
:10101000CADE81E047C0D090000060E070E08091BF
:10102000091190910A11C0D8882329F087E392E230
:10103000BADE81E037C0809100008E3411F0873431
:1010400081F589838D2D90E0029704F18E010E5F6A
:101050001F4FEE24E394F12CEC0EFD1EED0CF11C61
:1010600060E070E08091091190910A119DD8882369
:1010700029F087E392E297DE81E014C080910000BE
:10108000F80181938F01EE15FF0551F7AE014F5F17
:101090005F4F6D2D80E2CBD98F5F90E0A5DE80E0C1
:1010A00001C080E0C150DF4F0FB6F894DEBF0FBE25
:1010B000CDBFDF91CF911F910F91FF90EF90DF9007
:1010C000089560E070E08091091190910A116CD848
:1010D000882329F080E592E266DE81E00895809120
:1010E00000008130C1F460E070E0809109119091BE
:1010F0000A115AD8882329F082E792E254DE81E06F
:1011000008956091000098B180E4892788B980E251
:10111000E6D980E0089588E892E245DE81E008950E
:1011200060E070E08091091190910A113DD8882308
:1011300029F08FEA92E237DE81E008958091000085
:101140008130A1F460E070E08091091190910A1162
:101150002BD8882329F080ED92E225DE81E00895E6
:101160006091000080E2A0DA80E0089585EE92E2CE
:101170001ADE81E0089560E070E08091091190919D
:101180000A1112D8811116C0809100008130A1F49B
:1011900060E070E08091091190910A1105D88111E9
:1011A0000DC08091000022B192E0922792B910DA2E
:1011B00080E0089581E0089581E0089581E0089538
:1011C00027C0809100008534E1F028F48134A9F033
:1011D0008334F1F40AC0803561F08435B1F08D3488
:1011E000B9F434DE8823A1F00895A2DE882381F0CB
:1011F0000895F3DE882361F0089563DF882341F0CA
:101200000895B9DF882321F008958ADF81110AC08B
:1012100060E070E08091091190910A110E94D40061
:10122000882379F208951F920F920FB60F9211241E
:101230000BB60F92EF92FF920F931F932F933F9352
:101240004F935F936F937F938F939F93AF93BF93CE
:10125000CF93DF93EF93FF932091C6002E3709F0D1
:101260003EC080912023909121238430910540F449
:101270002091612430E02C5F3F4F8217930751F596
:1012800080911E2390911F23892B21F010921F2300
:1012900010921E2300E614E2C0E0D0E00F2EF1E62B
:1012A000EF2EF4E2FF2EF02DF80161918F01809175
:1012B000091190910A110E94B400882319F08BE063
:1012C00093E271DD2196F701808190E00296C817C4
:1012D000D90754F3109221231092202316C02D37E2
:1012E00039F481E090E090931F2380931E230DC07A
:1012F0008091202390912123FC01E05AFB4D208313
:1013000001969093212380932023FF91EF91DF9109
:10131000CF91BF91AF919F918F917F916F915F918D
:101320004F913F912F911F910F91FF90EF900F9050
:101330000BBE0F900FBE0F901F90189570D088F0C5
:101340009F5790F0B92F9927B751A0F0D1F0660FB1
:10135000771F881F991F1AF0BA95C9F712C0B130CC
:1013600081F077D0B1E0089574C0672F782F882777
:10137000B85F39F0B93FCCF3869577956795B3950B
:10138000D9F73EF490958095709561957F4F8F4F7A
:101390009F4F0895E89409C097FB3EF4909580957F
:1013A000709561957F4F8F4F9F4F9923A9F0F92F2B
:1013B00096E9BB279395F695879577956795B795A9
:1013C000F111F8CFFAF4BB0F11F460FF1BC06F5F8F
:1013D0007F4F8F4F9F4F16C0882311F096E911C0A1
:1013E000772321F09EE8872F762F05C0662371F0C2
:1013F00096E8862F70E060E02AF09A95660F771FD6
:10140000881FDAF7880F9695879597F9089557FD05
:101410009058440F551F59F05F3F71F04795880F62
:1014200097FB991F61F09F3F79F0879508951216F9
:1014300013061406551FF2CF4695F1DF08C01616A5
:1014400017061806991FF1CF869571056105089456
:101450000895E894BB2766277727CB0197F908956D
:101460000BD078C069D028F06ED018F0952309F021
:101470005AC05FC01124EECFCADFA0F3959FD1F30D
:10148000950F50E0551F629FF001729FBB27F00D32
:10149000B11D639FAA27F00DB11DAA1F649F662787
:1014A000B00DA11D661F829F2227B00DA11D621FD6
:1014B000739FB00DA11D621F839FA00D611D221F90
:1014C000749F3327A00D611D231F849F600D211D74
:1014D000822F762F6A2F11249F5750408AF0E1F017
:1014E00088234AF0EE0FFF1FBB1F661F771F881F60
:1014F00091505040A9F79E3F510570F014C0AACFFB
:101500005F3FECF3983EDCF3869577956795B7954A
:10151000F795E7959F5FC1F7FE2B880F911D969574
:10152000879597F9089597F99F6780E870E060E0E4
:1015300008959FEF80EC089500240A94161617066C
:1015400018060906089500240A94121613061406B4
:1015500005060895092E0394000C11F4882352F017
:10156000BB0F40F4BF2B11F460FF04C06F5F7F4FCF
:0A1570008F4F9F4F0895F894FFCFAE
:10157A00020100100000000000000000000000004E
:10158A000000000000000000000000000000000051
:10159A000000000000000000000000000000000041
:1015AA000000000000000000000000000000000031
:1015BA000000000000000000000000000000000021
:10257A000000000000000000010B11001000000024
:10258A000000000000000000000000000000000041
:10259A000000000000000000000000000000000031
:1025AA000000000000000000000000000000000021
:1025BA000000000000000000000000000000000011
:10358A000052784649464F204D45535341474520FE
:10359A004552524F523A204C454E204D49535349B9
:1035AA004E470052784649464F204D4553534147AE
:1035BA0045204552524F523A2044415441204D49E8
:1035CA005353494E470052784649464F20434F4D80
:1035DA004D414E44204552524F523A204C454E20BE
:1035EA004D495353494E470052784649464F204366
:1035FA004F4D4D414E44204552524F523A20444974
:10360A0052454354494F4E204D495353494E470062
:10361A0052784649464F20434F4D4D414E4420452E
:10362A0052524F523A20524F544154494F4E204D14
:10363A00495353494E470052784649464F20434F13
:10364A004D4D414E44204552524F523A2053504517
:10365A004544204D495353494E47005278464946FE
:10366A004F20434F4D4D414E44204552524F523AFE
:10367A0020494E434F5252454354204C454E4754DD
:10368A00480052784649464F20506172616D657410
:10369A00657273204552524F523A204C454E204D86
:1036AA00495353494E470052784649464F20506184
:1036BA0072616D6574657273204552524F522100D2
:1036CA0052784649464F204175746F6E6F6D20459A
:1036DA0052524F523A204C454E204D495353494E6F
:1036EA00470052784649464F204175746F6E6F6D98
:1036FA00204552524F52210052784649464F2041A6
:10370A0075746F6E6F6D204552524F523A20494E72
:10371A00434F5252454354204C454E475448005259
:10372A00784649464F205374617475732045525246
:10373A004F523A204C454E204D495353494E47006B
:10374A0052784649464F2053746174757320455226
:10375A00524F52210052784649464F2053746174A1
:10376A007573204552524F523A20494E434F525296
:10377A00454354204C454E47544800555F464946F8
:08378A004F2D66756C6C000008
:00000001FF
