S01D00006B6F6D6D756E696B6174696F6E736D6F64756C656E2E737265631A
S113000045C0000060C000005EC000005CC000008D
S11300105AC0000058C0000056C0000054C0000080
S113002052C0000050C000004EC000004CC0000090
S11300304AC0000048C0000046C0000044C00000A0
S113004042C0000040C000003EC000003CC00000B0
S11300507EC4000038C0000036C0000034C0000078
S113006032C0000030C00000A4C000002CC000005A
S11300702AC0000028C0000026C0000024C00000E0
S113008022C0000020C000001EC0000011241FBEBA
S1130090CFEFD0E4DEBFCDBF11E1A0E0B1E0ECE5ED
S11300A0FAE000E00BBF02C007900D92AA3BB10733
S11300B0D9F727E1AAEBB1E101C01D92AB3FB2072A
S11300C0E1F751D0C9C49CCFFC0190819150848147
S11300D02281821B892308951F93CF93DF93EC0120
S11300E0162FF2DF288139812150310990E08217DF
S11300F0930769F08C819D81FE01E80FF91F168337
S11301000196282339233D832C8380E001C081E0BC
S1130110DF91CF911F9108950F931F93CF93DF9396
S1130120EC018B01D1DF8823A1F0EA81FB81EC0F84
S1130130FD1F8681F801808328813981215031098E
S11301408A819B810196822393239B838A8380E007
S113015001C081E0DF91CF911F910F91089581B18A
S1130160836081B90895FBDF11D280E890E0909319
S1130170C2118093C11189D078942FEF8FE19CE153
S1130180215080409040E1F700C00000C1E082B1FE
S11301908C2782B9B4D3CCD22FEF8FE790E72150CC
S11301A080409040E1F700C0000080E490E0B9D0C6
S11301B0EECF1F920F920FB60F9211240BB60F922F
S11301C02F933F934F935F936F937F938F939F935B
S11301D0AF93BF93EF93FF93F8948091B900887F16
S11301E0803629F08091B900887F883621F481E037
S11301F08093C01131C08091B900887F8038D1F4D8
S11302008091C011882341F07ED09093BF118093D8
S1130210BE111092C01120C08091BE119091BF11E7
S11302208130910519F04997B9F402C040D114C046
S113023044D112C08091B900887F803919F4119A91
S113024056D10AC08091B900887F803A29F492B1CE
S113025082E0892782B987D193D17894FF91EF9175
S1130260BF91AF919F918F917F916F915F914F91CA
S11302703F912F910F900BBE0F900FBE0F901F90C8
S1130280189585E48093BC000895209A9093C21138
S11302908093C1118034910581F08038910519F063
S11302A08097D1F412C083E088B9EBDF8FE38093A9
S11302B0B80081E88093BA0008958FE38093B80072
S11302C0E0DF80E48093BA0008958FE38093B80060
S11302D0D8DF81E28093BA00089581EC8093BC005A
S11302E0089584EA8093BC00089585ED8093BC0052
S11302F008958091B900887F883309F0F6CFEDCF57
S11303008093BB0008958091BB0090E0089584E839
S11303108093BC000895ECEBF0E080818823ECF737
S11303200895CF93DF93EC01DCDFF5DF8091B90012
S1130330887F883019F0DDDF80E022C0CE01E0DF65
S1130340E6DFE9DF8091B900887F883119F0D1DFD9
S113035080E016C083E090E0D3DFD9DFDCDF80915A
S1130360B900887F883359F08091B900887F88323A
S113037019F0BFDF80E004C0B8DF81E001C081E094
S1130380DF91CF910895EF92FF920F931F93CF9334
S1130390DF93EC01E62EF72EA4DFBDDF8091B900D8
S11303A0887F883019F0A5DF80E034C0CE01A8DF53
S11303B0AEDFB1DF8091B900887F883119F099DF11
S11303C080E028C089E190E09BDFA1DFA4DF809179
S11303D0B900887F883229F40E2D1F2DC0E0D0E0AB
S11303E00BC087DF80E016C0F80181918F0190E097
S11303F087DF8DDF90DF2196EE2DFF2DDF010D903D
S11304000020E9F71197AE1BBF0BCA17DB0760F397
S11304106CDF81E0DF91CF911F910F91FF90EF90FE
S11304200895EF92FF920F931F93CF93DF93EC0104
S1130430E62EF72E8A0155DF6EDF8091B900887FA2
S1130440883019F056DF80E02BC0CE0159DF5FDF22
S113045062DF8091B900887F883119F04ADF80E03B
S11304601FC089E190E04CDF52DF55DF8091B90075
S1130470887F883221F41016110624F00FC039DF6A
S113048080E00EC0CE2DDF2D0C0F1D1F899190E052
S113049037DF3DDF40DFC017D107C1F726DF81E03A
S11304A0DF91CF911F910F91FF90EF9008952BDF73
S11304B09093C6118093C5110895CF93DF93C09193
S11304C0DC12D091DD121FDFC353DE4E888380918E
S11304D0DC129091DD1201969093DD128093DC1270
S11304E09093C4118093C311DF91CF910895CF935A
S11304F0DF93C091E212D091E312C730D10599F491
S1130500EEECF2E1A4EEB2E12CED32E181919191B5
S11305108D939D93E217F307C9F7F5DE9093DF12ED
S11305208093DE1210C0EFDECC0FDD1FC253DD4E10
S1130530998388838091E2129091E31201969093BB
S1130540E3128093E212DF91CF910895880F991FEF
S1130550FC01EC51FD4E8081918108958091DE1261
S11305609091DF1208951092CD121092CC12109235
S1130570E3121092E2121092DD121092DC1208952E
S1130580ECEBF0E08081806C808308951092C500CC
S113059089E08093C40088E98093C10086E0809359
S11305A0C20008958091C00080720895CF93C82F2F
S11305B0F9DF8823E9F3C093C600CF910895CF9261
S11305C0DF92EF92FF920F931F93CF93DF936623F3
S11305D009F43EC0062F10E04FEF5FEFEEEFFFEFA0
S11305E0C62ED12CE82EF12CC8E0D0E0EE3F6FEF00
S11305F0F60719F48E2D9F2D30C0EF3F8FEFF807CB
S113060019F48C2D9D2D29C0DF01A950BB4E8C916E
S113061090E023C0BA016827792760FF07C0569588
S1130620479568E0462764E8562702C056954795E3
S1130630969587952150310969F73196E017F107AE
S1130640A9F69A012095309532272327322702C034
S113065020E030E0822F932F02C09E01DBCFDF9198
S1130660CF911F910F91FF90EF90DF90CF9008955D
S11306700F931F93CF93DF939EE79093F615809388
S1130680F7156093F815262F30E0121613064CF573
S1130690E7EFF4E103E010E0C0E0D0E07DE750E2F2
S11306A09081492F4D57423080F4D801AA50BA4E58
S11306B0AC0FBD1F7C930F5F1F4FD801AA50BA4ED9
S11306C0AC0FBD1F95279C9306C0D801AA50BA4E03
S11306D0AC0FBD1F9C9321963196C217D30701F727
S11306E004C003E010E0C0E0D0E069DFF801EA50A4
S11306F0FA4EEC0FFD1F9083818322960C0F1D1F71
S1130700F801EA50FA4E8EE78083C8010196181664
S113071019064CF4C6EFD5E109501A4E899146DF0B
S1130720C017D107D9F7DF91CF911F910F91089589
S11307300F931F93CF93DF9307EF14E1C0E0D0E052
S1130740CE0104DFF80181938F012196C730D105D2
S1130750B9F78EEF8093FE1401DF8093FF1469E0F4
S113076083E586DFDF91CF911F910F9108958F92DA
S11307709F92AF92BF92CF92DF92EF92FF920F932C
S11307801F93CF93DF93CDB7DEB7ADB6BEB660E0AF
S113079070E08091000190910101BEDC882339F062
S11307A068E071E180E490E0EEDD81E045C0C09056
S11307B00000D12C96012150310981E090E0C11450
S11307C0D10411F080E090E0820F931F2DB73EB763
S11307D0281B390B0FB6F8943EBF0FBE2DBF8DB743
S11307E09EB70196882E992E1C141D04F4F4E82E4D
S11307F0F92E00E010E060E070E08091000190913B
S113080001018ADC882339F06AE271E180E490E036
S1130810BADD81E011C080910000F70181937F016E
S11308200F5F1F4F0C151D0534F3A601682D792D9C
S113083080E490E0F6DD80E00FB6F894BEBE0FBE13
S1130840ADBEDF91CF911F910F91FF90EF90DF909C
S1130850CF90BF90AF909F908F9008950F931F9368
S1130860CF93DF9360E070E08091000190910101EB
S113087053DC882339F06DE471E180E490E083DD9A
S113088081E038C00091000010E00330110599F4B4
S113089060E070E080910001909101013DDC8111E4
S11308A003C0C0E0D0E011C06FE671E180E490E0E5
S11308B06ADD81E01FC062E971E180E490E063DDFC
S11308C01016110674F380E015C060E070E08091AA
S11308D000019091010120DC882339F06FE671E179
S11308E080E490E050DD81E005C02196C017D10777
S11308F064F380E0DF91CF911F910F91089560E040
S113090070E0809100019091010106DC811108C022
S113091080910000833419F08D3411F428CF9ECFD8
S113092008956091F312262F30E01216130664F432
S1130930A4EFB2E1E7EFF4E180E090E04D91419360
S1130940019682179307D4F38091F21291CE1F92ED
S11309500F920FB60F9211240BB60F92EF92FF92E3
S11309600F931F932F933F934F935F936F937F93B3
S11309708F939F93AF93BF93CF93DF93EF93FF93A3
S11309802091C6002E37C9F58091BC119091BD11FC
S11309908430910540F42091F31230E02C5F3F4FF6
S11309A08217930729F58091BA119091BB11892B75
S11309B021F01092BB111092BA11B3DF02EF12E1D1
S11309C0C0E0D0E00F2EF3EFEF2EF2E1FF2EF02D7A
S11309D0F80161918F0180910001909101017CDB0C
S11309E02196F701808190E00296C817D90784F315
S11309F01092BD111092BC1116C02D3739F481E04C
S1130A0090E09093BB118093BA110DC08091BC11FA
S1130A109091BD11FC01EE50FD4E20830196909300
S1130A20BD118093BC11FF91EF91DF91CF91BF91E4
S1130A30AF919F918F917F916F915F914F913F9172
S1130A402F911F910F91FF90EF900F900BBE0F907D
S10F0A500FBE0F901F901895F894FFCF74
S1130A5C0201001000000000000000000000000073
S1130A6C0000000000000000000000000000000076
S1130A7C0000000000000000000000000000000066
S1130A8C0000000000000000000000000000000056
S1130A9C0000000000000000000000000000000046
S1131A5C000000000000000052784649464F204D1B
S1131A6C455353414745204552524F523A204C4519
S1131A7C4E204D495353494E470052784649464FE0
S1131A8C204D455353414745204552524F523A201D
S1131A9C44415441204D495353494E4700527846D2
S1131AAC49464F20434F4D4D414E44204552524FD1
S1131ABC523A204C454E204D495353494E470052FF
S1131ACC784649464F20434F4D4D414E4420455294
S1131ADC524F523A2044415441204D495353494E9C
S1131AEC470052784649464F20434F4D4D414E4492
S1131AFC204552524F523A20494E434F525245437D
S10D1B0C54204C454E475448000095
S9030000FC
