:1000000045C0000061C000005FC000005DC000008E
:100010005BC0000059C0000057C0000055C0000080
:1000200053C0000051C000004FC000004DC0000090
:100030004BC00000F9C0000047C0000045C00000F0
:1000400043C0000041C000003FC000003DC00000B0
:10005000C1C7000039C0000037C0000035C0000033
:1000600033C0000031C000006EC300002DC000008E
:100070002BC0000029C0000027C0000025C00000E0
:10008000E1C0000021C000001FC0000011241FBEFD
:10009000CFEFD0E4DEBFCDBF12E2A0E0B1E0E6E2F8
:1000A000F3E100E00BBF02C007900D92AA3BB1073D
:1000B000D9F728E2AAEBB2E201C01D92AB3FB2072A
:1000C000E1F7A1D00C9491099BCFBC0180E090E0B6
:1000D0000E94A00820E030E040E951E40E940609B7
:1000E0000E94740870938900609388000895BC0191
:1000F00080E090E00E94A00820E030E040E951E478
:100100000E940609F1D770939900609398000895B2
:10011000E1E8F0E0808185608083E1E9F0E08081C2
:100120008560808388EE93E0D0DF88EE93E0DFDFA8
:10013000EFE6F0E0808182608083E1E7F0E080819B
:100140008260808310928500109284001092950046
:10015000109294000895FC01908191508481228135
:10016000821B892308951F93CF93DF93EC01162FF1
:10017000F2DF288139812150310990E082179307FD
:1001800069F08C819D81FE01E80FF91F16830196AD
:10019000282339233D832C8380E001C081E0DF9157
:1001A000CF911F9108950F931F93CF93DF93EC018D
:1001B0008B01D1DF8823A1F0EA81FB81EC0FFD1FC9
:1001C0008681F801808328813981215031098A8113
:1001D0009B810196822393239B838A8380E001C0C5
:1001E00081E0DF91CF911F910F91089581B18360DC
:1001F00081B987B1806C87B962D480E8CCD088DFC0
:1002000080ED97E074CFF2DF78942FEF8FE19CE1DF
:10021000215080409040E1F700C00000B4D6E8D102
:1002200081114ED5EFD1FACF1F920F920FB60F92D8
:10023000112410928500109284000F900FBE0F9031
:100240001F9018951F920F920FB60F9211241092C3
:100250009500109294000F900FBE0F901F9018956C
:1002600085E48093BC00089581EC8093BC000895E0
:1002700084EA8093BC00089585ED8093BC000895C6
:100280008091B900887F883309F0F6CFEDCF809157
:10029000BB000895ECEBF0E080818823ECF7089533
:1002A0008093BB0084E88093BC00F4CF1092D723E6
:1002B0001092D6231092E1231092E0231092CC23C7
:1002C0001092CB231092D1231092D0231092D423DA
:1002D0001092D3230895ECEBF0E08081806C808352
:1002E0000895CF93DF93C091E023D091E123C830EC
:1002F000D10591F4E2EEF3E2AAEEB3E28AEE93E2E4
:1003000021912D93E817F907D9F7C1DF8093DA23FC
:1003100081E08093BF220DC0BADFCE51DC4D8883CF
:100320008091E0239091E12301969093E1238093C3
:10033000E023DF91CF910895CF93DF93C091D02335
:10034000D091D123A4DFC353DC4D88831092D123F5
:100350001092D023DF91CF91089599DF8093CB2223
:100360000895CF93DF93C091CB23D091CC238FDF1F
:10037000C453DD4D88838091CB239091CC2301968B
:100380009093CC238093CB239093DC238093DB2327
:10039000DF91CF9108958093D223803479F0803813
:1003A00019F08032D1F412C083E088B959DF8FE3AD
:1003B0008093B80081E88093BA0008958FE380931A
:1003C000B8004EDF80E48093BA0008958FE38093F5
:1003D000B80046DF81E28093BA0008950F931F931F
:1003E000CF93DF93C82FD62F142F022F41DF52DF78
:1003F0009091B900987F983019F042DF80E034C0C6
:100400008C2F4EDF8091B900887F883119F038DF5A
:1004100080E02AC081E044DF8091B900887F883283
:1004200019F02EDF80E020C08D2F3ADF8091B900D7
:10043000887F883219F024DF80E016C0812F30DFFA
:100440008091B900887F883219F01ADF80E00CC0F3
:10045000802F26DF8091B900887F883219F010DF65
:1004600080E002C009DF81E0DF91CF911F910F9101
:100470000895CF93DF93C82FD62FFADE0BDF90912C
:10048000B900987F983019F0FBDE80E020C08C2FF7
:1004900007DF8091B900887F883119F0F1DE80E0B4
:1004A00016C085E0FDDE8091B900887F883219F0A2
:1004B000E7DE80E00CC08D2FF3DE8091B900887FED
:1004C000883219F0DDDE80E002C0D6DE81E0DF9107
:1004D000CF9108951F93CF93DF93C82FD62F142F5A
:1004E000C7DED8DE9091B900987F983019F0C8DE49
:1004F00080E034C080E2D4DE8091B900887F88310A
:1005000019F0BEDE80E02AC080E0CADE8091B9002A
:10051000887F883219F0B4DE80E020C08C2FC0DEE6
:100520008091B900887F883219F0AADE80E016C079
:100530008D2FB6DE8091B900887F883219F0A0DE59
:1005400080E00CC0812FACDE8091B900887F8832BA
:1005500019F096DE80E002C08FDE81E0DF91CF915E
:100560001F910895EF92FF920F931F93CF93DF9304
:10057000C82FE62EF72E8A017BDE8CDE9091B90023
:10058000987F983019F07CDE80E023C08C2F88DEC5
:100590008091B900887F883119F072DE80E019C03F
:1005A00089E17EDE8091B900887F883221F41016BF
:1005B000110624F00CC064DE80E00BC0CE2DDF2DD0
:1005C0000C0F1D1F89916CDEC017D107D9F754DEBF
:1005D00081E0DF91CF911F910F91FF90EF900895EF
:1005E00086519C4DFC01808108958091DA23089505
:1005F0008091BF22882321F01092BF2281E00895CC
:1006000080E008958F929F92AF92BF92CF92DF9237
:10061000EF92FF920F931F93CF93DF93CDB7DEB787
:10062000ADB6BEB660E070E080910001909101012E
:10063000BADD81113BC0C0900000D12C9601215041
:10064000310981E090E0C114D10411F080E090E024
:10065000820F931F2DB73EB7281B390B0FB6F894A6
:100660003EBF0FBE2DBF2F5F3F4F822E932E1C1417
:100670001D04BCF4E22EF32E00E010E060E070E018
:1006800080910001909101018EDD811111C02091B6
:100690000000F70121937F010F5F1F4F0C151D050F
:1006A0006CF3882D992DDDD280E003C081E001C07C
:1006B00081E00FB6F894BEBE0FBEADBEDF91CF9104
:1006C0001F910F91FF90EF90DF90CF90BF90AF9070
:1006D0009F908F9008950F931F93CF93DF93D82F00
:1006E000C92F6091DB2380910001909101013BDDD6
:1006F00081111FC02091DB233091DC2312161306D9
:10070000D4F40D2F1C2FC0E0D0E0F80161918F01CF
:10071000809100019091010126DD81110EC021968A
:100720008091DB239091DC23C817D90774F380E014
:1007300005C081E003C080E001C081E0DF91CF917E
:100740001F910F9108951F920F920FB60F921124CF
:100750000BB60F922F933F934F935F936F937F93BB
:100760008F939F93AF93BF93CF93DF93EF93FF93B9
:100770008091D223803409F490C0803821F08032F7
:1007800009F088C1D2C08091B900887F803629F0F5
:100790008091B900887F883621F481E08093D52349
:1007A0007AC08091B900887F803729F08091B900A4
:1007B000887F883739F48FEF90E09093DF23809320
:1007C000DE2369C08091B900887F8038B9F58091B7
:1007D000D523882341F05BDD8093DE231092DF2355
:1007E0001092D52358C08091DE239091DF2385306D
:1007F000910571F024F4019709F04DC007C08630CF
:10080000910551F0499709F046C004C095DD43C0F9
:10081000A4DD41C0A6DD3FC0C091D323D091D42335
:1008200036DDCC53DD4D88838091D3239091D42342
:1008300001969093D4238093D3232DC08091B90047
:10084000887F803911F44DDD26C08091B900887F02
:10085000803A09F52BDD8091DE239091DF238530EE
:10086000910571F01CF40197B1F406C08630910532
:1008700079F0499781F408C081E08093BD220BC0D4
:1008800081E08093BC2207C08CEC92E224DF03C09D
:1008900084EC92E207D21FDDFDC08091B900887F11
:1008A000803629F08091B900887F883621F481E074
:1008B0008093D52338C08091B900887F8038E1F4D7
:1008C0008091D523882341F0E2DC8093DE231092CF
:1008D000DF231092D52327C08091DE239091DF2360
:1008E0008230910519F04997F1F404C0D0DC80936F
:1008F000DD2319C036DD17C08091B900887F803AAA
:1009000091F4D4DC8091DE239091DF238230910535
:1009100019F0499741F404C081E08093BA2203C0E2
:100920008CEC92E2D8DED7DCB5C08091B900887F2C
:10093000803629F08091B900887F883621F481E0E3
:100940008093D523A6C08091B900887F803729F095
:100950008091B900887F883739F48FEF90E09093C9
:10096000DF238093DE2395C08091B900887F803893
:1009700009F062C08091D523882341F088DC809300
:10098000DE231092DF231092D52383C08091DE23D3
:100990009091DF238130910509F44AC01CF4892B22
:1009A00041F077C084309105B1F0059709F071C02E
:1009B00041C0C091D623D091D72369DCC853DD4D07
:1009C00088838091D6239091D72301969093D72343
:1009D0008093D6235EC05BDC81110AC08091D8234E
:1009E0009091D92301979093D9238093D82309C05C
:1009F0008091D8239091D92301969093D923809305
:100A0000D8238091D8239091D923181619063CF049
:100A100081E090E09093D9238093D8233AC008973F
:100A2000C4F187E090E09093D9238093D82331C01C
:100A300083DC2FC092DC2DC08091B900887F803983
:100A400011F44FDC26C08091B900887F803A09F507
:100A50002DDC8091DE239091DF238130910591F090
:100A60001CF4892B39F015C08430910539F00597B5
:100A700081F40CC081E08093BE220BC081E08093A2
:100A8000BB2207C081E08093BD2203C081E0809338
:100A9000BC2221DCFF91EF91DF91CF91BF91AF910B
:100AA0009F918F917F916F915F914F913F912F9186
:100AB0000F900BBE0F900FBE0F901F9018951092C5
:100AC000C50089E08093C40088E98093C10086E076
:100AD0008093C20008958091C00080720895CF93E2
:100AE000C82FF9DF8823E9F3C093C600CF9108959A
:100AF000CF92DF92EF92FF920F931F93CF93DF93EA
:100B0000662309F43EC0062F10E04FEF5FEFEEEFD3
:100B1000FFEFC62ED12CE82EF12CC8E0D0E0EE3F3E
:100B20006FEFF60719F48E2D9F2D30C0EF3F8FEF3A
:100B3000F80719F48C2D9D2D29C0DF01A950BA4D5D
:100B40008C9190E023C0BA016827792760FF07C025
:100B50005695479568E0462764E8562702C05695A3
:100B60004795969587952150310969F73196E01799
:100B7000F107A9F69A0120953095322723273227CD
:100B800002C020E030E0822F932F02C09E01DBCF15
:100B9000DF91CF911F910F91FF90EF90DF90CF9059
:100BA00008950F931F93CF93DF939EE79093F626BC
:100BB0008093F7266093F826262F30E0121613064E
:100BC0004CF5E7EFF5E203E010E0C0E0D0E07DE7B0
:100BD00050E29081492F4D57423080F4D801AA50FD
:100BE000B94DAC0FBD1F7C930F5F1F4FD801AA50AA
:100BF000B94DAC0FBD1F95279C9306C0D801AA50D4
:100C0000B94DAC0FBD1F9C9321963196C217D307E7
:100C100001F704C003E010E0C0E0D0E069DFF801B4
:100C2000EA50F94DEC0FFD1F9083818322960C0F43
:100C30001D1FF801EA50F94D8EE78083C801019627
:100C4000181619064CF4C6EFD6E20950194D8991D1
:100C500046DFC017D107D9F7DF91CF911F910F91D0
:100C60000895CF93DF93C82FD92F47EF55E220E0A7
:100C700030E006C06991FA016193AF012F5F3F4FE9
:100C8000E82FF92FDF010D900020E9F71197BD0142
:100C90006E1B7F0B2617370768F38DE482DFDF9129
:100CA000CF910895A82FB92FE7EFF5E28BEF95E2EA
:100CB0002D912193E817F907D9F764E086E571CF04
:100CC0000F931F93CF93DF9307EF15E2C0E0D0E0BF
:100CD000CE0186DCF80181938F012196C830D105C1
:100CE000B9F783DC8093FF2569E083E55ADFDF9164
:100CF000CF911F910F9108958F929F92AF92BF92C3
:100D0000CF92DF92EF92FF920F931F93CF93DF93D7
:100D1000CDB7DEB7ADB6BEB660E070E08091081129
:100D20009091091140DA882329F080E191E299DF5E
:100D300081E042C0C0900000D12C960121503109C1
:100D400081E090E0C114D10411F080E090E0820FC6
:100D5000931F2DB73EB7281B390B0FB6F8943EBF33
:100D60000FBE2DBF8DB79EB70196882E992E1C14ED
:100D70001D04E4F4E82EF92E00E010E060E070E0DD
:100D800080910811909109110EDA882329F082E3ED
:100D900091E267DF81E010C080910000F70181934C
:100DA0007F010F5F1F4F0C151D0544F3A601682D31
:100DB000792D80E4D7DB80E00FB6F894BEBE0FBE7D
:100DC000ADBEDF91CF911F910F91FF90EF90DF901B
:100DD000CF90BF90AF909F908F900895CF93DF9367
:100DE00060E070E08091081190910911DCD98823AE
:100DF00029F085E591E235DF81E042C08091000075
:100E0000833009F039C060E070E080910811909162
:100E10000911C9D9882329F087E791E222DF81E00F
:100E20002FC0C091000060E070E0809108119091A7
:100E30000911B9D9882329F08FE991E212DF81E005
:100E40001FC0D091000060E070E080910811909187
:100E50000911A9D9882329F086EC91E202DF81E00B
:100E60000FC04091000092B181E0892782B96D2FB7
:100E70008C2F30DB80E004C08AEE91E2F2DE81E06C
:100E8000DF91CF910895CF93DF9360E070E0809180
:100E900008119091091187D9882329F081E192E204
:100EA000E0DE81E03EC0809100008330B1F560E07B
:100EB00070E0809108119091091175D9882329F06B
:100EC00086E392E2CEDE81E02CC0C091000060E0BB
:100ED00070E0809108119091091165D9882329F05B
:100EE00086E392E2BEDE81E01CC0D091000060E0AB
:100EF00070E0809108119091091155D9882329F04B
:100F000086E392E2AEDE81E00CC0209100004D2F1E
:100F10006C2F80E263DA80E004C08AEE91E2A1DE09
:100F200081E0DF91CF91089560E070E08091081139
:100F30009091091138D9882329F08FE492E291DE4B
:100F400081E00895809100008130C1F460E070E09C
:100F5000809108119091091126D9882329F081E701
:100F600092E27FDE81E008956091000092B182E01C
:100F7000892782B980E27DDA80E0089587E892E2ED
:100F800070DE81E008951CC080910000833469F018
:100F900018F48134A9F411C08D3419F0803581F42E
:100FA00008C0AADE882361F0089518DF882341F085
:100FB000089569DF882321F00895B6DF811109C003
:100FC00060E070E08091081190910911ECD88823BD
:100FD000D9F208951F920F920FB60F9211240BB6FB
:100FE0000F92EF92FF920F931F932F933F934F9384
:100FF0005F936F937F938F939F93AF93BF93CF93A1
:10100000DF93EF93FF932091C6002E3709F03DC088
:101010008091C2229091C3228430910540F42091A6
:10102000F32330E02C5F3F4F8217930749F58091FF
:10103000C0229091C122892B21F01092C1221092DE
:10104000C02202EF13E2C0E0D0E00F2EF3EFEF2E4C
:10105000F3E2FF2EF02DF80161918F0180910811CC
:101060009091091180D8882319F08EEA92E2F9DD77
:101070002196F701808190E00296C817D9075CF3AA
:101080001092C3221092C22216C02D3739F481E08B
:1010900090E09093C1228093C0220DC08091C22223
:1010A0009091C322FC01EE50FC4D20830196909359
:1010B000C3228093C222FF91EF91DF91CF91BF9124
:1010C000AF919F918F917F916F915F914F913F91E0
:1010D0002F911F910F91FF90EF900F900BBE0F90EB
:1010E0000FBE0F901F90189570D088F09F5790F00A
:1010F000B92F9927B751A0F0D1F0660F771F881F3D
:10110000991F1AF0BA95C9F712C0B13081F077D0A3
:10111000B1E0089574C0672F782F8827B85F39F041
:10112000B93FCCF3869577956795B395D9F73EF49B
:1011300090958095709561957F4F8F4F9F4F089543
:10114000E89409C097FB3EF4909580957095619561
:101150007F4F8F4F9F4F9923A9F0F92F96E9BB2717
:101160009395F695879577956795B795F111F8CF93
:10117000FAF4BB0F11F460FF1BC06F5F7F4F8F4FFE
:101180009F4F16C0882311F096E911C0772321F0F4
:101190009EE8872F762F05C0662371F096E8862F8C
:1011A00070E060E02AF09A95660F771F881FDAF7E3
:1011B000880F9695879597F9089557FD9058440F95
:1011C000551F59F05F3F71F04795880F97FB991FA6
:1011D00061F09F3F79F08795089512161306140663
:1011E000551FF2CF4695F1DF08C0161617061806F0
:1011F000991FF1CF86957105610508940895E894CB
:10120000BB2766277727CB0197F908950BD078C0C5
:1012100069D028F06ED018F0952309F05AC05FC04D
:101220001124EECFCADFA0F3959FD1F3950F50E0C4
:10123000551F629FF001729FBB27F00DB11D639F88
:10124000AA27F00DB11DAA1F649F6627B00DA11D2E
:10125000661F829F2227B00DA11D621F739FB00DD4
:10126000A11D621F839FA00D611D221F749F332744
:10127000A00D611D231F849F600D211D822F762FDD
:101280006A2F11249F5750408AF0E1F088234AF0DA
:10129000EE0FFF1FBB1F661F771F881F9150504026
:1012A000A9F79E3F510570F014C0AACF5F3FECF341
:1012B000983EDCF3869577956795B795F795E79512
:1012C0009F5FC1F7FE2B880F911D9695879597F923
:1012D000089597F99F6780E870E060E008959FEFB8
:1012E00080EC089500240A941616170618060906BD
:1012F000089500240A94121613061406050608958C
:10130000092E0394000C11F4882352F0BB0F40F413
:10131000BF2B11F460FF04C06F5F7F4F8F4F9F4F53
:061320000895F894FFCFD0
:1013260002010010000000000000000000000000A4
:1013360000000000000000000000000000000000A7
:101346000000000000000000000000000000000097
:101356000000000000000000000000000000000087
:101366000000000000000000000000000000000077
:1023260000000000000000000A110010000000007C
:102336000000000000000000000000000000000097
:102346000000000000000000000000000000000087
:102356000000000000000000000000000000000077
:102366000000000000000000000000000000000067
:1033360052784649464F204D45535341474520450F
:1033460052524F523A204C454E204D495353494E06
:10335600470052784649464F204D4553534147450D
:10336600204552524F523A2044415441204D495330
:1033760053494E470052784649464F20434F4D4DDC
:10338600414E44204552524F523A204C454E204D14
:10339600495353494E470052784649464F20434FBA
:1033A6004D4D414E44204552524F523A20444952C7
:1033B600454354494F4E204D495353494E470052B9
:1033C600784649464F20434F4D4D414E4420455285
:1033D600524F523A20524F544154494F4E204D4974
:1033E6005353494E470052784649464F20434F4D66
:1033F6004D414E44204552524F523A205350454576
:1034060044204D495353494E470052784649464F4A
:1034160020434F4D4D414E44204552524F523A2083
:10342600494E434F5252454354204C454E4754480B
:103436000052784649464F20506172616D65746549
:103446007273204552524F523A204C454E204D49F8
:103456005353494E470052784649464F20506172B1
:10346600616D6574657273204552524F5221005248
:10347600784649464F204175746F6E6F6D204552F0
:10348600524F523A204C454E204D495353494E47D0
:103496000052784649464F204175746F6E6F6D2015
:1034A6004552524F52210052784649464F204175A7
:1034B600746F6E6F6D204552524F523A20494E43FB
:1034C6004F5252454354204C454E47544800555F91
:0A34D6004649464F2D66756C6C00E8
:00000001FF
