:1000000045C0000061C000005FC000005DC000008E
:100010005BC0000059C0000057C0000055C0000080
:1000200053C0000051C000004FC000004DC0000090
:100030004BC00000FFC0000047C0000045C00000EA
:1000400043C0000041C000003FC000003DC00000B0
:100050000C94BC0839C0000037C0000035C0000057
:1000600033C0000031C00000E0C300002DC000001C
:100070002BC0000029C0000027C0000025C00000E0
:10008000E7C0000021C000001FC0000011241FBEF7
:10009000CFEFD0E4DEBFCDBF13E2A0E0B1E0ECECE7
:1000A000F4E100E00BBF02C007900D92A631B1074A
:1000B000D9F729E2A6E1B3E201C01D92A735B20744
:1000C000E1F7A2D00C94640A9BCFBC0180E090E0E1
:1000D0000E94730920E030E040E951E40E94D90910
:1000E0000E94470970938900609388000895BC01BD
:1000F00080E090E00E94730920E030E040E951E4A4
:100100000E94D9090E944709709399006093980052
:100110000895E1E8F0E0808185608083E1E9F0E026
:1001200080818560808388EE93E0CFDF88EE93E066
:10013000DEDFEFE6F0E0808182608083E1E7F0E0DF
:1001400080818260808310928500109284001092DA
:100150009500109294000895FC0190819150848143
:100160002281821B892308951F93CF93DF93EC0193
:10017000162FF2DF288139812150310990E0821752
:10018000930769F08C819D81FE01E80FF91F1683AA
:100190000196282339233D832C8380E001C081E030
:1001A000DF91CF911F9108950F931F93CF93DF930A
:1001B000EC018B01D1DF8823A1F0EA81FB81EC0FF8
:1001C000FD1F8681F8018083288139812150310902
:1001D0008A819B810196822393239B838A8380E07B
:1001E00001C081E0DF91CF911F910F91089581B1FE
:1001F000836081B987B1806C87B9D3D480E8D1D0CE
:1002000088DF80ED97E073CFF2DF78942FEF8FE1F6
:100210009CE1215080409040E1F700C000007AD777
:100220004FD28111BFD556D2882311F046D2D6D5F0
:100230005BD2F5CF1F920F920FB60F92112410923E
:100240008500109284000F900FBE0F901F9018959C
:100250001F920F920FB60F921124109295001092D8
:1002600094000F900FBE0F901F90189585E4809317
:10027000BC00089581EC8093BC00089584EA8093CB
:10028000BC00089585ED8093BC0008958091B9006D
:10029000887F883309F0F6CFEDCF8091BB000895B9
:1002A000ECEBF0E080818823ECF708958093BB00AD
:1002B00084E88093BC00F4CF10923324109232244F
:1002C00010923D2410923C2410922824109227244E
:1002D00010922D2410922C241092302410922F244E
:1002E0000895ECEBF0E08081806C80830895CF93DB
:1002F000DF93C0913C24D0913D24C830D10591F4C6
:10030000EEE3F4E2A6E4B4E286E494E221912D93D4
:10031000E817F907D9F7C1DF8093362481E080938D
:100320001B230DC0BADFC25CDB4D888380913C2467
:1003300090913D24019690933D2480933C24DF913D
:10034000CF910895CF93DF93C0912C24D0912D2489
:10035000A4DFC75DDB4D888310922D2410922C24DE
:10036000DF91CF91089599DF809327230895CF934C
:10037000DF93C0912724D09128248FDFC85DDC4D06
:100380008883809127249091282401969093282493
:10039000809327249093382480933724DF91CF9142
:1003A000089580932E24803479F0803819F08032BB
:1003B000D1F412C083E088B959DF8FE38093B8008D
:1003C00081E88093BA0008958FE38093B8004EDFF0
:1003D00080E48093BA0008958FE38093B80046DFED
:1003E00081E28093BA0008950F931F93CF93DF9318
:1003F000C82FD62F142F022F41DF52DF9091B90062
:10040000987F983019F042DF80E034C08C2F4EDFA7
:100410008091B900887F883119F038DF80E02AC0E8
:1004200081E044DF8091B900887F883219F02EDFA7
:1004300080E020C08D2F3ADF8091B900887F88321C
:1004400019F024DF80E016C0812F30DF8091B900E1
:10045000887F883219F01ADF80E00CC0802F26DFF9
:100460008091B900887F883219F010DF80E002C0E7
:1004700009DF81E0DF91CF911F910F910895CF9314
:10048000DF93C82FD62FFADE0BDF9091B900987F4B
:10049000983019F0FBDE80E020C08C2F07DF8091C0
:1004A000B900887F883119F0F1DE80E016C085E060
:1004B000FDDE8091B900887F883219F0E7DE80E0A8
:1004C0000CC08D2FF3DE8091B900887F883219F03F
:1004D000DDDE80E002C0D6DE81E0DF91CF910895BD
:1004E0001F93CF93DF93C82FD62F142FC7DED8DEEC
:1004F0009091B900987F983019F0C8DE80E034C040
:1005000080E2D4DE8091B900887F883119F0BEDEA8
:1005100080E02AC080E0CADE8091B900887F8832FE
:1005200019F0B4DE80E020C08C2FC0DE8091B900CD
:10053000887F883219F0AADE80E016C08D2FB6DEE3
:100540008091B900887F883219F0A0DE80E00CC06D
:10055000812FACDE8091B900887F883219F096DE59
:1005600080E002C08FDE81E0DF91CF911F9108957E
:10057000CF93C82F83DE94DE9091B900987F983096
:1005800019F084DE80E020C080E290DE8091B90026
:10059000887F883119F07ADE80E016C084E086DE3C
:1005A0008091B900887F883219F070DE80E00CC03D
:1005B0008C2F7CDE8091B900887F883219F066DE4E
:1005C00080E002C05FDE81E0CF910895EF92FF925C
:1005D0000F931F93CF93DF93C82FE62EF72E8A0138
:1005E0004DDE5EDE9091B900987F983019F04EDEB6
:1005F00080E023C08C2F5ADE8091B900887F88313B
:1006000019F044DE80E019C089E150DE8091B90024
:10061000887F883221F41016110624F00CC036DED3
:1006200080E00BC0CE2DDF2D0C0F1D1F89913EDE0B
:10063000C017D107D9F726DE81E0DF91CF911F9156
:100640000F91FF90EF900895CF93DF93C82FD62F8F
:1006500015DE26DE9091B900987F983019F016DEED
:1006600080E020C08C2F22DE8091B900887F883105
:1006700019F00CDE80E016C087E018DE8091B9002A
:10068000887F883219F002DE80E00CC08D2F0EDEEC
:100690008091B900887F883219F0F8DD80E002C0CF
:1006A000F1DD81E0DF91CF9108958A5B9B4DFC01E4
:1006B000808108958091362408958091272308959C
:1006C00080911B23882321F010921B2381E0089541
:1006D00080E0089580911823882321F01092182338
:1006E00081E0089580E008958F929F92AF92BF922B
:1006F000CF92DF92EF92FF920F931F93CF93DF93EE
:10070000CDB7DEB7ADB6BEB660E070E08091000157
:100710009091010149DD81113BC0C0900000D12CB6
:1007200096012150310981E090E0C114D10411F00B
:1007300080E090E0820F931F2DB73EB7281B390B46
:100740000FB6F8943EBF0FBE2DBF2F5F3F4F822ED6
:10075000932E1C141D04BCF4E22EF32E00E010E0D6
:1007600060E070E080910001909101011DDD811138
:1007700011C020910000F70121937F010F5F1F4FEF
:100780000C151D056CF3882D992DDDD280E003C07A
:1007900081E001C081E00FB6F894BEBE0FBEADBED1
:1007A000DF91CF911F910F91FF90EF90DF90CF904D
:1007B000BF90AF909F908F9008950F931F93CF930A
:1007C000DF93D82FC92F6091372480910001909139
:1007D0000101CADC81111FC02091372430913824D7
:1007E00012161306D4F40D2F1C2FC0E0D0E0F80130
:1007F00061918F018091000190910101B5DC81111F
:100800000EC021968091372490913824C817D907BB
:1008100074F380E005C081E003C080E001C081E0A6
:10082000DF91CF911F910F9108951F920F920FB6F4
:100830000F9211240BB60F922F933F934F935F9318
:100840006F937F938F939F93AF93BF93CF93DF93D8
:10085000EF93FF9380912E24803409F490C0803868
:1008600021F0803209F088C1D2C08091B900887F20
:10087000803629F08091B900887F883621F481E0A4
:10088000809331247AC08091B900887F803729F025
:100890008091B900887F883739F48FEF90E090938A
:1008A0003B2480933A2469C08091B900887F8038C6
:1008B000B9F580913124882341F0EFDC80933A240C
:1008C00010923B241092312458C080913A24909188
:1008D0003B248530910571F024F4019709F04DC057
:1008E00007C08630910551F0499709F046C004C011
:1008F00029DD43C038DD41C03ADD3FC0C0912F241F
:10090000D0913024CADCC05EDC4D888380912F24D6
:100910009091302401969093302480932F242DC001
:100920008091B900887F803911F4E1DC26C0809184
:10093000B900887F803A09F5BFDC80913A24909114
:100940003B248530910571F01CF40197B1F406C089
:100950008630910579F0499781F408C081E0809351
:1009600019230BC081E08093182307C088E293E22B
:1009700024DF03C080E293E207D2B3DCFDC08091A4
:10098000B900887F803629F08091B900887F883649
:1009900021F481E08093312438C08091B900887FB0
:1009A0008038E1F480913124882341F076DC809313
:1009B0003A2410923B241092312427C080913A248B
:1009C00090913B248230910519F04997F1F404C0CD
:1009D00064DC8093392419C0CADC17C08091B90047
:1009E000887F803A91F468DC80913A2490913B248E
:1009F0008230910519F0499741F404C081E0809359
:100A0000162303C088E293E2D8DE6BDCB5C0809188
:100A1000B900887F803629F08091B900887F8836B8
:100A200021F481E080933124A6C08091B900887FB1
:100A3000803729F08091B900887F883739F48FEFAB
:100A400090E090933B2480933A2495C08091B90024
:100A5000887F803809F062C080913124882341F07A
:100A60001CDC80933A2410923B241092312483C0E2
:100A700080913A2490913B248130910509F44AC039
:100A80001CF4892B41F077C084309105B1F00597B3
:100A900009F071C041C0C0913224D0913324FDDBF4
:100AA000CC5DDC4D88838091322490913324019673
:100AB00090933324809332245EC0EFDB81110AC00F
:100AC000809134249091352401979093352480931C
:100AD000342409C080913424909135240196909358
:100AE0003524809334248091342490913524181631
:100AF00019063CF081E090E09093352480933424F3
:100B00003AC00897C4F187E090E090933524809331
:100B1000342431C017DC2FC026DC2DC08091B900F1
:100B2000887F803911F4E3DB26C08091B900887F8B
:100B3000803A09F5C1DB80913A2490913B248130C1
:100B4000910591F01CF4892B39F015C08430910582
:100B500039F0059781F40CC081E080931A230BC013
:100B600081E08093172307C081E08093192303C09D
:100B700081E080931823B5DBFF91EF91DF91CF9156
:100B8000BF91AF919F918F917F916F915F914F91A5
:100B90003F912F910F900BBE0F900FBE0F901F90A3
:100BA00018951092C50089E08093C40088E980936D
:100BB000C10086E08093C20008958091C0008072D9
:100BC0000895CF93C82FF9DF8823E9F3C093C600B7
:100BD000CF910895CF92DF92EF92FF920F931F93E0
:100BE000CF93DF93662309F43EC0062F10E04FEF4A
:100BF0005FEFEEEFFFEFC62ED12CE82EF12CC8E010
:100C0000D0E0EE3F6FEFF60719F48E2D9F2D30C028
:100C1000EF3F8FEFF80719F48C2D9D2D29C0DF01D0
:100C2000AD5AB94D8C9190E023C0BA01682779275D
:100C300060FF07C05695479568E0462764E8562749
:100C400002C056954795969587952150310969F7C9
:100C50003196E017F107A9F69A01209530953227D1
:100C60002327322702C020E030E0822F932F02C0DA
:100C70009E01DBCFDF91CF911F910F91FF90EF90FD
:100C8000DF90CF9008950F931F93CF93DF939EE74C
:100C9000909352278093532760935427262F30E058
:100CA000121613064CF5E3E5F6E203E010E0C0E0AF
:100CB000D0E07DE750E29081492F4D57423080F4DB
:100CC000D801AE5AB84DAC0FBD1F7C930F5F1F4FBC
:100CD000D801AE5AB84DAC0FBD1F95279C9306C0E6
:100CE000D801AE5AB84DAC0FBD1F9C9321963196DA
:100CF000C217D30701F704C003E010E0C0E0D0E062
:100D000069DFF801EE5AF84DEC0FFD1F90838183E7
:100D100022960C0F1D1FF801EE5AF84D8EE78083C6
:100D2000C8010196181619064CF4C2E5D7E20D5A0F
:100D3000184D899146DFC017D107D9F7DF91CF91C0
:100D40001F910F910895CF93DF93C82FD92F43E5BB
:100D500056E220E030E006C06991FA016193AF01EC
:100D60002F5F3F4FE82FF92FDF010D900020E9F7AB
:100D70001197BD016E1B7F0B2617370768F38DE4B3
:100D800082DFDF91CF910895A82FB92FE3E5F6E236
:100D900087E596E22D912193E817F907D9F764E0EA
:100DA00086E571CF0F931F93CF93DF9303E516E290
:100DB000C0E0D0E0CE0179DCF80181938F0121966B
:100DC000C830D105B9F776DC80935B2669E083E50E
:100DD0005ADFDF91CF911F910F9108958093532691
:100DE00061E081E450CF8F929F92AF92BF92CF92F9
:100DF000DF92EF92FF920F931F93CF93DF93CDB7C4
:100E0000DEB7ADB6BEB660E070E08091081190919B
:100E10000911CAD9882329F080E191E294DF81E0A9
:100E200042C0C0900000D12C96012150310981E0D0
:100E300090E0C114D10411F080E090E0820F931F84
:100E40002DB73EB7281B390B0FB6F8943EBF0FBE27
:100E50002DBF8DB79EB70196882E992E1C141D04A8
:100E6000E4F4E82EF92E00E010E060E070E08091FC
:100E700008119091091198D9882329F082E391E211
:100E800062DF81E010C080910000F70181937F0153
:100E90000F5F1F4F0C151D0544F3A601682D792D1A
:100EA00080E494DB80E00FB6F894BEBE0FBEADBE0A
:100EB000DF91CF911F910F91FF90EF90DF90CF9036
:100EC000BF90AF909F908F900895CF93DF9360E095
:100ED00070E0809108119091091166D9882329F05A
:100EE00085E591E230DF81E042C0809100008330EF
:100EF00009F039C060E070E080910811909109110B
:100F000053D9882329F087E791E21DDF81E02FC0C4
:100F1000C091000060E070E080910811909109118B
:100F200043D9882329F08FE991E20DDF81E01FC0CA
:100F3000D091000060E070E080910811909109115B
:100F400033D9882329F086EC91E2FDDE81E00FC0E1
:100F50004091000092B181E0892782B96D2F8C2FDA
:100F6000BFDA80E004C08AEE91E2EDDE81E0DF913D
:100F7000CF910895CF93DF9360E070E080910811E6
:100F80009091091111D9882329F081E192E2DBDEE9
:100F900081E03EC0809100008330B1F560E070E0F8
:100FA0008091081190910911FFD8882329F086E3D8
:100FB00092E2C9DE81E02CC0C091000060E070E0E8
:100FC0008091081190910911EFD8882329F086E3C8
:100FD00092E2B9DE81E01CC0D091000060E070E0D8
:100FE0008091081190910911DFD8882329F086E3B8
:100FF00092E2A9DE81E00CC0209100004D2F6C2F01
:1010000080E2F2D980E004C08AEE91E29CDE81E0C9
:10101000DF91CF91089560E070E080910811909188
:101020000911C2D8882329F08FE492E28CDE81E096
:101030000895809100008130C1F460E070E08091FB
:10104000081190910911B0D8882329F081E792E224
:101050007ADE81E008956091000098B180E48927EC
:1010600088B980E20CDA80E0089587E892E26BDECE
:1010700081E0089560E070E080910811909109117D
:1010800093D8882329F08EEA92E25DDE81E008950C
:10109000809100008130A1F460E070E0809108113F
:1010A0009091091181D8882329F08FEC92E24BDED0
:1010B00081E008956091000080E2C6DA80E0089542
:1010C00084EE92E240DE81E0089560E070E080917D
:1010D00008119091091168D8811116C08091000003
:1010E0008130A1F460E070E08091081190910911C5
:1010F0005BD881110DC08091000022B192E092274F
:1011000092B936DA80E0089581E0089581E008958B
:1011100081E0089527C0809100008534E1F028F433
:101120008134A9F08334F1F40AC0803561F084354C
:10113000B1F08D34B9F457DE8823A1F00895C5DEEF
:10114000882381F0089516DF882361F0089563DF16
:10115000882341F00895B9DF882321F008958ADFBC
:10116000811109C060E070E080910811909109112F
:101170001BD8882381F208951F920F920FB60F9209
:1011800011240BB60F92EF92FF920F931F932F93A0
:101190003F934F935F936F937F938F939F93AF93FF
:1011A000BF93CF93DF93EF93FF932091C6002E3729
:1011B00009F03EC080911E2390911F238430910539
:1011C00040F420914F2430E02C5F3F4F821793076B
:1011D00051F580911C2390911D23892B21F01092B1
:1011E0001D2310921C230EE414E2C0E0D0E00F2E69
:1011F000FFE4EF2EF4E2FF2EF02DF80161918F0154
:1012000080910811909109110E94B400882319F06F
:101210008AE093E298DD2196F701808190E00296C2
:10122000C817D90754F310921F2310921E2316C01B
:101230002D3739F481E090E090931D2380931C2397
:101240000DC080911E2390911F23FC01E25BFB4D9A
:101250002083019690931F2380931E23FF91EF918B
:10126000DF91CF91BF91AF919F918F917F916F91BE
:101270005F914F913F912F911F910F91FF90EF90B0
:101280000F900BBE0F900FBE0F901F90189570D04F
:1012900088F09F5790F0B92F9927B751A0F0D1F05F
:1012A000660F771F881F991F1AF0BA95C9F712C0E9
:1012B000B13081F077D0B1E0089574C0672F782FF6
:1012C0008827B85F39F0B93FCCF386957795679555
:1012D000B395D9F73EF490958095709561957F4FC1
:1012E0008F4F9F4F0895E89409C097FB3EF4909567
:1012F0008095709561957F4F8F4F9F4F9923A9F0EF
:10130000F92F96E9BB279395F6958795779567957D
:10131000B795F111F8CFFAF4BB0F11F460FF1BC0C1
:101320006F5F7F4F8F4F9F4F16C0882311F096E954
:1013300011C0772321F09EE8872F762F05C0662302
:1013400071F096E8862F70E060E02AF09A95660FBB
:10135000771F881FDAF7880F9695879597F9089574
:1013600057FD9058440F551F59F05F3F71F0479556
:10137000880F97FB991F61F09F3F79F0879508953B
:10138000121613061406551FF2CF4695F1DF08C05A
:10139000161617061806991FF1CF86957105610577
:1013A00008940895E894BB2766277727CB0197F91F
:1013B00008950BD078C069D028F06ED018F095232E
:1013C00009F05AC05FC01124EECFCADFA0F3959F89
:1013D000D1F3950F50E0551F629FF001729FBB271C
:1013E000F00DB11D639FAA27F00DB11DAA1F649FC8
:1013F0006627B00DA11D661F829F2227B00DA11D7B
:10140000621F739FB00DA11D621F839FA00D611D00
:10141000221F749F3327A00D611D231F849F600D21
:10142000211D822F762F6A2F11249F5750408AF05A
:10143000E1F088234AF0EE0FFF1FBB1F661F771FE6
:10144000881F91505040A9F79E3F510570F014C07D
:10145000AACF5F3FECF3983EDCF3869577956795CE
:10146000B795F795E7959F5FC1F7FE2B880F911D04
:101470009695879597F9089597F99F6780E870E0AA
:1014800060E008959FEF80EC089500240A941616FA
:10149000170618060906089500240A941216130662
:1014A000140605060895092E0394000C11F48823F0
:1014B00052F0BB0F40F4BF2B11F460FF04C06F5F0C
:0C14C0007F4F8F4F9F4F0895F894FFCF8F
:1014CC0002010010000000000000000000000000FD
:1014DC000000000000000000000000000000000000
:1014EC0000000000000000000000000000000000F0
:1014FC0000000000000000000000000000000000E0
:10150C0000000000000000000000000000000000CF
:1024CC0000000000000000000A11001000000000D5
:1024DC0000000000000000000000000000000000F0
:1024EC0000000000000000000000000000000000E0
:1024FC0000000000000000000000000000000000D0
:10250C0000000000000000000000000000000000BF
:1034DC0052784649464F204D455353414745204568
:1034EC0052524F523A204C454E204D495353494E5F
:1034FC00470052784649464F204D45535341474566
:10350C00204552524F523A2044415441204D495388
:10351C0053494E470052784649464F20434F4D4D34
:10352C00414E44204552524F523A204C454E204D6C
:10353C00495353494E470052784649464F20434F12
:10354C004D4D414E44204552524F523A204449521F
:10355C00454354494F4E204D495353494E47005211
:10356C00784649464F20434F4D4D414E44204552DD
:10357C00524F523A20524F544154494F4E204D49CC
:10358C005353494E470052784649464F20434F4DBE
:10359C004D414E44204552524F523A2053504545CE
:1035AC0044204D495353494E470052784649464FA3
:1035BC0020434F4D4D414E44204552524F523A20DC
:1035CC00494E434F5252454354204C454E47544864
:1035DC000052784649464F20506172616D657465A2
:1035EC007273204552524F523A204C454E204D4951
:1035FC005353494E470052784649464F205061720A
:10360C00616D6574657273204552524F52210052A0
:10361C00784649464F204175746F6E6F6D20455248
:10362C00524F523A204C454E204D495353494E4728
:10363C000052784649464F204175746F6E6F6D206D
:10364C004552524F52210052784649464F204175FF
:10365C00746F6E6F6D204552524F523A20494E4353
:10366C004F5252454354204C454E475448005278D3
:10367C004649464F20537461747573204552524F1E
:10368C00523A204C454E204D495353494E47005217
:10369C00784649464F2053746174757320455252D5
:1036AC004F52210052784649464F2053746174752D
:1036BC0073204552524F523A20494E434F52524575
:1036CC004354204C454E47544800555F4649464F9D
:0636DC002D66756C6C0008
:00000001FF
