:1000000045C0000061C000005FC000005DC000008E
:100010005BC0000059C0000057C0000055C0000080
:1000200053C0000051C000004FC000004DC0000090
:100030004BC00000F4C0000047C0000045C00000F5
:1000400043C0000041C000003FC000003DC00000B0
:10005000F4C6000039C0000037C0000035C0000001
:1000600033C0000031C000004FC300002DC00000AD
:100070002BC0000029C0000027C0000025C00000E0
:10008000F9C0000021C000001FC0000011241FBEE5
:10009000CFEFD0E4DEBFCDBF12E2A0E0B1E0E0E9F7
:1000A000F1E100E00BBF02C007900D92AE31B10745
:1000B000D9F728E2AEE1B2E201C01D92AF35B20736
:1000C000E1F796D00C94C6089BCFBC0180E090E08D
:1000D0006CD720E030E040E951E4CDD73AD77093B7
:1000E0008900609388000895BC0180E090E05DD7AE
:1000F00020E030E040E951E4BED72BD7709399005F
:10010000609398000895E1E8F0E080818560808345
:10011000E1E9F0E080818560808388EE93E0D5DFBF
:1001200088EE93E0E1DFEFE6F0E08081826080839B
:10013000E1E7F0E080818260808310928500109278
:10014000840010929500109294000895FC01908113
:10015000915084812281821B892308951F93CF931C
:10016000DF93EC01162FF2DF28813981215031090C
:1001700090E08217930769F08C819D81FE01E80F62
:10018000F91F16830196282339233D832C8380E0B1
:1001900001C081E0DF91CF911F9108950F931F93CC
:1001A000CF93DF93EC018B01D1DF8823A1F0EA81AB
:1001B000FB81EC0FFD1F8681F80180832881398146
:1001C000215031098A819B810196822393239B834D
:1001D0008A8380E001C081E0DF91CF911F910F9170
:1001E000089581B1836081B913D480E8ECD08BCFBE
:1001F000F8DF78942FEF8FE19CE121508040904010
:10020000E1F700C00000EBD504D52FEF8FEC92E0B2
:10021000215080409040E1F700C00000F4CF1F92D1
:100220000F920FB60F9211240BB60F922F933F939C
:100230004F935F936F937F938F939F93AF93BF93EE
:10024000EF93FF93B7D11092850010928400FF9135
:10025000EF91BF91AF919F918F917F916F915F913E
:100260004F913F912F910F900BBE0F900FBE0F90AB
:100270001F9018951F920F920FB60F921124109293
:100280009500109294000F900FBE0F901F9018953C
:1002900085E48093BC00089581EC8093BC000895B0
:1002A00084EA8093BC00089585ED8093BC00089596
:1002B0008091B900887F883309F0F6CFEDCF809127
:1002C000BB000895ECEBF0E080818823ECF7089503
:1002D0008093BB0084E88093BC00F4CF10923B2352
:1002E00010923A2310924523109244231092302307
:1002F00010922F231092352310923423109238231A
:10030000109237230895ECEBF0E08081806C8083BD
:100310000895CF93DF93C0914423D0914523C830F3
:10032000D10591F4E6E4F3E2AEE4B3E28EE493E2C5
:1003300021912D93E817F907D9F7C1DF80933E2368
:1003400081E0809323220DC0BADFCA5BDC4D888335
:100350008091442390914523019690934523809367
:100360004423DF91CF910895CF93DF93C09134233D
:10037000D0913523A4DFCF5CDC4D888310923523E8
:1003800010923423DF91CF91089599DF80932F222B
:100390000895CF93DF93C0912F23D09130238FDF27
:1003A000C05DDD4D888380912F239091302301968D
:1003B0009093302380932F239093402380933F2367
:1003C000DF91CF91089580933623803479F080387F
:1003D00019F08032D1F412C083E088B959DF8FE37D
:1003E0008093B80081E88093BA0008958FE38093EA
:1003F000B8004EDF80E48093BA0008958FE38093C5
:10040000B80046DF81E28093BA0008951F93CF932E
:10041000DF93C82FD62F142F43DF54DF9091B900FC
:10042000987F983019F044DF80E034C080E250DFDC
:100430008091B900887F883119F03ADF80E02AC0C6
:1004400080E046DF8091B900887F883219F030DF84
:1004500080E020C08C2F3CDF8091B900887F8832FB
:1004600019F026DF80E016C08D2F32DF8091B900B1
:10047000887F883219F01CDF80E00CC0812F28DFD4
:100480008091B900887F883219F012DF80E002C0C5
:100490000BDF81E0DF91CF911F910895EF92FF92E2
:1004A0000F931F93CF93DF93C82FE62EF72EF8DE1E
:1004B00009DF9091B900987F983019F0F9DE80E05B
:1004C0002CC08C2F05DF8091B900887F883119F00E
:1004D000EFDE80E022C089E1FBDE8091B900887FF9
:1004E000883229F40E2D1F2DC0E0D0E008C0E0DED8
:1004F00080E013C0F80181918F01EADE2196EE2D94
:10050000FF2DDF010D900020E9F71197AE1BBF0B07
:10051000CA17DB0778F3C8DE81E0DF91CF911F9126
:100520000F91FF90EF900895EF92FF920F931F931A
:10053000CF93DF93C82FE62EF72E8A01B1DEC2DEFD
:100540009091B900987F983019F0B2DE80E023C016
:100550008C2FBEDE8091B900887F883119F0A8DE2B
:1005600080E019C089E1B4DE8091B900887F8832CB
:1005700021F41016110624F00CC09ADE80E00BC0A6
:10058000CE2DDF2D0C0F1D1F8991A2DEC017D107C4
:10059000D9F78ADE81E0DF91CF911F910F91FF9013
:1005A000EF900895825B9C4DFC01808108958091BD
:1005B0003E2308958F929F92AF92BF92CF92DF9287
:1005C000EF92FF920F931F93CF93DF93CDB7DEB7D8
:1005D000ADB6BEB660E070E080910001909101017F
:1005E000DDDD81113BC0C0900000D12C960121506F
:1005F000310981E090E0C114D10411F080E090E075
:10060000820F931F2DB73EB7281B390B0FB6F894F6
:100610003EBF0FBE2DBF2F5F3F4F822E932E1C1467
:100620001D04BCF4E22EF32E00E010E060E070E068
:100630008091000190910101B1DD811111C02091E3
:100640000000F70121937F010F5F1F4F0C151D055F
:100650006CF3882D992DAED280E003C081E001C0FB
:1006600081E00FB6F894BEBE0FBEADBEDF91CF9154
:100670001F910F91FF90EF90DF90CF90BF90AF90C0
:100680009F908F900895EF92FF920F931F93CF93B7
:10069000DF93E82EF92EE82FF92FDF010D900020CF
:1006A000E9F71197BD016E1B7F0B809100019091BE
:1006B000010154DD81111EC00E2D1F2DC0E0D0E0C0
:1006C0000BC0F80161918F018091000190910101AF
:1006D00045DD811111C02196EE2DFF2DDF010D901A
:1006E0000020E9F71197AE1BBF0BCA17DB0748F3D1
:1006F00080E003C081E001C081E0DF91CF911F91D4
:100700000F91FF90EF9008951F920F920FB60F92E6
:1007100011240BB60F922F933F934F935F936F93D8
:100720007F938F939F93AF93BF93CF93DF93EF9379
:10073000FF9380913623853009F450C148F481300D
:1007400009F448C108F43EC1843009F04CC13EC1EF
:10075000803409F47FC0803821F0803209F043C131
:10076000B9C08091B900887F803629F08091B900A6
:10077000887F883621F481E08093392369C0809195
:10078000B900887F8038B9F580913923882341F0FA
:1007900096DD80934223109243231092392358C050
:1007A00080914223909143238530910571F024F488
:1007B000019709F04DC007C08630910551F0499767
:1007C00009F046C004C0D0DD43C0DFDD41C0E1DD3B
:1007D0003FC0C0913723D091382371DDC85DDD4D16
:1007E0008883809137239091382301969093382302
:1007F000809337232DC08091B900887F803911F410
:1008000088DD26C08091B900887F803A09F566DDD1
:1008100080914223909143238530910571F01CF41F
:100820000197B1F406C08630910579F0499781F4BB
:1008300008C081E0809321220BC081E080932022B8
:1008400007C080E392E21FDF03C088E292E2D3D1C7
:100850005ADDC9C08091B900887F803629F0809127
:10086000B900887F883621F481E08093392330C035
:100870008091B900887F8038E1F480913923882302
:1008800041F01DDD809342231092432310923923BF
:100890001FC080914223909143238230910519F02B
:1008A0004997B1F404C00BDD8093412311C071DD81
:1008B0000FC08091B900887F803A51F40FDD80919C
:1008C000422390914323029719F481E080931E22E2
:1008D0001ADD89C08091B900887F803629F0809127
:1008E000B900887F883621F481E0809339237AC06B
:1008F0008091B900887F803809F057C080913923F2
:10090000882341F0DCDC8093422310924323109231
:10091000392368C08091422390914323813091050F
:1009200009F43FC01CF4892B41F05CC08430910570
:10093000B1F0059709F056C036C0C0913A23D09166
:100940003B23BDDCC45DDD4D888380913A239091CB
:100950003B23019690933B2380933A2343C0AFDC23
:1009600020913C2330913D23A901480F511DCA011C
:10097000181619063CF081E090E090933D23809397
:100980003C2330C0483051052CF450933D23409314
:100990003C2328C087E090E090933D2380933C2344
:1009A00021C0E2DC1FC0F1DC1DC08091B900887F4E
:1009B000803911F4AEDC16C08091B900887F803A8E
:1009C00089F48CDC81E0809322220DC081E0809349
:1009D0001F2209C081E08093212205C081E080931D
:1009E000202201C090DCFF91EF91DF91CF91BF9168
:1009F000AF919F918F917F916F915F914F913F91B7
:100A00002F910F900BBE0F900FBE0F901F90189557
:100A10001092C50089E08093C40088E98093C100EA
:100A200086E08093C20008958091C000807208958E
:100A3000CF93C82FF9DF8823E9F3C093C600CF9185
:100A40000895CF92DF92EF92FF920F931F93CF936F
:100A5000DF93662309F43EC0062F10E04FEF5FEFEF
:100A6000EEEFFFEFC62ED12CE82EF12CC8E0D0E03F
:100A7000EE3F6FEFF60719F48E2D9F2D30C0EF3F3C
:100A80008FEFF80719F48C2D9D2D29C0DF01A55A91
:100A9000BA4D8C9190E023C0BA016827792760FF96
:100AA00007C05695479568E0462764E8562702C078
:100AB00056954795969587952150310969F7319656
:100AC000E017F107A9F69A012095309532272327E0
:100AD000322702C020E030E0822F932F02C09E0117
:100AE000DBCFDF91CF911F910F91FF90EF90DF90BF
:100AF000CF9008950F931F93CF93DF939EE790932A
:100B00005A2680935B2660935C26262F30E01216CF
:100B100013064CF5EBE5F5E203E010E0C0E0D0E0B1
:100B20007DE750E29081492F4D57423080F4D80143
:100B3000A65AB94DAC0FBD1F7C930F5F1F4FD80154
:100B4000A65AB94DAC0FBD1F95279C9306C0D8017E
:100B5000A65AB94DAC0FBD1F9C9321963196C21772
:100B6000D30701F704C003E010E0C0E0D0E069DF84
:100B7000F801E65AF94DEC0FFD1F90838183229610
:100B80000C0F1D1FF801E65AF94D8EE78083C8014E
:100B90000196181619064CF4CAE5D6E2055A194D05
:100BA000899146DFC017D107D9F7DF91CF911F9107
:100BB0000F910895CF93DF93C82FD92F4BE555E2BE
:100BC00020E030E006C06991FA016193AF012F5F28
:100BD0003F4FE82FF92FDF010D900020E9F7119723
:100BE000BD016E1B7F0B2617370768F38DE482DF8C
:100BF000DF91CF910895A82FB92FEBE5F5E28FE5AE
:100C000095E22D912193E817F907D9F764E086E57D
:100C100071CF0F931F93CF93DF930BE515E2C0E0E5
:100C2000D0E0CE01BFDCF80181938F012196C8305E
:100C3000D105B9F7BCDC8093632569E083E55ADF11
:100C4000DF91CF911F910F9108958F929F92AF9254
:100C5000BF92CF92DF92EF92FF920F931F93CF93A9
:100C6000DF93CDB7DEB7ADB6BEB660E070E0809181
:100C700008119091091192DA882331F060E171E254
:100C800080E40CDC81E043C0C0900000D12C9601D0
:100C90002150310981E090E0C114D10411F080E0CD
:100CA00090E0820F931F2DB73EB7281B390B0FB66C
:100CB000F8943EBF0FBE2DBF8DB79EB70196882E0C
:100CC000992E1C141D04ECF4E82EF92E00E010E01F
:100CD00060E070E080910811909109115FDA88233B
:100CE00031F062E371E280E4D9DB81E010C08091F1
:100CF0000000F70181937F010F5F1F4F0C151D0549
:100D00003CF3A601682D792D80E40EDC80E00FB65F
:100D1000F894BEBE0FBEADBEDF91CF911F910F9173
:100D2000FF90EF90DF90CF90BF90AF909F908F900B
:100D30000895CF93DF9360E070E080910811909167
:100D400009112CDA882331F065E571E280E4A6DB35
:100D500081E042C080910000833009F038C060E03B
:100D600070E0809108119091091118DA882331F010
:100D700067E771E280E492DB81E02EC0C091000061
:100D800060E070E0809108119091091107DA8823E2
:100D900031F06FE971E280E481DB81E01DC0D09128
:100DA000000060E070E08091081190910911F6D97F
:100DB000882331F066EC71E280E470DB81E00CC0E6
:100DC000409100006D2F8C2F21DB80E005C06AEE82
:100DD00071E280E463DB81E0DF91CF9108950DC083
:100DE00080910000833431F08D3439F42EDF882374
:100DF00021F008959EDF811109C060E070E08091CC
:100E0000081190910911CAD9882351F3089560916E
:100E10005723262F30E01216130664F4A8E5B3E238
:100E2000EBE5F5E280E090E04D9141930196821769
:100E30009307D4F3809156235DCE1F920F920FB685
:100E40000F9211240BB60F92EF92FF920F931F9304
:100E50002F933F934F935F936F937F938F939F93C2
:100E6000AF93BF93CF93DF93EF93FF932091C6008F
:100E70002E3709F03FC0809126229091272284309E
:100E8000910540F42091572330E02C5F3F4F8217AB
:100E9000930759F58091242290912522892B21F0E6
:100EA0001092252210922422B2DF06E513E2C0E060
:100EB000D0E00F2EF7E5EF2EF3E2FF2EF02DF80134
:100EC00061918F01809108119091091147D9882370
:100ED00021F061E172E280E4E1DA2196F70180819C
:100EE00090E00296C817D90754F310922722109267
:100EF000262216C02D3739F481E090E09093252208
:100F0000809324220DC08091262290912722FC01FB
:100F1000EA5AFC4D20830196909327228093262243
:100F2000FF91EF91DF91CF91BF91AF919F918F9101
:100F30007F916F915F914F913F912F911F910F91F1
:100F4000FF90EF900F900BBE0F900FBE0F901F9071
:100F5000189570D088F09F5790F0B92F9927B75106
:100F6000A0F0D1F0660F771F881F991F1AF0BA956D
:100F7000C9F712C0B13081F077D0B1E0089574C0E4
:100F8000672F782F8827B85F39F0B93FCCF3869563
:100F900077956795B395D9F73EF4909580957095C0
:100FA00061957F4F8F4F9F4F0895E89409C097FB3D
:100FB0003EF490958095709561957F4F8F4F9F4F30
:100FC0009923A9F0F92F96E9BB279395F695879574
:100FD00077956795B795F111F8CFFAF4BB0F11F437
:100FE00060FF1BC06F5F7F4F8F4F9F4F16C08823DE
:100FF00011F096E911C0772321F09EE8872F762F14
:1010000005C0662371F096E8862F70E060E02AF054
:101010009A95660F771F881FDAF7880F9695879540
:1010200097F9089557FD9058440F551F59F05F3FA9
:1010300071F04795880F97FB991F61F09F3F79F0FA
:1010400087950895121613061406551FF2CF46957C
:10105000F1DF08C0161617061806991FF1CF8695FE
:101060007105610508940895E894BB2766277727E2
:10107000CB0197F908950BD078C069D028F06ED0D5
:1010800018F0952309F05AC05FC01124EECFCADFD3
:10109000A0F3959FD1F3950F50E0551F629FF0018B
:1010A000729FBB27F00DB11D639FAA27F00DB11DE4
:1010B000AA1F649F6627B00DA11D661F829F22276D
:1010C000B00DA11D621F739FB00DA11D621F839FF4
:1010D000A00D611D221F749F3327A00D611D231FCA
:1010E000849F600D211D822F762F6A2F11249F5718
:1010F00050408AF0E1F088234AF0EE0FFF1FBB1F3B
:10110000661F771F881F91505040A9F79E3F5105D9
:1011100070F014C0AACF5F3FECF3983EDCF38695E5
:1011200077956795B795F795E7959F5FC1F7FE2B84
:10113000880F911D9695879597F9089597F99F6760
:1011400080E870E060E008959FEF80EC089500244F
:101150000A941616170618060906089500240A941C
:1011600012161306140605060895092E0394000CA2
:1011700011F4882352F0BB0F40F4BF2B11F460FF31
:1011800004C06F5F7F4F8F4F9F4F0895F894FFCF3C
:10119000020100100000000000000000000000003C
:1011A000000000000000000000000000000000003F
:1011B000000000000000000000000000000000002F
:1011C000000000000000000000000000000000001F
:1011D000000000000000000000000000000000000F
:1021900000000000000000000A1100100000000014
:1021A000000000000000000000000000000000002F
:1021B000000000000000000000000000000000001F
:1021C000000000000000000000000000000000000F
:1021D00000000000000000000000000000000000FF
:1031A00052784649464F204D4553534147452045A7
:1031B00052524F523A204C454E204D495353494E9E
:1031C000470052784649464F204D455353414745A5
:1031D000204552524F523A2044415441204D4953C8
:1031E00053494E470052784649464F20434F4D4D74
:1031F000414E44204552524F523A204C454E204DAC
:10320000495353494E470052784649464F20434F51
:103210004D4D414E44204552524F523A204449525E
:10322000454354494F4E204D495353494E47005250
:10323000784649464F20434F4D4D414E442045521C
:10324000524F523A20524F544154494F4E204D490B
:103250005353494E470052784649464F20434F4DFD
:103260004D414E44204552524F523A20535045450D
:1032700044204D495353494E470052784649464FE2
:1032800020434F4D4D414E44204552524F523A201B
:10329000494E434F5252454354204C454E475448A3
:0E32A00000555F4649464F2D66756C6C000068
:00000001FF
