:1000000045C0000060C000005EC000005CC0000091
:100010005AC0000058C0000056C0000054C0000084
:1000200052C0000050C000004EC000004CC0000094
:100030004AC0000048C0000046C0000044C00000A4
:1000400042C0000040C000003EC000003CC00000B4
:10005000A7C5000038C0000036C0000034C0000052
:1000600032C0000030C0000056C200002CC00000AA
:100070002AC0000028C0000026C0000024C00000E4
:1000800022C0000020C000001EC0000011241FBEBE
:10009000CFEFD0E4DEBFCDBF12E1A0E0B1E0ECEBEA
:1000A000FCE000E00BBF02C007900D92A631B10743
:1000B000D9F728E1A6E1B2E101C01D92AF34B20741
:1000C000E1F751D0F9C59CCFFC019081915084811A
:1000D0002281821B892308951F93CF93DF93EC0124
:1000E000162FF2DF288139812150310990E08217E3
:1000F000930769F08C819D81FE01E80FF91F16833B
:100100000196282339233D832C8380E001C081E0C0
:10011000DF91CF911F9108950F931F93CF93DF939A
:10012000EC018B01D1DF8823A1F0EA81FB81EC0F88
:10013000FD1F8681F8018083288139812150310992
:100140008A819B810196822393239B838A8380E00B
:1001500001C081E0DF91CF911F910F91089581B18E
:10016000836081B90895FBDF32D380E8B9D07894F9
:100170002FEF8FE19CE1215080409040E1F700C0DB
:100180000000C1E0D2E082B18C2782B9DBD4F1D388
:100190002FEF8FE398E3215080409040E1F700C0BB
:1001A000000080E4C0D0882371F382B18D2782B92A
:1001B000EACF85E48093BC00089581EC8093BC0075
:1001C000089584EA8093BC00089585ED8093BC0077
:1001D00008958091B900887F883309F0F6CFEDCF7C
:1001E0008091BB000895ECEBF0E080818823ECF770
:1001F00008958093BB0084E88093BC00F4CF1092F4
:1002000033131092321310923E1310923D1310923A
:1002100037131092361310923A131092391308952F
:10022000ECEBF0E08081806C80830895CF93DF93C6
:10023000C0913D13D0913E13C730D10591F4E4E253
:10024000F2E1AFE3B3E18BE292E121912D93E81764
:10025000F907D9F7C5DF8093381381E080931B122B
:100260000DC0BEDFCC5DDD4E888380913D13909143
:100270003E13019690933E1380933D13DF91CF91EF
:100280000895CF93DF93C0913913D0913A13A8DF2B
:10029000C15DDC4E888310923A1310923913DF91BE
:1002A000CF9108959DDF80932D130895CF93DF9311
:1002B000C0913613D091371393DFC25DDD4E888332
:1002C0008091361390913713019690933713809352
:1002D00036139093211280932012DF91CF910895CD
:1002E00080933B13803479F0803819F08032D1F458
:1002F00012C083E088B95DDF8FE38093B80081E8A6
:100300008093BA0008958FE38093B80052DF80E4B1
:100310008093BA0008958FE38093B8004ADF81E2AA
:100320008093BA000895CF93C82F4BDF5CDF909184
:10033000B900987F983019F04CDF80E016C08C2F00
:1003400058DF8091B900887F883119F042DF80E062
:100350000CC083E04EDF8091B900887F883319F4A8
:100360002CDF81E002C031DF81E0CF9108951F933F
:10037000CF93DF93C82FD62F142F23DF34DF909134
:10038000B900987F983019F024DF80E034C080E213
:1003900030DF8091B900887F883119F01ADF80E062
:1003A0002AC080E026DF8091B900887F883219F06A
:1003B00010DF80E020C08C2F1CDF8091B900887F87
:1003C000883219F006DF80E016C08D2F12DF809191
:1003D000B900887F883219F0FCDE80E00CC0812FE4
:1003E00008DF8091B900887F883219F0F2DE80E062
:1003F00002C0EBDE81E0DF91CF911F910895EF9273
:10040000FF920F931F93CF93DF93C82FE62EF72E03
:10041000D8DEE9DE9091B900987F983019F0D9DEE6
:1004200080E02CC08C2FE5DE8091B900887F883178
:1004300019F0CFDE80E022C089E1DBDE8091B900D7
:10044000887F883229F40E2D1F2DC0E0D0E008C02F
:10045000C0DE80E013C0F80181918F01CADE2196D1
:10046000EE2DFF2DDF010D900020E9F71197AE1B57
:10047000BF0BCA17DB0778F3A8DE81E0DF91CF91CD
:100480001F910F91FF90EF900895EF92FF920F93BD
:100490001F93CF93DF93C82FE62EF72E8A0191DEAC
:1004A000A2DE9091B900987F983019F092DE80E03A
:1004B00023C08C2F9EDE8091B900887F883119F08F
:1004C00088DE80E019C089E194DE8091B900887FE0
:1004D000883221F41016110624F00CC07ADE80E078
:1004E0000BC0CE2DDF2D0C0F1D1F899182DEC01792
:1004F000D107D9F76ADE81E0DF91CF911F910F918B
:10050000FF90EF900895815C9C4EFC0180810895DE
:100510008091381308951F920F920FB60F921124F5
:100520000BB60F922F933F934F935F936F937F93ED
:100530008F939F93AF93BF93CF93DF93EF93FF93EB
:1005400080913B13853009F428C148F4813009F4C7
:1005500020C108F416C1843009F024C116C18034CA
:1005600009F457C0803821F0803209F01BC191C0D6
:100570008091B900887F803629F08091B900887F0A
:10058000883621F481E080932E1341C08091B90018
:10059000887F8038F1F480912E13882341F020DE8B
:1005A000809322121092231210922E1330C0809149
:1005B0002212909123128530910539F089319105ED
:1005C00031F0019721F55DDE22C06CDE20C06EDEC9
:1005D0001EC08091B900887F803911F427DE17C0D2
:1005E0008091B900887F803A91F409DE80912212CF
:1005F000909123128130910519F0059741F404C0C0
:1006000081E08093191203C081E08093181208DE04
:10061000C9C08091B900887F803629F08091B900E7
:10062000887F883621F481E080932E1330C080913A
:10063000B900887F8038E1F480912E13882341F03F
:10064000CFDD809322121092231210922E131FC01E
:1006500080912212909123128230910519F04997CE
:10066000B1F404C0BDDD80933C1311C01FDE0FC088
:100670008091B900887F803A51F4C1DD80912212C7
:1006800090912312029719F481E080931612C8DD2D
:1006900089C08091B900887F803629F08091B900A7
:1006A000887F883621F481E080932E137AC0809170
:1006B000B900887F803809F057C080912E138823B5
:1006C00041F08EDD809322121092231210922E138D
:1006D00068C080912212909123128130910509F413
:1006E0003FC01CF4892B41F05CC084309105B1F00F
:1006F000059709F056C036C0C0913213D09133131C
:100700006FDDC55DDD4E8883809132139091331388
:100710000196909333138093321343C061DD20918F
:10072000341330913513A901480F511DCA01181611
:1007300019063CF081E090E09093351380933413D8
:1007400030C0483051052CF4509335134093341386
:1007500028C087E090E0909335138093341321C034
:1007600090DD1FC09FDD1DC08091B900887F80395A
:1007700011F45CDD16C08091B900887F803A89F45D
:100780003EDD81E080931A120DC081E08093171244
:1007900009C081E08093191205C081E0809318128E
:1007A00001C03EDDFF91EF91DF91CF91BF91AF91FD
:1007B0009F918F917F916F915F914F913F912F9179
:1007C0000F900BBE0F900FBE0F901F9018951092B8
:1007D000C50089E08093C40088E98093C10086E069
:1007E0008093C20008958091C00080720895CF93D5
:1007F000C82FF9DF8823E9F3C093C600CF9108958D
:10080000CF92DF92EF92FF920F931F93CF93DF93DC
:10081000662309F43EC0062F10E04FEF5FEFEEEFC6
:10082000FFEFC62ED12CE82EF12CC8E0D0E0EE3F31
:100830006FEFF60719F48E2D9F2D30C0EF3F8FEF2D
:10084000F80719F48C2D9D2D29C0DF01A55BBA4E48
:100850008C9190E023C0BA016827792760FF07C018
:100860005695479568E0462764E8562702C0569596
:100870004795969587952150310969F73196E0178C
:10088000F107A9F69A0120953095322723273227C0
:1008900002C020E030E0822F932F02C09E01DBCF08
:1008A000DF91CF911F910F91FF90EF90DF90CF904C
:1008B00008950F931F93CF93DF939EE790934A166B
:1008C00080934B1660934C16262F30E012161306B9
:1008D0004CF5EBE4F5E103E010E0C0E0D0E07DE7AB
:1008E00050E29081492F4D57423080F4D801A65BE9
:1008F000B94EAC0FBD1F7C930F5F1F4FD801A65B95
:10090000B94EAC0FBD1F95279C9306C0D801A65BBE
:10091000B94EAC0FBD1F9C9321963196C217D307D9
:1009200001F704C003E010E0C0E0D0E069DFF801A7
:10093000E65BF94EEC0FFD1F9083818322960C0F2E
:100940001D1FF801E65BF94E8EE78083C801019612
:10095000181619064CF4CAE4D6E1055B194E8991C4
:1009600046DFC017D107D9F7DF91CF911F910F91C3
:1009700008950F931F93CF93DF930BE415E1C0E02D
:10098000D0E0CE01C0DDF80181938F012196C73000
:10099000D105B9F78EEF80935215BADD80935315C8
:1009A00069E083E586DFDF91CF911F910F91089574
:1009B0008F929F92AF92BF92CF92DF92EF92FF926F
:1009C0000F931F93CF93DF93CDB7DEB7ADB6BEB60F
:1009D00060E070E080910001909101019DDB88232F
:1009E00031F068E071E180E40ADD81E043C0C0904D
:1009F0000000D12C96012150310981E090E0C11412
:100A0000D10411F080E090E0820F931F2DB73EB724
:100A1000281B390B0FB6F8943EBF0FBE2DBF8DB704
:100A20009EB70196882E992E1C141D04ECF4E82E16
:100A3000F92E00E010E060E070E0809100019091FC
:100A400001016ADB882331F06AE271E180E4D7DCDE
:100A500081E010C080910000F70181937F010F5F5A
:100A60001F4F0C151D053CF3A601682D792D80E460
:100A70000CDD80E00FB6F894BEBE0FBEADBEDF91B8
:100A8000CF911F910F91FF90EF90DF90CF90BF908B
:100A9000AF909F908F900895CF93DF9360E070E0C8
:100AA000809100019091010137DB882331F06DE4E2
:100AB00071E180E4A4DC81E042C0809100008330D9
:100AC00009F038C060E070E0809100019091010170
:100AD00023DB882331F06FE671E180E490DC81E074
:100AE0002EC0C091000060E070E080910001909104
:100AF000010112DB882331F067E971E180E47FDCDA
:100B000081E01DC0D091000060E070E080910001A4
:100B10009091010101DB882331F06EEB71E180E4FB
:100B20006EDC81E00CC0409100006D2F8C2F1FDC2B
:100B300080E005C062EE71E180E461DC81E0DF917C
:100B4000CF9108950DC080910000833431F08D3431
:100B500039F42EDF882321F008959EDF811109C02A
:100B600060E070E08091000190910101D5DA882366
:100B700051F3089560914713262F30E012161306A3
:100B800064F4A8E4B3E1EBE4F5E180E090E04D919A
:100B90004193019682179307D4F38091461389CE2F
:100BA0001F920F920FB60F9211240BB60F92EF9275
:100BB000FF920F931F932F933F934F935F936F93E6
:100BC0007F938F939F93AF93BF93CF93DF93EF93D5
:100BD000FF932091C6002E3709F03FC080911E126E
:100BE00090911F128430910540F42091471330E01A
:100BF0002C5F3F4F8217930759F580911C129091FB
:100C00001D12892B21F010921D1210921C12B2DFBE
:100C100006E413E1C0E0D0E00F2EF7E4EF2EF3E19D
:100C2000FF2EF02DF80161918F01809100019091CC
:100C3000010152DA882321F069E072E180E4DFDB10
:100C40002196F701808190E00296C817D90754F3E6
:100C500010921F1210921E1216C02D3739F481E027
:100C600090E090931D1280931C120DC080911E1273
:100C700090911F12FC01EA5BFC4E20830196909339
:100C80001F1280931E12FF91EF91DF91CF91BF91C0
:100C9000AF919F918F917F916F915F914F913F9114
:100CA0002F911F910F91FF90EF900F900BBE0F901F
:0C0CB0000FBE0F901F901895F894FFCF16
:100CBC000201001000000000000000000000000015
:100CCC000000000000000000000000000000000018
:100CDC000000000000000000000000000000000008
:100CEC0000000000000000000000000000000000F8
:100CFC0000000000000000000000000000000000E8
:101CBC00000000000000000052784649464F204DBD
:101CCC00455353414745204552524F523A204C45BB
:101CDC004E204D495353494E470052784649464F82
:101CEC00204D455353414745204552524F523A20BF
:101CFC0044415441204D495353494E470052784674
:101D0C0049464F20434F4D4D414E44204552524F72
:101D1C00523A204C454E204D495353494E470052A0
:101D2C00784649464F20434F4D4D414E4420455235
:101D3C00524F523A20444952454354494F4E204D3C
:101D4C00495353494E470052784649464F20434F1A
:101D5C004D4D414E44204552524F523A20524F5411
:101D6C004154494F4E204D495353494E47005278E8
:101D7C004649464F20434F4D4D414E44204552520B
:101D8C004F523A205350454544204D495353494EE8
:101D9C00470052784649464F20434F4D4D414E44E3
:101DAC00204552524F523A20494E434F52524543CE
:101DBC0054204C454E47544800555F4649464F2DDC
:061DCC0066756C6C00005E
:00000001FF
