:10000000C6C40000F2C40000F0C40000EEC400004A
:100010000C947929EAC40000E8C40000E6C400009A
:10002000E4C40000E2C40000E0C40000DEC400003C
:10003000DCC4000098C50000D8C40000D6C400008D
:10004000D4C40000D2C400000C94B517CEC4000084
:100050000C948E2FCAC40000C8C40000C6C400009F
:10006000C4C40000C2C40000C0C40000BEC400007C
:100070000C94602CBAC40000B8C40000B6C40000E0
:1000800014C50000B2C40000B0C40000036EDB362B
:100090003D9A9999993DABAAAA2A3E000000803F5B
:1000A000084AD73B3BCE016E84BCBFFDC12F3D6CDF
:1000B00074319ABD56833DDA3D00C77F11BED9E445
:1000C000BB4C3E916BAAAABE000000803F072C7A71
:1000D000A5BA6CC590DA3B9365FC8BBC53F810FD58
:1000E0003C5692834DBD879D3AB63DCBC9BF5BBEA2
:1000F00073DA0FC93F05A84CCDB2D44EB93836A932
:10010000020C50B9918688083CA6AAAA2ABE000013
:1001100000803FFB00003E000B00360001000200A3
:1001200003000000650054FFEF0000FA80000B128E
:10013000820001000200000000000000000000003A
:1001400000000000280000FFFF4581FFFFFA720059
:10015000000000000003E80000000100017FFFFF35
:10016000FE8001001B0000000000000000000000F5
:10017000000000003E03304000000002CAE3093ED8
:10018000800000200000000000000040000000602F
:1001900000000041FF000000000B2A00001655007F
:1001A000002182FD872650FD800000001F00000016
:1001B00005800000000000000100000002000000B7
:1001C000030000400000000000046F0002653200E0
:1001D000005EC040000000000000000000000000C1
:1001E000000000FB8C6F5DFD5D08D9007C733B0057
:1001F0006C12CC3200139D3200D0D6320008004081
:100200000001F4FFE68079020000000000D0D60073
:10021000002710FB0000004000000000000000006C
:1002200000000000000001000000000000010001CB
:100230000000000000FA36FFBC308E0005FBF0FF26
:10024000D95BC8FFD09ABE000010A9FFF41EB2000F
:10025000CEBBF70000000100000004000200020213
:1002600000000CFFC280000001800000CF80004031
:100270000000000000000100000000000006000077
:10028000000014000000000000000000000000005A
:10029000000000000000000000000000000000005E
:1002A000000000000000000000000000000000004E
:1002B00000000000000000033F68B6793528BCC686
:1002C0007ED16C80000000400000000000B26A0097
:1002D000000000000000000000000000003FF000EF
:1002E00000003000000000000000000000000000DE
:1002F00000000000000000000000000000000000FE
:100300000000000000254D002F706D000005AE00BC
:100310000C02D00000000000650054FFEF00000058
:10032000000000000001000044000000000C00007C
:10033000000100000000000065000000540000FF04
:10034000EF000000000000000000000000000000BE
:10035000000000400000000000000000000000005D
:10036000000000400000000000000000000000004D
:10037000000000000000010000000200000000007A
:10038000000000000000000000000000000000006D
:10039000000000000000000000000000000000005D
:1003A000000000001B000000000000000000000032
:1003B000000000000000000000000000000000003D
:1003C00000000000000000000000000000000040ED
:1003D000000000001B000000000000000000000002
:1003E000000000000000000000000000000000000D
:1003F00000000000000000000000000000000000FD
:1004000000000000000000000000000000000000EC
:10041000000000D8DCBAA2F1DEB2B8B4A88191F72E
:100420004A907F916AF3F9DBA8F9B0BAA080F2CEC6
:1004300081F3C2F1C1F2C3F3CCA2B280F1C6D8807D
:10044000BAA7DFDFDFF2A7C3CBC5B6F087A294243B
:1004500048703C95406834589B78A2F183922D55A2
:100460007DD8B1B4B8A1D09180F270F370F27C80E5
:10047000A8F101B09887D943D886C988BAA1F20EED
:10048000B89780F1A9DFDFDFAADFDFDFF2AAC5CDF1
:10049000C7A90CC92C97979797F1A989264666B0EA
:1004A000B4BA80ACDEF2CAF1B28C02A9B698008967
:1004B0000E161EB8A9B4992C547CB08AA89636564C
:1004C00076F1B9AFB4B083C0B8A89711B18F98B91D
:1004D000AFF0240844106418F1A329557DAF83B50B
:1004E00093AFF0002850F1A3869F61A6DADEDFD932
:1004F000FAA38696DB31A6D9F8DFBAA68FC2C5C7A4
:10050000B28CC1B8A2DFDFDFA3DFDFDFD8D8F1B85C
:10051000A8B286B4980D355DB8AA98B0872D353D40
:10052000B2B6BAAF8C96198F9FA70E161EB49AB8A2
:10053000AA872C547CB9A3DEDFDFA3B180F2C4CD3F
:10054000C9F1B8A9B499830D355D89B9A32D557D3D
:10055000B593A30E161EA92C547CB8B4B0F19783A2
:10056000A81184A50998A383F0DA2408441064181C
:10057000D8F1A529557DA58595021A2E3A565A40DF
:1005800048F9F3A3D9F8F098832408441064189725
:1005900082A8F111F098A2240844106418DAF3DE5E
:1005A000D883A59401D9A302F1A2C3C5C7D8F18409
:1005B00092A24DDA2AD84869D92AD86855DA32D8B1
:1005C0005071D932D8705DDA3AD85879D93AD8789A
:1005D00093A34DDA2AD84869D92AD86855DA32D88F
:1005E0005071D932D8705DDA3AD85879D93AD8787A
:1005F000A88A9AF02850789EF38818F19F1D98A831
:10060000D908D8C89F129EF315A8DA1210D8F1AFF6
:10061000C8978734B5B994A421F3D922D8F22DF321
:10062000D92AD8F235F3D932D881A4606061D96172
:10063000D86C6869D969D8747071D971D8B1A3843C
:10064000193D5DA3831A3E5E931030811011B8B03E
:10065000AF8F94F2DA3ED8B49AA88729DAF8D8870F
:100660009A35DAF8D8879A3DDAF8D8B1B9A49885DE
:10067000022E56A581000C14A397B08AF12DD9281B
:10068000D84DD948D86DD968D8B1840DDA0ED8A321
:100690002983DA2C0ED8A3844983DA2C4C0ED8B8DF
:1006A000B0A88A9AF520AADADFD8A840AAD0DADE64
:1006B000D8A860AADAD0DFD8F19786A8319B06992E
:1006C00007AB9728889BF00C201440B8B0B4A88CD6
:1006D0009CF0042851791D301438B282ABD0982C8C
:1006E000505078789BF11AB0F08A9CA82951798BE8
:1006F0002951798A2470598B2058718A4469388B22
:100700003940688A6448318B304960A58820097176
:10071000584468113964493019F1AC002C547CF00C
:100720008CA804285078F1889726A85998AC8C0298
:10073000264666F0899CA829517924705944693865
:10074000644831A98809205970AB11384069A8194B
:100750003148608CA83C415C207C00F18798198668
:10076000A86E767EA999882D557D9EB9A38A228A86
:100770006E8A568A5E9FB183062646660E2E4E6EA0
:100780009DB8AD002C547CF2B18CB499B9A32D5511
:100790007D8191AC38AD3AB58391AC2DD928D84D37
:1007A000D948D86DD968D88C9DAE29D904AED85116
:1007B000D904AED879D904D881F39DAD008DAE1996
:1007C00081ADD901D8F2AEDA26D88E912983A7D986
:1007D000ADADADADF32AD8D8F1B0AC89913E5E761F
:1007E000F3AC2E2EF1B18C5A9CAC2C2828289CAC52
:1007F0003018A8988128343C9724A728343C9C249E
:10080000F2B089AC912C4C6C8A9B2DD9D8D851D997
:10081000D8D879D9D8D8F19E88A331DAD8D8912DF3
:10082000D928D84DD948D86DD968D8B18393353DEA
:100830008025DAD8D88569DAD8D8B49381A328344A
:100840003CF3AB8BF8A391B609B4D9ABDEFAB08711
:100850009CB9A3DDF1A3A3A3A395F1A3A3A39DF149
:10086000A3A3A3A3F2A3B49080F2A3A3A3A3A3A3DF
:10087000A3A3A3A3B2A3A3A3A3A3A3B087B599F1F2
:10088000A3A3A398F1A3A3A3A397A3A3A3A3F39BB9
:10089000A3A3DCB9A7F1262626D8D8FF037B034CF7
:1008A000CD6C03AB0336567600680402CB47A20238
:1008B000180400058BC1010C0400000000037F0632
:1008C0000CC92C979797038903264666006C022073
:1008D0000002400400000000024404000000000286
:1008E000480400000000024C040000000002500414
:1008F0000000000002540400000000025804000040
:100900000000025C040000000002BC0400000000C3
:1009100001EC0400004000037F060CC92C97979758
:100920000402030D355D040904872D353D00A30144
:100930000000000001078601FE074105F120283074
:1009400038077E01300746019A074704F1283038FE
:10095000076C04F1283038021602000101B202FFD0
:10096000FF0190040923A135016A02060001600815
:1009700000000000000000000060044000000001D2
:100980006202000000600400400000005F2A1124A1
:100990001FBECFEFD0E4DEBFCDBF15E1A0E0B1E0D8
:1009A000E0E1FDE600E00BBF02C007900D92A83821
:1009B000B107D9F720E2A8E8B5E101C01D92AF3038
:1009C000B207E1F719E0CEE8D9E000E006C02297CF
:1009D0000109FE010BBF0E943134CC38D10780E001
:1009E0000807A9F7E8D00C9486360ACB1092850048
:1009F000109284000895BC0180E090E00E949F3135
:100A000020E030E04AE751E40E9461330E947331F4
:100A10007093890060938800E9CF1092950010923E
:100A200094000895BC0180E090E00E949F3120E096
:100A300030E04AE751E40E9461330E9473317093C1
:100A4000990060939800E9CFE1E8F0E0808185604B
:100A50008083E1E9F0E080818560808388EE93E027
:100A6000CADF88EE93E0DEDFEFE6F0E080818260AF
:100A70008083E1E7F0E080818260808310928500CE
:100A80001092840010929500109294000895109294
:100A90008815C8DF80918815811106C00E94ED2954
:100AA000809188158823D1F308951F920F920FB675
:100AB0000F9211248F9381E08093881510929500F6
:100AC000109294008F910F900FBE0F901F90189569
:100AD000FC019081915084812281821B8923089599
:100AE0001F93CF93DF93EC01162FF2DF288139811A
:100AF0002150310990E08217930769F08C819D8124
:100B0000FE01E80FF91F16830196282339233D8340
:100B10002C8380E001C081E0DF91CF911F91089587
:100B20000F931F93CF93DF93EC018B01D1DF8823C9
:100B3000A1F0EA81FB81EC0FFD1F8681F801808323
:100B400028813981215031098A819B810196822334
:100B500093239B838A8380E001C081E0DF91CF9162
:100B60001F910F9108951F920F920FB60F921124AB
:100B70008F9380910601811105C081E08093060169
:100B80008093891510928500109284008F910F90A8
:100B90000FBE0F901F90189580EA9FE078DF80EAE3
:100BA0009FE075DF80EA9FE072DF80EA9FE06FDF01
:100BB00080EA9FE06CCF87B1806C87B978940E94FF
:100BC000CC2C0E94B5290E94302C3EDF9FD08EEFA6
:100BD0000E94502C8AE090E05ADF0E941F14DCDF54
:100BE000469A81E595E10E94A52D8EEF0E94502C3A
:100BF000FDDE88EB9BE0FFDE0E94ED290E94A62C23
:100C0000882341F00E94A32CC82F0E94BA2C6C2F7D
:100C10000E9471150E94B02C81110E94FA160E9448
:100C2000932CD82F0E94992CC82F0E949E2C182FED
:100C3000C11129C0D233E1F412C082E390E027DF72
:100C4000F8940E94E42D789480918915813021F4E4
:100C5000109289150E941F140E94522FCDCF40E0A0
:100C600050E062E370E090E040D71111EDCFE5CFA6
:100C700010920601BBDE4C2F50E06D2F70E0812FEB
:100C800090E033D7E1CF10920601B0DE4C2F50E058
:100C90006D2F70E0812F90E028D7D6CFCF93DF93D0
:100CA000EC0182E799EFAFE0BEE388AB99ABAAAB6A
:100CB000BBAB40E050E060EF7FE34CA75DA76EA7C1
:100CC0007FA718A619A61AA61BA68CAF9DAFAEAF1C
:100CD000BFAF48AF59AF6AAF7BAF1CAA1DAA1EAA0F
:100CE0001FAA0E94471D6C8B7D8B8E8B9F8B0E9451
:100CF000541D688F798F8A8F9B8F0E94611D688B2E
:100D0000798B8A8B9B8BDF91CF910895CF92DF9265
:100D1000EF92FF920F931F93CF93DF9380E090E8C1
:100D2000ABEBB4E48093C4159093C515A093C6159E
:100D3000B093C7158CE291E09093291980932819FC
:100D400080E090E0A0E8B0E4809324199093251906
:100D5000A0932619B093271980E090E0ACE5B2E4A7
:100D600080938A1590938B15A0938C15B0938D1555
:100D70000E942D1D6B017C010E942D1D9B01AC0169
:100D8000C701B6010E946133062F172FD82FC92F34
:100D90000E943A1D6B017C010E943A1D9B01AC012F
:100DA000C701B6010E9461339B01AC01602F712F16
:100DB0008D2F9C2F0E9422300E94CE3360938E157F
:100DC00070938F15809390159093911580E090E02B
:100DD000A0EFB2EC8093B2159093B315A093B41525
:100DE000B093B51584E898E159DF88EF97E156DFB5
:100DF0008CE697E153DF80EE96E150DF84E596E1E3
:100E00004DDF88EC95E14ADF40E050E060E87FE3A9
:100E1000409388185093891860938A1870938B18A0
:100E200080E090E0A0E8BFEB8093FC179093FD1763
:100E3000A093FE17B093FF1740937017509371174C
:100E400060937217709373178093E4169093E5166E
:100E5000A093E616B093E716409358165093591690
:100E600060935A1670935B168093CC159093CD15B2
:100E7000A093CE15B093CF15409384185093851846
:100E800060938618709387184093F8175093F9175A
:100E90006093FA177093FB1740936C1750936D177C
:100EA00060936E1770936F178093E0169093E1161E
:100EB000A093E216B093E3168093541690935516C0
:100EC000A0935616B09357168093C8159093C915E2
:100ED000A093CA15B093CB151092E5181092E418A0
:100EE00010925918109258181092CD171092CC17D2
:100EF00010924117109240171092B5161092B41626
:100F000010922916109228168AE090E09093E1182A
:100F10008093E0188CE090E09093DF188093DE18C7
:100F200088E090E09093DD188093DC1880E190E0F9
:100F3000909355188093541882E190E09093531841
:100F4000809352188EE090E090935118809350183F
:100F500084E090E09093C9178093C81786E090E0F2
:100F60009093C7178093C61782E090E09093C517BF
:100F70008093C41783E090E090933D1780933C17D3
:100F800085E090E090933B1780933A1781E090E0E2
:100F900090933917809338178FE090E09093B116B3
:100FA0008093B01681E190E09093AF168093AE16D7
:100FB0008DE090E09093AD168093AC1689E090E0C0
:100FC00090932516809324168BE090E0909323163F
:100FD0008093221687E090E090932116809320164C
:100FE000DF91CF911F910F91FF90EF90DF90CF9005
:100FF0000895FC0184899589A689B789848F958F86
:10100000A68FB78F808D918DA28DB38D80A391A374
:10101000A2A3B3A344AD55AD66AD77AD40AB51AB24
:1010200062AB73AB40AD51AD62AD73AD44A755A794
:1010300066A777A744A955A966A977A940A751A78C
:1010400062A773A708956F927F928F929F92AF923B
:10105000BF920F931F93CF93DF93EC0120918A15DA
:1010600030918B1540918C1550918D156C817D813F
:101070008E819F810E94613320919A1530919B153A
:1010800040919C1550919D150E940631662E772E39
:10109000082F192F8090921590909315A090941579
:1010A000B09095152091A2153091A3154091A415EB
:1010B0005091A515688579858A859B850E94223087
:1010C0009B01AC01662D772D802F912F0E946133FB
:1010D000A50194010E94613360931419709315194E
:1010E000809316199093171920919E1530919F1592
:1010F0004091A0155091A1156C857D858E859F85A9
:101100000E9422309B01AC01662D772D802F912FFC
:101110000E9461339B01AC01C501B4010E9461339F
:1011200060931019709311198093121990931319E9
:10113000DF91CF911F910F91BF90AF909F908F90B3
:101140007F906F900895EF92FF920F931F93CF932C
:10115000DF93EC01E888F9880A891B89288D398D8D
:101160004A8D5B8D6C897D898E899F890E946E1D59
:10117000288D398D4A8D5B8D6C897D898E899F89FB
:101180000E94CF1D6CAB7DAB8EAB9FAB0E94F21D5E
:1011900068AF79AF8AAF9BAF688979898A899B8963
:1011A0000E94271E6CAF7DAF8EAF9FAFDF91CF91B6
:1011B0001F910F91FF90EF9008958091B418909136
:1011C000B518A091B618B091B7188093D81890931D
:1011D000D918A093DA18B093DB188091B0189091C9
:1011E000B118A091B218B091B3188093D41890930D
:1011F000D518A093D618B093D7188091AC189091B9
:10120000AD18A091AE18B091AF188093D0189093FC
:10121000D118A093D218B093D31880912818909128
:101220002918A0912A18B0912B1880934C189093EC
:101230004D18A0934E18B0934F1880912418909198
:101240002518A0912618B0912718809348189093DC
:101250004918A0934A18B0934B1880912018909188
:101260002118A0912218B0912318809344189093CC
:101270004518A0934618B093471880919C179091F9
:101280009D17A0919E17B0919F178093C0179093C0
:10129000C117A093C217B093C3178091981790916C
:1012A0009917A0919A17B0919B178093BC179093B0
:1012B000BD17A093BE17B093BF178091941790915C
:1012C0009517A0919617B09197178093B8179093A0
:1012D000B917A093BA17B093BB17809110179091CC
:1012E0001117A0911217B091131780933417909390
:1012F0003517A0933617B093371780910C1790913C
:101300000D17A0910E17B0910F178093301790937F
:101310003117A0933217B09333178091081790912B
:101320000917A0910A17B0910B1780932C1790936F
:101330002D17A0932E17B0932F178091841690919C
:101340008516A0918616B09187168093A816909363
:10135000A916A093AA16B093AB168091801690910F
:101360008116A0918216B09183168093A416909353
:10137000A516A093A616B093A71680917C169091FF
:101380007D16A0917E16B0917F168093A016909343
:10139000A116A093A216B093A3168091F815909170
:1013A000F915A091FA15B091FB1580931C16909336
:1013B0001D16A0931E16B0931F168091F4159091E0
:1013C000F515A091F615B091F71580931816909326
:1013D0001916A0931A16B0931B168091F0159091D0
:1013E000F115A091F215B091F31580931416909316
:1013F0001516A0931616B093171608954F925F9284
:101400006F927F928F929F92AF92BF92CF92DF9214
:10141000EF92FF920F931F93CF93DF93EC016A013A
:101420007B0120E030E040E85FE36C817D818E81CC
:101430009F810E94FF3081112EC020E030E040E803
:101440005FE360912419709125198091261990917C
:1014500027190E942230A70196010E94FF3088239D
:10146000D1F08091C2159091C315019709F03BC24C
:1014700020E030E044EB52E4688979898A899B89CD
:101480000E9422306093B6157093B7158093B815FB
:101490009093B9150CC088899989AA89BB898093D2
:1014A000B6159093B715A093B815B093B91520E071
:1014B00030E0A901C701B6010E94FF30882309F47A
:1014C00089C08090241990902519A0902619B09079
:1014D000271920E030E040E85FE3C501B4010E9435
:1014E0002230A70196010E94FF30882309F486C0AC
:1014F000FE01E05CFF4FDE01A45BBF4F8D919D912B
:101500000D90BC91A02D80839183A283B383FE01B3
:10151000EC5BFF4FDE01A05BBF4F8D919D910D9065
:10152000BC91A02D80839183A283B383FE01E85BED
:10153000FF4FDE01AC5ABF4F8D919D910D90BC9134
:10154000A02D80839183A283B3834C8C5D8C6E8CA1
:101550007F8CA30192016C897D898E899F890E946D
:101560002130A70196010E946133A50194010E94D8
:1015700006319B01AC01C301B2010E94223060938D
:10158000BE157093BF158093C0159093C11548A0E8
:1015900059A06AA07BA0A3019201688D798D8A8DE4
:1015A0009B8D0E942130A70196010E946133A50105
:1015B00094010E9406319B01AC01C301B2010E945B
:1015C00022306093BA157093BB158093BC1590932D
:1015D000BD154AC020E030E040E85FE36091241987
:1015E0007091251980912619909127190E94223017
:1015F000A70196010E94FF3081111EC08C899D8930
:10160000AE89BF898093BE159093BF15A093C01576
:10161000B093C115888D998DAA8DBB8D8093BA1515
:101620009093BB15A093BC15B093BD15FE01E25A73
:10163000FF4F1182108218C08C8D9D8DAE8DBF8D95
:101640008093BE159093BF15A093C015B093C1159C
:1016500088A199A1AAA1BBA18093BA159093BB15AB
:10166000A093BC15B093BD1520E030E040E85FE3E7
:101670006C817D818E819F810E94FF30811130C0FD
:1016800020E030E040E85FE3609124197091251973
:1016900080912619909127190E942230A701960166
:1016A0000E94FF308823E1F08091C2159091C3150C
:1016B0000197B1F420E030E048E452E46091BE15B7
:1016C0007091BF158091C0159091C1150E94223074
:1016D0006093BE157093BF158093C0159093C1158C
:1016E000E090B615F090B7150091B8151091B915A6
:1016F0002091BA153091BB154091BC155091BD1584
:101700006091BE157091BF158091C0159091C11563
:101710000E946E1D2091BA153091BB154091BC15E9
:101720005091BD156091BE157091BF158091C01587
:101730009091C1150E94CF1D8E01045B1F4FF801CF
:1017400060837183828393830E94F21D7E01F0E5A2
:10175000EF0EF11CF70160837183828393836091A4
:10176000B6157091B7158091B8159091B9150E9472
:10177000271EFE01EC5AFF4F60837183828393839F
:1017800088809980AA80BB802EED34E246E05EE33B
:101790000E9422309B01AC01C501B4010E9461335B
:1017A000462E572E682E792EFE01E058FF4F862FC9
:1017B000952DA62DB72D80839183A283B3836E01CF
:1017C000F4E8CF0ED11CF701208131814281538191
:1017D0006BE37FED8FE09FE30E9421309B01AC0122
:1017E000C501B4010E946133F60160837183828375
:1017F00093839E0128573F4FF80180819181A281F8
:10180000B381F90180839183A283B383FE01E25AFD
:10181000FF4F808191810497B1F5209107013091AC
:101820000801FE01E45AFF4F442D552D662D772DFA
:1018300080810E942D2B2091070130910801F60133
:101840004081518162817381FE01E65AFF4F8081A0
:101850000E942D2B2091070130910801FE01E857CD
:10186000FF4F4081518162817381FE01E85AFF4F31
:1018700080810E942D2BC25ADF4F1982188284EF7B
:1018800091E005D943C02091070130910801FE0184
:10189000E45AFF4F442D552D662D772D80810E94EF
:1018A000A82B2091070130910801FE01EC57FF4F52
:1018B0004081518162817381FE01E65AFF4F808130
:1018C0000E94A82B2091070130910801FE01E857E2
:1018D000FF4F4081518162817381C85ADF4F8881F7
:1018E0000E94A82B13C020E030E040EA51E4688950
:1018F00079898A899B890E9422306093B6157093FA
:10190000B7158093B8159093B915D1CDDF91CF91CC
:101910001F910F91FF90EF90DF90CF90BF90AF900D
:101920009F908F907F906F905F904F9008956093FD
:1019300094187093951880939618909397186093C5
:1019400008187093091880930A1890930B186093E5
:101950007C1770937D1780937E1790937F17609309
:10196000F0167093F1168093F2169093F31660932D
:10197000641670936516809366169093671660934D
:10198000D8157093D9158093DA159093DB150C94C4
:101990000F1DCF92DF92EF92FF92CF93DF930DDC7A
:1019A0000E94ED29609124197091251980912619C2
:1019B000909127190E946E316F5F7F4F0AF48EC09D
:1019C000C0E0D0E0BE01882777FD8095982F0E9467
:1019D000A1316B017C01AB01BC0184E898E10EDD13
:1019E000B701A60188EF97E109DDB701A6018CE6F2
:1019F00097E104DDB701A60180EE96E1FFDCB701B7
:101A0000A60184E596E1FADCB701A60188EC95E130
:101A1000F5DC0E94222C209709F459C020E030E028
:101A200040E85FE36091241970912519809126198F
:101A3000909127190E9422309B01AC01C701B60189
:101A40000E94FF30882309F43BC01EC08CE291E065
:101A50001ED81DC020E030E040E85FE3609124190B
:101A60007091251980912619909127190E94223092
:101A70009B01AC01C701B6010E94FF30811104C077
:101A800082E390E004D803C089E190E000D80E948E
:101A9000842F882319F00E94BF2C49DF2196609182
:101AA00024197091251980912619909127190E9467
:101AB0006E316F5F7F4F6C177D070CF083CF0EC0C8
:101AC0008091C2159091C315892B21F2BFCF8091CF
:101AD000C2159091C315892B99F2B8CFDF91CF91A0
:101AE000FF90EF90DF90CF9008952F923F924F920A
:101AF0005F926F927F928F929F92AF92BF92CF929E
:101B0000DF92EF92FF920F931F93CF93DF93CDB7A6
:101B1000DEB7E0970FB6F894DEBF0FBECDBF062F3D
:101B2000172FA42EB52E8A35910510F080E090E095
:101B3000BC01882777FD8095982F0E94A131609382
:101B4000AE157093AF158093B0159093B115602FBB
:101B5000712F6536710514F064E670E0772314F494
:101B600060E070E0882777FD8095982F0E94A13172
:101B700020E030E048E452E40E94063120E030E00A
:101B800040E85FE30E942130C62ED72EE82EF92EC2
:101B9000982F0C2D1D2D292F3F2D0093AA15109342
:101BA000AB152093AC153093AD156A2D7B2D6536A2
:101BB000710514F064E670E0772314F460E070E0DF
:101BC000882777FD8095982F0E94A1316093A615F4
:101BD0007093A7158093A8159093A91520E030E085
:101BE000A9010E94FF3081110CC020E030E0A90162
:101BF0006C2D7D2D8E2D9F2D0E94FF30882309F4A2
:101C000005C684E898E1F5D988EF97E1F2D98CE62A
:101C100097E1EFD980EE96E1ECD984E596E1E9D938
:101C200088EC95E1E6D9E8E8F8E180819181A2812C
:101C3000B381B05880839183A283B383ECEFF7E143
:101C400080819181A281B381B05880839183A283E6
:101C5000B383E0E7F7E180819181A281B381B0583D
:101C600080839183A283B383E4EEF6E18081918146
:101C7000A281B381B05880839183A283B383E8E5C6
:101C8000F6E180819181A281B381B05880839183F4
:101C9000A283B383ECECF5E180819181A281B381D1
:101CA000B05880839183A283B3832BED3FE049E456
:101CB00050E46091AE157091AF158091B015909180
:101CC000B1150E94613320E030E044E352E40E9409
:101CD0000631062F172FA82EB92E0E94C433C090AC
:101CE000A615D090A715E090A815F090A9159058CA
:101CF000A70196010E94613320E030E048EC52E4F5
:101D00000E9406316093A2157093A3158093A415C9
:101D10009093A515602F712F8A2D9B2D0E94033162
:101D20009B01AC01C701B6010E94613320E030E0A5
:101D300048EC52E40E94063160939E1570939F1503
:101D40008093A0159093A11580908A1590908B1583
:101D5000A0908C15B0908D15C0908E15D0908F15D9
:101D6000E0909015F09091152091AA153091AB1547
:101D70004091AC155091AD15C501B4010E9461337D
:101D8000A70196010E940631062F172F682E792E83
:101D90000E9403319B01AC0160E070E080E89FE3AA
:101DA0000E9421309B01AC01C701B6010E94613342
:101DB000A50194010E9406316093BE157093BF1572
:101DC0008093C0159093C115602F712F862D972D8C
:101DD0000E94C4339B01AC01C701B6010E9461336C
:101DE000A50194010E9406316093BA157093BB154A
:101DF0008093BC159093BD150E942D1D9058209185
:101E00008E1530918F1540919015509191150E942B
:101E1000063160931C1970931D1980931E199093BD
:101E20001F190E943A1D905820918E1530918F15E0
:101E300040919015509191150E940631062F172F51
:101E40008CA39BA3382F292F862F912FA32FB22F3E
:101E50008093181990931919A0931A19B0931B190C
:101E60008091BE159091BF15A091C015B091C1157C
:101E70008E839F83A887B987C0901C19D0901D19A5
:101E8000E0901E19F0901F19A7019601BC01CD0129
:101E90000E946133A62EB72E682E792E8091BA1536
:101EA0009091BB15A091BC15B091BD158A879B87F9
:101EB000AC87BD879C01AD01FCA1EBA1602F712F08
:101EC0008F2F9E2F0E946133362E272E8A8B9B8B5D
:101ED000762F982F8B89272F322D492F582F6A2D37
:101EE0007B2D862D972D0E94213069837D838E87DF
:101EF0009E8B472F382F292F862F942FA32FB22F59
:101F000080938C1890938D18A0938E18B0938F188F
:101F10002E813F8148855985FCA1EBA1602F712F4F
:101F20008F2F9E2F0E9461336F8B788F898F9A8FAE
:101F30002A853B854C855D85C701B6010E946133CA
:101F40006C8B7D8B882E992E762F6D89272F362FBF
:101F5000482D592DBF89A88D598C4A8C6B2F7A2F0B
:101F6000852D942D0E9422306B8F7C8F8D8F9E8FBC
:101F7000472F382F292F862F942FA32FB22F8093EE
:101F8000901890939118A0939218B09393188E8103
:101F90009F81A885B9858093001890930118A0931C
:101FA0000218B09303188A859B85AC85BD85809304
:101FB000041890930518A0930618B09307189A89EF
:101FC0008B89232D322D492F582F6A2D7B2D862D5D
:101FD000972D0E9422306F8F78A389A39AA3472F51
:101FE000382F292F862F942FA32FB22F8093741769
:101FF00090937517A0937617B09377174E805F80F4
:102000006884798477FA709477F87094A3019201C8
:10201000FCA1EBA1602F712F8F2F9E2F0E946133A7
:10202000A62EB72E082F192F762F272F3B2D402FA6
:10203000512FBC89AD896B2F7A2F882D992D0E9445
:1020400022306BA37CA38DA39EA3472F382F292F6B
:10205000862F942FA32FB22F809378179093791700
:10206000A0937A17B0937B17A3019201C701B60121
:102070000E946133E62EF72E8FA7D92E762F982F48
:10208000272F3F2D492F5D2DCA88FB89632D722D87
:102090008C2D9F2F0E9422306FA378A789A79AA723
:1020A000472F382F292F862F942FA32FB22F8093BD
:1020B000E8169093E916A093EA16B093EB167C8984
:1020C0006D89272F362F482D592D6A2D7B2D802F76
:1020D000912F0E9421306BA77CA78DA79EA7472F29
:1020E000382F292F862F942FA32FB22F8093EC16F1
:1020F0009093ED16A093EE16B093EF1640925C16F7
:1021000050925D1660925E1670925F168A859B856E
:10211000AC85BD85B0588093601690936116A093EE
:102120006216B09363168B89232D322D4C2D582FB8
:10213000FFA56E2D7F2D8F2F9D2D0E9421306A8B44
:102140007B8B8FA798AB472F382F292F862F942F63
:10215000A32FB22F8093D0159093D115A093D215B1
:10216000B093D3157C896D89272F362F482D592D93
:10217000BF89A88DE98D1A8D6B2F7A2F8E2F912F05
:102180000E9421306C8B7D8B8F8B988F472F382F3F
:10219000292F862F942FA32FB22F8093D41590939D
:1021A000D515A093D615B093D7158090A215909011
:1021B000A315A090A415B090A515A5019401B9810F
:1021C000AD81EE851E896B2F7A2F8E2F912F0E9465
:1021D000223069837D838E879E8BC0909E15D09020
:1021E0009F15E090A015F090A115A7019601BB8D59
:1021F000AC8DED8D1E8D6B2F7A2F8E2F912F0E941F
:102200002230698F7A8F8B8F9C8FA50194016E810C
:102210007F81888599850E942230662E772E182F1F
:10222000092FA70196016A857B858C859D850E9473
:102230002230362E272E8D8F9E8F262D372D412F23
:10224000502F662D772D812F902F0E9461332B0107
:102250003C019D8D8E8D232D322D492F582F632DBE
:10226000722D892F952F0E9461339B01AC01C30110
:10227000B2010E9422302B013C0179816D819E8543
:102280008E89272F362F492F582F672F732F892F8D
:10229000952F0E94613369837A838B839C83798D28
:1022A0006A8D9B8D8C8D272F362F492F582F672FA6
:1022B000732F892F952F0E9461339B01AC01698197
:1022C0007A818B819C810E942230A30192010E941D
:1022D000DC312B013C01A5019401BF8DA8A1E9A12E
:1022E0001AA16B2F7A2F8E2F912F0E9422306E878A
:1022F0007E8B182F092FA7019601BBA1ACA13DA091
:102300002EA06B2F7A2F832D922D0E942230362EF5
:10231000272E89839D837E856E89272F362F412F17
:10232000502F672F732F812F902F0E9461336E875C
:102330007F87888B998B99818D81232D322D492F11
:10234000582F632D722D892F952F0E9461339B0189
:10235000AC016E857F85888999890E9422309B0116
:10236000AC01C301B2010E94DC312B013C01A5018B
:102370009401BFA1A8A5E9A51AA56B2F7A2F8E2FCE
:10238000912F0E9422306E877E8B182F092FA70174
:102390009601BBA5ACA53DA42EA46B2F7A2F832D4F
:1023A000922D0E942230362E272E89839D837E8592
:1023B0006E89272F362F412F502F672F732F812F94
:1023C000902F0E9461336E877F87888B998B9981CC
:1023D0008D81232D322D492F582F632D722D892F5A
:1023E000952F0E9461339B01AC016E857F858889A2
:1023F00099890E9422309B01AC01C301B2010E9465
:10240000DC312B013C012E813F8148855985C50176
:10241000B4010E9421306D837983182F092F2A85FA
:102420003B854C855D85C701B6010E942130362E63
:10243000272E8E839A877D816981272F362F412F02
:10244000502F672F732F812F902F0E946133698344
:102450007A838B839C839E818A85232D322D492FFD
:10246000582F632D722D892F952F0E9461339B0168
:10247000AC0169817A818B819C810E9422309B0111
:10248000AC01C301B2010E94DC312B013C01A5016A
:102490009401BA89AB89EFA518A96B2F7A2F8E2FDB
:1024A000912F0E942230062F172FA82EB92EA70198
:1024B0009601BC89AD89FF88E88C6B2F7A2F8F2D10
:1024C0009E2D0E942230262F372F482F592F0E94F1
:1024D00061336B017C01202F312F4A2D5B2D602F42
:1024E000712F8A2D9B2D0E9461339B01AC01C70186
:1024F000B6010E942230262F372F462F572F682FE4
:10250000792F409396155093971560939815709373
:102510009915482F592FC301B2010E94DC310E9446
:10252000CE3360939A1570939B1580939C1590936E
:102530009D15C090AA15D090AB15E090AC15F09009
:10254000AD15E894F7F820E030E048EC52E46091F3
:10255000A6157091A7158091A8159091A9150E94B4
:102560000631A70196010E94DC31609392157093A9
:102570009315809394159093951584E898E10E94A3
:10258000230820911019309111194091121950917E
:102590001319609114197091151980911619909161
:1025A00017190E94881E6093981870939918809349
:1025B0009A1890939B1820911019309111194091FD
:1025C0001219509113196091141970911519809175
:1025D0001619909117190E94D11E60939C18709340
:1025E0009D1880939E1890939F1884E898E10E940C
:1025F000A30888EF97E10E94230860911419709155
:10260000151980911619909117190E941A1F60933D
:102610000C1870930D1880930E1890930F186091FA
:1026200010197091111980911219909113190E942B
:10263000321F6093101870931118809312189093A2
:10264000131888EF97E10E94A3088CE697E10E9497
:1026500023082091101930911119409112195091AD
:102660001319609114197091151980911619909190
:1026700017190E94441F60938017709381178093ED
:10268000821790938317209110193091111940915E
:1026900012195091131960911419709115198091A4
:1026A0001619909117190E948D1F609384177093CB
:1026B000851780938617909387178CE697E10E9481
:1026C000A30880EE96E10E94230820911019309112
:1026D00011194091121950911319609114197091A8
:1026E000151980911619909117190E94D61F6093A1
:1026F000F4167093F5168093F6169093F7162091C2
:1027000010193091111940911219509113196091BB
:1027100014197091151980911619909117190E942A
:102720001F206093F8167093F9168093FA16909311
:10273000FB1680EE96E10E94A30884E596E10E94D4
:1027400023086091141970911519809116199091B0
:1027500017190E9468206093681670936916809319
:102760006A1690936B1660911019709111198091EF
:102770001219909113190E94782060936C1670932F
:102780006D1680936E1690936F1684E596E10E9405
:10279000A30888EC95E10E9423082091101930913C
:1027A00011194091121950911319609114197091D7
:1027B000151980911619909117190E948220609323
:1027C000DC157093DD158093DE159093DF15209155
:1027D00010193091111940911219509113196091EB
:1027E00014197091151980911619909117190E945A
:1027F000CB206093E0157093E1158093E2159093E0
:10280000E31588EC95E10E94A308C3D8E0960FB6C3
:10281000F894DEBF0FBECDBFDF91CF911F910F9116
:10282000FF90EF90DF90CF90BF90AF909F908F90F0
:102830007F906F905F904F903F902F9008952F92D0
:102840003F924F925F926F927F928F929F92AF9240
:10285000BF92CF92DF92EF92FF920F931F93CF938D
:10286000DF930E94842F882319F00E94BF2C5FD829
:102870000F2EF8E8CF2EF8E1DF2EF02D0F2E812C51
:10288000912CF0E8AF2EFFEBBF2EF02DF6018082E9
:102890009182A282B3820F2EFCEFEF2EF7E1FF2E82
:1028A000F02D0F2E412C512CF0E86F2EFFE37F2EE0
:1028B000F02DF701408251826282738200E717E1B6
:1028C000F80180829182A282B382C4EED6E148826E
:1028D00059826A827B820F2EF8E52F2EF6E13F2E79
:1028E000F02DF10180829182A282B382ECECF5E1BD
:1028F000408251826282738284E898E10E94F907E3
:1029000088EF97E10E94F9078CE697E10E94F907AA
:1029100080EE96E10E94F90784E596E10E94F907AE
:1029200088EC95E10E94F9070E94471D60930C18FE
:1029300070930D1880930E1890930F180E94541DD9
:1029400060931018709311188093121890931318B5
:1029500088EF97E10E94A3080E94471D6093F41638
:102960007093F5168093F6169093F7160E94541DF7
:102970006093F8167093F9168093FA169093FB16ED
:1029800080EE96E10E94A3080E94471D6093DC152B
:102990007093DD158093DE159093DF150E94541D12
:1029A0006093E0157093E1158093E2159093E31521
:1029B00088EC95E10E94A3080E94C90CF6014082B0
:1029C000518262827382F70180829182A282B382F5
:1029D000F801408251826282738288829982AA823F
:1029E000BB82F1014082518262827382ECECF5E19C
:1029F00080829182A282B38284E898E10E94F907E2
:102A000088EF97E10E94F9078CE697E10E94F907A9
:102A100080EE96E10E94F90784E596E10E94F907AD
:102A200088EC95E10E94F9070E94471D6093981871
:102A30007093991880939A1890939B180E94541D34
:102A400060939C1870939D1880939E1890939F1884
:102A500084E898E10E94A3080E94471D60938017B4
:102A60007093811780938217909383170E94541D4F
:102A700060938417709385178093861790938717B8
:102A80008CE697E10E94A3080E94471D6093681698
:102A90007093691680936A1690936B160E94541D6A
:102AA00060936C1670936D1680936E1690936F16EC
:102AB00084E596E10E94A3080E94C90CDF91CF91A2
:102AC0001F910F91FF90EF90DF90CF90BF90AF904C
:102AD0009F908F907F906F905F904F903F902F903E
:102AE00008952F923F924F925F926F927F928F92B2
:102AF0009F92AF92BF92CF92DF92EF92FF920F938D
:102B00001F93CF93DF93CDB7DEB72B970FB6F89413
:102B1000DEBF0FBECDBF662E8A35910529F01E821D
:102B20001F821886198608C020E030E046E952E48A
:102B30002E833F8348875987BC0180E090E00E9444
:102B40009F312BED3FE049E450E40E94613320E0E7
:102B500030E044E353E40E940631462F572F682F9C
:102B6000792F49835A836B837C838AE090E00E94AB
:102B700047050E949429462E372E282E9D830E94B9
:102B8000F6048AE090E00E9447050E949429062FEF
:102B9000172F582E792E8D81242D332D422D582F0D
:102BA000602F712F852D972D0E942130C62ED72E94
:102BB000E82EF92E46015701E894B7F82BED3FE0D7
:102BC00049E450E4C501B4010E94FF30181694F5A1
:102BD00020E030E0A901C701B6010E94FF30882340
:102BE0009CF42BED3FE049E450E4C701B6010E949C
:102BF00002322BED3FE049E450E40E942230862E61
:102C0000972EA82EB92E16C02BED3FE049E450E4D4
:102C1000C701B6010E940232262F372F482F592FA5
:102C20006BED7FE089E490E40E942130862E972EA0
:102C3000A82EB92EA501940169817A818B819C818E
:102C40000E942130C62ED72EE82EF92EC501B401E0
:102C50009F772BED3FE049EC5FE30E9456338823DA
:102C600004F120E030E0A901C701B6010E94FF3065
:102C700088237CF4D701C601B05889839A83AB833B
:102C8000BC8361946C017D01402E312E252C7D8208
:102C900008C0402E312E252C7D82C982DA82EB823B
:102CA000FC82A62DBB27A7FDB095BB87AA87E8E2CB
:102CB000EA9FB001EB9F700D1124882777FD809566
:102CC000982F0E94A131A70196010E94613320E054
:102CD00030E040E450E40E9461332BED3FE049E4F2
:102CE00050E40E94063120E030E048E452E40E94C3
:102CF0002230862E972EA82EB92E562E772E082FEC
:102D0000192F20E030E04CE052E40E9456331816B0
:102D1000BCF520E030E042E852E4682D792D8A2DA0
:102D20009B2D0E94FF3088235CF54FE02A853B8570
:102D3000429FB001439F700D1124882777FD809535
:102D4000982F0E94A131A70196010E9461334B0187
:102D50005C01C701B6019F779B01AC010E94223044
:102D60009B01AC01C501B4010E94063120E030E0B6
:102D700048E452E40E942230562E772E082F192F55
:102D80006E817F81888599850E946E314B015C013F
:102D9000652D772D802F912F0E946E31A40180E048
:102DA00090E00E94750DC701B6019F7725E33AEFC9
:102DB0004EE05DE30E94563318160CF4E0CE0E94FC
:102DC000E72D2B960FB6F894DEBF0FBECDBFDF9177
:102DD000CF911F910F91FF90EF90DF90CF90BF9018
:102DE000AF909F908F907F906F905F904F903F90AB
:102DF0002F900895AF92BF92CF92DF92EF92FF9201
:102E00000F931F93CF93DF9381E090E09093C315CE
:102E10008093C2150E94ED290E9494296093201985
:102E2000709321198093221990932319C0E1D0E067
:102E30000E94ED29C0902019D0902119E09022190C
:102E4000F09023190E9494299B01AC01C701B6019F
:102E50000E94213020E030E0A9010E94FF301816C6
:102E60001CF1C0902019D0902119E0902219F09007
:102E700023190E9494299B01AC01C701B6010E944D
:102E8000213020E030E046E953E40E9461339B01A9
:102E9000AC0160E070E084EB92E40E942130A62E49
:102EA000B72E082F192F20C020E030E046E953E468
:102EB0006091201970912119809122199091231904
:102EC0000E946133E62EF72E082F192F0E949429B5
:102ED0009B01AC016E2D7F2D802F912F0E94213000
:102EE000A62EB72E082F192FC0902019D090211987
:102EF000E0902219F09023190E9494299B01AC01C3
:102F0000C701B6010E94213020E030E046E153E4E1
:102F10000E94613320E030E048E452E40E94223015
:102F20000E946E316B017C016A2D7B2D802F912FC9
:102F30000E946E31DC01CB0144E650E0B6010E94F4
:102F4000750D219709F074CF1092C3151092C21518
:102F50000E94EA2DDF91CF911F910F91FF90EF908A
:102F6000DF90CF90BF90AF9008951F920F920FB651
:102F70000F9211242F933F938F939F93AF93BF93FF
:102F800080912A1990912B19A0912C19B0912D198B
:102F900030913219232F2D5F2D3720F40196A11D7A
:102FA000B11D05C0232F2A570296A11DB11D2093E4
:102FB000321980932A1990932B19A0932C19B0934E
:102FC0002D1980912E1990912F19A0913019B0913F
:102FD00031190196A11DB11D80932E1990932F19BF
:102FE000A0933019B0933119BF91AF919F918F91F8
:102FF0003F912F910F900FBE0F901F9018950F9338
:103000001F938FB7F89400912A1910912B192091D2
:103010002C1930912D198FBF7894602F712F822F2A
:10302000932F1F910F9108952AEF30E0ECEBF0E021
:10303000808188231CF021503109D0F781E01216DD
:1030400013060CF080E008959C011092BC006623EA
:1030500021F08BB183608BB903C08BB18C7F8BB9AE
:103060001092B900442737FD4095542F60E87EE365
:1030700080E090E00E941634DA01C9014097A1096E
:10308000B109AC01BD0122F44F5F5F4F6F4F7F4F1D
:10309000DB01CA01B595A795979587958093B800F0
:1030A00084E08093BC000895AF92BF92CF92DF92EC
:1030B000EF92FF920F931F93CF93DF93B82EBB0C29
:1030C0000F2EF3E0AF2EF02DCCEBD0E00F2EF4EB73
:1030D000DF2EF02D09EB10E00F2EFBEBEF2EF12C85
:1030E000F02D0F2EF4E8CF2EF02DD8829DDF88230F
:1030F000B1F0F8019081987F983011F0903189F407
:10310000F701B082C88290DF882369F0F8019081CE
:10311000987F903261F4AA9441F784E00BC081E07B
:1031200009C082E007C083E005C080E003C0983199
:10313000E1F384E0DF91CF911F910F91FF90EF9029
:10314000DF90CF90BF90AF9008958093BB0084E84C
:103150008093BC0069DF882339F08091B900887FB3
:10316000883221F082E0089581E0089580E008959A
:1031700084E98093BC0058DF91E0811190E0892FB1
:1031800008952F923F924F925F926F927F928F920B
:103190009F92AF92BF92CF92EF92FF920F931F93A5
:1031A000CF93DF93082F462EB42EA52EC22E0F2EBE
:1031B000F3E05F2EF02DCCEBD0E00F2EF4EB9F2E42
:1031C000F02D0F2EF9EB2F2E312CF02D0F2EFEEFC0
:1031D0006F2EF02D68220F2EFBEBEF2EF12CF02D31
:1031E0000F2EF4E87F2EF02D98821EDF882309F43D
:1031F0009CC0F1019081987F983019F0903109F0CE
:1032000096C0F701608278820FDF882309F491C0AD
:10321000F1018081182F187F103209F09AC05A945A
:1032200019F713E19CC04092BB0084E88093BC0076
:10323000FBDE882309F47FC08091B900887F883243
:1032400009F07BC00F2EF3E09F2EF02D0F2EFCEB2C
:103250004F2E512CF02D0F2EF4EB6F2EF02DC9EBCD
:10326000D0E088248394802A0F2EFBEBEF2EF12CE4
:10327000F02D04E8F2016082D7DE882309F45FC0F4
:103280008881887F883019F0803109F05AC0F701B1
:103290008082F2010083C8DE882309F460C088813F
:1032A000887F883409F058C09A9421F719E157C0F3
:1032B000CC20C1F1CB2DDA2D212C312CEC2CF12C92
:1032C000F1E0EF1AF1080F2EFCEB4F2E512CF02DF0
:1032D0000F2EF4ECAF2EF02D04E80F2EF9EB6F2E2D
:1032E000712CF02D0F2EFBEB8F2E912CF02D2E1428
:1032F0003F0419F4F201008302C0F201A08294DEBF
:10330000882309F1F3018081182F187F103511F0FF
:10331000183529F5F40180818993FFEF2F1A3F0AB0
:103320002C1428F325DF10E01AC010E118C011E1B9
:1033300016C012E114C014E112C015E110C016E16C
:103340000EC017E10CC01AE10AC013E108C019E170
:1033500006C01831D1F767CF8034C9F7A9CF812FC4
:10336000DF91CF911F910F91FF90EF90CF90BF9081
:10337000AF909F908F907F906F905F904F903F9015
:103380002F9008959F92AF92BF92CF92DF92EF92CB
:10339000FF920F931F93CF93DF93D82F962EC42FB6
:1033A00059012DDE6B017C012C2FA501692D8D2F7C
:1033B000880FE7DE811102C0DC2F01C0DFEF0115AD
:1033C0001105C9F01CDE9B01AC012C193D094E0909
:1033D0005F09C801A0E0B0E0281739074A075B077A
:1033E00050F02D2F332727FD30958C2F90E0281794
:1033F00039070CF4DFEF8D2FDF91CF911F910F91E3
:10340000FF90EF90DF90CF90BF90AF909F90089586
:103410000F931F9389019A0141E0B4DF1F910F912F
:103420000895CF92DF92EF92FF920F931F93CF9365
:10343000DF931F92CDB7DEB7C42ED22E9701AE0117
:103440004F5F5F4FE5DF882309F14C2D50E04D19A8
:1034500051094F5F5F4F61E070E09B0102C0220F96
:10346000331FDA94E2F721503109042E02C0220FF3
:10347000331F0A94E2F79981292330E0B90102C091
:10348000759567954A95E2F7F80160830F90DF9193
:10349000CF911F910F91FF90EF90DF90CF90089503
:1034A000DF92EF92FF920F931F93CF93DF931F92C0
:1034B000CDB7DEB7D42E79019801AE014F5F5F4FD3
:1034C000A7DF21E030E0A90102C0440F551FDA94C4
:1034D000E2F799814923F70140830F90DF91CF9163
:1034E0001F910F91FF90EF90DF900895DF92EF9280
:1034F000FF920F931F93CF93DF93C62F042F790171
:10350000D3DD8C2F22DE10E0000F111F10161106E4
:10351000B4F4D12CCD2DD0E0CC0FDD1FCE0DDF1DAE
:10352000898113DE888111DEC82F811109C0D394EF
:10353000D3942D2D30E02017310764F301C0C0E093
:1035400017DE81E0C11180E0DF91CF911F910F91D3
:10355000FF90EF90DF900895CF93DF9300D0CDB729
:10356000DEB75A8349839E012F5F3F4F41E0BEDFA4
:103570000F900F90DF91CF910895FF920F931F93BB
:10358000CF93DF93C62F142FF22E032F8DDD8C2FB8
:10359000DCDD112371F0CF2DD02F1150CE01810F22
:1035A000911D8C010F5F1F4F8991CFDDC017D1078F
:1035B000D9F7DEDD81E0DF91CF911F910F91FF9070
:1035C0000895CF93DF931F92CDB7DEB749839E0155
:1035D0002F5F3F4F41E0D1DF0F90DF91CF910895F2
:1035E000DF92EF92FF920F931F93CF93DF931F927F
:1035F000CDB7DEB7182FF62ED42EE22E209109017A
:1036000030910A01AE014F5F5F4F02DF882319F14D
:10361000ED2DF0E0EE19F1093196A1E0B0E09D0149
:1036200002C0220F331FEA94E2F7215031090E2E17
:1036300001C0220F0A94EAF701C0000FEA95EAF7E9
:10364000422F4095898148232023422B49836F2DA7
:10365000812FB7DF01C080E00F90DF91CF911F91E4
:103660000F91FF90EF90DF900895EF92FF920F93EC
:103670001F93CF93DF931F92CDB7DEB7182F062F7E
:10368000F42EE22E2091090130910A01AE014F5F24
:103690005F4FBEDEEE2059F021E030E0A90102C00C
:1036A000440F551FFA94E2F78981482B0BC021E0A3
:1036B00030E0A90102C0440F551FFA94E2F740958B
:1036C000898148234983602F812F7BDF0F90DF9111
:1036D000CF911F910F91FF90EF90089520910B01D2
:1036E00030910C0140910D0150910E010E9421304A
:1036F0002DEC3CEC4CEC5EE30E94613320E030E0CA
:1037000040EF52E40E94223060930F017093100149
:1037100080931101909312010895CF92DF92EF925E
:10372000FF9220910B0130910C0140910D015091BD
:103730000E010E9421302DEC3CEC4CEC5EE30E942B
:10374000613320E030E040EF52E40E942230C62E88
:10375000D72EE82EF92EC701B601905823EF34E09A
:1037600045EB5FE30E94063126E636E647E752E482
:103770000E942130609337017093380180933901A2
:1037800090933A0123EF34E045EB5FE3C701B601C4
:103790000E94063120E030E040EF52E40E942230E7
:1037A0006093330170933401809335019093360117
:1037B000FF90EF90DF90CF90089520910B01309112
:1037C0000C0140910D0150910E010E9421302DEC11
:1037D0003CEC4CEC5EE30E94613320E030E040EFD3
:1037E00052E40E942230905820E030E048EC52E44D
:1037F0000E94213060932F0170933001809331013A
:103800009093320108950F931F93CF93DF932091EC
:103810000B0130910C0140910D0150910E010E945D
:1038200021302DEC3CEC4CEC5EE30E94613320E057
:1038300030E040EF52E40E942230905823EF34E011
:1038400045EB5FE30E940631062F172FD82FC92FB3
:1038500026E636E647E752E40E94213060932B01CA
:1038600070932C0180932D0190932E0120E030E085
:1038700040EF52E4602F712F8D2F9C2F0E9421303A
:1038800060932701709328018093290190932A0166
:10389000DF91CF911F910F910895CF92DF92EF9218
:1038A000FF9220910B0130910C0140910D0150913C
:1038B0000E010E9421302DEC3CEC4CEC5EE30E94AA
:1038C000613320E030E040EF52E40E942230B62F16
:1038D000A72F462F572F682F792F6A017B0123EFDF
:1038E00034E045EB5FE36B2F7A2F0E94063126E62A
:1038F00036E647E752E40E9422306093230170933A
:1039000024018093250190932601C701B6019058A8
:1039100023EF34E045EB5FE30E94063120E030E026
:1039200040EF52E40E94213060931F017093200108
:103930008093210190932201FF90EF90DF90CF9030
:10394000089520910B0130910C0140910D0150918F
:103950000E010E9421302DEC3CEC4CEC5EE30E9409
:10396000613320E030E040EF52E40E94223020E05A
:1039700030E048EC52E40E94223060931B017093C7
:103980001C0180931D0190931E0108950F931F93B6
:10399000CF93DF9320910B0130910C0140910D01E9
:1039A00050910E010E94213023E333E343E35FE3B0
:1039B0000E94613320E030E040EF52E40E94223068
:1039C00023EF34E045EB5FE30E940631062F172F0B
:1039D000D82FC92F26E636E647E752E40E94223068
:1039E00060931701709318018093190190931A0145
:1039F00020E030E040EF52E4602F712F8D2F9C2F9C
:103A00000E9422306093130170931401809315017A
:103A100090931601DF91CF911F910F910895CF924E
:103A2000DF92EF92FF926B017C0158DEC701B60175
:103A300074DEC701B601C1DEC701B601E4DEC7010D
:103A4000B6012BDFC701B6017CDFC701B6019EDFDF
:103A5000FF90EF90DF90CF90089550913701409103
:103A600038013091390120913A01652F742F832F4D
:103A7000922F0895509133014091340130913501D6
:103A800020913601652F742F832F922F0895509126
:103A90000F01409110013091110120911201652F09
:103AA000742F832F922F0895509133194091341918
:103AB0003091351920913619652F742F832F922F4D
:103AC000089550910B0140910C0130910D0120910E
:103AD0000E01652F742F832F922F08954F925F92BE
:103AE0006F927F928F929F92AF92BF92CF92DF920E
:103AF000EF92FF920F931F9349015A0167017801DA
:103B00009B01AC010E9461332B013C01A501940192
:103B1000C501B4010E9461339B01AC01C301B20134
:103B20000E9422300E94CE3320E030E048E552E48B
:103B30000E942130862E972EA82EB92EA70196011D
:103B4000C701B6010E9461336B017C01282D392D1C
:103B50004A2D5B2D682D792D8A2D9B2D0E94613376
:103B60009B01AC01C701B6010E9422300E94CE33F6
:103B700060933F19709340198093411990934219B3
:103B80001F910F91FF90EF90DF90CF90BF90AF907B
:103B90009F908F907F906F905F904F900895CF92FD
:103BA000DF92EF92FF926B017C01CA01B901A7017C
:103BB00096010E9406310E94D730262F372F462FBC
:103BC000572F682F792F40934319509344196093CE
:103BD000451970934619622F732FFF90EF90DF9075
:103BE000CF90089560913F197091401980914119CB
:103BF000909142199B01AC010E9461339B01AC0181
:103C000060E072E38BEA96E40E94213020E030E32A
:103C10004AE856E40E9406310E9413309B01AC0131
:103C20006BED7FE089E490E40E942130262F372F4E
:103C3000462F572F682F792F4093471950934819D3
:103C40006093491970934A19622F732F08954F9208
:103C50005F926F927F928F929F92AF92BF92CF921C
:103C6000DF92EF92FF922B013C01C0903F19D09060
:103C70004019E0904119F0904219A7019601C7013F
:103C8000B6010E94613320E03CE14AE456E40E9420
:103C900021304B015C0120E030E046E053E4C701F5
:103CA000B6010E9461339B01AC01C501B4010E94C1
:103CB00006310E9413304B015C01A7019601C3013C
:103CC000B2010E9406310E9486309B01AC01C50101
:103CD000B4010E942230262F372F462F572F682FEE
:103CE000792F40934B1950934C1960934D19709351
:103CF0004E19622F732FFF90EF90DF90CF90BF90FF
:103D0000AF909F908F907F906F905F904F900895AD
:103D10008F929F92AF92BF92CF92DF92EF92FF92DB
:103D200049015A0120913701309138014091390100
:103D300050913A010E94223026E636E647E752E4E7
:103D40000E94223023EF34E045EB5FEB0E94063106
:103D50006B017C0120913301309134014091350198
:103D600050913601C501B4010E94223020E030E0BC
:103D700040EF52E40E94213023EF34E045EB5FE353
:103D80000E9406319B01AC01C701B6010E9422309E
:103D9000FF90EF90DF90CF90BF90AF909F908F906B
:103DA00008958F929F92AF92BF92CF92DF92EF923F
:103DB000FF9249015A012091370130913801409119
:103DC000390150913A010E94223026E636E647E753
:103DD00052E40E94223023EF34E045EB5FEB0E9477
:103DE00006316B017C012091330130913401409107
:103DF000350150913601C501B4010E94223020E006
:103E000030E040EF52E40E94213023EF34E045EBF4
:103E10005FEB0E9406319B01AC01C701B6010E9415
:103E20002230FF90EF90DF90CF90BF90AF909F90A7
:103E30008F90089520912F013091300140913101F0
:103E4000509132010E94223020E030E048EC52E4F0
:103E50000E942230DC01CB01B058682F792F8A2FC5
:103E60009B2F089520913B1930913C1940913D19A9
:103E700050913E190E942230DC01CB01B058682FCE
:103E8000792F8A2F9B2F08958F929F92AF92BF9286
:103E9000CF92DF92EF92FF9249015A0120912B01BC
:103EA00030912C0140912D0150912E010E94223021
:103EB00026E636E647E752E40E94223023EF34E05C
:103EC00045EB5FEB0E9406316B017C0120912701DD
:103ED000309128014091290150912A01C501B40176
:103EE0000E94223020E030E040EF52E40E94223075
:103EF00023EF34E045EB5FE30E9406319B01AC0108
:103F0000C701B6010E942130FF90EF90DF90CF9063
:103F1000BF90AF909F908F9008958F929F92AF9295
:103F2000BF92CF92DF92EF92FF9249015A01209106
:103F30002B0130912C0140912D0150912E010E94B6
:103F4000223026E636E647E752E40E94223023EF8D
:103F500034E045EB5FE30E9406316B017C01209168
:103F60002701309128014091290150912A01C50172
:103F7000B4010E94223020E030E040EF52E40E9481
:103F8000223023EF34E045EB5FEB0E9406319B01CA
:103F9000AC01C701B6010E942230FF90EF90DF9084
:103FA000CF90BF90AF909F908F9008958F929F92E7
:103FB000AF92BF92CF92DF92EF92FF9249015A01E6
:103FC0002091230130912401409125015091260137
:103FD0000E94223026E636E647E752E40E9421306E
:103FE00023EF34E045EB5FE30E9406316B017C0177
:103FF00020911F0130912001409121015091220117
:10400000C501B4010E94223020E030E040EF52E4CC
:104010000E94223023EF34E045EB5FE30E9406313B
:104020009B01AC01C701B6010E942130FF90EF90C7
:10403000DF90CF90BF90AF909F908F9008958F9218
:104040009F92AF92BF92CF92DF92EF92FF9249017F
:104050005A01209123013091240140912501509172
:1040600026010E94223026E636E647E752E40E9407
:10407000213023EF34E045EB5FE30E9406316B0112
:104080007C0120911F01309120014091210150912C
:104090002201C501B4010E94223020E030E040EF4F
:1040A00052E40E94223023EF34E045EB5FE30E94AC
:1040B00006319B01AC01C701B6010E942230FF907E
:1040C000EF90DF90CF90BF90AF909F908F9008952A
:1040D00020911B0130911C0140911D0150911E0146
:1040E0000E94223020E030E048EC52E40C94213071
:1040F00020913719309138194091391950913A1956
:104100000C9422308F929F92AF92BF92CF92DF9207
:10411000EF92FF9249015A01209117013091180145
:104120004091190150911A010E94223026E636E68C
:1041300047E752E40E94213023EF34E045EB5FE390
:104140000E9406316B017C01209113013091140112
:104150004091150150911601C501B4010E94223011
:1041600020E030E040EF52E40E94213023EF34E0C1
:1041700045EB5FE30E9406319B01AC01C701B6012C
:104180000E942230FF90EF90DF90CF90BF90AF90D1
:104190009F908F9008958F929F92AF92BF92CF92EF
:1041A000DF92EF92FF9249015A012091170130915D
:1041B00018014091190150911A010E94223026E6FF
:1041C00036E647E752E40E94213023EF34E045EB26
:1041D0005FEB0E9406316B017C012091130130914D
:1041E00014014091150150911601C501B4010E94BE
:1041F000223020E030E040EF52E40E94213023EFF3
:1042000034E045EB5FE30E9406319B01AC01C7013E
:10421000B6010E942230FF90EF90DF90CF90BF90C8
:10422000AF909F908F90089528E6FC012083089519
:10423000462F69E1FC018081C4C90F93062F23E05A
:1042400045E06AE1FC018081CBD90F9108950F937D
:10425000062F23E042E06AE1FC018081C1D90F9181
:1042600008950F93062F22E044E06BE1FC0180816A
:10427000B7D90F910895462F6FE1FC018081A1C944
:10428000462F60E2FC0180819CC9462F61E2FC015F
:10429000808197C9462F62E2FC01808192C9643017
:1042A00038F4262F220F620F6B5DFC01808189C9D3
:1042B0000895462F68E3FC01808183C9CF93DF9383
:1042C000EC012091090130910A01AC014F5F5F4F71
:1042D0006AE388819DD88981DF91CF910895262F47
:1042E00046E06AE6FC018081C0C9262F45E06AE607
:1042F000FC018081BAC921E042E06AE6FC018081CC
:10430000B4C921E041E06AE6FC018081AEC921E048
:1043100047E06BE6FC018081A8C9262F46E06BE6EA
:10432000FC018081A2C90F93062F23E042E06BE6D7
:10433000FC01808155D90F9108950F931F93CF935E
:10434000DF93EC010091090110910A019C012F5F9C
:104350003F4F42E062E7888115D8998180E02A8149
:10436000AC01422B9A01822F932FDF91CF911F91A5
:104370000F9108950F931F934115510579F0009106
:10438000090110910A014038510510F04FE750E043
:104390009B0164E7FC0180810E94C2191F910F916B
:1043A00008950F931F93CF93DF93EC0100910901C0
:1043B00010910A019C012F5F3F4F40E060E088812F
:1043C0006FD88981DF91CF911F910F910895262F8A
:1043D00040E060E0FC01808148C9EF92FF920F93BA
:1043E0001F93CF93DF93EC01E0900901F0900A0155
:1043F0008C010F5F1F4F26E046E060E0888111D8F6
:104400008981DF91CF911F910F91FF90EF900895D7
:104410000F93062F26E046E060E0FC018081E0D8A3
:104420000F910895EF92FF920F931F93CF93DF9315
:10443000EC01E0900901F0900A018C010F5F1F4F21
:1044400026E046E061E088810E94111A8981DF91AF
:10445000CF911F910F91FF90EF9008950F93062F2A
:1044600026E046E061E0FC018081BAD80F91089512
:10447000EF92FF920F931F93CF93DF93EC01E090A5
:104480000901F0900A018C010F5F1F4F26E046E002
:1044900062E088810E94111A8981DF91CF911F917A
:1044A0000F91FF90EF9008950F93062F26E046E0BE
:1044B00062E0FC01808194D80F910895AB016AE01D
:1044C000FC01808149C8AB0163E1FC01808144C8E3
:1044D000AB0165E1FC0180813FC8AB0167E1FC01F4
:1044E00080813AC8262F47E06AE6FC018081BDC87A
:1044F00021E043E06AE6FC018081B7C86F712111B9
:10450000606241116064462F6DE6FC01808159C8EC
:10451000462F6EE6FC01808154C8CF93DF93EC01F7
:104520002091090130910A01AC014F5F5F4F6FE6A6
:1045300088810E94081A8981DF91CF9108954F9256
:104540005F926F927F928F929F92AF92BF92CF9223
:10455000DF92EF92FF920F931F93CF93DF936C0143
:104560005B017A01522E602E20E040E0652DC6DF0F
:10457000602FC601CDDFE114F104C9F1C0E0D0E045
:104580006894442444F8812C99249394CE01409655
:10459000E816F90618F47E2C7C1A01C0742C272D1D
:1045A00030E0C401861991098217930714F4762C20
:1045B00071940091090110910A0195012C0F3D1F82
:1045C000472D6FE6F60180810E94C219C70DD11DEB
:1045D000CE15DF0560F4670C09F4539420E040E049
:1045E000652DC6018BDF662DC60192DFCFCFDF912F
:1045F000CF911F910F91FF90EF90DF90CF90BF90E0
:10460000AF909F908F907F906F905F904F900895A4
:104610002F923F924F925F926F927F928F929F92D2
:10462000AF92BF92CF92DF92EF92FF920F931F93C0
:10463000CF93DF9300D000D01F92CDB7DEB74C01EF
:104640002B013A012983D02EEB82CA8220E040E080
:10465000698154DF602FC4015BDFEB80EE2031F015
:1046600080E190E00E945734282E392E8A818823D9
:1046700031F080E190E00E945734A82EB92E6114E9
:10468000710409F480C01D821C82E12CFF24F39484
:104690008C819D8140966816790620F4C62C9C81F9
:1046A000C91A03C06894CC24C4F82C2D30E0C7018B
:1046B0008D1991098217930714F4CD2CC194EA81C6
:1046C000EE2389F0CC2099F0EC81FD81E40DF51DFD
:1046D0009A2DAA2DBB2D84918D9331968A2F891BFB
:1046E0008C15C8F304C0AC80BD80A40CB51C95012A
:1046F0004C2D6FE6F40180810E94BD1AFB81FF23DF
:1047000059F12114310441F120E040E06981C401F4
:10471000F5DE6D2DC401FCDE0091090110910A0146
:1047200091014C2D6FE6F40180810E94C2194C2D3D
:1047300050E0B101C5010E947036282F392F232B7C
:1047400059F0C1010E94F234FA81FF2351F1C501F1
:104750000E94F23480E028C08C819D818C0D911DD7
:104760009D838C838615970570F4DC0C19F4998170
:104770009F5F998320E040E06981C401BFDE6D2D19
:10478000C401C6DE85CFEB81EE2319F0C1010E9482
:10479000F234FA81FF2339F0C5010E94F23481E03E
:1047A00003C080E001C081E00F900F900F900F9048
:1047B0000F90DF91CF911F910F91FF90EF90DF90BD
:1047C000CF90BF90AF909F908F907F906F905F90B1
:1047D0004F903F902F900895CF92EF920F93CC245B
:1047E000C39416DF0F91EF90CF9008952F923F92D0
:1047F0004F925F926F927F928F929F92AF92BF92F1
:10480000CF92EF92FF920F931F93CF93DF931C01F0
:10481000EB012A01122F222309F47CC088E090E0EA
:104820000E945734682E792E75C0812C912C11234B
:10483000A9F0FE01E80DF91DE490F4013196EC0FAA
:10484000FD1FF490540183E0A80EB11CF4013296D0
:10485000EC0FFD1F0491011175C03DC0FE01E80D74
:10486000F91D208101818281540193E0A90EB11CC0
:10487000811164C038C0602F70E0C3010E9491357F
:10488000682E792E202F30E02115310599F0D301C3
:1048900080E090E0AE014A0D5B1DFA01E80FF91FC0
:1048A000E491ED93019682179307B8F3802F0F2DB3
:1048B0002E2D03C0802F0F2D2E2D882E912CC12C34
:1048C000EE24E394A401B301C101A2DE8A0C9B1C77
:1048D000811125C018C0E4E08E0E911CFE01EA0D86
:1048E000FB1D849107C0FE01EA0DFB1D8081F4E0F1
:1048F0008F0E911C813039F442E368E3F10180812D
:104900000E94E11A0CC01123A9F0C3010E94F234E5
:1049100080E01CC04114510409F087CF04C0841406
:10492000950408F484CF112339F0C3010E94F234B6
:1049300081E00CC080E00AC081E008C03E016A0C42
:104940007B1CBBCF033008F49DCF95CFDF91CF9177
:104950001F910F91FF90EF90CF90BF90AF909F90DD
:104960008F907F906F905F904F903F902F90089521
:1049700021E03CCF462F60E7FC0180810C94E11AD6
:10498000462F61E7FC0180810C94E11A8F929F927F
:10499000AF92BF92CF92EF920F931F93CF93DF937B
:1049A000CDB7DEB7C059D1090FB6F894DEBF0FBE40
:1049B000CDBF5C01ACDC2FEF86E791E02150804059
:1049C0009040E1F700C0000060E0C501A6DC21E0F6
:1049D00041E060E1C50192DD66E0C50199DDC501F8
:1049E0009CDD20E040E060E0C50188DDC501D9DC48
:1049F000C501F3DC182FC50115DD882EC50138DD92
:104A0000982E4FE760E0C5014ADC60E0C5016DDC2F
:104A100048E660E0C50143DCC50173DCEFEFF9EF68
:104A200020E0E150F0402040E1F700C00000EE241B
:104A3000E39400E020E049E857E063E171E0C5015C
:104A4000CBDE882309F4E7C140EC50E06CE978E064
:104A5000C5018EDF882309F4E0C163E0C50163DC92
:104A600062E1C50126DC64E0C501E2DB61E0C5016D
:104A7000E4DB63E0C501EBDB63E0C501F2DB63E08F
:104A8000C50178DF60E0C5017BDF60E0C5019FDC28
:104A9000612FC501BDDC682DC501E0DC692DC501B4
:104AA00003DD812C912C0EC0F401E45AF64FE49101
:104AB000A1E8B0E0AC0FBD1FA80DB11DEC938FEFC6
:104AC000881A980A93E0981578F7CD57DF4F4881F8
:104AD000C358D04094013327842F90E003962817C1
:104AE000390714F361E870E06C0F7D1F6D5F7F4F35
:104AF000C12CEE24E394CE57DF4F0881C258D0403A
:104B0000CF57DF4F2881C158D04050E0C50180DD2C
:104B100050E0F401E45AF64FE491A1E8B0E0AC0FA4
:104B2000BD1FA50FB11DEC935F5FEFEF8E1A9E0ABC
:104B3000543078F3CD57DF4F4881C358D040252FEC
:104B400030E0842F90E003962817390714F361E8CA
:104B500070E06C0F7D1F6D5F7F4FC12CEE24E394DE
:104B6000CE57DF4F0881C258D040CF57DF4F288142
:104B7000C158D04050E0C5014BDDC501BCDBC501CB
:104B8000DCDBAC01BE016F5F7F4FC501F3DB62E090
:104B9000C50171DB6CE9C50178DB60E5C50170DB3F
:104BA00060E0C50177DBC501A6DB61E0C50197DBED
:104BB00061E0C50197DCC5019BDC50E0F401E45ADB
:104BC000F64FE491A1E8B0E0AC0FBD1FA50FB11DF9
:104BD000EC935F5FFFEF8F1A9F0A543078F3CD5745
:104BE000DF4F4881C358D040252F30E0842F90E01C
:104BF00003962817390714F361E870E06C0F7D1FE6
:104C00006D5F7F4FC12CEE24E394CE57DF4F0881B8
:104C1000C258D040CF57DF4F2881C158D04050E014
:104C2000C501F6DC50E0F401E45AF64FE491A1E846
:104C3000B0E0AC0FBD1FA50FB11DEC935F5F2FEF70
:104C4000821A920A543078F3CD57DF4F4881C35807
:104C5000D040252F30E0842F90E0039628173907A5
:104C600014F361E870E06C0F7D1F6D5F7F4FC12C06
:104C7000EE24E394CE57DF4F0881C258D040CF577F
:104C8000DF4F2881C158D04050E0C501C1DC50E061
:104C9000F401E45AF64FE491A1E8B0E0AC0FBD1F77
:104CA000A50FB11DEC935F5F8FEF881A980A5430FF
:104CB00078F3CD57DF4F4881C358D040252F30E0DF
:104CC000842F90E003962817390714F361E870E009
:104CD0006C0F7D1F6D5F7F4FC12CEE24E394CE5788
:104CE000DF4F0881C258D040CF57DF4F2881C158CD
:104CF000D04050E0C5018CDCC5011FDB833091053D
:104D0000D8F3AC01BE016F5F7F4FC50133DBC50136
:104D1000D5DA50E0F401E45AF64FE491A1E8B0E0AE
:104D2000AC0FBD1FA50FB11DEC935F5F9FEF891AFC
:104D3000990A543078F3CD57DF4F4881C358D0409B
:104D4000252F30E0842F90E003962817390714F3BD
:104D500061E870E06C0F7D1F6D5F7F4FCE57DF4FB6
:104D60000881C258D040CF57DF4F2881C158D0406A
:104D700050E0C501E4DBC501E0DA83309105D8F3EA
:104D8000AC01BE016F5F7F4FC501F4DAC50196DA51
:104D900050E0F401E45AF64FE491A1E8B0E0AC0F22
:104DA000BD1FA50FB11DEC935F5FEFEF8E1A9E0A3A
:104DB000543078F3CD57DF4F4881C358D040252F6A
:104DC00030E0842F90E003962817390714F361E848
:104DD00070E06C0F7D1F6D5F7F4FC12CEE24E3945C
:104DE000CE57DF4F0881C258D040CF57DF4F2881C0
:104DF000C158D04050E0C5010BDC60E0C50172DB5A
:104E00008AE290E0F50193838283C50174DAC501DB
:104E100055DA80E003C081E001C082E0C057DF4F77
:104E20000FB6F894DEBF0FBECDBFDF91CF911F91BB
:104E30000F91EF90CF90BF90AF909F908F9008957B
:104E4000CF93DF93DB01FA01309719F4EC01E8818D
:104E5000F981908180E02181820F911D11969C93B0
:104E60008E93948180E02581820F911D13969C93EF
:104E70008E931297908580E02185820F911D159663
:104E80009C938E931497948580E02585820F911DC5
:104E900017969C938E93169780E0DF91CF9108959B
:104EA000FF920F931F93CF93DF93CDB7DEB7289771
:104EB0000FB6F894DEBF0FBECDBF8B01BE016F5F92
:104EC0007F4FBEDFF82E81114CC069817A8188271F
:104ED00077FD8095982F0E94A13120E030E040E8D6
:104EE00058E30E946133F801608371838283938366
:104EF0006B817C81882777FD8095982F0E94A13156
:104F000020E030E040E858E30E946133F801648318
:104F10007583868397836D817E81882777FD809551
:104F2000982F0E94A13120E030E040E858E30E9431
:104F30006133F80160877187828793876F817885F5
:104F4000882777FD8095982F0E94A13120E030E0DE
:104F500040E858E30E946133F801648775878687CB
:104F600097878F2D28960FB6F894DEBF0FBECDBF62
:104F7000DF91CF911F910F91FF9008952F923F9253
:104F80004F925F926F927F928F929F92AF92BF9259
:104F9000CF92DF92EF92FF920F931F93CF93DF9305
:104FA00000D000D0CDB7DEB78B011A01FA012485FD
:104FB00035854685578564817581868197810E94F4
:104FC00061336B017C01F101208531854285538578
:104FD00060817181828193810E9461339B01AC0168
:104FE000C701B6010E9421309B01AC010E94223012
:104FF000F8016083718382839383F1012481358179
:105000004681578160817181828193810E946133E1
:105010006B017C01F10124853585468557856085C6
:105020007185828593850E9461339B01AC01C70124
:10503000B6010E9422309B01AC010E942230F8018F
:105040006483758386839783F10160817181828196
:105050009381448055806680778080849184A28487
:10506000B384C484D584E684F7849B01AC010E9498
:10507000613369837A838B839C83A3019201C3018B
:10508000B2010E9461339B01AC0169817A818B81FD
:105090009C81D7D72B013C01A5019401C501B40126
:1050A0000E9461339B01AC01C301B201CAD74B011D
:1050B0005C01A7019601C701B6010E9461339B0103
:1050C000AC01C501B401BED7F80160877187828742
:1050D000938780E00F900F900F900F90DF91CF910A
:1050E0001F910F91FF90EF90DF90CF90BF90AF9006
:1050F0009F908F907F906F905F904F903F902F90F8
:1051000008952F923F924F925F926F927F928F926B
:105110009F92AF92BF92CF92DF92EF92FF920F9346
:105120001F93CF93DF9300D000D000D0CDB7DEB770
:105130005B018A013E832D83FA01408051806280A9
:105140007380A3019201C301B2017CD769837A8382
:105150008B839C83F801C480D580E680F780A7010B
:105160009601C701B6016ED7362E872E982E292EAE
:1051700079816A819B818C81272F362F492F582F67
:10518000C301B2010E9461332B013C01232D382D54
:10519000492D522DC701B6010E9461339B01AC011C
:1051A000C301B2014FD720E030E040E85FE349D7C8
:1051B0006B017C01F8012085318542855385632D83
:1051C000782D892D922D0E9461332B013C01F8012D
:1051D0002485358546855785B981AA811B810C8137
:1051E0006B2F7A2F812F902F0E9461339B01AC018E
:1051F000C301B20126D7A7019601AED7F50160839E
:10520000718382839383ED81FE81648175818681C0
:105210009781C084D184E284F3849B01AC010E9415
:1052200061332B013C01A7019601C701B6010E9421
:1052300061339B01AC01C301B20104D70E94CE339C
:105240009B01AC01ED81FE8160817181828193813E
:10525000DDD7ADD7F5016483758386839783ED81B0
:10526000FE816081718182819381C084D184E284D6
:10527000F3849B01AC010E9461332B013C01A70127
:105280009601C701B6010E9461339B01AC01C301C5
:10529000B201D8D60E94CE339B01AC01ED81FE81D4
:1052A0006481758186819781B1D781D7F501608747
:1052B00071878287938780E026960FB6F894DEBFC9
:1052C0000FBECDBFDF91CF911F910F91FF90EF9057
:1052D000DF90CF90BF90AF909F908F907F906F9016
:1052E0005F904F903F902F900895FC0182819381B1
:1052F00008951F920F920FB60F9211248F9381E0A1
:1053000080934F198F910F900FBE0F901F9018959B
:10531000EBE6F0E0808181608083E8E6F0E0808168
:105320008160808378940895E0E5F9E150814181BE
:1053300032812381652F742F832F922F0895E4E506
:10534000F9E15081418132812381652F742F832FB0
:10535000922F0895E8E5F9E150814181328123815E
:10536000652F742F832F922F089561E080E991E0DB
:105370000E94241884EE99E109DB8093CE196CED2C
:1053800070E084EE99E19FD86CE470E084EE99E1DE
:105390009FD86BEA7FEF84EE99E19FD86CEF76E0BF
:1053A00084EE99E18BD88091CE19811115C061E00E
:1053B00084EE99E197D8ACDF84EE99E10E945E21FA
:1053C0008093CF1981E08093D01984EE99E18DDF2D
:1053D0009093CD198093CC19089580914F19811124
:1053E00058C02091CA193091CB198091CC19909155
:1053F000CD192817390708F461C04BC0811534E076
:10540000930721F484EE99E10C947B2121FF56C08F
:105410004091CC195091CD198417950778F484EEFA
:1054200099E10E949D219093CB198093CA194091D4
:10543000CC195091CD198417950788F36AE879E162
:1054400084EE99E10E94BA218091CA199091CB19FA
:105450002091CC193091CD19821B930B9093CB19CD
:105460008093CA194AE859E16AE779E184EE99E143
:1054700017DD4AE759E16CE579E184EE99E17EDDDB
:105480002CE539E14AE759E160E579E184EE99E1FB
:1054900038CE10924F1984EE99E10E945E218093DC
:1054A000CF1984EE99E10E949D219093CB198093AE
:1054B000CA192091CF1924FFA1CFA4CF089584EE5B
:1054C00099E10E94142181ED99E10E94142180E06C
:1054D00090E0A0E8BFE380937A1990937B19A093A2
:1054E0007C19B0937D1910927E1910927F19109239
:1054F00080191092811910928219109283191092BA
:105500008419109285191092861910928719109299
:1055100088191092891910927519109274191092A5
:1055200077191092761910927919109278191092B1
:105530006F1910926E1910927119109270191092C1
:1055400073191092721910926919109268191092B9
:105550006B1910926A1910926D1910926C191092B1
:105560005C1910925D1910925E1910925F191092D9
:1055700060191092611910926219109263191092B9
:10558000641910926519109266191092671908959E
:105590008091C80080720895CF93C82FF9DF8823C7
:1055A000E9F3C093CE00CF9108950F931F93CF934B
:1055B000DF939FEF9093F7199093F8198093F9195F
:1055C000842F8E5F8093FA196093FB194423C1F1F5
:1055D000E7E7FAE1ACEFB9E1835090E08858954EE7
:1055E00021912D93E817F907D9F74A5F242F30E06E
:1055F000215031092330310534F582E090E060E03C
:105600000BC0FC01E950F64E8081680F5F5F852F6B
:1056100090E082179307ACF3FC01E950F64E6095D9
:1056200060834423A9F0C7EFD9E14150042F10E073
:105630000850164E8991B0DFC017D107D9F708C0BE
:1056400025E030E046E082E090E060E052E0D9CF33
:10565000DF91CF911F910F9108959F92AF92BF92CA
:10566000CF92DF92EF92FF920F931F93CF93DF932E
:10567000C82FCB01BA01122FD32F5C98EFE3FFE1C3
:105680003197F1F700C0000020E030E046E153E43C
:105690000E94613326E53EE049E450E4B7D520E0BE
:1056A00030E046E153E4CED4962EE72EF82E092FB3
:1056B000A62EB72EC82ED92E20E030E046E953E4BE
:1056C000F5D718165CF020E030E0A901692D7E2D99
:1056D0008F2D902F94D5882384F40BC0A12CB12C4E
:1056E0000F2EF6E9CF2EF02D0F2EF3E4DF2EF02D46
:1056F00004C0A12CB12CC12CD12C20E030EC4FE700
:1057000054E46A2D7B2D8C2D9D2DDBD720E030E0DD
:1057100046E953E47BD5E7D5262F9EE19093771A8F
:105720002093781A7093791A10937A1AD0937B1A6F
:1057300045E063E08C2F39DFDF91CF911F910F910E
:10574000FF90EF90DF90CF90BF90AF909F90089523
:105750009F92AF92BF92CF92DF92EF92FF920F9300
:105760001F93CF93DF93C82FCB01BA01122FD32FF2
:105770005C98EFE3FFE13197F1F700C0000020E013
:1057800030E046E153E49DD726E53EE049E450E4AD
:105790003DD520E030E046E153E454D4962EE72E88
:1057A000F82E092FA62EB72EC82ED92E20E030E0D5
:1057B00046E953E47BD718165CF020E030E0A901FD
:1057C000692D7E2D8F2D902F1AD5882384F40BC040
:1057D000A12CB12C0F2EF6E9CF2EF02D0F2EF3E4D5
:1057E000DF2EF02D04C0A12CB12CC12CD12C20E037
:1057F00030EC4FE754E46A2D7B2D8C2D9D2D61D725
:1058000020E030E046E953E401D56DD5262F9EE136
:105810009093771A2093781A7093791A10937A1AC2
:10582000D0937B1A45E064E08C2FBFDEDF91CF91EF
:105830001F910F91FF90EF90DF90CF90BF90AF90AE
:105840009F90089540E065E08EEFAFCE92E2909396
:10585000771A6093781A7093791A43E063E0A5CEC3
:105860005C981092CD001092CC0088E98093C9001A
:1058700086E08093CA00549A6FEF73E08EEFE6CF14
:1058800090E19093771A6093781A42E063E08DCEAE
:1058900095E09093771A6093781A42E063E085CEA2
:1058A000CF93C82F5C9861E0EBDF8FE39FE1019716
:1058B000F1F700C0000064E18C2FEADFCF9108957A
:1058C0001F920F920FB60F9211240BB60F922F93C7
:1058D0003F934F935F936F937F938F939F93AF9378
:1058E000BF93EF93FF936091CE0080913B01909125
:1058F0003C010E947005882319F089E795E125D1C4
:10590000FF91EF91BF91AF919F918F917F916F9197
:105910005F914F913F912F910F900BBE0F900FBE53
:105920000F901F9018958091501592E39093501509
:1059300008958091FD1A1092FD1A08958091FC1A25
:105940001092FC1A089580914F1508958091F91ACC
:10595000882321F01092F91A81E0089580E00895DB
:105960008091F81A882321F01092F81A81E00895A6
:1059700080E008958091FA1A9091FB1A0895509151
:105980004B1540914C1530914D1520914E15652FBA
:10599000742F832F922F08951092C50087E0809373
:1059A000C40088E98093C10086E08093C20082E34E
:1059B000809350151092FD1A1092FC1A0895809150
:1059C000C00080720895CF93C82FF9DF8823E9F3D0
:1059D000C093C600CF910895CF92DF92EF92FF92CD
:1059E0000F931F93CF93DF93662309F43EC0062FD6
:1059F00010E04FEF5FEFEEEFFFEFC62ED12CE82E59
:105A0000F12CC8E0D0E0EE3F6FEFF60719F48E2DD1
:105A10009F2D30C0EF3F8FEFF80719F48C2D9D2D8F
:105A200029C0DF01A45FB04E8C9190E023C0BA0181
:105A30006827792760FF07C05695479568E0462795
:105A400064E8562702C0569547959695879521504C
:105A5000310969F73196E017F107A9F69A01209507
:105A6000309532272327322702C020E030E0822FF2
:105A7000932F02C09E01DBCFDF91CF911F910F9139
:105A8000FF90EF90DF90CF9008950F931F93CF93E7
:105A9000DF939EE79093071D8093081D6093091D77
:105AA000262F30E0121613064CF5ECE0FFE103E080
:105AB00010E0C0E0D0E07DE750E29081492F4D57E3
:105AC000423080F4D801A95FB24EAC0FBD1F7C9369
:105AD0000F5F1F4FD801A95FB24EAC0FBD1F9527B6
