:10000000C6C40000F2C40000F0C40000EEC400004A
:100010000C94F130EAC40000E8C40000E6C400001B
:10002000E4C40000E2C40000E0C40000DEC400003C
:10003000DCC4000098C50000D8C40000D6C400008D
:10004000D4C40000D2C400000C94251FCEC400000C
:100050000C941038CAC40000C8C40000C6C4000014
:10006000C4C40000C2C40000C0C40000BEC400007C
:100070000C940135BAC40000B8C40000B6C4000036
:1000800014C50000B2C40000B0C40000036EDB362B
:100090003D9A9999993DABAAAA2A3E000000803F5B
:1000A000084AD73B3BCE016E84BCBFFDC12F3D6CDF
:1000B00074319ABD56833DDA3D00C77F11BED9E445
:1000C000BB4C3E916BAAAABE000000803F072C7A71
:1000D000A5BA6CC590DA3B9365FC8BBC53F810FD58
:1000E0003C5692834DBD879D3AB63DCBC9BF5BBEA2
:1000F00073DA0FC93F05A84CCDB2D44EB93836A932
:10010000020C50B9918688083CA6AAAA2ABE000013
:1001100000803FFB00003E000B00360001000200A3
:1001200003000000650054FFEF0000FA80000B128E
:10013000820001000200000000000000000000003A
:1001400000000000280000FFFF4581FFFFFA720059
:10015000000000000003E80000000100017FFFFF35
:10016000FE8001001B0000000000000000000000F5
:10017000000000003E03304000000002CAE3093ED8
:10018000800000200000000000000040000000602F
:1001900000000041FF000000000B2A00001655007F
:1001A000002182FD872650FD800000001F00000016
:1001B00005800000000000000100000002000000B7
:1001C000030000400000000000046F0002653200E0
:1001D000005EC040000000000000000000000000C1
:1001E000000000FB8C6F5DFD5D08D9007C733B0057
:1001F0006C12CC3200139D3200D0D6320008004081
:100200000001F4FFE68079020000000000D0D60073
:10021000002710FB0000004000000000000000006C
:1002200000000000000001000000000000010001CB
:100230000000000000FA36FFBC308E0005FBF0FF26
:10024000D95BC8FFD09ABE000010A9FFF41EB2000F
:10025000CEBBF70000000100000004000200020213
:1002600000000CFFC280000001800000CF80004031
:100270000000000000000100000000000006000077
:10028000000014000000000000000000000000005A
:10029000000000000000000000000000000000005E
:1002A000000000000000000000000000000000004E
:1002B00000000000000000033F68B6793528BCC686
:1002C0007ED16C80000000400000000000B26A0097
:1002D000000000000000000000000000003FF000EF
:1002E00000003000000000000000000000000000DE
:1002F00000000000000000000000000000000000FE
:100300000000000000254D002F706D000005AE00BC
:100310000C02D00000000000650054FFEF00000058
:10032000000000000001000044000000000C00007C
:10033000000100000000000065000000540000FF04
:10034000EF000000000000000000000000000000BE
:10035000000000400000000000000000000000005D
:10036000000000400000000000000000000000004D
:10037000000000000000010000000200000000007A
:10038000000000000000000000000000000000006D
:10039000000000000000000000000000000000005D
:1003A000000000001B000000000000000000000032
:1003B000000000000000000000000000000000003D
:1003C00000000000000000000000000000000040ED
:1003D000000000001B000000000000000000000002
:1003E000000000000000000000000000000000000D
:1003F00000000000000000000000000000000000FD
:1004000000000000000000000000000000000000EC
:10041000000000D8DCBAA2F1DEB2B8B4A88191F72E
:100420004A907F916AF3F9DBA8F9B0BAA080F2CEC6
:1004300081F3C2F1C1F2C3F3CCA2B280F1C6D8807D
:10044000BAA7DFDFDFF2A7C3CBC5B6F087A294243B
:1004500048703C95406834589B78A2F183922D55A2
:100460007DD8B1B4B8A1D09180F270F370F27C80E5
:10047000A8F101B09887D943D886C988BAA1F20EED
:10048000B89780F1A9DFDFDFAADFDFDFF2AAC5CDF1
:10049000C7A90CC92C97979797F1A989264666B0EA
:1004A000B4BA80ACDEF2CAF1B28C02A9B698008967
:1004B0000E161EB8A9B4992C547CB08AA89636564C
:1004C00076F1B9AFB4B083C0B8A89711B18F98B91D
:1004D000AFF0240844106418F1A329557DAF83B50B
:1004E00093AFF0002850F1A3869F61A6DADEDFD932
:1004F000FAA38696DB31A6D9F8DFBAA68FC2C5C7A4
:10050000B28CC1B8A2DFDFDFA3DFDFDFD8D8F1B85C
:10051000A8B286B4980D355DB8AA98B0872D353D40
:10052000B2B6BAAF8C96198F9FA70E161EB49AB8A2
:10053000AA872C547CB9A3DEDFDFA3B180F2C4CD3F
:10054000C9F1B8A9B499830D355D89B9A32D557D3D
:10055000B593A30E161EA92C547CB8B4B0F19783A2
:10056000A81184A50998A383F0DA2408441064181C
:10057000D8F1A529557DA58595021A2E3A565A40DF
:1005800048F9F3A3D9F8F098832408441064189725
:1005900082A8F111F098A2240844106418DAF3DE5E
:1005A000D883A59401D9A302F1A2C3C5C7D8F18409
:1005B00092A24DDA2AD84869D92AD86855DA32D8B1
:1005C0005071D932D8705DDA3AD85879D93AD8789A
:1005D00093A34DDA2AD84869D92AD86855DA32D88F
:1005E0005071D932D8705DDA3AD85879D93AD8787A
:1005F000A88A9AF02850789EF38818F19F1D98A831
:10060000D908D8C89F129EF315A8DA1210D8F1AFF6
:10061000C8978734B5B994A421F3D922D8F22DF321
:10062000D92AD8F235F3D932D881A4606061D96172
:10063000D86C6869D969D8747071D971D8B1A3843C
:10064000193D5DA3831A3E5E931030811011B8B03E
:10065000AF8F94F2DA3ED8B49AA88729DAF8D8870F
:100660009A35DAF8D8879A3DDAF8D8B1B9A49885DE
:10067000022E56A581000C14A397B08AF12DD9281B
:10068000D84DD948D86DD968D8B1840DDA0ED8A321
:100690002983DA2C0ED8A3844983DA2C4C0ED8B8DF
:1006A000B0A88A9AF520AADADFD8A840AAD0DADE64
:1006B000D8A860AADAD0DFD8F19786A8319B06992E
:1006C00007AB9728889BF00C201440B8B0B4A88CD6
:1006D0009CF0042851791D301438B282ABD0982C8C
:1006E000505078789BF11AB0F08A9CA82951798BE8
:1006F0002951798A2470598B2058718A4469388B22
:100700003940688A6448318B304960A58820097176
:10071000584468113964493019F1AC002C547CF00C
:100720008CA804285078F1889726A85998AC8C0298
:10073000264666F0899CA829517924705944693865
:10074000644831A98809205970AB11384069A8194B
:100750003148608CA83C415C207C00F18798198668
:10076000A86E767EA999882D557D9EB9A38A228A86
:100770006E8A568A5E9FB183062646660E2E4E6EA0
:100780009DB8AD002C547CF2B18CB499B9A32D5511
:100790007D8191AC38AD3AB58391AC2DD928D84D37
:1007A000D948D86DD968D88C9DAE29D904AED85116
:1007B000D904AED879D904D881F39DAD008DAE1996
:1007C00081ADD901D8F2AEDA26D88E912983A7D986
:1007D000ADADADADF32AD8D8F1B0AC89913E5E761F
:1007E000F3AC2E2EF1B18C5A9CAC2C2828289CAC52
:1007F0003018A8988128343C9724A728343C9C249E
:10080000F2B089AC912C4C6C8A9B2DD9D8D851D997
:10081000D8D879D9D8D8F19E88A331DAD8D8912DF3
:10082000D928D84DD948D86DD968D8B18393353DEA
:100830008025DAD8D88569DAD8D8B49381A328344A
:100840003CF3AB8BF8A391B609B4D9ABDEFAB08711
:100850009CB9A3DDF1A3A3A3A395F1A3A3A39DF149
:10086000A3A3A3A3F2A3B49080F2A3A3A3A3A3A3DF
:10087000A3A3A3A3B2A3A3A3A3A3A3B087B599F1F2
:10088000A3A3A398F1A3A3A3A397A3A3A3A3F39BB9
:10089000A3A3DCB9A7F1262626D8D8FF037B034CF7
:1008A000CD6C03AB0336567600680402CB47A20238
:1008B000180400058BC1010C0400000000037F0632
:1008C0000CC92C979797038903264666006C022073
:1008D0000002400400000000024404000000000286
:1008E000480400000000024C040000000002500414
:1008F0000000000002540400000000025804000040
:100900000000025C040000000002BC0400000000C3
:1009100001EC0400004000037F060CC92C97979758
:100920000402030D355D040904872D353D00A30144
:100930000000000001078601FE074105F120283074
:1009400038077E01300746019A074704F1283038FE
:10095000076C04F1283038021602000101B202FFD0
:10096000FF0190040923A135016A02060001600815
:1009700000000000000000000060044000000001D2
:10098000620200000060040040000000D731112422
:100990001FBECFEFD0E4DEBFCDBF15E1A0E0B1E0D8
:1009A000E4E1FEE700E00BBF02C007900D92A8381B
:1009B000B107D9F720E2A8E8B5E101C01D92A13442
:1009C000B207E1F719E0CEE8D9E000E006C02297CF
:1009D0000109FE010BBF0E94B33CCC38D10780E077
:1009E0000807A9F7E8D00C94083F0ACB10928500BD
:1009F000109284000895BC0180E090E00E94213AAA
:100A000020E030E04AE751E40E94E33B0E94F539E0
:100A10007093890060938800E9CF1092950010923E
:100A200094000895BC0180E090E00E94213A20E00B
:100A300030E04AE751E40E94E33B0E94F5397093AD
:100A4000990060939800E9CFE1E8F0E0808185604B
:100A50008083E1E9F0E080818560808388EE93E027
:100A6000CADF88EE93E0DEDFEFE6F0E080818260AF
:100A70008083E1E7F0E080818260808310928500CE
:100A80001092840010929500109294000895109294
:100A90008815C8DF80918815811106C00E946531D4
:100AA000809188158823D1F308951F920F920FB675
:100AB0000F9211248F9381E08093881510929500F6
:100AC000109294008F910F900FBE0F901F90189569
:100AD000FC019081915084812281821B8923089599
:100AE0001F93CF93DF93EC01162FF2DF288139811A
:100AF0002150310990E08217930769F08C819D8124
:100B0000FE01E80FF91F16830196282339233D8340
:100B10002C8380E001C081E0DF91CF911F91089587
:100B20000F931F93CF93DF93EC018B01D1DF8823C9
:100B3000A1F0EA81FB81EC0FFD1F8681F801808323
:100B400028813981215031098A819B810196822334
:100B500093239B838A8380E001C081E0DF91CF9162
:100B60001F910F9108951F920F920FB60F921124AB
:100B70008F9380910601811105C081E08093060169
:100B80008093891510928500109284008F910F90A8
:100B90000FBE0F901F90189580EA9FE078DF80EAE3
:100BA0009FE075DF80EA9FE072DF80EA9FE06FDF01
:100BB00080EA9FE06CCF87B1806C87B978940E94FF
:100BC00063350E942D310E94AD333EDFA0D08EEF01
:100BD0000E94CD338AE090E05ADF0E945E1CDCDF89
:100BE00081E595E10E943C368EEF0E94CD33FEDE1A
:100BF00088EB9BE000DF00E20E9465310E944735F0
:100C0000882341F00E944435C82F0E9451356C2F33
:100C10000E94A51D0E943435D82F0E943A35C82F56
:100C20000E943F35182FC11122C0D23361F515C083
:100C300082E390E02CDF8BB180278BB9F8940E947F
:100C40008636789480918915813021F41092891527
:100C50000E945E1C0E94DA37CFCF40E050E062E392
:100C600070E090E00E94C9161111ECCFE1CF109214
:100C70000601BCDE4C2F50E06D2F70E0812F90E01C
:100C80000E94C916DFCF10920601B0DE4C2F50E053
:100C90006D2F70E0812F90E00E94C916D3CFCF93C3
:100CA000DF93EC0182E799EFAFE0BEE388AB99AB4D
:100CB000AAABBBAB40E050E060EF7FE34CA75DA781
:100CC0006EA77FA718A619A61AA61BA68CAF9DAF64
:100CD000AEAFBFAF48AF59AF6AAF7BAF1CAA1DAA7A
:100CE0001EAA1FAA0E94B1246C8B7D8B8E8B9F8BBA
:100CF0000E94BE24688F798F8A8F9B8F0E94CB249D
:100D0000688B798B8A8B9B8BDF91CF910895AF9203
:100D1000BF92CF92DF92EF92FF920F931F93CF93E8
:100D2000DF9380E090E8ABEBB4E48093C61590933A
:100D3000C715A093C815B093C915CCE2D1E0D093E4
:100D40005419C093531980E090E0A0EAB0E4809376
:100D50004F1990935019A0935119B093521980E0F4
:100D600090E0ACE5B2E480938A1590938B15A09344
:100D70008C15B0938D150E9497246B017C010E9405
:100D800097249B01AC01C701B6010E94E33BA62E4C
:100D9000B72E082F192F0E94A4246B017C010E94FA
:100DA000A4249B01AC01C701B6010E94E33B9B0157
:100DB000AC016A2D7B2D802F912F0E94A4380E94B8
:100DC000503C60938E1570938F158093901590937F
:100DD000911580E090E0A0EFB2EC8093B215909373
:100DE000B315A093B415B093B5158CE998E157DF0E
:100DF0008EE098E154DF80E897E151DF82EF96E1E1
:100E00004EDF84E696E14BDF86ED95E148DF40E07A
:100E100050E060E87FE34093A0185093A1186093DE
:100E2000A2187093A31880E090E0A0E8BFEB809335
:100E3000121890931318A0931418B0931518409398
:100E40008417509385176093861770938717809344
:100E5000F6169093F716A093F816B093F9164093F0
:100E600068165093691660936A1670936B16809398
:100E7000DA159093DB15A093DC15B093DD15409344
:100E80009C1850939D1860939E1870939F184093E0
:100E90000E1850930F186093101870931118409308
:100EA00080175093811760938217709383178093F4
:100EB000F2169093F316A093F416B093F516809360
:100EC000641690936516A0936616B0936716809388
:100ED000D6159093D715A093D815B093D9158AE05D
:100EE00090E09093F9188093F8188CE090E090933C
:100EF000F7188093F61888E090E09093F5188093A7
:100F0000F4188BED91E09093FB188093FA1880E928
:100F100091E09093FD188093FC1880E190E090930D
:100F20006B1880936A1882E190E09093691880931F
:100F300068188EE090E090936718809366188AEFA7
:100F400090E090936D1880936C1821EE30E0309310
:100F50006F1820936E1824E030E03093DD17209353
:100F6000DC1726E030E03093DB172093DA1722E01D
:100F700030E03093D9172093D81728EC30E0309325
:100F8000DF172093DE173093E1172093E01723E05B
:100F900030E030934F1720934E1725E030E0309328
:100FA0004D1720934C1721E030E030934B172093DE
:100FB0004A17D0935117C0935017D0935317C0932B
:100FC00052172FE030E03093C1162093C01621E174
:100FD00030E03093BF162093BE162DE030E0309302
:100FE000BD162093BC169093C3168093C21690939F
:100FF000C5168093C41689E090E0909333168093D1
:1010000032168BE090E0909331168093301687E093
:1010100090E090932F1680932E1684EF91E090939A
:1010200035168093341689EA91E0909337168093B1
:101030003616DF91CF911F910F91FF90EF90DF90C7
:10104000CF90BF90AF900895CF93DF93EC01FC0158
:10105000E45AFF4F80810E94DD330E94EC34FE0190
:10106000EC59FF4F918380830E94F634FE01E059D2
:10107000FF4F918380830E94F134FE01E659FF4FB8
:10108000918380830E94FB34FE01E458FF4F8083EC
:1010900011820E94FE34FE01EA58FF4F80831182C4
:1010A000FE01E65AFF4F80810E94DD330E94EC343E
:1010B000FE01EA59FF4F918380830E94F634FE01BE
:1010C000EE58FF4F918380830E94F134FE01E45972
:1010D000FF4F918380830E94FB34FE01E258FF4F53
:1010E000808311820E94FE34FE01E858FF4F808306
:1010F0001182FE01E85AFF4F80810E94DD330E9479
:10110000EC34FE01E859FF4F918380830E94F6344E
:10111000FE01EC58FF4F918380830E94F134FE0161
:10112000E259FF4F918380830E94FB34FE01E05817
:10113000FF4F808311820E94FE34C658DF4F8883A0
:101140001982DF91CF910895FC0184899589A68940
:10115000B789848F958FA68FB78F808D918DA28D43
:10116000B38D80A391A3A2A3B3A344AD55AD66AD47
:1011700077AD40AB51AB62AB73AB40AD51AD62AD3F
:1011800073AD44A755A766A777A744A955A966A933
:1011900077A940A751A762A773A708956F927F927E
:1011A0008F929F92AF92BF920F931F93CF93DF9333
:1011B000EC0120918A1530918B1540918C1550913E
:1011C0008D156C817D818E819F810E94E33B2091F2
:1011D0009A1530919B1540919C1550919D150E9438
:1011E0008839662E772E082F192F809092159090AF
:1011F0009315A0909415B09095152091A21530915B
:10120000A3154091A4155091A515688579858A8507
:101210009B850E94A4389B01AC01662D772D802F01
:10122000912F0E94E33BA50194010E94E33B609350
:101230002E1970932F1980933019909331192091A2
:101240009E1530919F154091A0155091A1156C8568
:101250007D858E859F850E94A4389B01AC01662DFB
:10126000772D802F912F0E94E33B9B01AC01C5019C
:10127000B4010E94E33B60932A1970932B19809369
:101280002C1990932D19DF91CF911F910F91BF9041
:10129000AF909F908F907F906F900895EF92FF9204
:1012A0000F931F93CF93DF93EC01E888F9880A89A5
:1012B0001B89288D398D4A8D5B8D6C897D898E893E
:1012C0009F890E94D824288D398D4A8D5B8D6C8929
:1012D0007D898E899F890E9439256CAB7DAB8EAB51
:1012E0009FAB0E945C2568AF79AF8AAF9BAF6889DE
:1012F00079898A899B890E9491256CAF7DAF8EAFD9
:101300009FAFDF91CF911F910F91FF90EF900895C4
:101310008091CC189091CD18A091CE18B091CF1893
:101320008093F0189093F118A093F218B093F318EB
:101330008091C8189091C918A091CA18B091CB1883
:101340008093EC189093ED18A093EE18B093EF18DB
:101350008091C4189091C518A091C618B091C71873
:101360008093E8189093E918A093EA18B093EB18CB
:1013700080913E1890913F18A0914018B09141186B
:101380008093621890936318A0936418B0936518C3
:1013900080913A1890913B18A0913C18B0913D185B
:1013A00080935E1890935F18A0936018B0936118B3
:1013B0008091361890913718A0913818B09139184B
:1013C00080935A1890935B18A0935C18B0935D18A3
:1013D0008091B0179091B117A091B217B091B31747
:1013E0008093D4179093D517A093D617B093D7179F
:1013F0008091AC179091AD17A091AE17B091AF1737
:101400008093D0179093D117A093D217B093D3178E
:101410008091A8179091A917A091AA17B091AB1726
:101420008093CC179093CD17A093CE17B093CF177E
:101430008091221790912317A0912417B09125171E
:101440008093461790934717A0934817B093491776
:1014500080911E1790911F17A0912017B09121170E
:101460008093421790934317A0934417B093451766
:1014700080911A1790911B17A0911C17B0911D17FE
:1014800080933E1790933F17A0934017B093411756
:101490008091941690919516A0919616B0919716FA
:1014A0008093B8169093B916A093BA16B093BB1652
:1014B0008091901690919116A0919216B0919316EA
:1014C0008093B4169093B516A093B616B093B71642
:1014D00080918C1690918D16A0918E16B0918F16DA
:1014E0008093B0169093B116A093B216B093B31632
:1014F0008091061690910716A0910816B0910916D2
:1015000080932A1690932B16A0932C16B0932D1629
:101510008091021690910316A0910416B0910516C1
:101520008093261690932716A0932816B093291619
:101530008091FE159091FF15A0910016B0910116B3
:101540008093221690932316A0932416B093251609
:1015500008954F925F926F927F928F929F92AF9277
:10156000BF92CF92DF92EF92FF920F931F93CF9390
:10157000DF93EC016A017B0120E030E040E85FE3AB
:101580006C817D818E819F810E948139811145C04E
:1015900020E030E040E85FE360914F19709150190E
:1015A00080915119909152190E94A438A701960177
:1015B0000E948139882389F1FE01EE59FF4F808115
:1015C00091810297B9F420E030E040EF51E460915E
:1015D0003F197091401980914119909142190E94D0
:1015E000A4386093B6157093B7158093B81590938F
:1015F000B9151FC020E030E040EF51E468897989D7
:101600008A899B890E94A4386093B6157093B71598
:101610008093B8159093B9150CC088899989AA89C7
:10162000BB898093B6159093B715A093B815B09366
:10163000B91520E030E0A901C701B6010E94813947
:10164000882309F489C080904F1990905019A09078
:101650005119B090521920E030E040E85FE3C50135
:10166000B4010E94A438A70196010E948139882301
:1016700009F486C0FE01E05CFF4FDE01A45BBF4FB2
:101680008D919D910D90BC91A02D80839183A2831B
:10169000B383FE01EC5BFF4FDE01A05BBF4F8D917A
:1016A0009D910D90BC91A02D80839183A283B383E3
:1016B000FE01E85BFF4FDE01AC5ABF4F8D919D915B
:1016C0000D90BC91A02D80839183A283B3834C8C19
:1016D0005D8C6E8C7F8CA30192016C897D898E89D3
:1016E0009F890E94A338A70196010E94E33BA501B0
:1016F00094010E9488399B01AC01C301B2010E9490
:10170000A4386093BE157093BF158093C015909355
:10171000C11548A059A06AA07BA0A3019201688DC1
:10172000798D8A8D9B8D0E94A338A70196010E9416
:10173000E33BA50194010E9488399B01AC01C301E0
:10174000B2010E94A4386093BA157093BB158093C0
:10175000BC159093BD154AC020E030E040E85FE33F
:1017600060914F19709150198091511990915219AF
:101770000E94A438A70196010E94813981111EC0E0
:101780008C899D89AE89BF898093BE159093BF15C2
:10179000A093C015B093C115888D998DAA8DBB8D6E
:1017A0008093BA159093BB15A093BC15B093BD154B
:1017B000FE01EE59FF4F1182108218C08C8D9D8D55
:1017C000AE8DBF8D8093BE159093BF15A093C015AD
:1017D000B093C11588A199A1AAA1BBA18093BA1504
:1017E0009093BB15A093BC15B093BD15E090B615B2
:1017F000F090B7150091B8151091B9152091BA1550
:101800003091BB154091BC155091BD156091BE152E
:101810007091BF158091C0159091C1150E94D82478
:101820002091BA153091BB154091BC155091BD1552
:101830006091BE157091BF158091C0159091C11532
:101840000E9439256E012CE4C20ED11CF601608382
:101850007183828393830E945C257E01F0E5EF0E05
:10186000F11CF70160837183828393836091B615C5
:101870007091B7158091B8159091B9150E94912576
:10188000FE01EC5AFF4F608371838283938348800B
:1018900059806A807B802EED34E246E05EE30E9450
:1018A000A4389B01AC01C301B2010E94E33B862E28
:1018B000972EA82EB92EFE01EE57FF4F862F992D99
:1018C000AA2DBB2D80839183A283B3838E010A57F7
:1018D0001F4FF70120813181428153816BE37FEDFE
:1018E0008FE09FE30E94A3389B01AC01C301B201CA
:1018F0000E94E33BF80160837183828393837E01BE
:10190000FAE8EF0EF11CF60180819181A281B3818A
:10191000F70180839183A283B383209107013091E3
:101920000801FE01E45AFF4F482D592D6A2D7B2DE9
:1019300080810E9422332091070130910801F80133
:101940004081518162817381FE01E65AFF4F80819F
:101950000E9422332091070130910801F701408154
:10196000518162817381C85ADF4F88810E9422337E
:10197000DF91CF911F910F91FF90EF90DF90CF906B
:10198000BF90AF909F908F907F906F905F904F909F
:1019900008954F925F926F927F928F929F92AF9233
:1019A000BF92CF92DF92EF92FF920F931F93CF934C
:1019B000DF93EC0120E030E040E251E4688979896E
:1019C0008A899B890E94A338E62EF72E082F192FAB
:1019D000562F862F9F2DA02FB12F888B998BAA8BE6
:1019E000BB8B452F5F2D6A2F7B2F4093B6155093ED
:1019F000B7156093B8157093B91520E030E040EA50
:101A000050E46C897D898E899F890E94A338E62FD6
:101A1000F72F462F572F682F792F4C8B5D8B6E8BAE
:101A20007F8B4093BE155093BF156093C015709384
:101A3000C115288D398D4A8D5B8D2093BA15309351
:101A4000BB154093BC155093BD156E2F7F2F0E9480
:101A5000D8242091BA153091BB154091BC155091F6
:101A6000BD156091BE157091BF158091C015909104
:101A7000C1150E9439256E012CE4C20ED11CF6015D
:101A800060837183828393830E945C257E01F0E5ED
:101A9000EF0EF11CF7016083718382839383609161
:101AA000B6157091B7158091B8159091B9150E942F
:101AB0009125FE01EC5AFF4F6083718382839383EB
:101AC000488059806A807B802EED34E246E05EE3F8
:101AD0000E94A4389B01AC01C301B2010E94E33B08
:101AE000862E972EA82EB92EFE01EE57FF4F862F79
:101AF000992DAA2DBB2D80839183A283B3838E0160
:101B00000A571F4FF70120813181428153816BE3D6
:101B10007FED8FE09FE30E94A3389B01AC01C301DE
:101B2000B2010E94E33BF801608371838283938357
:101B30007E01FAE8EF0EF11CF60180819181A2810D
:101B4000B381F70180839183A283B383209107013E
:101B500030910801FE01E45AFF4F482D592D6A2D9E
:101B60007B2D80810E942233209107013091080152
:101B7000F8014081518162817381FE01E65AFF4F75
:101B800080810E9422332091070130910801F701E2
:101B90004081518162817381C85ADF4F88810E94E0
:101BA0002233DF91CF911F910F91FF90EF90DF9043
:101BB000CF90BF90AF909F908F907F906F905F90ED
:101BC0004F9008956F927F928F929F92AF92BF92A3
:101BD000CF92DF92EF92FF920F931F93CF93DF93F9
:101BE000EC0132DA0E9465310E94223120913719CE
:101BF000309138194091391950913A190E94A338FF
:101C00009F772AE037ED43EA5CE30E94D83B181641
:101C100074F10E9417312091331930913419409199
:101C20003519509136190E94A3389F772AE037ED75
:101C300043EA5CE30E94D83B1816CCF020E030E089
:101C400040E251E460913B1970913C1980913D193B
:101C500090913E190E94A3389B01AC016889798953
:101C60008A899B890E94813988230CF04BC1C090DE
:101C70003B19D0903C19E0903D19F0903E1920E0BE
:101C800030E040E251E4C701B6010E94A3389B0155
:101C9000AC01688979898A899B890E94D83B88230D
:101CA00074F120E030E040E752E4C701B6010E9441
:101CB000A438262F372F462F572F682F792F409380
:101CC0003F19509340196093411970934219409302
:101CD000B6155093B7156093B8157093B915FE01FA
:101CE000EE59FF4F11821082582F492F822F932FC8
:101CF000A52FB42F888B998BAA8BBB8B11C0C09258
:101D0000B615D092B715E092B815F092B915C88AF9
:101D1000D98AEA8AFB8AFE01EE59FF4F11821082AE
:101D20006C897D898E899F896093BE157093BF15DC
:101D30008093C0159093C115288D398D4A8D5B8D88
:101D40002093BA153093BB154093BC155093BD1525
:101D5000E090B615F090B7150091B8151091B9152F
:101D60000E94D8240E945C256E0120E5C20ED11C81
:101D7000F60160837183828393836091B6157091BD
:101D8000B7158091B8159091B9150E949125FE0163
:101D9000EC5AFF4F6083718382839383888099809C
:101DA000AA80BB802EED34E246E05EE30E94A438B8
:101DB0009B01AC01C501B4010E94E33B662E772E66
:101DC000082F192FFE01EE57FF4F982F462D572D44
:101DD000692F712F40835183628373837E01F6E8FC
:101DE000EF0EF11CF60120813181428153816BE3BA
:101DF0007FED8FE09FE30E94A3389B01AC01C501FA
:101E0000B4010E94E33BF701608371838283938373
:101E1000FE01E45AFF4F24E630E0462D572D602F97
:101E2000712F80810E942233F701408151816281AC
:101E30007381FE01E65AFF4F24E630E080810E9464
:101E400022330E949F3384E690E00E944705C85ADF
:101E5000DF4F888199818730910509F448C03CF4AF
:101E60008130910571F1029709F052C01FC08D3089
:101E7000910591F18E30910571F0089709F048C0F5
:101E80006091B6157091B7158091B8159091B915FC
:101E90000E94F7223DC06091B6157091B7158091F0
:101EA000B8159091B9150E94472332C06091B615BC
:101EB0007091B7158091B8159091B9150E946D2356
:101EC00027C06091B6157091B7158091B8159091A3
:101ED000B9150E94B7231CC06091B6157091B71553
:101EE0008091B8159091B9150E940B2411C0609192
:101EF000B6157091B7158091B8159091B9150E94DB
:101F0000302406C081E090E09093C3158093C21501
:101F1000DF91CF911F910F91FF90EF90DF90CF90C5
:101F2000BF90AF909F908F907F906F9008952F9269
:101F30003F924F925F926F927F928F929F92AF9259
:101F4000BF92CF92DF92EF92FF920F931F93CF93A6
:101F5000DF93CDB7DEB764970FB6F894DEBF0FBE40
:101F6000CDBF1C016A017B0120914B1930914C19A6
:101F700040914D1950914E1960913B1970913C1947
:101F800080913D1990913E190E94A43820E030E0E4
:101F900040EF51E40E94A438062F172F8C8B9B8BA7
:101FA000382F292F862F912FA32FB22F8093B6156C
:101FB0009093B715A093B815B093B91520E030E011
:101FC00040E85FE3D10114966D917D918D919C91D4
:101FD00017970E9481398111C7C020E030E0A90124
:101FE000C701B6010E9481398111BEC0F101648927
:101FF0007589868997896093BE157093BF15809304
:10200000C0159093C115208D318D428D538D209335
:10201000BA153093BB154093BC155093BD15FC8980
:10202000EB89E02EF12E0F2F1E2F0E94D824209135
:10203000BA153091BB154091BC155091BD156091FA
:10204000BE157091BF158091C0159091C1150E9469
:1020500039258101045B1F4FD8016D937D938D93CA
:102060009C9313970E945C257101B0E5EB0EF11C67
:10207000F70160837183828393836091B6157091B9
:10208000B7158091B8159091B9150E949125F1016D
:10209000EC5AFF4F6083718382839383D1018D90CB
:1020A0009D90AD90BC902EED34E246E05EE30E9440
:1020B000A4389B01AC01C501B4010E94E33B662E2C
:1020C000772EC82ED92EF101EE57FF4F862F972D70
:1020D000AC2DBD2D80839183A283B3832101B6E80B
:1020E0004B0E511CF70120813181428153816BE3FA
:1020F0007FED8FE09FE30E94A3389B01AC01C501F7
:10210000B4010E94E33BD2016D937D938D939C9328
:102110001397910126573F4FF80180819181A28149
:10212000B381F90180839183A283B383F101E45ADF
:10213000FF4F28EC30E0462D572D6C2D7D2D8081F2
:102140000E94A532D2014D915D916D917C91F1017A
:10215000E65AFF4F28EC30E080810E94A53288ECDF
:1021600090E00E9447059EC180904F1990905019B1
:10217000A0905119B090521920E030E040E85FE3A0
:10218000C501B4010E94A438A70196010E948139BB
:10219000882309F487C1F101E05CFF4FF887EF83E2
:1021A000C101845B9F4F9E838D83FC01808191815F
:1021B000A281B381EF81F88580839183A283B38369
:1021C000C1018C5B9F4F9A878987D101A05BBF4F6C
:1021D000BA83A9838D919D910D90BC91A02DE98525
:1021E000FA8580839183A283B383C101885B9F4F6B
:1021F0009C878B87D101AC5ABF4FBE87AD878D912D
:102200009D910D90BC91A02DEB85FC8580839183E1
:10221000A283B383D1015C964D905D906D907C90CC
:102220005F97A301920154966D917D918D919C9140
:1022300057970E94A338A70196010E94E33BA5018E
:1022400094010E9488399B01AC01C301B2010E9434
:10225000A4386F87788B898B9A8B472F382F292F3B
:10226000862F942FA32FB22F8093BE159093BF1566
:10227000A093C015B093C115F10140A051A062A078
:1022800073A0A3019201608D718D828D938D0E9448
:10229000A338A70196010E94E33BA50194010E9487
:1022A00088399B01AC01C301B2010E94A438262FDA
:1022B000372F462F572F682F792F4093BA155093F9
:1022C000BB156093BC157093BD155C894B89E02EDE
:1022D000F12E052F142F482F592FBF85A889E98982
:1022E000DA886B2F7A2F8E2F9D2D0E94D824209173
:1022F000BA153091BB154091BC155091BD15609138
:10230000BE157091BF158091C0159091C1150E94A6
:102310003925AD81BE816D937D938D939C931397E9
:102320000E945C25E981FA816083718382839383B3
:102330006091B6157091B7158091B8159091B91547
:102340000E9491254B015C01AD85BE856D937D9307
:102350008D939C9313974090C6155090C71560902D
:10236000C8157090C9159B01AC01EB85FC85608197
:102370007181828193810E94A3389F77A30192018A
:102380000E94E33B6093D2157093D3158093D415CC
:102390009093D515A981BA818D919D910D90BC9195
:1023A000A02D89839A83AB83BC839C01AD01E98511
:1023B000FA8560817181828193810E94A3389B019B
:1023C000AC015F77C301B2010E94E33B6093CE157D
:1023D0007093CF158093D0159093D115AD81BE81A8
:1023E000CD90DD90ED90FC90A7019601EF81F885EE
:1023F00060817181828193810E94A3389B01AC012D
:102400005F77C301B2010E94E33B6093CA157093EA
:10241000CB158093CC159093CD15D1014D905D9047
:102420006D907C9081010E571F4F2EED34E246E0F7
:102430005EE3C501B4010E94A4389B01AC01C30155
:10244000B2010E94E33BF80160837183828393832E
:1024500081010A571F4F29813A814B815C816BE3CF
:102460007FED8FE09FE30E94A3389B01AC01C30185
:10247000B2010E94E33BD8016D937D938D939C93B1
:102480001397F101E657FF4FC082D182E282F382B7
:10249000F101E85AFF4F28EC30E0B701A601808136
:1024A0000E94223364960FB6F894DEBF0FBECDBFF4
:1024B000DF91CF911F910F91FF90EF90DF90CF9020
:1024C000BF90AF909F908F907F906F905F904F9054
:1024D0003F902F9008956093AC187093AD1880933F
:1024E000AE189093AF1860931E1870931F188093C6
:1024F00020189093211860939017709391178093F0
:102500009217909393176093021770930317809319
:102510000417909305176093741670937516809343
:102520007616909377166093E6157093E71580936F
:10253000E8159093E9150C9479242F923F924F92CD
:102540005F926F927F928F929F92AF92BF92CF9243
:10255000DF92EF92FF920F931F93CF93DF930E942E
:10256000880960914F19709150198091511990917B
:1025700052190E94F0396F5F7F4F0AF4FAC0C0E031
:10258000D0E00F2EFEEFAF2EF8E1BF2EF02D0F2E74
:10259000F0E7CF2EF8E1DF2EF02D0F2EF2EEEF2E2A
:1025A000F7E1FF2EF02D04E517E10F2EF6EC8F2E4C
:1025B000F6E19F2EF02D0F2EF8E36F2EF6E17F2E21
:1025C000F02DF50180819181019769F4BE01882782
:1025D00077FD8095982F0E94233AAB01BC018CE9CE
:1025E00098E1A5DC0DC0BE01882777FD8095982F66
:1025F0000E94233AAB01BC018CE998E10E94A90A30
:10260000F60180819181019769F4BE01882777FDE9
:102610008095982F0E94233AAB01BC018EE098E18F
:1026200086DC0DC0BE01882777FD8095982F0E941B
:10263000233AAB01BC018EE098E10E94A90AF701A0
:1026400080819181019769F4BE01882777FD80958B
:10265000982F0E94233AAB01BC0180E897E167DC28
:102660000DC0BE01882777FD8095982F0E94233AE0
:10267000AB01BC0180E897E10E94A90AF8018081C2
:102680009181019769F4BE01882777FD8095982F85
:102690000E94233AAB01BC0182EF96E148DC0DC0F9
:1026A000BE01882777FD8095982F0E94233AAB01C1
:1026B000BC0182EF96E10E94A90AF4018081918118
:1026C000019769F4BE01882777FD8095982F0E94B5
:1026D000233AAB01BC0184E696E129DC0DC0BE01C2
:1026E000882777FD8095982F0E94233AAB01BC0183
:1026F00084E696E10E94A90AF30180819181019705
:1027000069F4BE01882777FD8095982F0E94233AAF
:10271000AB01BC0186ED95E10ADC0DC0BE01882746
:1027200077FD8095982F0E94233AAB01BC0186ED7E
:1027300095E10E94A90A0E949F3389E190E00E94DE
:1027400047050E940638882319F00E945635C3DEDB
:10275000219660914F197091501980915119909163
:1027600052190E94F0396F5F7F4F6C177D070CF094
:1027700028CF8091C4159091C515892B09F4F6C214
:102780008CE291E00E9447050E94653198B180E497
:10279000892788B90F2EF0EAAF2EF8E1BF2EF02D71
:1027A0000F2EFEEF6F2EF8E17F2EF02D0F2EF2E1AF
:1027B000CF2EF8E1DF2EF02D0F2EF0E74F2EF8E1AF
:1027C0005F2EF02D0F2EF4E8EF2EF7E1FF2EF02D07
:1027D0000F2EF2EE2F2EF7E13F2EF02D06EF16E131
:1027E000C8E6D6E10F2EFAED8F2EF5E19F2EF02DE3
:1027F0001092C3151092C21520E030E040E85FE36C
:10280000F50160817181828193810E9481398111FA
:1028100008C0F30180819181019719F48CE998E156
:10282000B8D820E030E040E85FE3F60160817181D4
:10283000828193810E948139811108C0F2018081D7
:102840009181019719F48EE098E1A3D820E030E05F
:1028500040E85FE3F70160817181828193810E948A
:102860008139811108C0F10180819181019719F4AA
:1028700080E897E18ED820E030E040E85FE3F8019F
:1028800060817181828193810E948139811109C0A7
:10289000E4E5F7E180819181019719F482EF96E1F7
:1028A00078D820E030E040E85FE3688179818A8170
:1028B0009B810E948139811109C0E6ECF6E180819B
:1028C0009181019719F484E696E163D820E030E025
:1028D00040E85FE3F40160817181828193810E940D
:1028E0008139811109C0E8E3F6E180819181019786
:1028F00019F486ED95E14DD80E949F3384E690E06F
:102900000E94470520E030E040E85FE3F501608188
:102910007181828193810E948139811108C0F30104
:1029200080819181019719F48CE998E14BD920E0DD
:1029300030E040E85FE3F60160817181828193813C
:102940000E948139811108C0F20180819181019733
:1029500019F48EE098E136D920E030E040E85FE3FA
:10296000F70160817181828193810E948139811197
:1029700008C0F10180819181019719F480E897E105
:1029800021D920E030E040E85FE3F8016081718107
:10299000828193810E948139811109C0E4E5F7E1C8
:1029A00080819181019719F482EF96E10BD920E0A3
:1029B00030E040E85FE3688179818A819B810E94F1
:1029C0008139811109C0E6ECF6E18081918101979E
:1029D00019F484E696E1F6D820E030E040E85FE3C1
:1029E000F40160817181828193810E94813981111A
:1029F00009C0E8E3F6E180819181019719F486ED41
:102A000095E1E0D88091C2159091C315892B09F00A
:102A1000EFCEC0903B19D0903C19E0903D19F0905A
:102A20003E19A701960160919017709191178091BE
:102A30009217909193170E94D83B1816E4F52091B5
:102A40000217309103174091041750910517C701E1
:102A5000B6010E948139882374F520E030E040E41B
:102A600050E46091471970914819809149199091EB
:102A70004A190E9481398823F4F480E090E0A0E4B0
:102A8000B0E48093471990934819A0934919B093E3
:102A90004A1980E090E0A0E8BFE380934319909347
:102AA0004419A0934519B093461981E080933219D7
:102AB0000E94653177C020911E1830911F184091F7
:102AC000201850912118C701B6010E94813988232E
:102AD00074F52091741630917516409176165091C8
:102AE0007716C701B6010E948139882304F520E0DA
:102AF00030E040E450E460914719709148198091AA
:102B0000491990914A190E948139882384F480E000
:102B100090E0A0E0B0E48093471990934819A09307
:102B20004919B0934A1981E0809332193BC0209132
:102B3000AC183091AD184091AE185091AF18C70144
:102B4000B6010E94813988236CF52091E6153091F9
:102B5000E7154091E8155091E915C701B6010E94AB
:102B600081398823FCF420E030E040E450E46091B7
:102B70004719709148198091491990914A190E94FA
:102B8000813988237CF480E090E0A0E8BFE3809363
:102B9000471990934819A0934919B0934A1981E0B5
:102BA0008093321920E030E040EA51E460913B1913
:102BB00070913C1980913D1990913E190E94A43862
:102BC000062F172FD82FC92F762F272F312F4D2FB4
:102BD0005C2F6091AC187091AD188091AE189091F7
:102BE000AF180E948139882394F52091E615309121
:102BF000E7154091E8155091E915602F712F8D2F41
:102C00009C2F0E94D83B181614F520E030E040E8D5
:102C10005FE3609143197091441980914519909137
:102C200046190E948139811112C080E090E0A0E035
:102C3000B0E48093431990934419A0934519B0933D
:102C4000461981E0809332190E9465318FC020912E
:102C50001E1830911F184091201850912118602F94
:102C6000712F8D2F9C2F0E94D83B181694F5209120
:102C70007416309175164091761650917716602F24
:102C8000712F8D2F9C2F0E94D83B181614F520E031
:102C900030E040E050E46091431970914419809114
:102CA0004519909146190E948139811112C080E026
:102CB00090E0A0E4B0E48093431990934419A0936A
:102CC0004519B093461981E0809332190E9465310D
:102CD0004DC02091901730919117409192175091CB
:102CE0009317602F712F8D2F9C2F0E94D83B1816A1
:102CF000ECF5209102173091031740910417509181
:102D00000517602F712F8D2F9C2F0E94D83B18160E
:102D10006CF520E030E040E450E46091431970919C
:102D2000441980914519909146190E948139811169
:102D30001DC010924719109248191092491910920B
:102D40004A19109243191092441910924519109281
:102D500046191092C5151092C41588EC90E0909316
:102D600008018093070181E080933219DF91CF91B0
:102D70001F910F91FF90EF90DF90CF90BF90AF9099
:102D80009F908F907F906F905F904F903F902F908B
:102D900008952F923F924F925F926F927F928F92FF
:102DA0009F92AF92BF92CF92DF92EF92FF920F93DA
:102DB0001F93CF93DF93CDB7DEB766970FB6F89426
:102DC000DEBF0FBECDBF062F172FA42EB52E8A351E
:102DD000910510F080E090E0BC01882777FD809598
:102DE000982F0E94233A6093AE157093AF1580938D
:102DF000B0159093B115602F712F6536710514F0E1
:102E000064E670E0772314F460E070E0882777FDD3
:102E10008095982F0E94233A20E030E048E452E465
:102E20000E94883920E030E040E85FE30E94A33848
:102E3000C62ED72EE82EF92E982F0C2D1D2D292FBA
:102E40003F2D0093AA151093AB152093AC1530932A
:102E5000AD156A2D7B2D6536710514F064E670E0C2
:102E6000772314F460E070E0882777FD8095982F31
:102E70000E94233A6093A6157093A7158093A81516
:102E80009093A91520E030E0A9010E9481398111B9
:102E90000CC020E030E0A9016C2D7D2D8E2D9F2DE2
:102EA0000E948139882309F4F0C48CE998E10E94DA
:102EB000A4088EE098E10E94A40880E897E10E94AF
:102EC000A40882EF96E10E94A40884E696E10E949D
:102ED000A40886ED95E10E94A408E0EAF8E180816B
:102EE0009181A281B381B05880839183A283B383FF
:102EF000E2E1F8E180819181A281B381B0588083C1
:102F00009183A283B383E4E8F7E180819181A28178
:102F1000B381B05880839183A283B383E6EFF6E157
:102F200080819181A281B381B05880839183A283F3
:102F3000B383E8E6F6E180819181A281B381B05844
:102F400080839183A283B383EAEDF5E1808191814F
:102F5000A281B381B05880839183A283B3832BED88
:102F60003FE049E450E46091AE157091AF15809157
:102F7000B0159091B1150E94E33B20E030E044E3AE
:102F800052E40E948839062F172FA82EB92E0E94CE
:102F9000463CC090A615D090A715E090A815F090DB
:102FA000A9159058A70196010E94E33B20E030E06C
:102FB00048EC52E40E9488396093A2157093A315DF
:102FC0008093A4159093A515602F712F8A2D9B2DAA
:102FD0000E9485399B01AC01C701B6010E94E33B09
:102FE00020E030E048EC52E40E94883960939E155E
:102FF00070939F158093A0159093A1150E94A4240F
:103000000F2EF4EAEF2EF8E1FF2EF02D2091AA15F5
:103010003091AB154091AC155091AD150E94E33B3A
:1030200020918E1530918F154091901550919115EA
:103030000E948839F70160837183828393830E94A1
:1030400097248090AA159090AB15A090AC15B090E5
:10305000AD150F2EF8EA6F2EF8E17F2EF02DA501A9
:1030600094010E94E33B20918E1530918F15409181
:103070009015509191150E948839F30160837183F6
:103080008283938306E118E1F80110821182128293
:103090001382EAE1F8E180829182A282B3820E94E7
:1030A000A424905820918E1530918F154091901541
:1030B000509191150E9488392091AA153091AB1535
:1030C0004091AC155091AD150E94E33BE8E8F7E163
:1030D00060837183828393830E9497242091AA1531
:1030E0003091AB154091AC155091AD150E94E33B6A
:1030F00020918E1530918F1540919015509191151A
:103100000E948839ECE8F7E16083718382839383BE
:103110000E94A424905820918E1530918F154091D3
:103120009015509191150E9488392091AA153091DF
:10313000AB154091AC155091AD150E94E33BEAEF01
:10314000F6E160837183828393830E949724809049
:10315000AA159090AB15A090AC15B090AD159058F5
:1031600020918E1530918F154091901550919115A9
:103170000E948839A50194010E94E33BEEEFF6E13D
:103180006083718382839383ECE6F6E1108211827F
:1031900012821382B7FAB094B7F8B094E0E7F6E180
:1031A00080829182A282B3820E94A4242091AA15D7
:1031B0003091AB154091AC155091AD150E94E33B99
:1031C00020918E1530918F15409190155091911549
:1031D0000E948839EEEDF5E16083718382839383E9
:1031E0000E9497242091AA153091AB154091AC15FF
:1031F0005091AD152A873B874C875D879058209169
:103200008E1530918F1540919015509191150E9417
:1032100088392A853B854C855D850E94E33B6E8716
:103220007F87888B998B472F382F292F862F942FB4
:10323000A32FB22F8093E2159093E315A093E4158A
:10324000B093E5158090A2159090A315A090A415B9
:10325000B090A515F7012081318142815381C501CC
:10326000B4010E94A438262E372E89839D83C090F6
:103270009E15D0909F15E090A015F090A115F30138
:103280002081318142815381C701B6010E94A43857
:103290006E837A8B8B8B9C8BF801208131814281EC
:1032A0005381C501B4010E94A438462E572E682EC2
:1032B000792EEAE1F8E12081318142815381C70111
:1032C000B6010E94A438062F172F8E8B9D8B242DBC
:1032D000352D462D572D642D752D862D972D0E9449
:1032E000E33B2B013C019E898D89202F312F492FF3
:1032F000582F602F712F892F952F0E94E33B9B0140
:10330000AC01C301B2010E94A4382B013C01998198
:103310008D81222D332D492F582F622D732D892F0A
:10332000952F0E94E33B69837A838B839C837E8104
:103330006A899B898C89272F362F492F582F672F11
:10334000732F892F952F0E94E33B9B01AC0169816C
:103350007A818B819C810E94A438A30192010E94F2
:103360005E3A2B013C01E8E8F7E12081318142819E
:103370005381C501B4010E94A438262E372E082F90
:10338000192FECE8F7E12081318142815381C70197
:10339000B6010E94A4386B8B7A8B89839D83222D82
:1033A000332D402F512F622D732D802F912F0E948E
:1033B000E33B6E837F83888799877B896A899981BC
:1033C0008D81272F362F492F582F672F732F842F4A
:1033D000952F0E94E33B9B01AC016E817F81888524
:1033E00099850E94A4389B01AC01C301B2010E94DF
:1033F0005E3A2B013C01EAEFF6E120813181428106
:103400005381C501B4010E94A438262E372E082FFF
:10341000192FEEEFF6E12081318142815381C701FE
:10342000B6010E94A4386B8B7A8B89839D83222DF1
:10343000332D402F512F622D732D802F912F0E94FD
:10344000E33B6E837F83888799877B896A8999812B
:103450008D81272F362F492F582F672F732F842FB9
:10346000952F0E94E33B9B01AC016E817F81888593
:1034700099850E94A4389B01AC01C301B2010E944E
:103480005E3A2B013C01ECE6F6E12081318142817C
:103490005381C501B4010E94A438262E372E082F6F
:1034A000192FE0E7F6E12081318142815381C70184
:1034B000B6010E94A4386B8B7A8B89839D83222D61
:1034C000332D402F512F622D732D802F912F0E946D
:1034D000E33B6E837F83888799877B896A8999819B
:1034E0008D81272F362F492F582F672F732F842F29
:1034F000952F0E94E33B9B01AC016E817F81888503
:1035000099850E94A4389B01AC01C301B2010E94BD
:103510005E3A2B013C01EEEDF5E1208131814281E3
:103520005381C501B4010E94A438062F172FA82E7D
:10353000B92EA7019601BE85AF85F888E9886B2F63
:103540007A2F8F2D9E2D0E94A438262F372F482F9B
:10355000592F0E94E33B6B017C01202F312F4A2D14
:103560005B2D602F712F8A2D9B2D0E94E33B9B01C9
:10357000AC01C701B6010E94A438262F372F462F71
:10358000572F682F792F4093961550939715609376
:10359000981570939915482F592FC301B2010E94B5
:1035A0005E3A0E94503C60939A1570939B158093ED
:1035B0009C1590939D15CA84DB84EC84FD84E8946B
:1035C000F7F820E030E048EC52E46091A6157091E5
:1035D000A7158091A8159091A9150E948839A70177
:1035E00096010E945E3A60939215709393158093B2
:1035F0009415909395158CE998E10E94CE0820913E
:103600002A1930912B1940912C1950912D19609144
:103610002E1970912F1980913019909131190E94B3
:10362000F2256093B0187093B1188093B2189093FC
:10363000B31820912A1930912B1940912C195091CF
:103640002D1960912E1970912F1980913019909138
:1036500031190E943B266093B4187093B51880937B
:10366000B6189093B7188CE998E10E944E098EE045
:1036700098E10E94CE0860912E1970912F198091C7
:103680003019909131190E9484266093221870930A
:103690002318809324189093251860912A1970910B
:1036A0002B1980912C1990912D190E949C266093C2
:1036B00026187093271880932818909329188EE065
:1036C00098E10E944E0980E897E10E94CE0820917F
:1036D0002A1930912B1940912C1950912D19609174
:1036E0002E1970912F1980913019909131190E94E3
:1036F000AE266093941770939517809396179093C6
:10370000971720912A1930912B1940912C1950911B
:103710002D1960912E1970912F1980913019909167
:1037200031190E94F7266093981770939917809328
:103730009A1790939B1780E897E10E944E0982EFB9
:1037400096E10E94CE0820912A1930912B194091C0
:103750002C1950912D1960912E1970912F1980916B
:103760003019909131190E94402760930617709389
:103770000717809308179093091720912A19309101
:103780002B1940912C1950912D1960912E1970917F
:103790002F1980913019909131190E9489276093D7
:1037A0000A1770930B1780930C1790930D1782EFE5
:1037B00096E10E944E0984E696E10E94CE0860914F
:1037C0002E1970912F1980913019909131190E9402
:1037D000D227609378167093791680937A16909317
:1037E0007B1660912A1970912B1980912C19909158
:1037F0002D190E94E22760937C1670937D168093AA
:103800007E1690937F1684E696E10E944E0986ED1F
:1038100095E10E94CE0820912A1930912B194091F0
:103820002C1950912D1960912E1970912F1980919A
:103830003019909131190E94EC276093EA1570932A
:10384000EB158093EC159093ED1520912A1930918A
:103850002B1940912C1950912D1960912E197091AE
:103860002F1980913019909131190E943528609359
:10387000EE157093EF158093F0159093F11586ED8A
:1038800095E10E944E090E949D1266960FB6F8942B
:10389000DEBF0FBECDBFDF91CF911F910F91FF9083
:1038A000EF90DF90CF90BF90AF909F908F907F90E0
:1038B0006F905F904F903F902F9008952F923F927E
:1038C0004F925F926F927F928F929F92AF92BF9230
:1038D000CF92DF92EF92FF920F931F93CF93DF93DC
:1038E0000E940638882321F00E9456350E946B12F0
:1038F0000F2EF0EACF2EF8E1DF2EF02D0F2E812CC7
:10390000912CF0E8AF2EFFEBBF2EF02DF601808258
:103910009182A282B3820F2EF2E1EF2EF8E1FF2E08
:10392000F02D0F2E412C512CF0E86F2EFFE37F2E4F
:10393000F02DF701408251826282738204E817E120
:10394000F80180829182A282B382C6EFD6E14882DA
:1039500059826A827B820F2EF8E62F2EF6E13F2EE7
:10396000F02DF10180829182A282B382EAEDF5E12D
:1039700040825182628273828CE998E10E94A4089D
:103980008EE098E10E94A40880E897E10E94A408D4
:1039900082EF96E10E94A40884E696E10E94A408C2
:1039A00086ED95E10E94A408DCD7609322187093FD
:1039B00023188093241890932518E0D76093261835
:1039C0007093271880932818909329188EE098E117
:1039D0000E944E09C6D7609306177093071780930D
:1039E000081790930917CAD760930A1770930B179B
:1039F00080930C1790930D1782EF96E10E944E0969
:103A0000B0D76093EA157093EB158093EC15909303
:103A1000ED15B4D76093EE157093EF158093F01504
:103A20009093F11586ED95E10E944E090E949D123A
:103A3000F6014082518262827382F7018082918214
:103A4000A282B382F80140825182628273828882AC
:103A50009982AA82BB82F101408251826282738282
:103A6000EAEDF5E180829182A282B3828CE998E14D
:103A70000E94A4088EE098E10E94A40880E897E1E3
:103A80000E94A40882EF96E10E94A40884E696E1D1
:103A90000E94A40886ED95E10E94A40862D7609375
:103AA000B0187093B1188093B2189093B31866D77A
:103AB0006093B4187093B5188093B6189093B718A4
:103AC0008CE998E10E944E094CD76093941770934B
:103AD0009517809396179093971750D760939817E0
:103AE0007093991780939A1790939B1780E897E1AA
:103AF0000E944E0936D7609378167093791680939A
:103B00007A1690937B163AD760937C1670937D1645
:103B100080937E1690937F1684E696E10E944E096C
:103B20000E949D12DF91CF911F910F91FF90EF9016
:103B3000DF90CF90BF90AF909F908F907F906F90CD
:103B40005F904F903F902F9008952F923F924F9209
:103B50005F926F927F928F929F92AF92BF92CF921D
:103B6000DF92EF92FF920F931F93CF93DF93CDB726
:103B7000DEB727970FB6F894DEBF0FBECDBF262E57
:103B8000BC0180E090E00E94213A2BED3FE049E447
:103B900050E40E94E33B20E030E044E353E40E9421
:103BA0008839462F572F682F792F4A835B836C8380
:103BB0007D838AE090E00E9447050E940C31362EFA
:103BC000472E582E998320E030E044E353E40E94CE
:103BD000E33B2BED3FE049E450E40E9488390E942A
:103BE0005D360E94F6048AE090E00E9447050E943C
:103BF0000C31062F172F682E792E8981232D342D15
:103C0000452D582F602F712F862D972D0E94A33898
:103C1000C62ED72EE82EF92E46015701E894B7F8A4
:103C20002BED3FE049E450E4C501B4010E94813925
:103C30001816CCF520E030E0A901C701B6010E94BA
:103C400081398823BCF488B190E4892788B92BEDA9
:103C50003FE049E450E4C701B6010E94843A2BEDED
:103C60003FE049E450E40E94A438862E972EA82E07
:103C7000B92E19C088B1805888B92BED3FE049E4CE
:103C800050E4C701B6010E94843A262F372F482FEF
:103C9000592F6BED7FE089E490E40E94A338862ED3
:103CA000972EA82EB92EA50194016A817B818C8163
:103CB0009D810E94A338C62ED72EE82EF92EC5016D
:103CC000B4019F772BED3FE049EC5FE30E94D83BC6
:103CD000882304F120E030E0A901C701B6010E9469
:103CE000813988237CF4D701C601B0588A839B832D
:103CF000AC83BD8321946C017D01302E412E562C66
:103D0000798208C0302E412E562C7982CA82DB82FD
:103D1000EC82FD82622C772467FC709498E2969D79
:103D2000B001979D700D1124882777FD8095982FFD
:103D30000E94233AA70196010E94E33B20E030E075
:103D400040EC50E40E94E33B2BED3FE049E450E4BB
:103D50000E94883920E030E048E452E40E94A43810
:103D6000062F172F8F839E83862E972EA82EB92E6F
:103D700020E030E044E352E40E94D83B181664F59A
:103D800020E030E04CE552E4602F712F8A2D9B2D0E
:103D90000E948139882304F5B301660F771F660FEF
:103DA000771F660D771D882777FD8095982F0E94D5
:103DB000233AA70196010E94E33BA70196015F7792
:103DC0000E94883920E030E048E452E40E94A438A0
:103DD000862E972EA82EB92E682D792D8A2D9B2DF3
:103DE0000E945D36682D792D8A2D9B2D0E94F03919
:103DF00040E050E080E090E00E94C916C701B601A3
:103E00009F7725E33AEF4EE85DE30E94D83B181612
:103E10000CF4E7CE0E94893627960FB6F894DEBFE1
:103E20000FBECDBFDF91CF911F910F91FF90EF900B
:103E3000DF90CF90BF90AF909F908F907F906F90CA
:103E40005F904F903F902F9008951F920F920FB662
:103E50000F9211242F933F938F939F93AF93BF9310
:103E60008091551990915619A0915719B0915819F0
:103E700030915D19232F2D5F2D3720F40196A11D60
:103E8000B11D05C0232F2A570296A11DB11D2093F5
:103E90005D198093551990935619A0935719B093B3
:103EA00058198091591990915A19A0915B19B091A4
:103EB0005C190196A11DB11D8093591990935A194F
:103EC000A0935B19B0935C19BF91AF919F918F91B3
:103ED0003F912F910F900FBE0F901F9018950F9349
:103EE0001F938FB7F894009155191091561920918E
:103EF0005719309158198FBF7894602F712F822FE6
:103F0000932F1F910F9108952AEF30E0ECEBF0E032
:103F1000808188231CF021503109D0F781E01216EE
:103F200013060CF080E008959C011092BC006623FB
:103F300021F08BB183608BB903C08BB18C7F8BB9BF
:103F40001092B900442737FD4095542F60E87EE376
:103F500080E090E00E94983CDA01C9014097A109F5
:103F6000B109AC01BD0122F44F5F5F4F6F4F7F4F2E
:103F7000DB01CA01B595A795979587958093B80001
:103F800084E08093BC000895AF92BF92CF92DF92FD
:103F9000EF92FF920F931F93CF93DF93B82EBB0C3A
:103FA0000F2EF3E0AF2EF02DCCEBD0E00F2EF4EB84
:103FB000DF2EF02D09EB10E00F2EFBEBEF2EF12C96
:103FC000F02D0F2EF4E8CF2EF02DD8829DDF882320
:103FD000B1F0F8019081987F983011F0903189F418
:103FE000F701B082C88290DF882369F0F8019081E0
:103FF000987F903261F4AA9441F784E00BC081E08D
:1040000009C082E007C083E005C080E003C09831AA
:10401000E1F384E0DF91CF911F910F91FF90EF903A
:10402000DF90CF90BF90AF9008958093BB0084E85D
:104030008093BC0069DF882339F08091B900887FC4
:10404000883221F082E0089581E0089580E00895AB
:1040500084E98093BC0058DF91E0811190E0892FC2
:1040600008952F923F924F925F926F927F928F921C
:104070009F92AF92BF92CF92EF92FF920F931F93B6
:10408000CF93DF93082F462EB42EA52EC22E0F2ECF
:10409000F3E05F2EF02DCCEBD0E00F2EF4EB9F2E53
:1040A000F02D0F2EF9EB2F2E312CF02D0F2EFEEFD1
:1040B0006F2EF02D68220F2EFBEBEF2EF12CF02D42
:1040C0000F2EF4E87F2EF02D98821EDF882309F44E
:1040D0009CC0F1019081987F983019F0903109F0DF
:1040E00096C0F701608278820FDF882309F491C0BF
:1040F000F1018081182F187F103209F09AC05A946C
:1041000019F713E19CC04092BB0084E88093BC0087
:10411000FBDE882309F47FC08091B900887F883254
:1041200009F07BC00F2EF3E09F2EF02D0F2EFCEB3D
:104130004F2E512CF02D0F2EF4EB6F2EF02DC9EBDE
:10414000D0E088248394802A0F2EFBEBEF2EF12CF5
:10415000F02D04E8F2016082D7DE882309F45FC005
:104160008881887F883019F0803109F05AC0F701C2
:104170008082F2010083C8DE882309F460C0888150
:10418000887F883409F058C09A9421F719E157C004
:10419000CC20C1F1CB2DDA2D212C312CEC2CF12CA3
:1041A000F1E0EF1AF1080F2EFCEB4F2E512CF02D01
:1041B0000F2EF4ECAF2EF02D04E80F2EF9EB6F2E3E
:1041C000712CF02D0F2EFBEB8F2E912CF02D2E1439
:1041D0003F0419F4F201008302C0F201A08294DED0
:1041E000882309F1F3018081182F187F103511F011
:1041F000183529F5F40180818993FFEF2F1A3F0AC2
:104200002C1428F325DF10E01AC010E118C011E1CA
:1042100016C012E114C014E112C015E110C016E17D
:104220000EC017E10CC01AE10AC013E108C019E181
:1042300006C01831D1F767CF8034C9F7A9CF812FD5
:10424000DF91CF911F910F91FF90EF90CF90BF9092
:10425000AF909F908F907F906F905F904F903F9026
:104260002F9008959F92AF92BF92CF92DF92EF92DC
:10427000FF920F931F93CF93DF93D82F962EC42FC7
:1042800059012DDE6B017C012C2FA501692D8D2F8D
:10429000880FE7DE811102C0DC2F01C0DFEF0115BE
:1042A0001105C9F01CDE9B01AC012C193D094E091A
:1042B0005F09C801A0E0B0E0281739074A075B078B
:1042C00050F02D2F332727FD30958C2F90E02817A5
:1042D00039070CF4DFEF8D2FDF91CF911F910F91F4
:1042E000FF90EF90DF90CF90BF90AF909F90089598
:1042F0000F931F9389019A0141E0B4DF1F910F9141
:104300000895CF92DF92EF92FF920F931F93CF9376
:10431000DF931F92CDB7DEB7C42ED22E9701AE0128
:104320004F5F5F4FE5DF882309F14C2D50E04D19B9
:1043300051094F5F5F4F61E070E09B0102C0220FA7
:10434000331FDA94E2F721503109042E02C0220F04
:10435000331F0A94E2F79981292330E0B90102C0A2
:10436000759567954A95E2F7F80160830F90DF91A4
:10437000CF911F910F91FF90EF90DF90CF90089514
:10438000DF92EF92FF920F931F93CF93DF931F92D1
:10439000CDB7DEB7D42E79019801AE014F5F5F4FE4
:1043A000A7DF21E030E0A90102C0440F551FDA94D5
:1043B000E2F799814923F70140830F90DF91CF9174
:1043C0001F910F91FF90EF90DF900895DF92EF9291
:1043D000FF920F931F93CF93DF93C62F042F790182
:1043E000D3DD8C2F22DE10E0000F111F10161106F6
:1043F000B4F4D12CCD2DD0E0CC0FDD1FCE0DDF1DC0
:10440000898113DE888111DEC82F811109C0D39400
:10441000D3942D2D30E02017310764F301C0C0E0A4
:1044200017DE81E0C11180E0DF91CF911F910F91E4
:10443000FF90EF90DF900895CF93DF9300D0CDB73A
:10444000DEB75A8349839E012F5F3F4F41E0BEDFB5
:104450000F900F90DF91CF910895FF920F931F93CC
:10446000CF93DF93C62F142FF22E032F8DDD8C2FC9
:10447000DCDD112371F0CF2DD02F1150CE01810F33
:10448000911D8C010F5F1F4F8991CFDDC017D107A0
:10449000D9F7DEDD81E0DF91CF911F910F91FF9081
:1044A0000895CF93DF931F92CDB7DEB749839E0166
:1044B0002F5F3F4F41E0D1DF0F90DF91CF91089503
:1044C000DF92EF92FF920F931F93CF93DF931F9290
:1044D000CDB7DEB7182FF62ED42EE22E209109018B
:1044E00030910A01AE014F5F5F4F02DF882319F15F
:1044F000ED2DF0E0EE19F1093196A1E0B0E09D015B
:1045000002C0220F331FEA94E2F7215031090E2E28
:1045100001C0220F0A94EAF701C0000FEA95EAF7FA
:10452000422F4095898148232023422B49836F2DB8
:10453000812FB7DF01C080E00F90DF91CF911F91F5
:104540000F91FF90EF90DF900895EF92FF920F93FD
:104550001F93CF93DF931F92CDB7DEB7182F062F8F
:10456000F42EE22E2091090130910A01AE014F5F35
:104570005F4FBEDEEE2059F021E030E0A90102C01D
:10458000440F551FFA94E2F78981482B0BC021E0B4
:1045900030E0A90102C0440F551FFA94E2F740959C
:1045A000898148234983602F812F7BDF0F90DF9122
:1045B000CF911F910F91FF90EF90089520910B01E3
:1045C00030910C0140910D0150910E010E94A338D1
:1045D00020E030E048EC52E40E94A43860930F01E0
:1045E0007093100180931101909312010895CF925E
:1045F000DF92EF92FF9220910B0130910C014091DC
:104600000D0150910E010E94A33820E030E040E0FF
:104610005FE30E94E33B20E030E040EF52E40E9481
:10462000A438C62ED72EE82EF92EC701B601905811
:1046300023EF34E045EB5FE30E94883926E636E657
:1046400047E752E40E94A338609337017093380122
:104650008093390190933A0123EF34E045EB5FE317
:10466000C701B6010E94883920E030E040EF52E4F3
:104670000E94A43860933301709334018093350114
:1046800090933601FF90EF90DF90CF9008952091A6
:104690000B0130910C0140910D0150910E010E94CF
:1046A000A33820E030E040E05FE30E94E33B20E0FD
:1046B00030E040EF52E40E94A438905820E030E00F
:1046C00048EC52E40E94A33860932F0170933001AC
:1046D000809331019093320108950F931F93CF93EC
:1046E000DF9320910B0130910C0140910D0150910D
:1046F0000E010E94A33820E030E040E05FE30E941A
:10470000E33B20E030E040EF52E40E94A4389058B0
:1047100023EF34E045EB5FE30E948839062F172F23
:10472000D82FC92F26E636E647E752E40E94A33881
:1047300060932B0170932C0180932D0190932E0197
:1047400020E030E040EF52E4602F712F8D2F9C2F3E
:104750000E94A33860932701709328018093290158
:1047600090932A01DF91CF911F910F910895CF92DD
:10477000DF92EF92FF9220910B0130910C0140915A
:104780000D0150910E010E94A33820E030E040E07E
:104790005FE30E94E33B20E030E040EF52E40E9400
:1047A000A438B62FA72F462F572F682F792F6A01CD
:1047B0007B0123EF34E045EB5FE36B2F7A2F0E9400
:1047C000883926E636E647E752E40E94A43860932B
:1047D0002301709324018093250190932601C70142
:1047E000B601905823EF34E045EB5FE30E9488392F
:1047F00020E030E040EF52E40E94A33860931F01B4
:10480000709320018093210190932201FF90EF90FB
:10481000DF90CF90089520910B0130910C014091D1
:104820000D0150910E010E94A33820E030E040E0DD
:104830005FE30E94E33B20E030E040EF52E40E945F
:10484000A43820E030E048EC52E40E94A4386093A1
:104850001B0170931C0180931D0190931E0108950C
:104860000F931F93CF93DF9320910B0130910C0195
:1048700040910D0150910E010E94A33820E030E0DC
:1048800040E05FE30E94E33B20E030E040EF52E491
:104890000E94A43823EF34E045EB5FE30E9488399F
:1048A000062F172FD82FC92F26E636E647E752E402
:1048B0000E94A43860931701709318018093190126
:1048C00090931A0120E030E040EF52E4602F712F06
:1048D0008D2F9C2F0E94A4386093130170931401B4
:1048E0008093150190931601DF91CF911F910F9145
:1048F0000895CF92DF92EF92FF926B017C015EDE12
:10490000C701B60174DEC701B601C1DEC701B60139
:10491000E4DEC701B6012BDFC701B6017CDFC701AA
:10492000B6019EDFFF90EF90DF90CF9008955091F9
:104930003701409138013091390120913A01652FBA
:10494000742F832F922F0895509133014091340199
:104950003091350120913601652F742F832F922FCE
:10496000089550910F014091100130911101209153
:104970001201652F742F832F922F089550915E1985
:1049800040915F193091601920916119652F742F42
:10499000832F922F089550910B0140910C0130917B
:1049A0000D0120910E01652F742F832F922F0895F2
:1049B0004F925F926F927F928F929F92AF92BF922F
:1049C000CF92DF92EF92FF920F931F9349015A010A
:1049D000670178019B01AC010E94E33B2B013C0184
:1049E000A5019401C501B4010E94E33B9B01AC0108
:1049F000C301B2010E94A4380E94503C20E030E084
:104A000048E552E40E94A338862E972EA82EB92E90
:104A1000A7019601C701B6010E94E33B6B017C012F
:104A2000282D392D4A2D5B2D682D792D8A2D9B2D12
:104A30000E94E33B9B01AC01C701B6010E94A43870
:104A40000E94503C60936A1970936B1980936C19A3
:104A500090936D191F910F91FF90EF90DF90CF9081
:104A6000BF90AF909F908F907F906F905F904F908E
:104A70000895CF92DF92EF92FF926B017C01CA0101
:104A8000B901A70196010E9488390E945939262F41
:104A9000372F462F572F682F792F40936E19509339
:104AA0006F196093701970937119622F732FFF90B3
:104AB000EF90DF90CF90089560916A1970916B1913
:104AC00080916C1990916D199B01AC010E94E33BA0
:104AD0009B01AC0160E072E38BEA96E40E94A3388C
:104AE00020E030E34AE856E40E9488390E94953875
:104AF0009B01AC016BED7FE089E490E40E94A33858
:104B0000262F372F462F572F682F792F4093721952
:104B1000509373196093741970937519622F732FE2
:104B200008954F925F926F927F928F929F92AF9271
:104B3000BF92CF92DF92EF92FF922B013C01C09087
:104B40006A19D0906B19E0906C19F0906D19A7015B
:104B50009601C701B6010E94E33B20E03CE14AE434
:104B600056E40E94A3384B015C0120E030E046E0AF
:104B700053E4C701B6010E94E33B9B01AC01C501B0
:104B8000B4010E9488390E9495384B015C01A7014D
:104B90009601C301B2010E9488390E9408399B0125
:104BA000AC01C501B4010E94A438262F372F462F2F
:104BB000572F682F792F4093761950937719609368
:104BC000781970937919622F732FFF90EF90DF900F
:104BD000CF90BF90AF909F908F907F906F905F909D
:104BE0004F9008958F929F92AF92BF92CF92DF9293
:104BF000EF92FF9249015A0120913701309138011B
:104C00004091390150913A010E94A43826E636E6D7
:104C100047E752E40E94A43823EF34E045EB5FEB12
:104C20000E9488396B017C0120913301309134015D
:104C30004091350150913601C501B4010E94A4385C
:104C400020E030E040EF52E40E94A33823EF34E04C
:104C500045EB5FE30E9488399B01AC01C701B601B7
:104C60000E94A438FF90EF90DF90CF90BF90AF905C
:104C70009F908F9008958F929F92AF92BF92CF9204
:104C8000DF92EF92FF9249015A0120913701309152
:104C900038014091390150913A010E94A43826E62A
:104CA00036E647E752E40E94A43823EF34E045EBB0
:104CB0005FEB0E9488396B017C01209133013091B8
:104CC00034014091350150913601C501B4010E9473
:104CD000A43820E030E040EF52E40E94A33823EFF4
:104CE00034E045EB5FEB0E9488399B01AC01C701C2
:104CF000B6010E94A438FF90EF90DF90CF90BF9054
:104D0000AF909F908F90089520912F0130913001A6
:104D100040913101509132010E94A43820E030E0EE
:104D200048EC52E40E94A438DC01CB01B058682F53
:104D3000792F8A2F9B2F089520916619309167193A
:104D400040916819509169190E94A438DC01CB0187
:104D5000B058682F792F8A2F9B2F08958F929F929A
:104D6000AF92BF92CF92DF92EF92FF9249015A0128
:104D700020912B0130912C0140912D0150912E0159
:104D80000E94A43826E636E647E752E40E94A4389B
:104D900023EF34E045EB5FEB0E9488396B017C0127
:104DA00020912701309128014091290150912A0139
:104DB000C501B4010E94A43820E030E040EF52E485
:104DC0000E94A43823EF34E045EB5FE30E9488396A
:104DD0009B01AC01C701B6010E94A338FF90EF9080
:104DE000DF90CF90BF90AF909F908F9008958F925B
:104DF0009F92AF92BF92CF92DF92EF92FF924901C2
:104E00005A0120912B0130912C0140912D0150919C
:104E10002E010E94A43826E636E647E752E40E94B7
:104E2000A43823EF34E045EB5FE30E9488396B013F
:104E30007C01209127013091280140912901509156
:104E40002A01C501B4010E94A43820E030E040EFFF
:104E500052E40E94A43823EF34E045EB5FEB0E945C
:104E600088399B01AC01C701B6010E94A438FF90AC
:104E7000EF90DF90CF90BF90AF909F908F9008956C
:104E80008F929F92AF92BF92CF92DF92EF92FF925A
:104E900049015A01209123013091240140912501BB
:104EA000509126010E94A43826E636E647E752E4F0
:104EB0000E94A33823EF34E045EB5FE30E9488397A
:104EC0006B017C0120911F01309120014091210153
:104ED00050912201C501B4010E94A43820E030E0C5
:104EE00040EF52E40E94A43823EF34E045EB5FE347
:104EF0000E9488399B01AC01C701B6010E94A3380A
:104F0000FF90EF90DF90CF90BF90AF909F908F90E9
:104F100008958F929F92AF92BF92CF92DF92EF92BD
:104F2000FF9249015A0120912301309124014091BF
:104F30002501509126010E94A43826E636E647E76F
:104F400052E40E94A33823EF34E045EB5FE30E9474
:104F500088396B017C0120911F0130912001409123
:104F6000210150912201C501B4010E94A43820E022
:104F700030E040EF52E40E94A43823EF34E045EBE8
:104F80005FE30E9488399B01AC01C701B6010E9412
:104F9000A438FF90EF90DF90CF90BF90AF909F909C
:104FA0008F90089520911B0130911C0140911D01AB
:104FB00050911E010E94A43820E030E048EC52E4F9
:104FC0000C94A338209162193091631940916419AF
:104FD000509165190C94A4388F929F92AF92BF9212
:104FE000CF92DF92EF92FF9249015A01209117016F
:104FF000309118014091190150911A010E94A43872
:1050000026E636E647E752E40E94A33823EF34E071
:1050100045EB5FE30E9488396B017C01209113010D
:10502000309114014091150150911601C501B40150
:105030000E94A43820E030E040EF52E40E94A33800
:1050400023EF34E045EB5FE30E9488399B01AC011C
:10505000C701B6010E94A438FF90EF90DF90CF9077
:10506000BF90AF909F908F9008958F929F92AF9234
:10507000BF92CF92DF92EF92FF9249015A012091A5
:105080001701309118014091190150911A010E94A5
:10509000A43826E636E647E752E40E94A33823EF19
:1050A00034E045EB5FEB0E9488396B017C01209175
:1050B0001301309114014091150150911601C50161
:1050C000B4010E94A43820E030E040EF52E40E9496
:1050D000A33823EF34E045EB5FE30E9488399B015E
:1050E000AC01C701B6010E94A438FF90EF90DF9099
:1050F000CF90BF90AF909F908F90089528E6FC01CD
:1051000020830895462F69E1FC018081CAC90F936D
:10511000062F23E045E06AE1FC018081D1D90F919F
:1051200008950F93062F23E042E06AE1FC0180819D
:10513000C7D90F9108950F93062F22E044E06BE149
:10514000FC018081BDD90F910895462F6FE1FC01CC
:105150008081A7C9462F60E2FC018081A2C9462F49
:1051600061E2FC0180819DC9462F62E2FC018081E1
:1051700098C9643038F4262F220F620F6B5DFC0152
:1051800080818FC90895462F68E3FC01808189C919
:10519000CF93DF93EC012091090130910A01AC011A
:1051A0004F5F5F4F6AE38881A3D88981DF91CF91F8
:1051B0000895262F46E06AE6FC018081C6C9262FA5
:1051C00045E06AE6FC018081C0C921E042E06AE670
:1051D000FC018081BAC921E041E06AE6FC018081DE
:1051E000B4C921E047E06BE6FC018081AEC9262FFF
:1051F00046E06BE6FC018081A8C90F93062F23E0EF
:1052000042E06BE6FC0180815BD90F9108950F931A
:105210001F93CF93DF93EC010091090110910A01D4
:105220009C012F5F3F4F42E062E788811BD8998144
:1052300080E02A81AC01422B9A01822F932FDF91CB
:10524000CF911F910F9108950F931F934115510511
:1052500079F00091090110910A014038510510F0D0
:105260004FE750E09B0164E7FC0180810E943221FE
:105270001F910F9108950F931F93CF93DF93EC012C
:105280000091090110910A019C012F5F3F4F40E0FE
:1052900060E0888175D88981DF91CF911F910F914E
:1052A0000895262F40E060E0FC0180814EC9EF9216
:1052B000FF920F931F93CF93DF93EC01E0900901CE
:1052C000F0900A018C010F5F1F4F26E046E060E07E
:1052D000888117D88981DF91CF911F910F91FF901D
:1052E000EF9008950F93062F26E046E060E0FC0162
:1052F0008081E6D80F910895EF92FF920F931F934C
:10530000CF93DF93EC01E0900901F0900A018C014A
:105310000F5F1F4F26E046E061E088810E948121F7
:105320008981DF91CF911F910F91FF90EF900895A8
:105330000F93062F26E046E061E0FC018081C0D893
:105340000F910895EF92FF920F931F93CF93DF93E6
:10535000EC01E0900901F0900A018C010F5F1F4FF2
:1053600026E046E062E088810E9481218981DF9108
:10537000CF911F910F91FF90EF9008950F93062FFB
:1053800026E046E062E0FC0180819AD80F91089502
:10539000AB016AE0FC0180814FC8AB0163E1FC0115
:1053A00080814AC8AB0165E1FC01808145C8AB0141
:1053B00067E1FC01808140C8262F47E06AE6FC01D6
:1053C0008081C3C821E043E06AE6FC018081BDC85A
:1053D0006F712111606241116064462F6DE6FC011E
:1053E00080815FC8462F6EE6FC0180815AC8CF934A
:1053F000DF93EC012091090130910A01AC014F5F6C
:105400005F4F6FE688810E9478218981DF91CF917B
:1054100008954F925F926F927F928F929F92AF9278
:10542000BF92CF92DF92EF92FF920F931F93CF9391
:10543000DF936C015B017A01522E602E20E040E088
:10544000652DC6DF602FC601CDDFE114F104C9F17F
:10545000C0E0D0E06894442444F8812C99249394CB
:10546000CE014096E816F90618F47E2C7C1A01C08D
:10547000742C272D30E0C4018619910982179307F7
:1054800014F4762C71940091090110910A01950190
:105490002C0F3D1F472D6FE6F60180810E943221BF
:1054A000C70DD11DCE15DF0560F4670C09F45394C8
:1054B00020E040E0652DC6018BDF662DC60192DF3E
:1054C000CFCFDF91CF911F910F91FF90EF90DF90A1
:1054D000CF90BF90AF909F908F907F906F905F9094
:1054E0004F9008952F923F924F925F926F927F92CA
:1054F0008F929F92AF92BF92CF92DF92EF92FF92E4
:105500000F931F93CF93DF9300D000D01F92CDB79E
:10551000DEB74C012B013A012983D02EEB82CA82DF
:1055200020E040E0698154DF602FC4015BDFEB8045
:10553000EE2031F080E190E00E94D93C282E392EF7
:105540008A81882331F080E190E00E94D93CA82E26
:10555000B92E6114710409F480C01D821C82E12CF3
:10556000FF24F3948C819D8140966816790620F47F
:10557000C62C9C81C91A03C06894CC24C4F82C2D75
:1055800030E0C7018D1991098217930714F4CD2CCF
:10559000C194EA81EE2389F0CC2099F0EC81FD8161
:1055A000E40DF51D9A2DAA2DBB2D84918D93319676
:1055B0008A2F891B8C15C8F304C0AC80BD80A40C55
:1055C000B51C95014C2D6FE6F40180810E942D22BF
:1055D000FB81FF2359F12114310441F120E040E027
:1055E0006981C401F5DE6D2DC401FCDE0091090165
:1055F00010910A0191014C2D6FE6F40180810E9407
:1056000032214C2D50E0B101C5010E94F23E282FFD
:10561000392F232B59F0C1010E94743DFA81FF23D9
:1056200051F1C5010E94743D80E028C08C819D81AC
:105630008C0D911D9D838C838615970570F4DC0C71
:1056400019F499819F5F998320E040E06981C4014A
:10565000BFDE6D2DC401C6DE85CFEB81EE2319F0D0
:10566000C1010E94743DFA81FF2339F0C5010E94F7
:10567000743D81E003C080E001C081E00F900F9095
:105680000F900F900F90DF91CF911F910F91FF908E
:10569000EF90DF90CF90BF90AF909F908F907F90D2
:1056A0006F905F904F903F902F900895CF92EF9220
:1056B0000F93CC24C39416DF0F91EF90CF900895F1
:1056C0002F923F924F925F926F927F928F929F9212
:1056D000AF92BF92CF92EF92FF920F931F93CF930F
:1056E000DF931C01EB012A01122F222309F47CC055
:1056F00088E090E00E94D93C682E792E75C0812CFC
:10570000912C1123A9F0FE01E80DF91DE490F4019C
:105710003196EC0FFD1FF490540183E0A80EB11CEC
:10572000F4013296EC0FFD1F0491011175C03DC0CC
:10573000FE01E80DF91D208101818281540193E071
:10574000A90EB11C811164C038C0602F70E0C30184
:105750000E94133E682E792E202F30E0211531054E
:1057600099F0D30180E090E0AE014A0D5B1DFA0193
:10577000E80FF91FE491ED93019682179307B8F3B0
:10578000802F0F2D2E2D03C0802F0F2D2E2D882E14
:10579000912CC12CEE24E394A401B301C101A2DE3B
:1057A0008A0C9B1C811125C018C0E4E08E0E911C50
:1057B000FE01EA0DFB1D849107C0FE01EA0DFB1DF1
:1057C0008081F4E08F0E911C813039F442E368E36C
:1057D000F10180810E9451220CC01123A9F0C30164
:1057E0000E94743D80E01CC04114510409F087CF31
:1057F00004C08414950408F484CF112339F0C30144
:105800000E94743D81E00CC080E00AC081E008C0C5
:105810003E016A0C7B1CBBCF033008F49DCF95CFB3
:10582000DF91CF911F910F91FF90EF90CF90BF909C
:10583000AF909F908F907F906F905F904F903F9030
:105840002F90089521E03CCF462F60E7FC01808136
:105850000C945122462F61E7FC0180810C94512267
:105860008F929F92AF92BF92CF92EF920F931F931E
:10587000CF93DF93CDB7DEB7C059D1090FB6F894F7
:10588000DEBF0FBECDBF5C01ACDC2FEF86E791E041
:10589000215080409040E1F700C0000060E0C50169
:1058A000A6DC21E041E060E1C50192DD66E0C501D2
:1058B00099DDC5019CDD20E040E060E0C50188DDA8
:1058C000C501D9DCC501F3DC182FC50115DD882E13
:1058D000C50138DD982E4FE760E0C5014ADC60E085
:1058E000C5016DDC48E660E0C50143DCC50173DC41
:1058F000EFEFF9EF20E0E150F0402040E1F700C089
:105900000000EE24E39400E020E049E857E063E182
:1059100071E0C501CBDE882309F4E7C140EC50E01B
:105920006CE978E0C5018EDF882309F4E0C163E00B
:10593000C50163DC62E1C50126DC64E0C501E2DB90
:1059400061E0C501E4DB63E0C501EBDB63E0C501B9
:10595000F2DB63E0C50178DF60E0C5017BDF60E07A
:10596000C5019FDC612FC501BDDC682DC501E0DCF0
:10597000692DC50103DD812C912C0EC0F401E45A80
:10598000F64FE491A1E8B0E0AC0FBD1FA80DB11D2A
:10599000EC938FEF881A980A93E0981578F7CD5713
:1059A000DF4F4881C358D04094013327842F90E0C3
:1059B00003962817390714F361E870E06C0F7D1F18
:1059C0006D5F7F4FC12CEE24E394CE57DF4F0881EB
:1059D000C258D040CF57DF4F2881C158D04050E047
:1059E000C50180DD50E0F401E45AF64FE491A1E8EE
:1059F000B0E0AC0FBD1FA50FB11DEC935F5FEFEFE3
:105A00008E1A9E0A543078F3CD57DF4F4881C35821
:105A1000D040252F30E0842F90E0039628173907D7
:105A200014F361E870E06C0F7D1F6D5F7F4FC12C38
:105A3000EE24E394CE57DF4F0881C258D040CF57B1
:105A4000DF4F2881C158D04050E0C5014BDDC50172
:105A5000BCDBC501DCDBAC01BE016F5F7F4FC50164
:105A6000F3DB62E0C50171DB6CE9C50178DB60E561
:105A7000C50170DB60E0C50177DBC501A6DB61E035
:105A8000C50197DB61E0C50197DCC5019BDC50E0F7
:105A9000F401E45AF64FE491A1E8B0E0AC0FBD1F69
:105AA000A50FB11DEC935F5FFFEF8F1A9F0A543073
:105AB00078F3CD57DF4F4881C358D040252F30E0D1
:105AC000842F90E003962817390714F361E870E0FB
:105AD0006C0F7D1F6D5F7F4FC12CEE24E394CE577A
