S01A000073657269616C536572766F436F6E74726F6C2E737265639A
S113000045C0000053C0000051C000004FC00000B4
S11300104DC000004BC0000049C0000047C00000B4
S113002045C0000043C0000041C000003FC00000C4
S11300303DC000003BC0000039C0000037C00000D4
S113004035C0000033C0000031C000002FC00000E4
S11300502DC000002BC0000029C0000027C00000F4
S113006025C0000023C0000021C000001FC0000004
S11300701DC000001BC0000019C0000017C0000014
S113008015C0000013C0000011C0000011241FBEE1
S1130090CFEFD0E4DEBFCDBF22E0A0E0B1E001C0ED
S11300A01D92A030B207E1F773D08EC0A9CF109291
S11300B0CD001092CC0088E18093C90086E0809343
S11300C0CA00549A08958091C80080720895CF930D
S11300D0C82FF9DF8823E9F3C093CE00CF910895A8
S11300E00F931F93CF93DF939FEF9093000190930F
S11300F0010180930201842F8E5F8093030160933A
S113010004014423C1F1E0E8F1E0A5E0B1E083504B
S113011090E08F579E4F21912D93E817F907D9F757
S11301204A5F242F30E0215031092330310534F562
S113013082E090E060E00BC0FC01E050FF4F808162
S1130140680F5F5F852F90E082179307ACF3FC0183
S1130150E050FF4F609560834423A9F0C0E0D1E0F4
S11301604150042F10E00F5F1E4F8991B0DFC0177C
S1130170D107D9F708C025E030E046E082E090E0FE
S113018060E052E0D9CFDF91CF911F910F91089594
S11301908EDF5C988EE1809380011092810182E071
S11301A080938201109283018093840145E063E08F
S11301B085E096DF2FEF89E698E12150804090405A
S10F01C0E1F700C00000F2CFF894FFCF7C
S9030000FC
