:1000000045C0000053C0000051C000004FC00000B8
:100010004DC000004BC0000049C0000047C00000B8
:1000200045C0000043C0000041C000003FC00000C8
:100030003DC000003BC0000039C0000037C00000D8
:1000400035C0000033C0000031C000002FC00000E8
:100050002DC000002BC0000029C0000027C00000F8
:1000600025C0000023C0000021C000001FC0000008
:100070004DC300001BC0000019C0000017C00000E5
:1000800015C0000013C0000011C0000011241FBEE5
:10009000CFEFD0E4DEBFCDBF23E0A0E0B1E001C0F0
:1000A0001D92A630B207E1F7E6D053C5A9CF109252
:1000B000CD001092CC0088E98093C90086E080933F
:1000C000CA00549A08958091C80080720895CF9311
:1000D000C82FF9DF8823E9F3C093CE00CF910895AC
:1000E0000F931F93CF93DF939FEF9093060290930C
:1000F000070280930802842F8E5F80930902609329
:100100000A024423C1F1E6E8F2E0ABE0B2E083503A
:1001100090E089579D4F21912D93E817F907D9F762
:100120004A5F242F30E0215031092330310534F566
:1001300082E090E060E00BC0FC01EA5FFD4F80814F
:10014000680F5F5F852F90E082179307ACF3FC0187
:10015000EA5FFD4F609560834423A9F0C6E0D2E0DA
:100160004150042F10E0095F1D4F8991B0DFC01787
:10017000D107D9F708C025E030E046E082E090E002
:1001800060E052E0D9CFDF91CF911F910F91089598
:100190009F92AF92BF92CF92DF92EF92FF920F9316
:1001A0001F93CF93DF93C82FCB01BA01122FD32F08
:1001B00020E030E046E153E469D426E53EE049E43E
:1001C00050E457D320E030E046E153E4EAD2962EE3
:1001D000E72EF82E092FA62EB72EC82ED92E20E0F6
:1001E00030E046E953E44ED418165CF020E030E0ED
:1001F000A901692D7E2D8F2D902F37D3882384F46C
:100200000BC0A12CB12C0F2EF6E9CF2EF02D0F2E06
:10021000F3E4DF2EF02D04C0A12CB12CC12CD12C85
:1002200020E030EC4FE754E46A2D7B2D8C2D9D2D82
:100230002DD420E030E046E953E41BD382D3262FAF
:100240009EE1909386022093870270938802109318
:100250008902D0938A0245E063E08C2F41DFDF9171
:10026000CF911F910F91FF90EF90DF90CF90BF90B3
:10027000AF909F900895559A1ADF5C988EE1809315
:1002800086021092870282E080938802109289028F
:1002900080938A0243E063E08EEF22DF26E930E0BC
:1002A00040E050E0BA0181E073DF26E930E040E051
:1002B00050E0BA0182E06CDF26E930E040E050E037
:1002C000BA0187E065DF26E930E040E050E0BA019E
:1002D00088E05EDF26E930E040E050E0BA018DE0E2
:1002E00057DF26E930E040E050E0BA018EE050DF11
:1002F0002FEF81EE94E0215080409040E1F700C064
:10030000000026E930E046E55EE069E47FEB8FE03F
:100310003FDF26E930E046E55EE069E47FEB83E01D
:1003200037DF26E930E046E55EE069E47FEB89E00F
:100330002FDF26E930E046E55EE069E47FE380E117
:1003400027DF26E930E046E55EE069E47FE384E00C
:100350001FDF26E930E046E55EE069E47FE38AE0FE
:1003600017DF2FEF81EE94E0215080409040E1F7BD
:1003700000C0000026E930E047E357EC66EB7FEB76
:100380008CE006DF26E930E047E357EC66EB7FEBD5
:1003900082E1FEDE26E930E047E357EC66EB7FEBD7
:1003A00086E0F6DE26E930E047E357EC66EB7FE3D4
:1003B00085E0EEDE26E930E047E357EC66EB7FE3CD
:1003C0008BE0E6DE26E930E047E357EC66EB7FE3BF
:1003D00081E1DEDE2FEF83E294EF215080409040F8
:1003E000E1F700C000002FEF87EA91E6215080403E
:1003F0009040E1F700C000005D9A26E930E042EC51
:1004000053E867EA7FEB89E0C3DE26E930E042EC9F
:1004100053E867EA7FE380E1BBDE26E930E042ECA7
:1004200053E867EA7FEB83E0B3DE2FEF83ED90E3E1
:10043000215080409040E1F700C0000026E930E004
:100440004DE259EF65E07FE387E0A2DE26E930E088
:100450004DE259EF65E07FE381E09ADE26E930E086
:100460004DE259EF65E07FE38EE092DE2FEF83ED02
:1004700090E3215080409040E1F700C0000026E961
:1004800030E046E55EE069E47FEB89E081DE26E965
:1004900030E046E55EE069E47FE380E179DE26E96D
:1004A00030E046E55EE069E47FEB83E071DE2FEF4C
:1004B00083ED90E3215080409040E1F700C00000C0
:1004C0008BB11BB826E930E042EC53E867EA7FE3E2
:1004D0008AE05EDE26E930E042EC53E867EA7FEB33
:1004E0008FE056DE26E930E042EC53E867EA7FE32E
:1004F00084E04EDE2FEF83ED90E32150804090406A
:10050000E1F700C0000026E930E04DE259EF65E078
:100510007FE382E03DDE26E930E04DE259EF65E021
:100520007FE388E035DE26E930E04DE259EF65E013
:100530007FE38DE02DDE2FEF83ED90E321508040AF
:100540009040E1F700C0000026E930E046E55EE0BB
:1005500069E47FE38AE01CDE26E930E046E55EE000
:1005600069E47FEB8FE014DE26E930E046E55EE0EB
:1005700069E47FE384E00CDE2FEF83ED90E321500C
:1005800080409040E1F700C000005D9A26E930E02D
:1005900042EC53E867EA7FEB89E0FADD26E930E0D8
:1005A00042EC53E867EA7FE380E1F2DD26E930E0E0
:1005B00042EC53E867EA7FEB83E0EADD2FEF83ED5F
:1005C00090E3215080409040E1F700C0000026E910
:1005D00030E04DE259EF65E07FEB82E0D9DD26E9BE
:1005E00030E04DE259EF65E07FEB88E0D1DD26E9B0
:1005F00030E04DE259EF65E07FEB8DE0C9DD2FEF94
:1006000083ED90E3215080409040E1F700C000006E
:1006100026E930E046E55EE069E47FEB89E0B8DD9D
:1006200026E930E046E55EE069E47FE380E1B0DDA5
:1006300026E930E046E55EE069E47FEB83E0A8DD93
:100640002FEF83ED90E3215080409040E1F700C010
:1006500000008BB11BB826E930E042EC53E867EAB2
:100660007FE38AE095DD26E930E042EC53E867EA73
:100670007FEB8FE08DDD26E930E042EC53E867EA5E
:100680007FE384E085DD2FEF83ED90E32150804010
:100690009040E1F700C0000026E930E04DE259EF5C
:1006A00065E07FEB81E074DD26E930E04DE259EF53
:1006B00065E07FEB87E06CDD26E930E04DE259EF45
:1006C00065E07FEB8EE064DD2FEF83ED90E321505A
:1006D00080409040E1F700C0000026E930E046E5A8
:1006E0005EE069E47FE38AE053DD26E930E046E539
:1006F0005EE069E47FEB8FE04BDD26E930E046E524
:100700005EE069E47FE384E043DD6DCE1F920F92EB
:100710000FB60F9211248F939F939091CE009F3F1D
:1007200071F480910101811104C081E08093010185
:1007300030C0813071F582E0809301012AC0809140
:100740000101823031F49093020183E08093010132
:1007500020C0833041F4909303019093000184E022
:100760008093010116C0843059F49093040186E00F
:10077000809301018091000181508093000109C0A4
:10078000863039F480910001823019F487E080933B
:1007900001019F918F910F900FBE0F901F901895A0
:1007A0005058BB27AA270ED033C124D130F029D10D
:1007B00020F031F49F3F11F41EF419C10EF4E095BE
:1007C000E7FB0FC1E92F35D180F3BA176207730732
:1007D0008407950718F071F49EF54DC10EF4E0956D
:1007E0000B2EBA2FA02D0B01B90190010C01CA01EB
:1007F000A0011124FF27591B99F0593F50F4503E96
:1008000068F11A16F040A22F232F342F4427585F87
:10081000F3CF469537952795A795F0405395C9F79F
:100820007EF41F16BA0B620B730B840BBAF0915057
:10083000A1F0FF0FBB1F661F771F881FC2F70EC0F6
:10084000BA0F621F731F841F48F4879577956795C9
:10085000B795F7959E3F08F0B3CF9395880F08F0B2
:100860009927EE0F97958795089597D008F481E022
:1008700008950CD0CDC0C5D040F0BCD030F021F4EC
:100880005F3F19F0AEC05111F7C0B1C0D2D098F39C
:100890009923C9F35523B1F3951B550BBB27AA2701
:1008A00062177307840738F09F5F5F4F220F331F73
:1008B000441FAA1FA9F333D00E2E3AF0E0E830D03F
:1008C00091505040E695001CCAF729D0FE2F27D042
:1008D000660F771F881FBB1F261737074807AB0710
:1008E000B0E809F0BB0B802DBF01FF2793585F4F85
:1008F0002AF09E3F510568F074C0BEC05F3FECF324
:10090000983EDCF3869577956795B795F7959F5F49
:10091000C9F7880F911D9695879597F90895E1E09D
:10092000660F771F881FBB1F621773078407BA07FC
:1009300020F0621B730B840BBA0BEE1F88F7E09557
:1009400008957FD088F09F5790F0B92F9927B7511D
:10095000A0F0D1F0660F771F881F991F1AF0BA9583
:10096000C9F712C0B13081F086D0B1E0089583C0DC
:10097000672F782F8827B85F39F0B93FCCF3869579
:1009800077956795B395D9F73EF4909580957095D6
:1009900061957F4F8F4F9F4F0895990F0008550F16
:1009A000AA0BE0E8FEEF16161706E807F907C0F0F5
:1009B00012161306E407F50798F0621B730B840BFD
:1009C000950B39F40A2661F0232B242B252B21F4D7
:1009D00008950A2609F4A140A6958FEF811D811D77
:1009E000089597F99F6780E870E060E008959FEFB1
:1009F00080EC089500240A941616170618060906B6
:100A0000089500240A941216130614060506089584
:100A1000092E0394000C11F4882352F0BB0F40F40C
:100A2000BF2B11F460FF04C06F5F7F4F8F4F9F4F4C
:100A3000089557FD9058440F551F59F05F3F71F0CE
:100A40004795880F97FB991F61F09F3F79F0879535
:100A50000895121613061406551FF2CF4695F1DFBE
:100A600008C0161617061806991FF1CF869571054E
:100A7000610508940895E894BB2766277727CB0182
:100A800097F908958ADF08F48FEF08950BD0C0CF4F
:100A9000B1DF28F0B6DF18F0952309F0A2CFA7CF79
:100AA0001124EACFC6DFA0F3959FD1F3950F50E054
:100AB000551F629FF001729FBB27F00DB11D639F10
:100AC000AA27F00DB11DAA1F649F6627B00DA11DB6
:100AD000661F829F2227B00DA11D621F739FB00D5C
:100AE000A11D621F839FA00D611D221F749F3327CC
:100AF000A00D611D231F849F600D211D822F762F65
:100B00006A2F11249F5750408AF0E1F088234AF061
:100B1000EE0FFF1FBB1F661F771F881F91505040AD
:100B2000A9F79E3F510570F05CCFA6CF5F3FECF375
:100B3000983EDCF3869577956795B795F795E79599
:100B40009F5FC1F7FE2B880F911D9695879597F9AA
:060B50000895F894FFCFA8
:00000001FF
